{"abi":[{"type":"constructor","inputs":[{"name":"_entryPoint","type":"address","internalType":"contract IEntryPoint"},{"name":"_verifyingSigner","type":"address","internalType":"address"}],"stateMutability":"nonpayable"},{"type":"function","name":"COST_OF_POST","inputs":[],"outputs":[{"name":"","type":"uint256","internalType":"uint256"}],"stateMutability":"view"},{"type":"function","name":"DEFAULT_GLOBAL_DAILY_CAP","inputs":[],"outputs":[{"name":"","type":"uint256","internalType":"uint256"}],"stateMutability":"view"},{"type":"function","name":"DEFAULT_USER_DAILY_GAS_LIMIT","inputs":[],"outputs":[{"name":"","type":"uint256","internalType":"uint256"}],"stateMutability":"view"},{"type":"function","name":"MAX_REQUESTS_PER_WINDOW","inputs":[],"outputs":[{"name":"","type":"uint256","internalType":"uint256"}],"stateMutability":"view"},{"type":"function","name":"RATE_LIMIT_WINDOW","inputs":[],"outputs":[{"name":"","type":"uint256","internalType":"uint256"}],"stateMutability":"view"},{"type":"function","name":"acceptOwnership","inputs":[],"outputs":[],"stateMutability":"nonpayable"},{"type":"function","name":"addStake","inputs":[{"name":"unstakeDelaySec","type":"uint32","internalType":"uint32"}],"outputs":[],"stateMutability":"payable"},{"type":"function","name":"batchSetUserDailyGasLimit","inputs":[{"name":"_users","type":"address[]","internalType":"address[]"},{"name":"_limit","type":"uint256","internalType":"uint256"}],"outputs":[],"stateMutability":"nonpayable"},{"type":"function","name":"batchSetWhitelistStatus","inputs":[{"name":"_users","type":"address[]","internalType":"address[]"},{"name":"_status","type":"bool","internalType":"bool"}],"outputs":[],"stateMutability":"nonpayable"},{"type":"function","name":"deposit","inputs":[],"outputs":[],"stateMutability":"payable"},{"type":"function","name":"emergencyPause","inputs":[{"name":"reason","type":"string","internalType":"string"}],"outputs":[],"stateMutability":"nonpayable"},{"type":"function","name":"emergencyUnpause","inputs":[],"outputs":[],"stateMutability":"nonpayable"},{"type":"function","name":"entryPoint","inputs":[],"outputs":[{"name":"","type":"address","internalType":"contract IEntryPoint"}],"stateMutability":"view"},{"type":"function","name":"getDeposit","inputs":[],"outputs":[{"name":"","type":"uint256","internalType":"uint256"}],"stateMutability":"view"},{"type":"function","name":"getDepositBalance","inputs":[],"outputs":[{"name":"","type":"uint256","internalType":"uint256"}],"stateMutability":"view"},{"type":"function","name":"getGlobalRemainingDailyCap","inputs":[],"outputs":[{"name":"","type":"uint256","internalType":"uint256"}],"stateMutability":"view"},{"type":"function","name":"getUserRateLimitStatus","inputs":[{"name":"_user","type":"address","internalType":"address"}],"outputs":[{"name":"requestsRemaining","type":"uint256","internalType":"uint256"},{"name":"nextResetTime","type":"uint256","internalType":"uint256"}],"stateMutability":"view"},{"type":"function","name":"getUserRemainingDailyGas","inputs":[{"name":"_user","type":"address","internalType":"address"}],"outputs":[{"name":"","type":"uint256","internalType":"uint256"}],"stateMutability":"view"},{"type":"function","name":"globalDailyCap","inputs":[],"outputs":[{"name":"","type":"uint256","internalType":"uint256"}],"stateMutability":"view"},{"type":"function","name":"globalSpentToday","inputs":[],"outputs":[{"name":"","type":"uint256","internalType":"uint256"}],"stateMutability":"view"},{"type":"function","name":"isPaused","inputs":[],"outputs":[{"name":"","type":"bool","internalType":"bool"}],"stateMutability":"view"},{"type":"function","name":"isWhitelisted","inputs":[{"name":"","type":"address","internalType":"address"}],"outputs":[{"name":"","type":"bool","internalType":"bool"}],"stateMutability":"view"},{"type":"function","name":"lastGlobalGasReset","inputs":[],"outputs":[{"name":"","type":"uint256","internalType":"uint256"}],"stateMutability":"view"},{"type":"function","name":"lastUserGasReset","inputs":[{"name":"","type":"address","internalType":"address"}],"outputs":[{"name":"","type":"uint256","internalType":"uint256"}],"stateMutability":"view"},{"type":"function","name":"owner","inputs":[],"outputs":[{"name":"","type":"address","internalType":"address"}],"stateMutability":"view"},{"type":"function","name":"paused","inputs":[],"outputs":[{"name":"","type":"bool","internalType":"bool"}],"stateMutability":"view"},{"type":"function","name":"pendingOwner","inputs":[],"outputs":[{"name":"","type":"address","internalType":"address"}],"stateMutability":"view"},{"type":"function","name":"postOp","inputs":[{"name":"mode","type":"uint8","internalType":"enum IPaymaster.PostOpMode"},{"name":"context","type":"bytes","internalType":"bytes"},{"name":"actualGasCost","type":"uint256","internalType":"uint256"},{"name":"actualUserOpFeePerGas","type":"uint256","internalType":"uint256"}],"outputs":[],"stateMutability":"nonpayable"},{"type":"function","name":"renounceOwnership","inputs":[],"outputs":[],"stateMutability":"nonpayable"},{"type":"function","name":"setGlobalDailyCap","inputs":[{"name":"_newCap","type":"uint256","internalType":"uint256"}],"outputs":[],"stateMutability":"nonpayable"},{"type":"function","name":"setUserDailyGasLimit","inputs":[{"name":"_user","type":"address","internalType":"address"},{"name":"_limit","type":"uint256","internalType":"uint256"}],"outputs":[],"stateMutability":"nonpayable"},{"type":"function","name":"setVerifyingSigner","inputs":[{"name":"_newSigner","type":"address","internalType":"address"}],"outputs":[],"stateMutability":"nonpayable"},{"type":"function","name":"setWhitelistStatus","inputs":[{"name":"_user","type":"address","internalType":"address"},{"name":"_status","type":"bool","internalType":"bool"}],"outputs":[],"stateMutability":"nonpayable"},{"type":"function","name":"transferOwnership","inputs":[{"name":"newOwner","type":"address","internalType":"address"}],"outputs":[],"stateMutability":"nonpayable"},{"type":"function","name":"unlockStake","inputs":[],"outputs":[],"stateMutability":"nonpayable"},{"type":"function","name":"userDailyGasLimit","inputs":[{"name":"","type":"address","internalType":"address"}],"outputs":[{"name":"","type":"uint256","internalType":"uint256"}],"stateMutability":"view"},{"type":"function","name":"userLastRequestTime","inputs":[{"name":"","type":"address","internalType":"address"}],"outputs":[{"name":"","type":"uint256","internalType":"uint256"}],"stateMutability":"view"},{"type":"function","name":"userRateLimitWindow","inputs":[{"name":"","type":"address","internalType":"address"}],"outputs":[{"name":"","type":"uint256","internalType":"uint256"}],"stateMutability":"view"},{"type":"function","name":"userRequestCount","inputs":[{"name":"","type":"address","internalType":"address"}],"outputs":[{"name":"","type":"uint256","internalType":"uint256"}],"stateMutability":"view"},{"type":"function","name":"userSpentGasToday","inputs":[{"name":"","type":"address","internalType":"address"}],"outputs":[{"name":"","type":"uint256","internalType":"uint256"}],"stateMutability":"view"},{"type":"function","name":"validatePaymasterUserOp","inputs":[{"name":"userOp","type":"tuple","internalType":"struct PackedUserOperation","components":[{"name":"sender","type":"address","internalType":"address"},{"name":"nonce","type":"uint256","internalType":"uint256"},{"name":"initCode","type":"bytes","internalType":"bytes"},{"name":"callData","type":"bytes","internalType":"bytes"},{"name":"accountGasLimits","type":"bytes32","internalType":"bytes32"},{"name":"preVerificationGas","type":"uint256","internalType":"uint256"},{"name":"gasFees","type":"bytes32","internalType":"bytes32"},{"name":"paymasterAndData","type":"bytes","internalType":"bytes"},{"name":"signature","type":"bytes","internalType":"bytes"}]},{"name":"userOpHash","type":"bytes32","internalType":"bytes32"},{"name":"maxCost","type":"uint256","internalType":"uint256"}],"outputs":[{"name":"context","type":"bytes","internalType":"bytes"},{"name":"validationData","type":"uint256","internalType":"uint256"}],"stateMutability":"nonpayable"},{"type":"function","name":"verifyingSigner","inputs":[],"outputs":[{"name":"","type":"address","internalType":"address"}],"stateMutability":"view"},{"type":"function","name":"withdraw","inputs":[{"name":"_to","type":"address","internalType":"address payable"},{"name":"_amount","type":"uint256","internalType":"uint256"}],"outputs":[],"stateMutability":"nonpayable"},{"type":"function","name":"withdrawStake","inputs":[{"name":"withdrawAddress","type":"address","internalType":"address payable"}],"outputs":[],"stateMutability":"nonpayable"},{"type":"function","name":"withdrawTo","inputs":[{"name":"withdrawAddress","type":"address","internalType":"address payable"},{"name":"amount","type":"uint256","internalType":"uint256"}],"outputs":[],"stateMutability":"nonpayable"},{"type":"event","name":"EmergencyPause","inputs":[{"name":"pausedBy","type":"address","indexed":true,"internalType":"address"},{"name":"reason","type":"string","indexed":false,"internalType":"string"}],"anonymous":false},{"type":"event","name":"EmergencyUnpause","inputs":[{"name":"unpausedBy","type":"address","indexed":true,"internalType":"address"}],"anonymous":false},{"type":"event","name":"GlobalCapUpdated","inputs":[{"name":"newCap","type":"uint256","indexed":false,"internalType":"uint256"}],"anonymous":false},{"type":"event","name":"GlobalDailyCapExceeded","inputs":[],"anonymous":false},{"type":"event","name":"OwnershipTransferStarted","inputs":[{"name":"previousOwner","type":"address","indexed":true,"internalType":"address"},{"name":"newOwner","type":"address","indexed":true,"internalType":"address"}],"anonymous":false},{"type":"event","name":"OwnershipTransferred","inputs":[{"name":"previousOwner","type":"address","indexed":true,"internalType":"address"},{"name":"newOwner","type":"address","indexed":true,"internalType":"address"}],"anonymous":false},{"type":"event","name":"Paused","inputs":[{"name":"account","type":"address","indexed":false,"internalType":"address"}],"anonymous":false},{"type":"event","name":"RateLimitExceeded","inputs":[{"name":"user","type":"address","indexed":true,"internalType":"address"}],"anonymous":false},{"type":"event","name":"Unpaused","inputs":[{"name":"account","type":"address","indexed":false,"internalType":"address"}],"anonymous":false},{"type":"event","name":"UserDailyLimitExceeded","inputs":[{"name":"user","type":"address","indexed":true,"internalType":"address"}],"anonymous":false},{"type":"event","name":"UserGasLimitUpdated","inputs":[{"name":"user","type":"address","indexed":true,"internalType":"address"},{"name":"newLimit","type":"uint256","indexed":false,"internalType":"uint256"}],"anonymous":false},{"type":"event","name":"WhitelistUpdated","inputs":[{"name":"user","type":"address","indexed":true,"internalType":"address"},{"name":"status","type":"bool","indexed":false,"internalType":"bool"}],"anonymous":false},{"type":"error","name":"ECDSAInvalidSignature","inputs":[]},{"type":"error","name":"ECDSAInvalidSignatureLength","inputs":[{"name":"length","type":"uint256","internalType":"uint256"}]},{"type":"error","name":"ECDSAInvalidSignatureS","inputs":[{"name":"s","type":"bytes32","internalType":"bytes32"}]},{"type":"error","name":"EnforcedPause","inputs":[]},{"type":"error","name":"ExpectedPause","inputs":[]},{"type":"error","name":"OwnableInvalidOwner","inputs":[{"name":"owner","type":"address","internalType":"address"}]},{"type":"error","name":"OwnableUnauthorizedAccount","inputs":[{"name":"account","type":"address","internalType":"address"}]}],"bytecode":{"object":"0x60a06040525f600260146101000a81548160ff021916908315150217905550348015610029575f5ffd5b50604051614584380380614584833981810160405281019061004b91906103e8565b81335f73ffffffffffffffffffffffffffffffffffffffff168173ffffffffffffffffffffffffffffffffffffffff16036100bd575f6040517f1e4fbdf70000000000000000000000000000000000000000000000000000000081526004016100b49190610435565b60405180910390fd5b6100cc8161017e60201b60201c565b506100dc816101b460201b60201c565b8073ffffffffffffffffffffffffffffffffffffffff1660808173ffffffffffffffffffffffffffffffffffffffff1681525050506101203361017e60201b60201c565b8060025f6101000a81548173ffffffffffffffffffffffffffffffffffffffff021916908373ffffffffffffffffffffffffffffffffffffffff160217905550683635c9adc5dea00000600681905550426008819055505050610579565b60015f6101000a81549073ffffffffffffffffffffffffffffffffffffffff02191690556101b18161028e60201b60201c565b50565b8073ffffffffffffffffffffffffffffffffffffffff166301ffc9a77f989ccc58000000000000000000000000000000000000000000000000000000006040518263ffffffff1660e01b815260040161020d9190610488565b602060405180830381865afa158015610228573d5f5f3e3d5ffd5b505050506040513d601f19601f8201168201806040525081019061024c91906104d6565b61028b576040517f08c379a00000000000000000000000000000000000000000000000000000000081526004016102829061055b565b60405180910390fd5b50565b5f5f5f9054906101000a900473ffffffffffffffffffffffffffffffffffffffff169050815f5f6101000a81548173ffffffffffffffffffffffffffffffffffffffff021916908373ffffffffffffffffffffffffffffffffffffffff1602179055508173ffffffffffffffffffffffffffffffffffffffff168173ffffffffffffffffffffffffffffffffffffffff167f8be0079c531659141344cd1fd0a4f28419497f9722a3daafe3b4186f6b6457e060405160405180910390a35050565b5f5ffd5b5f73ffffffffffffffffffffffffffffffffffffffff82169050919050565b5f61037c82610353565b9050919050565b5f61038d82610372565b9050919050565b61039d81610383565b81146103a7575f5ffd5b50565b5f815190506103b881610394565b92915050565b6103c781610372565b81146103d1575f5ffd5b50565b5f815190506103e2816103be565b92915050565b5f5f604083850312156103fe576103fd61034f565b5b5f61040b858286016103aa565b925050602061041c858286016103d4565b9150509250929050565b61042f81610372565b82525050565b5f6020820190506104485f830184610426565b92915050565b5f7fffffffff0000000000000000000000000000000000000000000000000000000082169050919050565b6104828161044e565b82525050565b5f60208201905061049b5f830184610479565b92915050565b5f8115159050919050565b6104b5816104a1565b81146104bf575f5ffd5b50565b5f815190506104d0816104ac565b92915050565b5f602082840312156104eb576104ea61034f565b5b5f6104f8848285016104c2565b91505092915050565b5f82825260208201905092915050565b7f49456e747279506f696e7420696e74657266616365206d69736d6174636800005f82015250565b5f610545601e83610501565b915061055082610511565b602082019050919050565b5f6020820190508181035f83015261057281610539565b9050919050565b608051613fb46105d05f395f8181610a0101528181610a8d01528181610c4e01528181611444015281816114980152818161151d015281816115a70152818161170b01528181611c940152611e8a0152613fb45ff3fe608060405260043610610271575f3560e01c8063796d43711161014e578063cf5b4fd5116100c0578063ec406e8411610079578063ec406e84146108cb578063f2fde38b14610907578063f3fef3a31461092f578063f5cba98c14610957578063f8e226c51461097f578063f94c04fc146109bb57610271565b8063cf5b4fd5146107de578063d0e30db014610806578063d2a94f0214610810578063d6ffced61461083a578063e3051eb514610864578063e30c3978146108a157610271565b8063b0d691fe11610112578063b0d691fe146106e6578063b187bd2614610710578063b2cdf1bc1461073a578063bb9fe6bf14610776578063c23a5cea1461078c578063c399ec88146107b457610271565b8063796d43711461062a57806379ba5097146106545780637c627b211461066a5780637dc08a97146106925780638da5cb5b146106bc57610271565b80633af32abf116101e75780635c975abb116101ab5780635c975abb146105325780637130dfc91461055c578063715018a614610586578063724326041461059c57806373751ad4146105d8578063772d3b981461060057610271565b80633af32abf1461043f5780634918354d1461047b5780634a4e3bd5146104b757806352b7512c146104cd57806359bf26c81461050a57610271565b806323d9ac9b1161023957806323d9ac9b1461033357806324b05c531461035d57806325a13b4914610387578063279f92b9146103b15780632c4143a2146103d957806330af94631461041557610271565b80630396cb60146102755780630497de4a146102915780630c424284146102bb578063205c2878146102e35780632151b4fa1461030b575b5f5ffd5b61028f600480360381019061028a9190612c61565b6109f7565b005b34801561029c575f5ffd5b506102a5610a8a565b6040516102b29190612ca4565b60405180910390f35b3480156102c6575f5ffd5b506102e160048036038101906102dc9190612d4c565b610b28565b005b3480156102ee575f5ffd5b5061030960048036038101906103049190612def565b610c44565b005b348015610316575f5ffd5b50610331600480360381019061032c9190612e2d565b610cd8565b005b34801561033e575f5ffd5b50610347610d63565b6040516103549190612e67565b60405180910390f35b348015610368575f5ffd5b50610371610d88565b60405161037e9190612ca4565b60405180910390f35b348015610392575f5ffd5b5061039b610d8d565b6040516103a89190612ca4565b60405180910390f35b3480156103bc575f5ffd5b506103d760048036038101906103d29190612e80565b610d93565b005b3480156103e4575f5ffd5b506103ff60048036038101906103fa9190612ebe565b610e9d565b60405161040c9190612ca4565b60405180910390f35b348015610420575f5ffd5b50610429610eb2565b6040516104369190612ca4565b60405180910390f35b34801561044a575f5ffd5b5061046560048036038101906104609190612ebe565b610eb8565b6040516104729190612ef8565b60405180910390f35b348015610486575f5ffd5b506104a1600480360381019061049c9190612ebe565b610ed5565b6040516104ae9190612ca4565b60405180910390f35b3480156104c2575f5ffd5b506104cb610eea565b005b3480156104d8575f5ffd5b506104f360048036038101906104ee9190612f67565b610fa0565b604051610501929190613043565b60405180910390f35b348015610515575f5ffd5b50610530600480360381019061052b91906130d2565b610fc2565b005b34801561053d575f5ffd5b50610546611160565b6040516105539190612ef8565b60405180910390f35b348015610567575f5ffd5b50610570611176565b60405161057d9190612ca4565b60405180910390f35b348015610591575f5ffd5b5061059a61117b565b005b3480156105a7575f5ffd5b506105c260048036038101906105bd9190612ebe565b61118e565b6040516105cf9190612ca4565b60405180910390f35b3480156105e3575f5ffd5b506105fe60048036038101906105f9919061312f565b6111a3565b005b34801561060b575f5ffd5b50610614611353565b6040516106219190612ca4565b60405180910390f35b348015610635575f5ffd5b5061063e611360565b60405161064b9190612ca4565b60405180910390f35b34801561065f575f5ffd5b50610668611364565b005b348015610675575f5ffd5b50610690600480360381019061068b9190613204565b6113f2565b005b34801561069d575f5ffd5b506106a661140e565b6040516106b39190612ca4565b60405180910390f35b3480156106c7575f5ffd5b506106d061141b565b6040516106dd9190612e67565b60405180910390f35b3480156106f1575f5ffd5b506106fa611442565b60405161070791906132e3565b60405180910390f35b34801561071b575f5ffd5b50610724611466565b6040516107319190612ef8565b60405180910390f35b348015610745575f5ffd5b50610760600480360381019061075b9190612ebe565b611479565b60405161076d9190612ca4565b60405180910390f35b348015610781575f5ffd5b5061078a61148e565b005b348015610797575f5ffd5b506107b260048036038101906107ad91906132fc565b611513565b005b3480156107bf575f5ffd5b506107c86115a4565b6040516107d59190612ca4565b60405180910390f35b3480156107e9575f5ffd5b5061080460048036038101906107ff919061337c565b611642565b005b61080e611709565b005b34801561081b575f5ffd5b50610824611793565b6040516108319190612ca4565b60405180910390f35b348015610845575f5ffd5b5061084e611799565b60405161085b9190612ca4565b60405180910390f35b34801561086f575f5ffd5b5061088a60048036038101906108859190612ebe565b6117e4565b6040516108989291906133c7565b60405180910390f35b3480156108ac575f5ffd5b506108b56119f8565b6040516108c29190612e67565b60405180910390f35b3480156108d6575f5ffd5b506108f160048036038101906108ec9190612ebe565b611a20565b6040516108fe9190612ca4565b60405180910390f35b348015610912575f5ffd5b5061092d60048036038101906109289190612ebe565b611b70565b005b34801561093a575f5ffd5b5061095560048036038101906109509190612def565b611c1c565b005b348015610962575f5ffd5b5061097d60048036038101906109789190612ebe565b611d1e565b005b34801561098a575f5ffd5b506109a560048036038101906109a09190612ebe565b611dd7565b6040516109b29190612ca4565b60405180910390f35b3480156109c6575f5ffd5b506109e160048036038101906109dc9190612ebe565b611dec565b6040516109ee9190612ca4565b60405180910390f35b6109ff611e01565b7f000000000000000000000000000000000000000000000000000000000000000073ffffffffffffffffffffffffffffffffffffffff16630396cb6034836040518363ffffffff1660e01b8152600401610a5991906133fd565b5f604051808303818588803b158015610a70575f5ffd5b505af1158015610a82573d5f5f3e3d5ffd5b505050505050565b5f7f000000000000000000000000000000000000000000000000000000000000000073ffffffffffffffffffffffffffffffffffffffff166370a08231306040518263ffffffff1660e01b8152600401610ae49190612e67565b602060405180830381865afa158015610aff573d5f5f3e3d5ffd5b505050506040513d601f19601f82011682018060405250810190610b23919061342a565b905090565b610b30611e01565b5f73ffffffffffffffffffffffffffffffffffffffff168273ffffffffffffffffffffffffffffffffffffffff1603610b9e576040517f08c379a0000000000000000000000000000000000000000000000000000000008152600401610b95906134d5565b60405180910390fd5b80600c5f8473ffffffffffffffffffffffffffffffffffffffff1673ffffffffffffffffffffffffffffffffffffffff1681526020019081526020015f205f6101000a81548160ff0219169083151502179055508173ffffffffffffffffffffffffffffffffffffffff167ff93f9a76c1bf3444d22400a00cb9fe990e6abe9dbb333fda48859cfee864543d82604051610c389190612ef8565b60405180910390a25050565b610c4c611e01565b7f000000000000000000000000000000000000000000000000000000000000000073ffffffffffffffffffffffffffffffffffffffff1663205c287883836040518363ffffffff1660e01b8152600401610ca7929190613502565b5f604051808303815f87803b158015610cbe575f5ffd5b505af1158015610cd0573d5f5f3e3d5ffd5b505050505050565b610ce0611e01565b5f8111610d22576040517f08c379a0000000000000000000000000000000000000000000000000000000008152600401610d1990613573565b60405180910390fd5b806006819055507f11c8ac8d453697789c7004a64ada5a457632c9c9c87b6b0870e4b67874f6fc2a81604051610d589190612ca4565b60405180910390a150565b60025f9054906101000a900473ffffffffffffffffffffffffffffffffffffffff1681565b600a81565b60065481565b610d9b611e01565b5f73ffffffffffffffffffffffffffffffffffffffff168273ffffffffffffffffffffffffffffffffffffffff1603610e09576040517f08c379a0000000000000000000000000000000000000000000000000000000008152600401610e00906134d5565b60405180910390fd5b8060035f8473ffffffffffffffffffffffffffffffffffffffff1673ffffffffffffffffffffffffffffffffffffffff1681526020019081526020015f20819055508173ffffffffffffffffffffffffffffffffffffffff167f09fc252c27adc248d1ce5c5e58aad6b09c32d74b209af143d8a9ab8e1911230682604051610e919190612ca4565b60405180910390a25050565b600b602052805f5260405f205f915090505481565b60085481565b600c602052805f5260405f205f915054906101000a900460ff1681565b6009602052805f5260405f205f915090505481565b610ef2611e01565b600260149054906101000a900460ff16610f41576040517f08c379a0000000000000000000000000000000000000000000000000000000008152600401610f3890613601565b60405180910390fd5b5f600260146101000a81548160ff0219169083151502179055503373ffffffffffffffffffffffffffffffffffffffff167f306ca22c455fe433ebbf0542bbf947ea6a725495f9e1043db2a47e3c5794038560405160405180910390a2565b60605f610fab611e88565b610fb6858585611f18565b91509150935093915050565b610fca611e01565b5f5f90505b8383905081101561115a575f73ffffffffffffffffffffffffffffffffffffffff168484838181106110045761100361361f565b5b90506020020160208101906110199190612ebe565b73ffffffffffffffffffffffffffffffffffffffff160361106f576040517f08c379a0000000000000000000000000000000000000000000000000000000008152600401611066906134d5565b60405180910390fd5b8160035f8686858181106110865761108561361f565b5b905060200201602081019061109b9190612ebe565b73ffffffffffffffffffffffffffffffffffffffff1673ffffffffffffffffffffffffffffffffffffffff1681526020019081526020015f20819055508383828181106110eb576110ea61361f565b5b90506020020160208101906111009190612ebe565b73ffffffffffffffffffffffffffffffffffffffff167f09fc252c27adc248d1ce5c5e58aad6b09c32d74b209af143d8a9ab8e19112306836040516111459190612ca4565b60405180910390a28080600101915050610fcf565b50505050565b5f600160149054906101000a900460ff16905090565b603c81565b611183611e01565b61118c5f611fcb565b565b6003602052805f5260405f205f915090505481565b6111ab611e01565b5f5f90505b8383905081101561134d575f73ffffffffffffffffffffffffffffffffffffffff168484838181106111e5576111e461361f565b5b90506020020160208101906111fa9190612ebe565b73ffffffffffffffffffffffffffffffffffffffff1603611250576040517f08c379a0000000000000000000000000000000000000000000000000000000008152600401611247906134d5565b60405180910390fd5b81600c5f8686858181106112675761126661361f565b5b905060200201602081019061127c9190612ebe565b73ffffffffffffffffffffffffffffffffffffffff1673ffffffffffffffffffffffffffffffffffffffff1681526020019081526020015f205f6101000a81548160ff0219169083151502179055508383828181106112de576112dd61361f565b5b90506020020160208101906112f39190612ebe565b73ffffffffffffffffffffffffffffffffffffffff167ff93f9a76c1bf3444d22400a00cb9fe990e6abe9dbb333fda48859cfee864543d836040516113389190612ef8565b60405180910390a280806001019150506111b0565b50505050565b683635c9adc5dea0000081565b5f81565b5f61136d611ffb565b90508073ffffffffffffffffffffffffffffffffffffffff1661138e6119f8565b73ffffffffffffffffffffffffffffffffffffffff16146113e657806040517f118cdaa70000000000000000000000000000000000000000000000000000000081526004016113dd9190612e67565b60405180910390fd5b6113ef81611fcb565b50565b6113fa611e88565b6114078585858585612002565b5050505050565b6802b5e3af16b188000081565b5f5f5f9054906101000a900473ffffffffffffffffffffffffffffffffffffffff16905090565b7f000000000000000000000000000000000000000000000000000000000000000081565b600260149054906101000a900460ff1681565b6004602052805f5260405f205f915090505481565b611496611e01565b7f000000000000000000000000000000000000000000000000000000000000000073ffffffffffffffffffffffffffffffffffffffff1663bb9fe6bf6040518163ffffffff1660e01b81526004015f604051808303815f87803b1580156114fb575f5ffd5b505af115801561150d573d5f5f3e3d5ffd5b50505050565b61151b611e01565b7f000000000000000000000000000000000000000000000000000000000000000073ffffffffffffffffffffffffffffffffffffffff1663c23a5cea826040518263ffffffff1660e01b8152600401611574919061364c565b5f604051808303815f87803b15801561158b575f5ffd5b505af115801561159d573d5f5f3e3d5ffd5b5050505050565b5f7f000000000000000000000000000000000000000000000000000000000000000073ffffffffffffffffffffffffffffffffffffffff166370a08231306040518263ffffffff1660e01b81526004016115fe9190612e67565b602060405180830381865afa158015611619573d5f5f3e3d5ffd5b505050506040513d601f19601f8201168201806040525081019061163d919061342a565b905090565b61164a611e01565b600260149054906101000a900460ff161561169a576040517f08c379a0000000000000000000000000000000000000000000000000000000008152600401611691906136d5565b60405180910390fd5b6001600260146101000a81548160ff0219169083151502179055503373ffffffffffffffffffffffffffffffffffffffff167fc50068396f19981cb0435611d2c97dde7b6882fdc3185a9fb8080fa756b3974d83836040516116fd92919061372d565b60405180910390a25050565b7f000000000000000000000000000000000000000000000000000000000000000073ffffffffffffffffffffffffffffffffffffffff1663b760faf934306040518363ffffffff1660e01b81526004016117639190612e67565b5f604051808303818588803b15801561177a575f5ffd5b505af115801561178c573d5f5f3e3d5ffd5b5050505050565b60075481565b5f62015180600854426117ac919061377c565b106117bb5760065490506117e1565b600654600754106117ce575f90506117e1565b6007546006546117de919061377c565b90505b90565b5f5f600c5f8473ffffffffffffffffffffffffffffffffffffffff1673ffffffffffffffffffffffffffffffffffffffff1681526020019081526020015f205f9054906101000a900460ff1615611860577fffffffffffffffffffffffffffffffffffffffffffffffffffffffffffffffff5f915091506119f3565b600b5f8473ffffffffffffffffffffffffffffffffffffffff1673ffffffffffffffffffffffffffffffffffffffff1681526020019081526020015f205460095f8573ffffffffffffffffffffffffffffffffffffffff1673ffffffffffffffffffffffffffffffffffffffff1681526020019081526020015f2054426118e7919061377c565b106118f857600a42915091506119f3565b5f600a5f8573ffffffffffffffffffffffffffffffffffffffff1673ffffffffffffffffffffffffffffffffffffffff1681526020019081526020015f20549050600a8110611996575f603c60095f8773ffffffffffffffffffffffffffffffffffffffff1673ffffffffffffffffffffffffffffffffffffffff1681526020019081526020015f205461198c91906137af565b92509250506119f3565b80600a6119a3919061377c565b603c60095f8773ffffffffffffffffffffffffffffffffffffffff1673ffffffffffffffffffffffffffffffffffffffff1681526020019081526020015f20546119ed91906137af565b92509250505b915091565b5f60015f9054906101000a900473ffffffffffffffffffffffffffffffffffffffff16905090565b5f5f60035f8473ffffffffffffffffffffffffffffffffffffffff1673ffffffffffffffffffffffffffffffffffffffff1681526020019081526020015f205490505f8103611a76576802b5e3af16b188000090505b6201518060055f8573ffffffffffffffffffffffffffffffffffffffff1673ffffffffffffffffffffffffffffffffffffffff1681526020019081526020015f205442611ac3919061377c565b10611ad15780915050611b6b565b8060045f8573ffffffffffffffffffffffffffffffffffffffff1673ffffffffffffffffffffffffffffffffffffffff1681526020019081526020015f205410611b1e575f915050611b6b565b60045f8473ffffffffffffffffffffffffffffffffffffffff1673ffffffffffffffffffffffffffffffffffffffff1681526020019081526020015f205481611b67919061377c565b9150505b919050565b611b78611e01565b8060015f6101000a81548173ffffffffffffffffffffffffffffffffffffffff021916908373ffffffffffffffffffffffffffffffffffffffff1602179055508073ffffffffffffffffffffffffffffffffffffffff16611bd761141b565b73ffffffffffffffffffffffffffffffffffffffff167f38d16b8cac22d99fc7c124b9cd0de2d3fa1faef420bfe791d8c362d765e2270060405160405180910390a350565b611c24611e01565b5f73ffffffffffffffffffffffffffffffffffffffff168273ffffffffffffffffffffffffffffffffffffffff1603611c92576040517f08c379a0000000000000000000000000000000000000000000000000000000008152600401611c8990613852565b60405180910390fd5b7f000000000000000000000000000000000000000000000000000000000000000073ffffffffffffffffffffffffffffffffffffffff1663205c287883836040518363ffffffff1660e01b8152600401611ced929190613502565b5f604051808303815f87803b158015611d04575f5ffd5b505af1158015611d16573d5f5f3e3d5ffd5b505050505050565b611d26611e01565b5f73ffffffffffffffffffffffffffffffffffffffff168173ffffffffffffffffffffffffffffffffffffffff1603611d94576040517f08c379a0000000000000000000000000000000000000000000000000000000008152600401611d8b906138e0565b60405180910390fd5b8060025f6101000a81548173ffffffffffffffffffffffffffffffffffffffff021916908373ffffffffffffffffffffffffffffffffffffffff16021790555050565b6005602052805f5260405f205f915090505481565b600a602052805f5260405f205f915090505481565b611e09611ffb565b73ffffffffffffffffffffffffffffffffffffffff16611e2761141b565b73ffffffffffffffffffffffffffffffffffffffff1614611e8657611e4a611ffb565b6040517f118cdaa7000000000000000000000000000000000000000000000000000000008152600401611e7d9190612e67565b60405180910390fd5b565b7f000000000000000000000000000000000000000000000000000000000000000073ffffffffffffffffffffffffffffffffffffffff163373ffffffffffffffffffffffffffffffffffffffff1614611f16576040517f08c379a0000000000000000000000000000000000000000000000000000000008152600401611f0d90613948565b60405180910390fd5b565b60605f600260149054906101000a900460ff1615611f6b576040517f08c379a0000000000000000000000000000000000000000000000000000000008152600401611f62906136d5565b60405180910390fd5b5f611f76868661203d565b90505f865f016020810190611f8b9190612ebe565b9050611f95612263565b611f9e81612362565b611fa8818661261c565b611fb185612797565b81611fbd5f875f612830565b935093505050935093915050565b60015f6101000a81549073ffffffffffffffffffffffffffffffffffffffff0219169055611ff881612864565b50565b5f33905090565b6040517f08c379a0000000000000000000000000000000000000000000000000000000008152600401612034906139b0565b60405180910390fd5b6060365f848060e0019061205191906139da565b91509150606182829050101561209c576040517f08c379a000000000000000000000000000000000000000000000000000000000815260040161209390613aac565b60405180910390fd5b5f8282601490601a926120b193929190613ad2565b906120bc9190613b4d565b60d01c90505f8383601a906020926120d693929190613ad2565b906120e19190613b4d565b60d01c9050365f858560209080926120fb93929190613ad2565b915091505f88858560405160200161211593929190613c10565b6040516020818303038152906040528051906020012090505f61213782612925565b90505f61219085858080601f0160208091040260200160405190810160405280939291908181526020018383808284375f81840152601f19601f820116905080830192505050505050508361295890919063ffffffff16565b905060025f9054906101000a900473ffffffffffffffffffffffffffffffffffffffff1673ffffffffffffffffffffffffffffffffffffffff168173ffffffffffffffffffffffffffffffffffffffff1614612221576040517f08c379a000000000000000000000000000000000000000000000000000000000815260040161221890613cbc565b60405180910390fd5b8b5f0160208101906122339190612ebe565b6040516020016122439190612e67565b604051602081830303815290604052995050505050505050505092915050565b6201518060055f3373ffffffffffffffffffffffffffffffffffffffff1673ffffffffffffffffffffffffffffffffffffffff1681526020019081526020015f2054426122b0919061377c565b1061233a575f60045f3373ffffffffffffffffffffffffffffffffffffffff1673ffffffffffffffffffffffffffffffffffffffff1681526020019081526020015f20819055504260055f3373ffffffffffffffffffffffffffffffffffffffff1673ffffffffffffffffffffffffffffffffffffffff1681526020019081526020015f20819055505b620151806008544261234c919061377c565b10612360575f600781905550426008819055505b565b600c5f8273ffffffffffffffffffffffffffffffffffffffff1673ffffffffffffffffffffffffffffffffffffffff1681526020019081526020015f205f9054906101000a900460ff1661261957600b5f8273ffffffffffffffffffffffffffffffffffffffff1673ffffffffffffffffffffffffffffffffffffffff1681526020019081526020015f205460095f8373ffffffffffffffffffffffffffffffffffffffff1673ffffffffffffffffffffffffffffffffffffffff1681526020019081526020015f205442612437919061377c565b10612503575f600a5f8373ffffffffffffffffffffffffffffffffffffffff1673ffffffffffffffffffffffffffffffffffffffff1681526020019081526020015f208190555042600b5f8373ffffffffffffffffffffffffffffffffffffffff1673ffffffffffffffffffffffffffffffffffffffff1681526020019081526020015f20819055504260095f8373ffffffffffffffffffffffffffffffffffffffff1673ffffffffffffffffffffffffffffffffffffffff1681526020019081526020015f20819055505b600a5f8273ffffffffffffffffffffffffffffffffffffffff1673ffffffffffffffffffffffffffffffffffffffff1681526020019081526020015f205f81548092919061255090613cda565b9190505550600a805f8373ffffffffffffffffffffffffffffffffffffffff1673ffffffffffffffffffffffffffffffffffffffff1681526020019081526020015f20541115612618578073ffffffffffffffffffffffffffffffffffffffff167fbab957a9c40f9484c2bee06042ea0daac6d5a077029c9dc8e6b7636c289c7f7660405160405180910390a26040517f08c379a000000000000000000000000000000000000000000000000000000000815260040161260f90613d91565b60405180910390fd5b5b50565b5f60035f8473ffffffffffffffffffffffffffffffffffffffff1673ffffffffffffffffffffffffffffffffffffffff1681526020019081526020015f205490505f8103612671576802b5e3af16b188000090505b808260045f8673ffffffffffffffffffffffffffffffffffffffff1673ffffffffffffffffffffffffffffffffffffffff1681526020019081526020015f20546126bb91906137af565b111561273f578273ffffffffffffffffffffffffffffffffffffffff167f1a9b454f99b6969195c50526b9404bf68e77b4c8d0679c8ca8b17d22092c0c0260405160405180910390a26040517f08c379a000000000000000000000000000000000000000000000000000000000815260040161273690613e1f565b60405180910390fd5b8160045f8573ffffffffffffffffffffffffffffffffffffffff1673ffffffffffffffffffffffffffffffffffffffff1681526020019081526020015f205f82825461278b91906137af565b92505081905550505050565b600654816007546127a891906137af565b1115612815577f9025f6e2cc0d187527792d0696237214f8d4b5f861af4e35e482dca096bfc09660405160405180910390a16040517f08c379a000000000000000000000000000000000000000000000000000000000815260040161280c90613ead565b60405180910390fd5b8060075f82825461282691906137af565b9250508190555050565b5f60d08265ffffffffffff16901b60a08465ffffffffffff16901b85612856575f612859565b60015b171790509392505050565b5f5f5f9054906101000a900473ffffffffffffffffffffffffffffffffffffffff169050815f5f6101000a81548173ffffffffffffffffffffffffffffffffffffffff021916908373ffffffffffffffffffffffffffffffffffffffff1602179055508173ffffffffffffffffffffffffffffffffffffffff168173ffffffffffffffffffffffffffffffffffffffff167f8be0079c531659141344cd1fd0a4f28419497f9722a3daafe3b4186f6b6457e060405160405180910390a35050565b5f7f19457468657265756d205369676e6564204d6573736167653a0a3332000000005f5281601c52603c5f209050919050565b5f5f5f5f6129668686612982565b92509250925061297682826129d7565b82935050505092915050565b5f5f5f60418451036129c2575f5f5f602087015192506040870151915060608701515f1a90506129b488828585612b39565b9550955095505050506129d0565b5f600285515f1b9250925092505b9250925092565b5f60038111156129ea576129e9613ecb565b5b8260038111156129fd576129fc613ecb565b5b0315612b355760016003811115612a1757612a16613ecb565b5b826003811115612a2a57612a29613ecb565b5b03612a61576040517ff645eedf00000000000000000000000000000000000000000000000000000000815260040160405180910390fd5b60026003811115612a7557612a74613ecb565b5b826003811115612a8857612a87613ecb565b5b03612acc57805f1c6040517ffce698f7000000000000000000000000000000000000000000000000000000008152600401612ac39190612ca4565b60405180910390fd5b600380811115612adf57612ade613ecb565b5b826003811115612af257612af1613ecb565b5b03612b3457806040517fd78bce0c000000000000000000000000000000000000000000000000000000008152600401612b2b9190613f07565b60405180910390fd5b5b5050565b5f5f5f7f7fffffffffffffffffffffffffffffff5d576e7357a4501ddfe92f46681b20a0845f1c1115612b75575f600385925092509250612c16565b5f6001888888886040515f8152602001604052604051612b989493929190613f3b565b6020604051602081039080840390855afa158015612bb8573d5f5f3e3d5ffd5b5050506020604051035190505f73ffffffffffffffffffffffffffffffffffffffff168173ffffffffffffffffffffffffffffffffffffffff1603612c09575f60015f5f1b93509350935050612c16565b805f5f5f1b935093509350505b9450945094915050565b5f5ffd5b5f5ffd5b5f63ffffffff82169050919050565b612c4081612c28565b8114612c4a575f5ffd5b50565b5f81359050612c5b81612c37565b92915050565b5f60208284031215612c7657612c75612c20565b5b5f612c8384828501612c4d565b91505092915050565b5f819050919050565b612c9e81612c8c565b82525050565b5f602082019050612cb75f830184612c95565b92915050565b5f73ffffffffffffffffffffffffffffffffffffffff82169050919050565b5f612ce682612cbd565b9050919050565b612cf681612cdc565b8114612d00575f5ffd5b50565b5f81359050612d1181612ced565b92915050565b5f8115159050919050565b612d2b81612d17565b8114612d35575f5ffd5b50565b5f81359050612d4681612d22565b92915050565b5f5f60408385031215612d6257612d61612c20565b5b5f612d6f85828601612d03565b9250506020612d8085828601612d38565b9150509250929050565b5f612d9482612cbd565b9050919050565b612da481612d8a565b8114612dae575f5ffd5b50565b5f81359050612dbf81612d9b565b92915050565b612dce81612c8c565b8114612dd8575f5ffd5b50565b5f81359050612de981612dc5565b92915050565b5f5f60408385031215612e0557612e04612c20565b5b5f612e1285828601612db1565b9250506020612e2385828601612ddb565b9150509250929050565b5f60208284031215612e4257612e41612c20565b5b5f612e4f84828501612ddb565b91505092915050565b612e6181612cdc565b82525050565b5f602082019050612e7a5f830184612e58565b92915050565b5f5f60408385031215612e9657612e95612c20565b5b5f612ea385828601612d03565b9250506020612eb485828601612ddb565b9150509250929050565b5f60208284031215612ed357612ed2612c20565b5b5f612ee084828501612d03565b91505092915050565b612ef281612d17565b82525050565b5f602082019050612f0b5f830184612ee9565b92915050565b5f5ffd5b5f6101208284031215612f2b57612f2a612f11565b5b81905092915050565b5f819050919050565b612f4681612f34565b8114612f50575f5ffd5b50565b5f81359050612f6181612f3d565b92915050565b5f5f5f60608486031215612f7e57612f7d612c20565b5b5f84013567ffffffffffffffff811115612f9b57612f9a612c24565b5b612fa786828701612f15565b9350506020612fb886828701612f53565b9250506040612fc986828701612ddb565b9150509250925092565b5f81519050919050565b5f82825260208201905092915050565b8281835e5f83830152505050565b5f601f19601f8301169050919050565b5f61301582612fd3565b61301f8185612fdd565b935061302f818560208601612fed565b61303881612ffb565b840191505092915050565b5f6040820190508181035f83015261305b818561300b565b905061306a6020830184612c95565b9392505050565b5f5ffd5b5f5ffd5b5f5ffd5b5f5f83601f84011261309257613091613071565b5b8235905067ffffffffffffffff8111156130af576130ae613075565b5b6020830191508360208202830111156130cb576130ca613079565b5b9250929050565b5f5f5f604084860312156130e9576130e8612c20565b5b5f84013567ffffffffffffffff81111561310657613105612c24565b5b6131128682870161307d565b9350935050602061312586828701612ddb565b9150509250925092565b5f5f5f6040848603121561314657613145612c20565b5b5f84013567ffffffffffffffff81111561316357613162612c24565b5b61316f8682870161307d565b9350935050602061318286828701612d38565b9150509250925092565b60038110613198575f5ffd5b50565b5f813590506131a98161318c565b92915050565b5f5f83601f8401126131c4576131c3613071565b5b8235905067ffffffffffffffff8111156131e1576131e0613075565b5b6020830191508360018202830111156131fd576131fc613079565b5b9250929050565b5f5f5f5f5f6080868803121561321d5761321c612c20565b5b5f61322a8882890161319b565b955050602086013567ffffffffffffffff81111561324b5761324a612c24565b5b613257888289016131af565b9450945050604061326a88828901612ddb565b925050606061327b88828901612ddb565b9150509295509295909350565b5f819050919050565b5f6132ab6132a66132a184612cbd565b613288565b612cbd565b9050919050565b5f6132bc82613291565b9050919050565b5f6132cd826132b2565b9050919050565b6132dd816132c3565b82525050565b5f6020820190506132f65f8301846132d4565b92915050565b5f6020828403121561331157613310612c20565b5b5f61331e84828501612db1565b91505092915050565b5f5f83601f84011261333c5761333b613071565b5b8235905067ffffffffffffffff81111561335957613358613075565b5b60208301915083600182028301111561337557613374613079565b5b9250929050565b5f5f6020838503121561339257613391612c20565b5b5f83013567ffffffffffffffff8111156133af576133ae612c24565b5b6133bb85828601613327565b92509250509250929050565b5f6040820190506133da5f830185612c95565b6133e76020830184612c95565b9392505050565b6133f781612c28565b82525050565b5f6020820190506134105f8301846133ee565b92915050565b5f8151905061342481612dc5565b92915050565b5f6020828403121561343f5761343e612c20565b5b5f61344c84828501613416565b91505092915050565b5f82825260208201905092915050565b7f56657373656c5061796d61737465723a20696e76616c696420757365722061645f8201527f6472657373000000000000000000000000000000000000000000000000000000602082015250565b5f6134bf602583613455565b91506134ca82613465565b604082019050919050565b5f6020820190508181035f8301526134ec816134b3565b9050919050565b6134fc81612d8a565b82525050565b5f6040820190506135155f8301856134f3565b6135226020830184612c95565b9392505050565b7f56657373656c5061796d61737465723a20636170206d757374206265203e20305f82015250565b5f61355d602083613455565b915061356882613529565b602082019050919050565b5f6020820190508181035f83015261358a81613551565b9050919050565b7f56657373656c5061796d61737465723a20636f6e7472616374206973206e6f745f8201527f2070617573656400000000000000000000000000000000000000000000000000602082015250565b5f6135eb602783613455565b91506135f682613591565b604082019050919050565b5f6020820190508181035f830152613618816135df565b9050919050565b7f4e487b71000000000000000000000000000000000000000000000000000000005f52603260045260245ffd5b5f60208201905061365f5f8301846134f3565b92915050565b7f56657373656c5061796d61737465723a20636f6e7472616374206973207061755f8201527f7365640000000000000000000000000000000000000000000000000000000000602082015250565b5f6136bf602383613455565b91506136ca82613665565b604082019050919050565b5f6020820190508181035f8301526136ec816136b3565b9050919050565b828183375f83830152505050565b5f61370c8385613455565b93506137198385846136f3565b61372283612ffb565b840190509392505050565b5f6020820190508181035f830152613746818486613701565b90509392505050565b7f4e487b71000000000000000000000000000000000000000000000000000000005f52601160045260245ffd5b5f61378682612c8c565b915061379183612c8c565b92508282039050818111156137a9576137a861374f565b5b92915050565b5f6137b982612c8c565b91506137c483612c8c565b92508282019050808211156137dc576137db61374f565b5b92915050565b7f56657373656c5061796d61737465723a20696e76616c696420776974686472615f8201527f77616c2061646472657373000000000000000000000000000000000000000000602082015250565b5f61383c602b83613455565b9150613847826137e2565b604082019050919050565b5f6020820190508181035f83015261386981613830565b9050919050565b7f56657373656c5061796d61737465723a20696e76616c6964207369676e6572205f8201527f6164647265737300000000000000000000000000000000000000000000000000602082015250565b5f6138ca602783613455565b91506138d582613870565b604082019050919050565b5f6020820190508181035f8301526138f7816138be565b9050919050565b7f53656e646572206e6f7420456e747279506f696e7400000000000000000000005f82015250565b5f613932601583613455565b915061393d826138fe565b602082019050919050565b5f6020820190508181035f83015261395f81613926565b9050919050565b7f6d757374206f76657272696465000000000000000000000000000000000000005f82015250565b5f61399a600d83613455565b91506139a582613966565b602082019050919050565b5f6020820190508181035f8301526139c78161398e565b9050919050565b5f5ffd5b5f5ffd5b5f5ffd5b5f5f833560016020038436030381126139f6576139f56139ce565b5b80840192508235915067ffffffffffffffff821115613a1857613a176139d2565b5b602083019250600182023603831315613a3457613a336139d6565b5b509250929050565b7f56657373656c5061796d61737465723a20696e76616c6964207061796d6173745f8201527f6572416e6444617461206c656e67746800000000000000000000000000000000602082015250565b5f613a96603083613455565b9150613aa182613a3c565b604082019050919050565b5f6020820190508181035f830152613ac381613a8a565b9050919050565b5f5ffd5b5f5ffd5b5f5f85851115613ae557613ae4613aca565b5b83861115613af657613af5613ace565b5b6001850283019150848603905094509492505050565b5f82905092915050565b5f7fffffffffffff000000000000000000000000000000000000000000000000000082169050919050565b5f82821b905092915050565b5f613b588383613b0c565b82613b638135613b16565b92506006821015613ba357613b9e7fffffffffffff000000000000000000000000000000000000000000000000000083600603600802613b41565b831692505b505092915050565b5f819050919050565b613bc5613bc082612f34565b613bab565b82525050565b5f65ffffffffffff82169050919050565b5f8160d01b9050919050565b5f613bf282613bdc565b9050919050565b613c0a613c0582613bcb565b613be8565b82525050565b5f613c1b8286613bb4565b602082019150613c2b8285613bf9565b600682019150613c3b8284613bf9565b600682019150819050949350505050565b7f56657373656c5061796d61737465723a20696e76616c6964207369676e6174755f8201527f7265000000000000000000000000000000000000000000000000000000000000602082015250565b5f613ca6602283613455565b9150613cb182613c4c565b604082019050919050565b5f6020820190508181035f830152613cd381613c9a565b9050919050565b5f613ce482612c8c565b91507fffffffffffffffffffffffffffffffffffffffffffffffffffffffffffffffff8203613d1657613d1561374f565b5b600182019050919050565b7f56657373656c5061796d61737465723a2072617465206c696d697420657863655f8201527f6564656400000000000000000000000000000000000000000000000000000000602082015250565b5f613d7b602483613455565b9150613d8682613d21565b604082019050919050565b5f6020820190508181035f830152613da881613d6f565b9050919050565b7f56657373656c5061796d61737465723a2075736572206461696c7920676173205f8201527f6c696d6974206578636565646564000000000000000000000000000000000000602082015250565b5f613e09602e83613455565b9150613e1482613daf565b604082019050919050565b5f6020820190508181035f830152613e3681613dfd565b9050919050565b7f56657373656c5061796d61737465723a20676c6f62616c206461696c792063615f8201527f7020657863656564656400000000000000000000000000000000000000000000602082015250565b5f613e97602a83613455565b9150613ea282613e3d565b604082019050919050565b5f6020820190508181035f830152613ec481613e8b565b9050919050565b7f4e487b71000000000000000000000000000000000000000000000000000000005f52602160045260245ffd5b613f0181612f34565b82525050565b5f602082019050613f1a5f830184613ef8565b92915050565b5f60ff82169050919050565b613f3581613f20565b82525050565b5f608082019050613f4e5f830187613ef8565b613f5b6020830186613f2c565b613f686040830185613ef8565b613f756060830184613ef8565b9594505050505056fea2646970667358221220306a96a6f6133e8bc19cc65389601084fef9a1084b12337554673e922141510864736f6c63430008210033","linkReferences":{}},"methodIdentifiers":{"COST_OF_POST()":"796d4371","DEFAULT_GLOBAL_DAILY_CAP()":"772d3b98","DEFAULT_USER_DAILY_GAS_LIMIT()":"7dc08a97","MAX_REQUESTS_PER_WINDOW()":"24b05c53","RATE_LIMIT_WINDOW()":"7130dfc9","acceptOwnership()":"79ba5097","addStake(uint32)":"0396cb60","batchSetUserDailyGasLimit(address[],uint256)":"59bf26c8","batchSetWhitelistStatus(address[],bool)":"73751ad4","deposit()":"d0e30db0","emergencyPause(string)":"cf5b4fd5","emergencyUnpause()":"4a4e3bd5","entryPoint()":"b0d691fe","getDeposit()":"c399ec88","getDepositBalance()":"0497de4a","getGlobalRemainingDailyCap()":"d6ffced6","getUserRateLimitStatus(address)":"e3051eb5","getUserRemainingDailyGas(address)":"ec406e84","globalDailyCap()":"25a13b49","globalSpentToday()":"d2a94f02","isPaused()":"b187bd26","isWhitelisted(address)":"3af32abf","lastGlobalGasReset()":"30af9463","lastUserGasReset(address)":"f8e226c5","owner()":"8da5cb5b","paused()":"5c975abb","pendingOwner()":"e30c3978","postOp(uint8,bytes,uint256,uint256)":"7c627b21","renounceOwnership()":"715018a6","setGlobalDailyCap(uint256)":"2151b4fa","setUserDailyGasLimit(address,uint256)":"279f92b9","setVerifyingSigner(address)":"f5cba98c","setWhitelistStatus(address,bool)":"0c424284","transferOwnership(address)":"f2fde38b","unlockStake()":"bb9fe6bf","userDailyGasLimit(address)":"72432604","userLastRequestTime(address)":"4918354d","userRateLimitWindow(address)":"2c4143a2","userRequestCount(address)":"f94c04fc","userSpentGasToday(address)":"b2cdf1bc","validatePaymasterUserOp((address,uint256,bytes,bytes,bytes32,uint256,bytes32,bytes,bytes),bytes32,uint256)":"52b7512c","verifyingSigner()":"23d9ac9b","withdraw(address,uint256)":"f3fef3a3","withdrawStake(address)":"c23a5cea","withdrawTo(address,uint256)":"205c2878"},"id":92}