{"abi":[{"type":"constructor","inputs":[{"name":"_entryPoint","type":"address","internalType":"contract IEntryPoint"},{"name":"_verifyingSigner","type":"address","internalType":"address"}],"stateMutability":"nonpayable"},{"type":"function","name":"COST_OF_POST","inputs":[],"outputs":[{"name":"","type":"uint256","internalType":"uint256"}],"stateMutability":"view"},{"type":"function","name":"DEFAULT_GLOBAL_DAILY_CAP","inputs":[],"outputs":[{"name":"","type":"uint256","internalType":"uint256"}],"stateMutability":"view"},{"type":"function","name":"DEFAULT_USER_DAILY_GAS_LIMIT","inputs":[],"outputs":[{"name":"","type":"uint256","internalType":"uint256"}],"stateMutability":"view"},{"type":"function","name":"MAX_REQUESTS_PER_WINDOW","inputs":[],"outputs":[{"name":"","type":"uint256","internalType":"uint256"}],"stateMutability":"view"},{"type":"function","name":"RATE_LIMIT_WINDOW","inputs":[],"outputs":[{"name":"","type":"uint256","internalType":"uint256"}],"stateMutability":"view"},{"type":"function","name":"acceptOwnership","inputs":[],"outputs":[],"stateMutability":"nonpayable"},{"type":"function","name":"addStake","inputs":[{"name":"unstakeDelaySec","type":"uint32","internalType":"uint32"}],"outputs":[],"stateMutability":"payable"},{"type":"function","name":"batchSetUserDailyGasLimit","inputs":[{"name":"_users","type":"address[]","internalType":"address[]"},{"name":"_limit","type":"uint256","internalType":"uint256"}],"outputs":[],"stateMutability":"nonpayable"},{"type":"function","name":"batchSetWhitelistStatus","inputs":[{"name":"_users","type":"address[]","internalType":"address[]"},{"name":"_status","type":"bool","internalType":"bool"}],"outputs":[],"stateMutability":"nonpayable"},{"type":"function","name":"deposit","inputs":[],"outputs":[],"stateMutability":"payable"},{"type":"function","name":"emergencyPause","inputs":[{"name":"reason","type":"string","internalType":"string"}],"outputs":[],"stateMutability":"nonpayable"},{"type":"function","name":"emergencyUnpause","inputs":[],"outputs":[],"stateMutability":"nonpayable"},{"type":"function","name":"entryPoint","inputs":[],"outputs":[{"name":"","type":"address","internalType":"contract IEntryPoint"}],"stateMutability":"view"},{"type":"function","name":"getDeposit","inputs":[],"outputs":[{"name":"","type":"uint256","internalType":"uint256"}],"stateMutability":"view"},{"type":"function","name":"getDepositBalance","inputs":[],"outputs":[{"name":"","type":"uint256","internalType":"uint256"}],"stateMutability":"view"},{"type":"function","name":"getGlobalRemainingDailyCap","inputs":[],"outputs":[{"name":"","type":"uint256","internalType":"uint256"}],"stateMutability":"view"},{"type":"function","name":"getUserRateLimitStatus","inputs":[{"name":"_user","type":"address","internalType":"address"}],"outputs":[{"name":"requestsRemaining","type":"uint256","internalType":"uint256"},{"name":"nextResetTime","type":"uint256","internalType":"uint256"}],"stateMutability":"view"},{"type":"function","name":"getUserRemainingDailyGas","inputs":[{"name":"_user","type":"address","internalType":"address"}],"outputs":[{"name":"","type":"uint256","internalType":"uint256"}],"stateMutability":"view"},{"type":"function","name":"globalDailyCap","inputs":[],"outputs":[{"name":"","type":"uint256","internalType":"uint256"}],"stateMutability":"view"},{"type":"function","name":"globalSpentToday","inputs":[],"outputs":[{"name":"","type":"uint256","internalType":"uint256"}],"stateMutability":"view"},{"type":"function","name":"isPaused","inputs":[],"outputs":[{"name":"","type":"bool","internalType":"bool"}],"stateMutability":"view"},{"type":"function","name":"isWhitelisted","inputs":[{"name":"","type":"address","internalType":"address"}],"outputs":[{"name":"","type":"bool","internalType":"bool"}],"stateMutability":"view"},{"type":"function","name":"lastGlobalGasReset","inputs":[],"outputs":[{"name":"","type":"uint256","internalType":"uint256"}],"stateMutability":"view"},{"type":"function","name":"lastUserGasReset","inputs":[{"name":"","type":"address","internalType":"address"}],"outputs":[{"name":"","type":"uint256","internalType":"uint256"}],"stateMutability":"view"},{"type":"function","name":"owner","inputs":[],"outputs":[{"name":"","type":"address","internalType":"address"}],"stateMutability":"view"},{"type":"function","name":"paused","inputs":[],"outputs":[{"name":"","type":"bool","internalType":"bool"}],"stateMutability":"view"},{"type":"function","name":"pendingOwner","inputs":[],"outputs":[{"name":"","type":"address","internalType":"address"}],"stateMutability":"view"},{"type":"function","name":"postOp","inputs":[{"name":"mode","type":"uint8","internalType":"enum IPaymaster.PostOpMode"},{"name":"context","type":"bytes","internalType":"bytes"},{"name":"actualGasCost","type":"uint256","internalType":"uint256"},{"name":"actualUserOpFeePerGas","type":"uint256","internalType":"uint256"}],"outputs":[],"stateMutability":"nonpayable"},{"type":"function","name":"renounceOwnership","inputs":[],"outputs":[],"stateMutability":"nonpayable"},{"type":"function","name":"setGlobalDailyCap","inputs":[{"name":"_newCap","type":"uint256","internalType":"uint256"}],"outputs":[],"stateMutability":"nonpayable"},{"type":"function","name":"setUserDailyGasLimit","inputs":[{"name":"_user","type":"address","internalType":"address"},{"name":"_limit","type":"uint256","internalType":"uint256"}],"outputs":[],"stateMutability":"nonpayable"},{"type":"function","name":"setVerifyingSigner","inputs":[{"name":"_newSigner","type":"address","internalType":"address"}],"outputs":[],"stateMutability":"nonpayable"},{"type":"function","name":"setWhitelistStatus","inputs":[{"name":"_user","type":"address","internalType":"address"},{"name":"_status","type":"bool","internalType":"bool"}],"outputs":[],"stateMutability":"nonpayable"},{"type":"function","name":"transferOwnership","inputs":[{"name":"newOwner","type":"address","internalType":"address"}],"outputs":[],"stateMutability":"nonpayable"},{"type":"function","name":"unlockStake","inputs":[],"outputs":[],"stateMutability":"nonpayable"},{"type":"function","name":"userDailyGasLimit","inputs":[{"name":"","type":"address","internalType":"address"}],"outputs":[{"name":"","type":"uint256","internalType":"uint256"}],"stateMutability":"view"},{"type":"function","name":"userLastRequestTime","inputs":[{"name":"","type":"address","internalType":"address"}],"outputs":[{"name":"","type":"uint256","internalType":"uint256"}],"stateMutability":"view"},{"type":"function","name":"userRateLimitWindow","inputs":[{"name":"","type":"address","internalType":"address"}],"outputs":[{"name":"","type":"uint256","internalType":"uint256"}],"stateMutability":"view"},{"type":"function","name":"userRequestCount","inputs":[{"name":"","type":"address","internalType":"address"}],"outputs":[{"name":"","type":"uint256","internalType":"uint256"}],"stateMutability":"view"},{"type":"function","name":"userSpentGasToday","inputs":[{"name":"","type":"address","internalType":"address"}],"outputs":[{"name":"","type":"uint256","internalType":"uint256"}],"stateMutability":"view"},{"type":"function","name":"validatePaymasterUserOp","inputs":[{"name":"userOp","type":"tuple","internalType":"struct PackedUserOperation","components":[{"name":"sender","type":"address","internalType":"address"},{"name":"nonce","type":"uint256","internalType":"uint256"},{"name":"initCode","type":"bytes","internalType":"bytes"},{"name":"callData","type":"bytes","internalType":"bytes"},{"name":"accountGasLimits","type":"bytes32","internalType":"bytes32"},{"name":"preVerificationGas","type":"uint256","internalType":"uint256"},{"name":"gasFees","type":"bytes32","internalType":"bytes32"},{"name":"paymasterAndData","type":"bytes","internalType":"bytes"},{"name":"signature","type":"bytes","internalType":"bytes"}]},{"name":"userOpHash","type":"bytes32","internalType":"bytes32"},{"name":"maxCost","type":"uint256","internalType":"uint256"}],"outputs":[{"name":"context","type":"bytes","internalType":"bytes"},{"name":"validationData","type":"uint256","internalType":"uint256"}],"stateMutability":"nonpayable"},{"type":"function","name":"verifyingSigner","inputs":[],"outputs":[{"name":"","type":"address","internalType":"address"}],"stateMutability":"view"},{"type":"function","name":"withdraw","inputs":[{"name":"_to","type":"address","internalType":"address payable"},{"name":"_amount","type":"uint256","internalType":"uint256"}],"outputs":[],"stateMutability":"nonpayable"},{"type":"function","name":"withdrawStake","inputs":[{"name":"withdrawAddress","type":"address","internalType":"address payable"}],"outputs":[],"stateMutability":"nonpayable"},{"type":"function","name":"withdrawTo","inputs":[{"name":"withdrawAddress","type":"address","internalType":"address payable"},{"name":"amount","type":"uint256","internalType":"uint256"}],"outputs":[],"stateMutability":"nonpayable"},{"type":"event","name":"EmergencyPause","inputs":[{"name":"pausedBy","type":"address","indexed":true,"internalType":"address"},{"name":"reason","type":"string","indexed":false,"internalType":"string"}],"anonymous":false},{"type":"event","name":"EmergencyUnpause","inputs":[{"name":"unpausedBy","type":"address","indexed":true,"internalType":"address"}],"anonymous":false},{"type":"event","name":"GlobalCapUpdated","inputs":[{"name":"newCap","type":"uint256","indexed":false,"internalType":"uint256"}],"anonymous":false},{"type":"event","name":"GlobalDailyCapExceeded","inputs":[],"anonymous":false},{"type":"event","name":"OwnershipTransferStarted","inputs":[{"name":"previousOwner","type":"address","indexed":true,"internalType":"address"},{"name":"newOwner","type":"address","indexed":true,"internalType":"address"}],"anonymous":false},{"type":"event","name":"OwnershipTransferred","inputs":[{"name":"previousOwner","type":"address","indexed":true,"internalType":"address"},{"name":"newOwner","type":"address","indexed":true,"internalType":"address"}],"anonymous":false},{"type":"event","name":"Paused","inputs":[{"name":"account","type":"address","indexed":false,"internalType":"address"}],"anonymous":false},{"type":"event","name":"RateLimitExceeded","inputs":[{"name":"user","type":"address","indexed":true,"internalType":"address"}],"anonymous":false},{"type":"event","name":"Unpaused","inputs":[{"name":"account","type":"address","indexed":false,"internalType":"address"}],"anonymous":false},{"type":"event","name":"UserDailyLimitExceeded","inputs":[{"name":"user","type":"address","indexed":true,"internalType":"address"}],"anonymous":false},{"type":"event","name":"UserGasLimitUpdated","inputs":[{"name":"user","type":"address","indexed":true,"internalType":"address"},{"name":"newLimit","type":"uint256","indexed":false,"internalType":"uint256"}],"anonymous":false},{"type":"event","name":"WhitelistUpdated","inputs":[{"name":"user","type":"address","indexed":true,"internalType":"address"},{"name":"status","type":"bool","indexed":false,"internalType":"bool"}],"anonymous":false},{"type":"error","name":"ECDSAInvalidSignature","inputs":[]},{"type":"error","name":"ECDSAInvalidSignatureLength","inputs":[{"name":"length","type":"uint256","internalType":"uint256"}]},{"type":"error","name":"ECDSAInvalidSignatureS","inputs":[{"name":"s","type":"bytes32","internalType":"bytes32"}]},{"type":"error","name":"EnforcedPause","inputs":[]},{"type":"error","name":"ExpectedPause","inputs":[]},{"type":"error","name":"OwnableInvalidOwner","inputs":[{"name":"owner","type":"address","internalType":"address"}]},{"type":"error","name":"OwnableUnauthorizedAccount","inputs":[{"name":"account","type":"address","internalType":"address"}]}],"bytecode":{"object":"0x60a06040525f600260146101000a81548160ff021916908315150217905550348015610029575f5ffd5b50604051613d8c380380613d8c833981810160405281019061004b91906103e8565b81335f73ffffffffffffffffffffffffffffffffffffffff168173ffffffffffffffffffffffffffffffffffffffff16036100bd575f6040517f1e4fbdf70000000000000000000000000000000000000000000000000000000081526004016100b49190610435565b60405180910390fd5b6100cc8161017e60201b60201c565b506100dc816101b460201b60201c565b8073ffffffffffffffffffffffffffffffffffffffff1660808173ffffffffffffffffffffffffffffffffffffffff1681525050506101203361017e60201b60201c565b8060025f6101000a81548173ffffffffffffffffffffffffffffffffffffffff021916908373ffffffffffffffffffffffffffffffffffffffff160217905550683635c9adc5dea00000600681905550426008819055505050610579565b60015f6101000a81549073ffffffffffffffffffffffffffffffffffffffff02191690556101b18161028e60201b60201c565b50565b8073ffffffffffffffffffffffffffffffffffffffff166301ffc9a77f989ccc58000000000000000000000000000000000000000000000000000000006040518263ffffffff1660e01b815260040161020d9190610488565b602060405180830381865afa158015610228573d5f5f3e3d5ffd5b505050506040513d601f19601f8201168201806040525081019061024c91906104d6565b61028b576040517f08c379a00000000000000000000000000000000000000000000000000000000081526004016102829061055b565b60405180910390fd5b50565b5f5f5f9054906101000a900473ffffffffffffffffffffffffffffffffffffffff169050815f5f6101000a81548173ffffffffffffffffffffffffffffffffffffffff021916908373ffffffffffffffffffffffffffffffffffffffff1602179055508173ffffffffffffffffffffffffffffffffffffffff168173ffffffffffffffffffffffffffffffffffffffff167f8be0079c531659141344cd1fd0a4f28419497f9722a3daafe3b4186f6b6457e060405160405180910390a35050565b5f5ffd5b5f73ffffffffffffffffffffffffffffffffffffffff82169050919050565b5f61037c82610353565b9050919050565b5f61038d82610372565b9050919050565b61039d81610383565b81146103a7575f5ffd5b50565b5f815190506103b881610394565b92915050565b6103c781610372565b81146103d1575f5ffd5b50565b5f815190506103e2816103be565b92915050565b5f5f604083850312156103fe576103fd61034f565b5b5f61040b858286016103aa565b925050602061041c858286016103d4565b9150509250929050565b61042f81610372565b82525050565b5f6020820190506104485f830184610426565b92915050565b5f7fffffffff0000000000000000000000000000000000000000000000000000000082169050919050565b6104828161044e565b82525050565b5f60208201905061049b5f830184610479565b92915050565b5f8115159050919050565b6104b5816104a1565b81146104bf575f5ffd5b50565b5f815190506104d0816104ac565b92915050565b5f602082840312156104eb576104ea61034f565b5b5f6104f8848285016104c2565b91505092915050565b5f82825260208201905092915050565b7f49456e747279506f696e7420696e74657266616365206d69736d6174636800005f82015250565b5f610545601e83610501565b915061055082610511565b602082019050919050565b5f6020820190508181035f83015261057281610539565b9050919050565b6080516137bc6105d05f395f8181610a0101528181610a8d01528181610c4e01528181611444015281816114980152818161151d015281816115a70152818161170b01528181611c940152611e8a01526137bc5ff3fe608060405260043610610271575f3560e01c8063796d43711161014e578063cf5b4fd5116100c0578063ec406e8411610079578063ec406e84146108cb578063f2fde38b14610907578063f3fef3a31461092f578063f5cba98c14610957578063f8e226c51461097f578063f94c04fc146109bb57610271565b8063cf5b4fd5146107de578063d0e30db014610806578063d2a94f0214610810578063d6ffced61461083a578063e3051eb514610864578063e30c3978146108a157610271565b8063b0d691fe11610112578063b0d691fe146106e6578063b187bd2614610710578063b2cdf1bc1461073a578063bb9fe6bf14610776578063c23a5cea1461078c578063c399ec88146107b457610271565b8063796d43711461062a57806379ba5097146106545780637c627b211461066a5780637dc08a97146106925780638da5cb5b146106bc57610271565b80633af32abf116101e75780635c975abb116101ab5780635c975abb146105325780637130dfc91461055c578063715018a614610586578063724326041461059c57806373751ad4146105d8578063772d3b981461060057610271565b80633af32abf1461043f5780634918354d1461047b5780634a4e3bd5146104b757806352b7512c146104cd57806359bf26c81461050a57610271565b806323d9ac9b1161023957806323d9ac9b1461033357806324b05c531461035d57806325a13b4914610387578063279f92b9146103b15780632c4143a2146103d957806330af94631461041557610271565b80630396cb60146102755780630497de4a146102915780630c424284146102bb578063205c2878146102e35780632151b4fa1461030b575b5f5ffd5b61028f600480360381019061028a919061265a565b6109f7565b005b34801561029c575f5ffd5b506102a5610a8a565b6040516102b2919061269d565b60405180910390f35b3480156102c6575f5ffd5b506102e160048036038101906102dc9190612745565b610b28565b005b3480156102ee575f5ffd5b50610309600480360381019061030491906127e8565b610c44565b005b348015610316575f5ffd5b50610331600480360381019061032c9190612826565b610cd8565b005b34801561033e575f5ffd5b50610347610d63565b6040516103549190612860565b60405180910390f35b348015610368575f5ffd5b50610371610d88565b60405161037e919061269d565b60405180910390f35b348015610392575f5ffd5b5061039b610d8d565b6040516103a8919061269d565b60405180910390f35b3480156103bc575f5ffd5b506103d760048036038101906103d29190612879565b610d93565b005b3480156103e4575f5ffd5b506103ff60048036038101906103fa91906128b7565b610e9d565b60405161040c919061269d565b60405180910390f35b348015610420575f5ffd5b50610429610eb2565b604051610436919061269d565b60405180910390f35b34801561044a575f5ffd5b50610465600480360381019061046091906128b7565b610eb8565b60405161047291906128f1565b60405180910390f35b348015610486575f5ffd5b506104a1600480360381019061049c91906128b7565b610ed5565b6040516104ae919061269d565b60405180910390f35b3480156104c2575f5ffd5b506104cb610eea565b005b3480156104d8575f5ffd5b506104f360048036038101906104ee9190612960565b610fa0565b604051610501929190612a3c565b60405180910390f35b348015610515575f5ffd5b50610530600480360381019061052b9190612acb565b610fc2565b005b34801561053d575f5ffd5b50610546611160565b60405161055391906128f1565b60405180910390f35b348015610567575f5ffd5b50610570611176565b60405161057d919061269d565b60405180910390f35b348015610591575f5ffd5b5061059a61117b565b005b3480156105a7575f5ffd5b506105c260048036038101906105bd91906128b7565b61118e565b6040516105cf919061269d565b60405180910390f35b3480156105e3575f5ffd5b506105fe60048036038101906105f99190612b28565b6111a3565b005b34801561060b575f5ffd5b50610614611353565b604051610621919061269d565b60405180910390f35b348015610635575f5ffd5b5061063e611360565b60405161064b919061269d565b60405180910390f35b34801561065f575f5ffd5b50610668611364565b005b348015610675575f5ffd5b50610690600480360381019061068b9190612bfd565b6113f2565b005b34801561069d575f5ffd5b506106a661140e565b6040516106b3919061269d565b60405180910390f35b3480156106c7575f5ffd5b506106d061141b565b6040516106dd9190612860565b60405180910390f35b3480156106f1575f5ffd5b506106fa611442565b6040516107079190612cdc565b60405180910390f35b34801561071b575f5ffd5b50610724611466565b60405161073191906128f1565b60405180910390f35b348015610745575f5ffd5b50610760600480360381019061075b91906128b7565b611479565b60405161076d919061269d565b60405180910390f35b348015610781575f5ffd5b5061078a61148e565b005b348015610797575f5ffd5b506107b260048036038101906107ad9190612cf5565b611513565b005b3480156107bf575f5ffd5b506107c86115a4565b6040516107d5919061269d565b60405180910390f35b3480156107e9575f5ffd5b5061080460048036038101906107ff9190612d75565b611642565b005b61080e611709565b005b34801561081b575f5ffd5b50610824611793565b604051610831919061269d565b60405180910390f35b348015610845575f5ffd5b5061084e611799565b60405161085b919061269d565b60405180910390f35b34801561086f575f5ffd5b5061088a600480360381019061088591906128b7565b6117e4565b604051610898929190612dc0565b60405180910390f35b3480156108ac575f5ffd5b506108b56119f8565b6040516108c29190612860565b60405180910390f35b3480156108d6575f5ffd5b506108f160048036038101906108ec91906128b7565b611a20565b6040516108fe919061269d565b60405180910390f35b348015610912575f5ffd5b5061092d600480360381019061092891906128b7565b611b70565b005b34801561093a575f5ffd5b50610955600480360381019061095091906127e8565b611c1c565b005b348015610962575f5ffd5b5061097d600480360381019061097891906128b7565b611d1e565b005b34801561098a575f5ffd5b506109a560048036038101906109a091906128b7565b611dd7565b6040516109b2919061269d565b60405180910390f35b3480156109c6575f5ffd5b506109e160048036038101906109dc91906128b7565b611dec565b6040516109ee919061269d565b60405180910390f35b6109ff611e01565b7f000000000000000000000000000000000000000000000000000000000000000073ffffffffffffffffffffffffffffffffffffffff16630396cb6034836040518363ffffffff1660e01b8152600401610a599190612df6565b5f604051808303818588803b158015610a70575f5ffd5b505af1158015610a82573d5f5f3e3d5ffd5b505050505050565b5f7f000000000000000000000000000000000000000000000000000000000000000073ffffffffffffffffffffffffffffffffffffffff166370a08231306040518263ffffffff1660e01b8152600401610ae49190612860565b602060405180830381865afa158015610aff573d5f5f3e3d5ffd5b505050506040513d601f19601f82011682018060405250810190610b239190612e23565b905090565b610b30611e01565b5f73ffffffffffffffffffffffffffffffffffffffff168273ffffffffffffffffffffffffffffffffffffffff1603610b9e576040517f08c379a0000000000000000000000000000000000000000000000000000000008152600401610b9590612ece565b60405180910390fd5b80600c5f8473ffffffffffffffffffffffffffffffffffffffff1673ffffffffffffffffffffffffffffffffffffffff1681526020019081526020015f205f6101000a81548160ff0219169083151502179055508173ffffffffffffffffffffffffffffffffffffffff167ff93f9a76c1bf3444d22400a00cb9fe990e6abe9dbb333fda48859cfee864543d82604051610c3891906128f1565b60405180910390a25050565b610c4c611e01565b7f000000000000000000000000000000000000000000000000000000000000000073ffffffffffffffffffffffffffffffffffffffff1663205c287883836040518363ffffffff1660e01b8152600401610ca7929190612efb565b5f604051808303815f87803b158015610cbe575f5ffd5b505af1158015610cd0573d5f5f3e3d5ffd5b505050505050565b610ce0611e01565b5f8111610d22576040517f08c379a0000000000000000000000000000000000000000000000000000000008152600401610d1990612f6c565b60405180910390fd5b806006819055507f11c8ac8d453697789c7004a64ada5a457632c9c9c87b6b0870e4b67874f6fc2a81604051610d58919061269d565b60405180910390a150565b60025f9054906101000a900473ffffffffffffffffffffffffffffffffffffffff1681565b600a81565b60065481565b610d9b611e01565b5f73ffffffffffffffffffffffffffffffffffffffff168273ffffffffffffffffffffffffffffffffffffffff1603610e09576040517f08c379a0000000000000000000000000000000000000000000000000000000008152600401610e0090612ece565b60405180910390fd5b8060035f8473ffffffffffffffffffffffffffffffffffffffff1673ffffffffffffffffffffffffffffffffffffffff1681526020019081526020015f20819055508173ffffffffffffffffffffffffffffffffffffffff167f09fc252c27adc248d1ce5c5e58aad6b09c32d74b209af143d8a9ab8e1911230682604051610e91919061269d565b60405180910390a25050565b600b602052805f5260405f205f915090505481565b60085481565b600c602052805f5260405f205f915054906101000a900460ff1681565b6009602052805f5260405f205f915090505481565b610ef2611e01565b600260149054906101000a900460ff16610f41576040517f08c379a0000000000000000000000000000000000000000000000000000000008152600401610f3890612ffa565b60405180910390fd5b5f600260146101000a81548160ff0219169083151502179055503373ffffffffffffffffffffffffffffffffffffffff167f306ca22c455fe433ebbf0542bbf947ea6a725495f9e1043db2a47e3c5794038560405160405180910390a2565b60605f610fab611e88565b610fb6858585611f18565b91509150935093915050565b610fca611e01565b5f5f90505b8383905081101561115a575f73ffffffffffffffffffffffffffffffffffffffff1684848381811061100457611003613018565b5b905060200201602081019061101991906128b7565b73ffffffffffffffffffffffffffffffffffffffff160361106f576040517f08c379a000000000000000000000000000000000000000000000000000000000815260040161106690612ece565b60405180910390fd5b8160035f86868581811061108657611085613018565b5b905060200201602081019061109b91906128b7565b73ffffffffffffffffffffffffffffffffffffffff1673ffffffffffffffffffffffffffffffffffffffff1681526020019081526020015f20819055508383828181106110eb576110ea613018565b5b905060200201602081019061110091906128b7565b73ffffffffffffffffffffffffffffffffffffffff167f09fc252c27adc248d1ce5c5e58aad6b09c32d74b209af143d8a9ab8e1911230683604051611145919061269d565b60405180910390a28080600101915050610fcf565b50505050565b5f600160149054906101000a900460ff16905090565b603c81565b611183611e01565b61118c5f611f91565b565b6003602052805f5260405f205f915090505481565b6111ab611e01565b5f5f90505b8383905081101561134d575f73ffffffffffffffffffffffffffffffffffffffff168484838181106111e5576111e4613018565b5b90506020020160208101906111fa91906128b7565b73ffffffffffffffffffffffffffffffffffffffff1603611250576040517f08c379a000000000000000000000000000000000000000000000000000000000815260040161124790612ece565b60405180910390fd5b81600c5f86868581811061126757611266613018565b5b905060200201602081019061127c91906128b7565b73ffffffffffffffffffffffffffffffffffffffff1673ffffffffffffffffffffffffffffffffffffffff1681526020019081526020015f205f6101000a81548160ff0219169083151502179055508383828181106112de576112dd613018565b5b90506020020160208101906112f391906128b7565b73ffffffffffffffffffffffffffffffffffffffff167ff93f9a76c1bf3444d22400a00cb9fe990e6abe9dbb333fda48859cfee864543d8360405161133891906128f1565b60405180910390a280806001019150506111b0565b50505050565b683635c9adc5dea0000081565b5f81565b5f61136d611fc1565b90508073ffffffffffffffffffffffffffffffffffffffff1661138e6119f8565b73ffffffffffffffffffffffffffffffffffffffff16146113e657806040517f118cdaa70000000000000000000000000000000000000000000000000000000081526004016113dd9190612860565b60405180910390fd5b6113ef81611f91565b50565b6113fa611e88565b6114078585858585611fc8565b5050505050565b6802b5e3af16b188000081565b5f5f5f9054906101000a900473ffffffffffffffffffffffffffffffffffffffff16905090565b7f000000000000000000000000000000000000000000000000000000000000000081565b600260149054906101000a900460ff1681565b6004602052805f5260405f205f915090505481565b611496611e01565b7f000000000000000000000000000000000000000000000000000000000000000073ffffffffffffffffffffffffffffffffffffffff1663bb9fe6bf6040518163ffffffff1660e01b81526004015f604051808303815f87803b1580156114fb575f5ffd5b505af115801561150d573d5f5f3e3d5ffd5b50505050565b61151b611e01565b7f000000000000000000000000000000000000000000000000000000000000000073ffffffffffffffffffffffffffffffffffffffff1663c23a5cea826040518263ffffffff1660e01b81526004016115749190613045565b5f604051808303815f87803b15801561158b575f5ffd5b505af115801561159d573d5f5f3e3d5ffd5b5050505050565b5f7f000000000000000000000000000000000000000000000000000000000000000073ffffffffffffffffffffffffffffffffffffffff166370a08231306040518263ffffffff1660e01b81526004016115fe9190612860565b602060405180830381865afa158015611619573d5f5f3e3d5ffd5b505050506040513d601f19601f8201168201806040525081019061163d9190612e23565b905090565b61164a611e01565b600260149054906101000a900460ff161561169a576040517f08c379a0000000000000000000000000000000000000000000000000000000008152600401611691906130ce565b60405180910390fd5b6001600260146101000a81548160ff0219169083151502179055503373ffffffffffffffffffffffffffffffffffffffff167fc50068396f19981cb0435611d2c97dde7b6882fdc3185a9fb8080fa756b3974d83836040516116fd929190613126565b60405180910390a25050565b7f000000000000000000000000000000000000000000000000000000000000000073ffffffffffffffffffffffffffffffffffffffff1663b760faf934306040518363ffffffff1660e01b81526004016117639190612860565b5f604051808303818588803b15801561177a575f5ffd5b505af115801561178c573d5f5f3e3d5ffd5b5050505050565b60075481565b5f62015180600854426117ac9190613175565b106117bb5760065490506117e1565b600654600754106117ce575f90506117e1565b6007546006546117de9190613175565b90505b90565b5f5f600c5f8473ffffffffffffffffffffffffffffffffffffffff1673ffffffffffffffffffffffffffffffffffffffff1681526020019081526020015f205f9054906101000a900460ff1615611860577fffffffffffffffffffffffffffffffffffffffffffffffffffffffffffffffff5f915091506119f3565b600b5f8473ffffffffffffffffffffffffffffffffffffffff1673ffffffffffffffffffffffffffffffffffffffff1681526020019081526020015f205460095f8573ffffffffffffffffffffffffffffffffffffffff1673ffffffffffffffffffffffffffffffffffffffff1681526020019081526020015f2054426118e79190613175565b106118f857600a42915091506119f3565b5f600a5f8573ffffffffffffffffffffffffffffffffffffffff1673ffffffffffffffffffffffffffffffffffffffff1681526020019081526020015f20549050600a8110611996575f603c60095f8773ffffffffffffffffffffffffffffffffffffffff1673ffffffffffffffffffffffffffffffffffffffff1681526020019081526020015f205461198c91906131a8565b92509250506119f3565b80600a6119a39190613175565b603c60095f8773ffffffffffffffffffffffffffffffffffffffff1673ffffffffffffffffffffffffffffffffffffffff1681526020019081526020015f20546119ed91906131a8565b92509250505b915091565b5f60015f9054906101000a900473ffffffffffffffffffffffffffffffffffffffff16905090565b5f5f60035f8473ffffffffffffffffffffffffffffffffffffffff1673ffffffffffffffffffffffffffffffffffffffff1681526020019081526020015f205490505f8103611a76576802b5e3af16b188000090505b6201518060055f8573ffffffffffffffffffffffffffffffffffffffff1673ffffffffffffffffffffffffffffffffffffffff1681526020019081526020015f205442611ac39190613175565b10611ad15780915050611b6b565b8060045f8573ffffffffffffffffffffffffffffffffffffffff1673ffffffffffffffffffffffffffffffffffffffff1681526020019081526020015f205410611b1e575f915050611b6b565b60045f8473ffffffffffffffffffffffffffffffffffffffff1673ffffffffffffffffffffffffffffffffffffffff1681526020019081526020015f205481611b679190613175565b9150505b919050565b611b78611e01565b8060015f6101000a81548173ffffffffffffffffffffffffffffffffffffffff021916908373ffffffffffffffffffffffffffffffffffffffff1602179055508073ffffffffffffffffffffffffffffffffffffffff16611bd761141b565b73ffffffffffffffffffffffffffffffffffffffff167f38d16b8cac22d99fc7c124b9cd0de2d3fa1faef420bfe791d8c362d765e2270060405160405180910390a350565b611c24611e01565b5f73ffffffffffffffffffffffffffffffffffffffff168273ffffffffffffffffffffffffffffffffffffffff1603611c92576040517f08c379a0000000000000000000000000000000000000000000000000000000008152600401611c899061324b565b60405180910390fd5b7f000000000000000000000000000000000000000000000000000000000000000073ffffffffffffffffffffffffffffffffffffffff1663205c287883836040518363ffffffff1660e01b8152600401611ced929190612efb565b5f604051808303815f87803b158015611d04575f5ffd5b505af1158015611d16573d5f5f3e3d5ffd5b505050505050565b611d26611e01565b5f73ffffffffffffffffffffffffffffffffffffffff168173ffffffffffffffffffffffffffffffffffffffff1603611d94576040517f08c379a0000000000000000000000000000000000000000000000000000000008152600401611d8b906132d9565b60405180910390fd5b8060025f6101000a81548173ffffffffffffffffffffffffffffffffffffffff021916908373ffffffffffffffffffffffffffffffffffffffff16021790555050565b6005602052805f5260405f205f915090505481565b600a602052805f5260405f205f915090505481565b611e09611fc1565b73ffffffffffffffffffffffffffffffffffffffff16611e2761141b565b73ffffffffffffffffffffffffffffffffffffffff1614611e8657611e4a611fc1565b6040517f118cdaa7000000000000000000000000000000000000000000000000000000008152600401611e7d9190612860565b60405180910390fd5b565b7f000000000000000000000000000000000000000000000000000000000000000073ffffffffffffffffffffffffffffffffffffffff163373ffffffffffffffffffffffffffffffffffffffff1614611f16576040517f08c379a0000000000000000000000000000000000000000000000000000000008152600401611f0d90613341565b60405180910390fd5b565b60605f600260149054906101000a900460ff1615611f6b576040517f08c379a0000000000000000000000000000000000000000000000000000000008152600401611f62906130ce565b60405180910390fd5b5f611f768686612003565b905080611f845f865f612229565b9250925050935093915050565b60015f6101000a81549073ffffffffffffffffffffffffffffffffffffffff0219169055611fbe8161225d565b50565b5f33905090565b6040517f08c379a0000000000000000000000000000000000000000000000000000000008152600401611ffa906133a9565b60405180910390fd5b6060365f848060e0019061201791906133d3565b915091506061828290501015612062576040517f08c379a0000000000000000000000000000000000000000000000000000000008152600401612059906134a5565b60405180910390fd5b5f8282601490601a92612077939291906134cb565b906120829190613546565b60d01c90505f8383601a9060209261209c939291906134cb565b906120a79190613546565b60d01c9050365f858560209080926120c1939291906134cb565b915091505f8885856040516020016120db93929190613609565b6040516020818303038152906040528051906020012090505f6120fd8261231e565b90505f61215685858080601f0160208091040260200160405190810160405280939291908181526020018383808284375f81840152601f19601f820116905080830192505050505050508361235190919063ffffffff16565b905060025f9054906101000a900473ffffffffffffffffffffffffffffffffffffffff1673ffffffffffffffffffffffffffffffffffffffff168173ffffffffffffffffffffffffffffffffffffffff16146121e7576040517f08c379a00000000000000000000000000000000000000000000000000000000081526004016121de906136b5565b60405180910390fd5b8b5f0160208101906121f991906128b7565b6040516020016122099190612860565b604051602081830303815290604052995050505050505050505092915050565b5f60d08265ffffffffffff16901b60a08465ffffffffffff16901b8561224f575f612252565b60015b171790509392505050565b5f5f5f9054906101000a900473ffffffffffffffffffffffffffffffffffffffff169050815f5f6101000a81548173ffffffffffffffffffffffffffffffffffffffff021916908373ffffffffffffffffffffffffffffffffffffffff1602179055508173ffffffffffffffffffffffffffffffffffffffff168173ffffffffffffffffffffffffffffffffffffffff167f8be0079c531659141344cd1fd0a4f28419497f9722a3daafe3b4186f6b6457e060405160405180910390a35050565b5f7f19457468657265756d205369676e6564204d6573736167653a0a3332000000005f5281601c52603c5f209050919050565b5f5f5f5f61235f868661237b565b92509250925061236f82826123d0565b82935050505092915050565b5f5f5f60418451036123bb575f5f5f602087015192506040870151915060608701515f1a90506123ad88828585612532565b9550955095505050506123c9565b5f600285515f1b9250925092505b9250925092565b5f60038111156123e3576123e26136d3565b5b8260038111156123f6576123f56136d3565b5b031561252e57600160038111156124105761240f6136d3565b5b826003811115612423576124226136d3565b5b0361245a576040517ff645eedf00000000000000000000000000000000000000000000000000000000815260040160405180910390fd5b6002600381111561246e5761246d6136d3565b5b826003811115612481576124806136d3565b5b036124c557805f1c6040517ffce698f70000000000000000000000000000000000000000000000000000000081526004016124bc919061269d565b60405180910390fd5b6003808111156124d8576124d76136d3565b5b8260038111156124eb576124ea6136d3565b5b0361252d57806040517fd78bce0c000000000000000000000000000000000000000000000000000000008152600401612524919061370f565b60405180910390fd5b5b5050565b5f5f5f7f7fffffffffffffffffffffffffffffff5d576e7357a4501ddfe92f46681b20a0845f1c111561256e575f60038592509250925061260f565b5f6001888888886040515f81526020016040526040516125919493929190613743565b6020604051602081039080840390855afa1580156125b1573d5f5f3e3d5ffd5b5050506020604051035190505f73ffffffffffffffffffffffffffffffffffffffff168173ffffffffffffffffffffffffffffffffffffffff1603612602575f60015f5f1b9350935093505061260f565b805f5f5f1b935093509350505b9450945094915050565b5f5ffd5b5f5ffd5b5f63ffffffff82169050919050565b61263981612621565b8114612643575f5ffd5b50565b5f8135905061265481612630565b92915050565b5f6020828403121561266f5761266e612619565b5b5f61267c84828501612646565b91505092915050565b5f819050919050565b61269781612685565b82525050565b5f6020820190506126b05f83018461268e565b92915050565b5f73ffffffffffffffffffffffffffffffffffffffff82169050919050565b5f6126df826126b6565b9050919050565b6126ef816126d5565b81146126f9575f5ffd5b50565b5f8135905061270a816126e6565b92915050565b5f8115159050919050565b61272481612710565b811461272e575f5ffd5b50565b5f8135905061273f8161271b565b92915050565b5f5f6040838503121561275b5761275a612619565b5b5f612768858286016126fc565b925050602061277985828601612731565b9150509250929050565b5f61278d826126b6565b9050919050565b61279d81612783565b81146127a7575f5ffd5b50565b5f813590506127b881612794565b92915050565b6127c781612685565b81146127d1575f5ffd5b50565b5f813590506127e2816127be565b92915050565b5f5f604083850312156127fe576127fd612619565b5b5f61280b858286016127aa565b925050602061281c858286016127d4565b9150509250929050565b5f6020828403121561283b5761283a612619565b5b5f612848848285016127d4565b91505092915050565b61285a816126d5565b82525050565b5f6020820190506128735f830184612851565b92915050565b5f5f6040838503121561288f5761288e612619565b5b5f61289c858286016126fc565b92505060206128ad858286016127d4565b9150509250929050565b5f602082840312156128cc576128cb612619565b5b5f6128d9848285016126fc565b91505092915050565b6128eb81612710565b82525050565b5f6020820190506129045f8301846128e2565b92915050565b5f5ffd5b5f61012082840312156129245761292361290a565b5b81905092915050565b5f819050919050565b61293f8161292d565b8114612949575f5ffd5b50565b5f8135905061295a81612936565b92915050565b5f5f5f6060848603121561297757612976612619565b5b5f84013567ffffffffffffffff8111156129945761299361261d565b5b6129a08682870161290e565b93505060206129b18682870161294c565b92505060406129c2868287016127d4565b9150509250925092565b5f81519050919050565b5f82825260208201905092915050565b8281835e5f83830152505050565b5f601f19601f8301169050919050565b5f612a0e826129cc565b612a1881856129d6565b9350612a288185602086016129e6565b612a31816129f4565b840191505092915050565b5f6040820190508181035f830152612a548185612a04565b9050612a63602083018461268e565b9392505050565b5f5ffd5b5f5ffd5b5f5ffd5b5f5f83601f840112612a8b57612a8a612a6a565b5b8235905067ffffffffffffffff811115612aa857612aa7612a6e565b5b602083019150836020820283011115612ac457612ac3612a72565b5b9250929050565b5f5f5f60408486031215612ae257612ae1612619565b5b5f84013567ffffffffffffffff811115612aff57612afe61261d565b5b612b0b86828701612a76565b93509350506020612b1e868287016127d4565b9150509250925092565b5f5f5f60408486031215612b3f57612b3e612619565b5b5f84013567ffffffffffffffff811115612b5c57612b5b61261d565b5b612b6886828701612a76565b93509350506020612b7b86828701612731565b9150509250925092565b60038110612b91575f5ffd5b50565b5f81359050612ba281612b85565b92915050565b5f5f83601f840112612bbd57612bbc612a6a565b5b8235905067ffffffffffffffff811115612bda57612bd9612a6e565b5b602083019150836001820283011115612bf657612bf5612a72565b5b9250929050565b5f5f5f5f5f60808688031215612c1657612c15612619565b5b5f612c2388828901612b94565b955050602086013567ffffffffffffffff811115612c4457612c4361261d565b5b612c5088828901612ba8565b94509450506040612c63888289016127d4565b9250506060612c74888289016127d4565b9150509295509295909350565b5f819050919050565b5f612ca4612c9f612c9a846126b6565b612c81565b6126b6565b9050919050565b5f612cb582612c8a565b9050919050565b5f612cc682612cab565b9050919050565b612cd681612cbc565b82525050565b5f602082019050612cef5f830184612ccd565b92915050565b5f60208284031215612d0a57612d09612619565b5b5f612d17848285016127aa565b91505092915050565b5f5f83601f840112612d3557612d34612a6a565b5b8235905067ffffffffffffffff811115612d5257612d51612a6e565b5b602083019150836001820283011115612d6e57612d6d612a72565b5b9250929050565b5f5f60208385031215612d8b57612d8a612619565b5b5f83013567ffffffffffffffff811115612da857612da761261d565b5b612db485828601612d20565b92509250509250929050565b5f604082019050612dd35f83018561268e565b612de0602083018461268e565b9392505050565b612df081612621565b82525050565b5f602082019050612e095f830184612de7565b92915050565b5f81519050612e1d816127be565b92915050565b5f60208284031215612e3857612e37612619565b5b5f612e4584828501612e0f565b91505092915050565b5f82825260208201905092915050565b7f56657373656c5061796d61737465723a20696e76616c696420757365722061645f8201527f6472657373000000000000000000000000000000000000000000000000000000602082015250565b5f612eb8602583612e4e565b9150612ec382612e5e565b604082019050919050565b5f6020820190508181035f830152612ee581612eac565b9050919050565b612ef581612783565b82525050565b5f604082019050612f0e5f830185612eec565b612f1b602083018461268e565b9392505050565b7f56657373656c5061796d61737465723a20636170206d757374206265203e20305f82015250565b5f612f56602083612e4e565b9150612f6182612f22565b602082019050919050565b5f6020820190508181035f830152612f8381612f4a565b9050919050565b7f56657373656c5061796d61737465723a20636f6e7472616374206973206e6f745f8201527f2070617573656400000000000000000000000000000000000000000000000000602082015250565b5f612fe4602783612e4e565b9150612fef82612f8a565b604082019050919050565b5f6020820190508181035f83015261301181612fd8565b9050919050565b7f4e487b71000000000000000000000000000000000000000000000000000000005f52603260045260245ffd5b5f6020820190506130585f830184612eec565b92915050565b7f56657373656c5061796d61737465723a20636f6e7472616374206973207061755f8201527f7365640000000000000000000000000000000000000000000000000000000000602082015250565b5f6130b8602383612e4e565b91506130c38261305e565b604082019050919050565b5f6020820190508181035f8301526130e5816130ac565b9050919050565b828183375f83830152505050565b5f6131058385612e4e565b93506131128385846130ec565b61311b836129f4565b840190509392505050565b5f6020820190508181035f83015261313f8184866130fa565b90509392505050565b7f4e487b71000000000000000000000000000000000000000000000000000000005f52601160045260245ffd5b5f61317f82612685565b915061318a83612685565b92508282039050818111156131a2576131a1613148565b5b92915050565b5f6131b282612685565b91506131bd83612685565b92508282019050808211156131d5576131d4613148565b5b92915050565b7f56657373656c5061796d61737465723a20696e76616c696420776974686472615f8201527f77616c2061646472657373000000000000000000000000000000000000000000602082015250565b5f613235602b83612e4e565b9150613240826131db565b604082019050919050565b5f6020820190508181035f83015261326281613229565b9050919050565b7f56657373656c5061796d61737465723a20696e76616c6964207369676e6572205f8201527f6164647265737300000000000000000000000000000000000000000000000000602082015250565b5f6132c3602783612e4e565b91506132ce82613269565b604082019050919050565b5f6020820190508181035f8301526132f0816132b7565b9050919050565b7f53656e646572206e6f7420456e747279506f696e7400000000000000000000005f82015250565b5f61332b601583612e4e565b9150613336826132f7565b602082019050919050565b5f6020820190508181035f8301526133588161331f565b9050919050565b7f6d757374206f76657272696465000000000000000000000000000000000000005f82015250565b5f613393600d83612e4e565b915061339e8261335f565b602082019050919050565b5f6020820190508181035f8301526133c081613387565b9050919050565b5f5ffd5b5f5ffd5b5f5ffd5b5f5f833560016020038436030381126133ef576133ee6133c7565b5b80840192508235915067ffffffffffffffff821115613411576134106133cb565b5b60208301925060018202360383131561342d5761342c6133cf565b5b509250929050565b7f56657373656c5061796d61737465723a20696e76616c6964207061796d6173745f8201527f6572416e6444617461206c656e67746800000000000000000000000000000000602082015250565b5f61348f603083612e4e565b915061349a82613435565b604082019050919050565b5f6020820190508181035f8301526134bc81613483565b9050919050565b5f5ffd5b5f5ffd5b5f5f858511156134de576134dd6134c3565b5b838611156134ef576134ee6134c7565b5b6001850283019150848603905094509492505050565b5f82905092915050565b5f7fffffffffffff000000000000000000000000000000000000000000000000000082169050919050565b5f82821b905092915050565b5f6135518383613505565b8261355c813561350f565b9250600682101561359c576135977fffffffffffff00000000000000000000000000000000000000000000000000008360060360080261353a565b831692505b505092915050565b5f819050919050565b6135be6135b98261292d565b6135a4565b82525050565b5f65ffffffffffff82169050919050565b5f8160d01b9050919050565b5f6135eb826135d5565b9050919050565b6136036135fe826135c4565b6135e1565b82525050565b5f61361482866135ad565b60208201915061362482856135f2565b60068201915061363482846135f2565b600682019150819050949350505050565b7f56657373656c5061796d61737465723a20696e76616c6964207369676e6174755f8201527f7265000000000000000000000000000000000000000000000000000000000000602082015250565b5f61369f602283612e4e565b91506136aa82613645565b604082019050919050565b5f6020820190508181035f8301526136cc81613693565b9050919050565b7f4e487b71000000000000000000000000000000000000000000000000000000005f52602160045260245ffd5b6137098161292d565b82525050565b5f6020820190506137225f830184613700565b92915050565b5f60ff82169050919050565b61373d81613728565b82525050565b5f6080820190506137565f830187613700565b6137636020830186613734565b6137706040830185613700565b61377d6060830184613700565b9594505050505056fea264697066735822122066858b4557ec391a28db9ad1bab0e2cbce53a9f16298b86e602134e20e1c326264736f6c63430008210033","linkReferences":{}},"methodIdentifiers":{"COST_OF_POST()":"796d4371","DEFAULT_GLOBAL_DAILY_CAP()":"772d3b98","DEFAULT_USER_DAILY_GAS_LIMIT()":"7dc08a97","MAX_REQUESTS_PER_WINDOW()":"24b05c53","RATE_LIMIT_WINDOW()":"7130dfc9","acceptOwnership()":"79ba5097","addStake(uint32)":"0396cb60","batchSetUserDailyGasLimit(address[],uint256)":"59bf26c8","batchSetWhitelistStatus(address[],bool)":"73751ad4","deposit()":"d0e30db0","emergencyPause(string)":"cf5b4fd5","emergencyUnpause()":"4a4e3bd5","entryPoint()":"b0d691fe","getDeposit()":"c399ec88","getDepositBalance()":"0497de4a","getGlobalRemainingDailyCap()":"d6ffced6","getUserRateLimitStatus(address)":"e3051eb5","getUserRemainingDailyGas(address)":"ec406e84","globalDailyCap()":"25a13b49","globalSpentToday()":"d2a94f02","isPaused()":"b187bd26","isWhitelisted(address)":"3af32abf","lastGlobalGasReset()":"30af9463","lastUserGasReset(address)":"f8e226c5","owner()":"8da5cb5b","paused()":"5c975abb","pendingOwner()":"e30c3978","postOp(uint8,bytes,uint256,uint256)":"7c627b21","renounceOwnership()":"715018a6","setGlobalDailyCap(uint256)":"2151b4fa","setUserDailyGasLimit(address,uint256)":"279f92b9","setVerifyingSigner(address)":"f5cba98c","setWhitelistStatus(address,bool)":"0c424284","transferOwnership(address)":"f2fde38b","unlockStake()":"bb9fe6bf","userDailyGasLimit(address)":"72432604","userLastRequestTime(address)":"4918354d","userRateLimitWindow(address)":"2c4143a2","userRequestCount(address)":"f94c04fc","userSpentGasToday(address)":"b2cdf1bc","validatePaymasterUserOp((address,uint256,bytes,bytes,bytes32,uint256,bytes32,bytes,bytes),bytes32,uint256)":"52b7512c","verifyingSigner()":"23d9ac9b","withdraw(address,uint256)":"f3fef3a3","withdrawStake(address)":"c23a5cea","withdrawTo(address,uint256)":"205c2878"},"id":92}