{"abi":[{"type":"constructor","inputs":[],"stateMutability":"nonpayable"},{"type":"function","name":"val","inputs":[],"outputs":[{"name":"","type":"uint256","internalType":"uint256"}],"stateMutability":"view"}],"bytecode":{"object":"0x6080604052348015600e575f5ffd5b50607b5f8190555060ac8060215f395ff3fe6080604052348015600e575f5ffd5b50600436106026575f3560e01c80633c6bb43614602a575b5f5ffd5b60306044565b604051603b9190605f565b60405180910390f35b5f5481565b5f819050919050565b6059816049565b82525050565b5f60208201905060705f8301846052565b9291505056fea2646970667358221220b0c3db91399a843c8df6cab6bb75e22292d685429085a0c8cc5cb5b2d5e245a864736f6c63430008210033","linkReferences":{}},"methodIdentifiers":{"val()":"3c6bb436"},"id":90}