{"abi":[{"type":"constructor","inputs":[{"name":"anEntryPoint","type":"address","internalType":"contract IEntryPoint"}],"stateMutability":"nonpayable"},{"type":"receive","stateMutability":"payable"},{"type":"function","name":"UPGRADE_INTERFACE_VERSION","inputs":[],"outputs":[{"name":"","type":"string","internalType":"string"}],"stateMutability":"view"},{"type":"function","name":"addDeposit","inputs":[],"outputs":[],"stateMutability":"payable"},{"type":"function","name":"entryPoint","inputs":[],"outputs":[{"name":"","type":"address","internalType":"contract IEntryPoint"}],"stateMutability":"view"},{"type":"function","name":"execute","inputs":[{"name":"target","type":"address","internalType":"address"},{"name":"value","type":"uint256","internalType":"uint256"},{"name":"data","type":"bytes","internalType":"bytes"}],"outputs":[],"stateMutability":"nonpayable"},{"type":"function","name":"executeBatch","inputs":[{"name":"calls","type":"tuple[]","internalType":"struct BaseAccount.Call[]","components":[{"name":"target","type":"address","internalType":"address"},{"name":"value","type":"uint256","internalType":"uint256"},{"name":"data","type":"bytes","internalType":"bytes"}]}],"outputs":[],"stateMutability":"nonpayable"},{"type":"function","name":"getDeposit","inputs":[],"outputs":[{"name":"","type":"uint256","internalType":"uint256"}],"stateMutability":"view"},{"type":"function","name":"getNonce","inputs":[],"outputs":[{"name":"","type":"uint256","internalType":"uint256"}],"stateMutability":"view"},{"type":"function","name":"initialize","inputs":[{"name":"anOwner","type":"address","internalType":"address"}],"outputs":[],"stateMutability":"nonpayable"},{"type":"function","name":"onERC1155BatchReceived","inputs":[{"name":"","type":"address","internalType":"address"},{"name":"","type":"address","internalType":"address"},{"name":"","type":"uint256[]","internalType":"uint256[]"},{"name":"","type":"uint256[]","internalType":"uint256[]"},{"name":"","type":"bytes","internalType":"bytes"}],"outputs":[{"name":"","type":"bytes4","internalType":"bytes4"}],"stateMutability":"pure"},{"type":"function","name":"onERC1155Received","inputs":[{"name":"","type":"address","internalType":"address"},{"name":"","type":"address","internalType":"address"},{"name":"","type":"uint256","internalType":"uint256"},{"name":"","type":"uint256","internalType":"uint256"},{"name":"","type":"bytes","internalType":"bytes"}],"outputs":[{"name":"","type":"bytes4","internalType":"bytes4"}],"stateMutability":"pure"},{"type":"function","name":"onERC721Received","inputs":[{"name":"","type":"address","internalType":"address"},{"name":"","type":"address","internalType":"address"},{"name":"","type":"uint256","internalType":"uint256"},{"name":"","type":"bytes","internalType":"bytes"}],"outputs":[{"name":"","type":"bytes4","internalType":"bytes4"}],"stateMutability":"pure"},{"type":"function","name":"owner","inputs":[],"outputs":[{"name":"","type":"address","internalType":"address"}],"stateMutability":"view"},{"type":"function","name":"proxiableUUID","inputs":[],"outputs":[{"name":"","type":"bytes32","internalType":"bytes32"}],"stateMutability":"view"},{"type":"function","name":"supportsInterface","inputs":[{"name":"interfaceId","type":"bytes4","internalType":"bytes4"}],"outputs":[{"name":"","type":"bool","internalType":"bool"}],"stateMutability":"view"},{"type":"function","name":"upgradeToAndCall","inputs":[{"name":"newImplementation","type":"address","internalType":"address"},{"name":"data","type":"bytes","internalType":"bytes"}],"outputs":[],"stateMutability":"payable"},{"type":"function","name":"validateUserOp","inputs":[{"name":"userOp","type":"tuple","internalType":"struct PackedUserOperation","components":[{"name":"sender","type":"address","internalType":"address"},{"name":"nonce","type":"uint256","internalType":"uint256"},{"name":"initCode","type":"bytes","internalType":"bytes"},{"name":"callData","type":"bytes","internalType":"bytes"},{"name":"accountGasLimits","type":"bytes32","internalType":"bytes32"},{"name":"preVerificationGas","type":"uint256","internalType":"uint256"},{"name":"gasFees","type":"bytes32","internalType":"bytes32"},{"name":"paymasterAndData","type":"bytes","internalType":"bytes"},{"name":"signature","type":"bytes","internalType":"bytes"}]},{"name":"userOpHash","type":"bytes32","internalType":"bytes32"},{"name":"missingAccountFunds","type":"uint256","internalType":"uint256"}],"outputs":[{"name":"validationData","type":"uint256","internalType":"uint256"}],"stateMutability":"nonpayable"},{"type":"function","name":"withdrawDepositTo","inputs":[{"name":"withdrawAddress","type":"address","internalType":"address payable"},{"name":"amount","type":"uint256","internalType":"uint256"}],"outputs":[],"stateMutability":"nonpayable"},{"type":"event","name":"Initialized","inputs":[{"name":"version","type":"uint64","indexed":false,"internalType":"uint64"}],"anonymous":false},{"type":"event","name":"SimpleAccountInitialized","inputs":[{"name":"entryPoint","type":"address","indexed":true,"internalType":"contract IEntryPoint"},{"name":"owner","type":"address","indexed":true,"internalType":"address"}],"anonymous":false},{"type":"event","name":"Upgraded","inputs":[{"name":"implementation","type":"address","indexed":true,"internalType":"address"}],"anonymous":false},{"type":"error","name":"AddressEmptyCode","inputs":[{"name":"target","type":"address","internalType":"address"}]},{"type":"error","name":"ECDSAInvalidSignature","inputs":[]},{"type":"error","name":"ECDSAInvalidSignatureLength","inputs":[{"name":"length","type":"uint256","internalType":"uint256"}]},{"type":"error","name":"ECDSAInvalidSignatureS","inputs":[{"name":"s","type":"bytes32","internalType":"bytes32"}]},{"type":"error","name":"ERC1967InvalidImplementation","inputs":[{"name":"implementation","type":"address","internalType":"address"}]},{"type":"error","name":"ERC1967NonPayable","inputs":[]},{"type":"error","name":"ExecuteError","inputs":[{"name":"index","type":"uint256","internalType":"uint256"},{"name":"error","type":"bytes","internalType":"bytes"}]},{"type":"error","name":"FailedCall","inputs":[]},{"type":"error","name":"InvalidInitialization","inputs":[]},{"type":"error","name":"NotInitializing","inputs":[]},{"type":"error","name":"UUPSUnauthorizedCallContext","inputs":[]},{"type":"error","name":"UUPSUnsupportedProxiableUUID","inputs":[{"name":"slot","type":"bytes32","internalType":"bytes32"}]}],"bytecode":{"object":"0x60c06040523073ffffffffffffffffffffffffffffffffffffffff1660809073ffffffffffffffffffffffffffffffffffffffff16815250348015610042575f5ffd5b50604051612ac1380380612ac18339818101604052810190610064919061025b565b8073ffffffffffffffffffffffffffffffffffffffff1660a08173ffffffffffffffffffffffffffffffffffffffff16815250506100a66100ac60201b60201c565b506102c1565b5f6100bb6101aa60201b60201c565b9050805f0160089054906101000a900460ff1615610105576040517ff92ee8a900000000000000000000000000000000000000000000000000000000815260040160405180910390fd5b67ffffffffffffffff8016815f015f9054906101000a900467ffffffffffffffff1667ffffffffffffffff16146101a75767ffffffffffffffff815f015f6101000a81548167ffffffffffffffff021916908367ffffffffffffffff1602179055507fc7f505b2f371ae2175ee4913f4499e1f2633a7b5936321eed1cdaeb6115181d267ffffffffffffffff60405161019e91906102a8565b60405180910390a15b50565b5f5f6101ba6101c360201b60201c565b90508091505090565b5f7ff0c57e16840df040f15088dc2f81fe391c3923bec73e23a9662efc9c229c6a005f1b905090565b5f5ffd5b5f73ffffffffffffffffffffffffffffffffffffffff82169050919050565b5f610219826101f0565b9050919050565b5f61022a8261020f565b9050919050565b61023a81610220565b8114610244575f5ffd5b50565b5f8151905061025581610231565b92915050565b5f602082840312156102705761026f6101ec565b5b5f61027d84828501610247565b91505092915050565b5f67ffffffffffffffff82169050919050565b6102a281610286565b82525050565b5f6020820190506102bb5f830184610299565b92915050565b60805160a0516127ca6102f75f395f8181610845015261125701525f8181610f3801528181610f8d015261114701526127ca5ff3fe608060405260043610610101575f3560e01c80638da5cb5b11610094578063bc197c8111610063578063bc197c8114610306578063c399ec8814610342578063c4d66de81461036c578063d087d28814610394578063f23a6e61146103be57610108565b80638da5cb5b14610260578063ad3cb1cc1461028a578063b0d691fe146102b4578063b61d27f6146102de57610108565b80634a58db19116100d05780634a58db19146101e85780634d44560d146101f25780634f1ef2861461021a57806352d1902d1461023657610108565b806301ffc9a71461010c578063150b7a021461014857806319822f7c1461018457806334fcd5be146101c057610108565b3661010857005b5f5ffd5b348015610117575f5ffd5b50610132600480360381019061012d919061193d565b6103fa565b60405161013f9190611982565b60405180910390f35b348015610153575f5ffd5b5061016e60048036038101906101699190611a89565b610533565b60405161017b9190611b1c565b60405180910390f35b34801561018f575f5ffd5b506101aa60048036038101906101a59190611b8b565b610547565b6040516101b79190611c06565b60405180910390f35b3480156101cb575f5ffd5b506101e660048036038101906101e19190611c74565b610579565b005b6101f06106a9565b005b3480156101fd575f5ffd5b5061021860048036038101906102139190611cfa565b61071a565b005b610234600480360381019061022f9190611e70565b610795565b005b348015610241575f5ffd5b5061024a6107b4565b6040516102579190611ed9565b60405180910390f35b34801561026b575f5ffd5b506102746107e5565b6040516102819190611f01565b60405180910390f35b348015610295575f5ffd5b5061029e610809565b6040516102ab9190611f7a565b60405180910390f35b3480156102bf575f5ffd5b506102c8610842565b6040516102d59190611ff5565b60405180910390f35b3480156102e9575f5ffd5b5061030460048036038101906102ff919061200e565b610869565b005b348015610311575f5ffd5b5061032c600480360381019061032791906120d4565b6108d8565b6040516103399190611b1c565b60405180910390f35b34801561034d575f5ffd5b506103566108ef565b6040516103639190611c06565b60405180910390f35b348015610377575f5ffd5b50610392600480360381019061038d91906121ab565b610974565b005b34801561039f575f5ffd5b506103a8610af5565b6040516103b59190611c06565b60405180910390f35b3480156103c9575f5ffd5b506103e460048036038101906103df91906121d6565b610b7c565b6040516103f19190611b1c565b60405180910390f35b5f7f150b7a02000000000000000000000000000000000000000000000000000000007bffffffffffffffffffffffffffffffffffffffffffffffffffffffff1916827bffffffffffffffffffffffffffffffffffffffffffffffffffffffff191614806104c457507f4e2312e0000000000000000000000000000000000000000000000000000000007bffffffffffffffffffffffffffffffffffffffffffffffffffffffff1916827bffffffffffffffffffffffffffffffffffffffffffffffffffffffff1916145b8061052c57507f01ffc9a7000000000000000000000000000000000000000000000000000000007bffffffffffffffffffffffffffffffffffffffffffffffffffffffff1916827bffffffffffffffffffffffffffffffffffffffffffffffffffffffff1916145b9050919050565b5f63150b7a0260e01b905095945050505050565b5f610550610b91565b61055a8484610c08565b90506105698460200135610cca565b61057282610ccd565b9392505050565b610581610d41565b5f8282905090505f5f90505b818110156106a357368484838181106105a9576105a861226c565b5b90506020028101906105bb91906122a5565b90505f610630825f0160208101906105d391906121ab565b83602001358480604001906105e891906122cc565b8080601f0160208091040260200160405190810160405280939291908181526020018383808284375f81840152601f19601f820116905080830192505050505050505a610e0e565b905080610694576001840361064c57610647610e25565b610693565b826106565f610e38565b6040517f5a15467500000000000000000000000000000000000000000000000000000000815260040161068a929190612380565b60405180910390fd5b5b5050808060010191505061058d565b50505050565b6106b1610842565b73ffffffffffffffffffffffffffffffffffffffff1663b760faf934306040518363ffffffff1660e01b81526004016106ea9190611f01565b5f604051808303818588803b158015610701575f5ffd5b505af1158015610713573d5f5f3e3d5ffd5b5050505050565b610722610e70565b61072a610842565b73ffffffffffffffffffffffffffffffffffffffff1663205c287883836040518363ffffffff1660e01b81526004016107649291906123bd565b5f604051808303815f87803b15801561077b575f5ffd5b505af115801561078d573d5f5f3e3d5ffd5b505050505050565b61079d610f36565b6107a68261101c565b6107b08282611027565b5050565b5f6107bd611145565b7f360894a13ba1a3210667c828492db98dca3e2076cc3735a920a3ca505d382bbc5f1b905090565b5f5f9054906101000a900473ffffffffffffffffffffffffffffffffffffffff1681565b6040518060400160405280600581526020017f352e302e3000000000000000000000000000000000000000000000000000000081525081565b5f7f0000000000000000000000000000000000000000000000000000000000000000905090565b610871610d41565b5f6108c1858585858080601f0160208091040260200160405190810160405280939291908181526020018383808284375f81840152601f19601f820116905080830192505050505050505a610e0e565b9050806108d1576108d0610e25565b5b5050505050565b5f63bc197c8160e01b905098975050505050505050565b5f6108f8610842565b73ffffffffffffffffffffffffffffffffffffffff166370a08231306040518263ffffffff1660e01b81526004016109309190611f01565b602060405180830381865afa15801561094b573d5f5f3e3d5ffd5b505050506040513d601f19601f8201168201806040525081019061096f91906123f8565b905090565b5f61097d6111cc565b90505f815f0160089054906101000a900460ff161590505f825f015f9054906101000a900467ffffffffffffffff1690505f5f8267ffffffffffffffff161480156109c55750825b90505f60018367ffffffffffffffff161480156109f857505f3073ffffffffffffffffffffffffffffffffffffffff163b145b905081158015610a06575080155b15610a3d576040517ff92ee8a900000000000000000000000000000000000000000000000000000000815260040160405180910390fd5b6001855f015f6101000a81548167ffffffffffffffff021916908367ffffffffffffffff1602179055508315610a8a576001855f0160086101000a81548160ff0219169083151502179055505b610a93866111df565b8315610aed575f855f0160086101000a81548160ff0219169083151502179055507fc7f505b2f371ae2175ee4913f4499e1f2633a7b5936321eed1cdaeb6115181d26001604051610ae4919061246f565b60405180910390a15b505050505050565b5f610afe610842565b73ffffffffffffffffffffffffffffffffffffffff166335567e1a305f6040518363ffffffff1660e01b8152600401610b389291906124e4565b602060405180830381865afa158015610b53573d5f5f3e3d5ffd5b505050506040513d601f19601f82011682018060405250810190610b7791906123f8565b905090565b5f63f23a6e6160e01b90509695505050505050565b610b99610842565b73ffffffffffffffffffffffffffffffffffffffff163373ffffffffffffffffffffffffffffffffffffffff1614610c06576040517f08c379a0000000000000000000000000000000000000000000000000000000008152600401610bfd90612555565b60405180910390fd5b565b5f610c658284806101000190610c1e91906122cc565b8080601f0160208091040260200160405190810160405280939291908181526020018383808284375f81840152601f19601f820116905080830192505050505050506112bb565b73ffffffffffffffffffffffffffffffffffffffff165f5f9054906101000a900473ffffffffffffffffffffffffffffffffffffffff1673ffffffffffffffffffffffffffffffffffffffff1614610cc05760019050610cc4565b5f90505b92915050565b50565b5f8114610d3e575f3373ffffffffffffffffffffffffffffffffffffffff1682604051610cf9906125a0565b5f6040518083038185875af1925050503d805f8114610d33576040519150601f19603f3d011682016040523d82523d5f602084013e610d38565b606091505b50509050505b50565b610d49610842565b73ffffffffffffffffffffffffffffffffffffffff163373ffffffffffffffffffffffffffffffffffffffff161480610dcd57505f5f9054906101000a900473ffffffffffffffffffffffffffffffffffffffff1673ffffffffffffffffffffffffffffffffffffffff163373ffffffffffffffffffffffffffffffffffffffff16145b610e0c576040517f08c379a0000000000000000000000000000000000000000000000000000000008152600401610e03906125fe565b60405180910390fd5b565b5f5f5f845160208601878987f19050949350505050565b610e36610e315f610e38565b6112e5565b565b60603d5f831115610e505782811115610e4f578290505b5b604051602082018101604052818152815f602083013e8092505050919050565b5f5f9054906101000a900473ffffffffffffffffffffffffffffffffffffffff1673ffffffffffffffffffffffffffffffffffffffff163373ffffffffffffffffffffffffffffffffffffffff161480610ef557503073ffffffffffffffffffffffffffffffffffffffff163373ffffffffffffffffffffffffffffffffffffffff16145b610f34576040517f08c379a0000000000000000000000000000000000000000000000000000000008152600401610f2b90612666565b60405180910390fd5b565b7f000000000000000000000000000000000000000000000000000000000000000073ffffffffffffffffffffffffffffffffffffffff163073ffffffffffffffffffffffffffffffffffffffff161480610fe357507f000000000000000000000000000000000000000000000000000000000000000073ffffffffffffffffffffffffffffffffffffffff16610fca6112ed565b73ffffffffffffffffffffffffffffffffffffffff1614155b1561101a576040517fe07c8dba00000000000000000000000000000000000000000000000000000000815260040160405180910390fd5b565b611024610e70565b50565b8173ffffffffffffffffffffffffffffffffffffffff166352d1902d6040518163ffffffff1660e01b8152600401602060405180830381865afa92505050801561108f57506040513d601f19601f8201168201806040525081019061108c9190612698565b60015b6110d057816040517f4c9c8ce30000000000000000000000000000000000000000000000000000000081526004016110c79190611f01565b60405180910390fd5b7f360894a13ba1a3210667c828492db98dca3e2076cc3735a920a3ca505d382bbc5f1b811461113657806040517faa1d49a400000000000000000000000000000000000000000000000000000000815260040161112d9190611ed9565b60405180910390fd5b6111408383611340565b505050565b7f000000000000000000000000000000000000000000000000000000000000000073ffffffffffffffffffffffffffffffffffffffff163073ffffffffffffffffffffffffffffffffffffffff16146111ca576040517fe07c8dba00000000000000000000000000000000000000000000000000000000815260040160405180910390fd5b565b5f5f6111d66113b2565b90508091505090565b805f5f6101000a81548173ffffffffffffffffffffffffffffffffffffffff021916908373ffffffffffffffffffffffffffffffffffffffff1602179055505f5f9054906101000a900473ffffffffffffffffffffffffffffffffffffffff1673ffffffffffffffffffffffffffffffffffffffff167f000000000000000000000000000000000000000000000000000000000000000073ffffffffffffffffffffffffffffffffffffffff167f47e55c76e7a6f1fd8996a1da8008c1ea29699cca35e7bcd057f2dec313b6e5de60405160405180910390a350565b5f5f5f5f6112c986866113db565b9250925092506112d98282611430565b82935050505092915050565b805160208201fd5b5f6113197f360894a13ba1a3210667c828492db98dca3e2076cc3735a920a3ca505d382bbc5f1b611592565b5f015f9054906101000a900473ffffffffffffffffffffffffffffffffffffffff16905090565b6113498261159b565b8173ffffffffffffffffffffffffffffffffffffffff167fbc7cd75a20ee27fd9adebab32041f755214dbc6bffa90cc0225b39da2e5c2d3b60405160405180910390a25f815111156113a55761139f8282611664565b506113ae565b6113ad6116e4565b5b5050565b5f7ff0c57e16840df040f15088dc2f81fe391c3923bec73e23a9662efc9c229c6a005f1b905090565b5f5f5f604184510361141b575f5f5f602087015192506040870151915060608701515f1a905061140d88828585611720565b955095509550505050611429565b5f600285515f1b9250925092505b9250925092565b5f6003811115611443576114426126c3565b5b826003811115611456576114556126c3565b5b031561158e57600160038111156114705761146f6126c3565b5b826003811115611483576114826126c3565b5b036114ba576040517ff645eedf00000000000000000000000000000000000000000000000000000000815260040160405180910390fd5b600260038111156114ce576114cd6126c3565b5b8260038111156114e1576114e06126c3565b5b0361152557805f1c6040517ffce698f700000000000000000000000000000000000000000000000000000000815260040161151c9190611c06565b60405180910390fd5b600380811115611538576115376126c3565b5b82600381111561154b5761154a6126c3565b5b0361158d57806040517fd78bce0c0000000000000000000000000000000000000000000000000000000081526004016115849190611ed9565b60405180910390fd5b5b5050565b5f819050919050565b5f8173ffffffffffffffffffffffffffffffffffffffff163b036115f657806040517f4c9c8ce30000000000000000000000000000000000000000000000000000000081526004016115ed9190611f01565b60405180910390fd5b806116227f360894a13ba1a3210667c828492db98dca3e2076cc3735a920a3ca505d382bbc5f1b611592565b5f015f6101000a81548173ffffffffffffffffffffffffffffffffffffffff021916908373ffffffffffffffffffffffffffffffffffffffff16021790555050565b60605f5f8473ffffffffffffffffffffffffffffffffffffffff168460405161168d9190612720565b5f60405180830381855af49150503d805f81146116c5576040519150601f19603f3d011682016040523d82523d5f602084013e6116ca565b606091505b50915091506116da858383611807565b9250505092915050565b5f34111561171e576040517fb398979f00000000000000000000000000000000000000000000000000000000815260040160405180910390fd5b565b5f5f5f7f7fffffffffffffffffffffffffffffff5d576e7357a4501ddfe92f46681b20a0845f1c111561175c575f6003859250925092506117fd565b5f6001888888886040515f815260200160405260405161177f9493929190612751565b6020604051602081039080840390855afa15801561179f573d5f5f3e3d5ffd5b5050506020604051035190505f73ffffffffffffffffffffffffffffffffffffffff168173ffffffffffffffffffffffffffffffffffffffff16036117f0575f60015f5f1b935093509350506117fd565b805f5f5f1b935093509350505b9450945094915050565b60608261181c5761181782611894565b61188c565b5f825114801561184257505f8473ffffffffffffffffffffffffffffffffffffffff163b145b1561188457836040517f9996b31500000000000000000000000000000000000000000000000000000000815260040161187b9190611f01565b60405180910390fd5b81905061188d565b5b9392505050565b5f815111156118a557805160208201fd5b6040517fd6bda27500000000000000000000000000000000000000000000000000000000815260040160405180910390fd5b5f604051905090565b5f5ffd5b5f5ffd5b5f7fffffffff0000000000000000000000000000000000000000000000000000000082169050919050565b61191c816118e8565b8114611926575f5ffd5b50565b5f8135905061193781611913565b92915050565b5f60208284031215611952576119516118e0565b5b5f61195f84828501611929565b91505092915050565b5f8115159050919050565b61197c81611968565b82525050565b5f6020820190506119955f830184611973565b92915050565b5f73ffffffffffffffffffffffffffffffffffffffff82169050919050565b5f6119c48261199b565b9050919050565b6119d4816119ba565b81146119de575f5ffd5b50565b5f813590506119ef816119cb565b92915050565b5f819050919050565b611a07816119f5565b8114611a11575f5ffd5b50565b5f81359050611a22816119fe565b92915050565b5f5ffd5b5f5ffd5b5f5ffd5b5f5f83601f840112611a4957611a48611a28565b5b8235905067ffffffffffffffff811115611a6657611a65611a2c565b5b602083019150836001820283011115611a8257611a81611a30565b5b9250929050565b5f5f5f5f5f60808688031215611aa257611aa16118e0565b5b5f611aaf888289016119e1565b9550506020611ac0888289016119e1565b9450506040611ad188828901611a14565b935050606086013567ffffffffffffffff811115611af257611af16118e4565b5b611afe88828901611a34565b92509250509295509295909350565b611b16816118e8565b82525050565b5f602082019050611b2f5f830184611b0d565b92915050565b5f5ffd5b5f6101208284031215611b4f57611b4e611b35565b5b81905092915050565b5f819050919050565b611b6a81611b58565b8114611b74575f5ffd5b50565b5f81359050611b8581611b61565b92915050565b5f5f5f60608486031215611ba257611ba16118e0565b5b5f84013567ffffffffffffffff811115611bbf57611bbe6118e4565b5b611bcb86828701611b39565b9350506020611bdc86828701611b77565b9250506040611bed86828701611a14565b9150509250925092565b611c00816119f5565b82525050565b5f602082019050611c195f830184611bf7565b92915050565b5f5f83601f840112611c3457611c33611a28565b5b8235905067ffffffffffffffff811115611c5157611c50611a2c565b5b602083019150836020820283011115611c6d57611c6c611a30565b5b9250929050565b5f5f60208385031215611c8a57611c896118e0565b5b5f83013567ffffffffffffffff811115611ca757611ca66118e4565b5b611cb385828601611c1f565b92509250509250929050565b5f611cc98261199b565b9050919050565b611cd981611cbf565b8114611ce3575f5ffd5b50565b5f81359050611cf481611cd0565b92915050565b5f5f60408385031215611d1057611d0f6118e0565b5b5f611d1d85828601611ce6565b9250506020611d2e85828601611a14565b9150509250929050565b5f5ffd5b5f601f19601f8301169050919050565b7f4e487b71000000000000000000000000000000000000000000000000000000005f52604160045260245ffd5b611d8282611d3c565b810181811067ffffffffffffffff82111715611da157611da0611d4c565b5b80604052505050565b5f611db36118d7565b9050611dbf8282611d79565b919050565b5f67ffffffffffffffff821115611dde57611ddd611d4c565b5b611de782611d3c565b9050602081019050919050565b828183375f83830152505050565b5f611e14611e0f84611dc4565b611daa565b905082815260208101848484011115611e3057611e2f611d38565b5b611e3b848285611df4565b509392505050565b5f82601f830112611e5757611e56611a28565b5b8135611e67848260208601611e02565b91505092915050565b5f5f60408385031215611e8657611e856118e0565b5b5f611e93858286016119e1565b925050602083013567ffffffffffffffff811115611eb457611eb36118e4565b5b611ec085828601611e43565b9150509250929050565b611ed381611b58565b82525050565b5f602082019050611eec5f830184611eca565b92915050565b611efb816119ba565b82525050565b5f602082019050611f145f830184611ef2565b92915050565b5f81519050919050565b5f82825260208201905092915050565b8281835e5f83830152505050565b5f611f4c82611f1a565b611f568185611f24565b9350611f66818560208601611f34565b611f6f81611d3c565b840191505092915050565b5f6020820190508181035f830152611f928184611f42565b905092915050565b5f819050919050565b5f611fbd611fb8611fb38461199b565b611f9a565b61199b565b9050919050565b5f611fce82611fa3565b9050919050565b5f611fdf82611fc4565b9050919050565b611fef81611fd5565b82525050565b5f6020820190506120085f830184611fe6565b92915050565b5f5f5f5f60608587031215612026576120256118e0565b5b5f612033878288016119e1565b945050602061204487828801611a14565b935050604085013567ffffffffffffffff811115612065576120646118e4565b5b61207187828801611a34565b925092505092959194509250565b5f5f83601f84011261209457612093611a28565b5b8235905067ffffffffffffffff8111156120b1576120b0611a2c565b5b6020830191508360208202830111156120cd576120cc611a30565b5b9250929050565b5f5f5f5f5f5f5f5f60a0898b0312156120f0576120ef6118e0565b5b5f6120fd8b828c016119e1565b985050602061210e8b828c016119e1565b975050604089013567ffffffffffffffff81111561212f5761212e6118e4565b5b61213b8b828c0161207f565b9650965050606089013567ffffffffffffffff81111561215e5761215d6118e4565b5b61216a8b828c0161207f565b9450945050608089013567ffffffffffffffff81111561218d5761218c6118e4565b5b6121998b828c01611a34565b92509250509295985092959890939650565b5f602082840312156121c0576121bf6118e0565b5b5f6121cd848285016119e1565b91505092915050565b5f5f5f5f5f5f60a087890312156121f0576121ef6118e0565b5b5f6121fd89828a016119e1565b965050602061220e89828a016119e1565b955050604061221f89828a01611a14565b945050606061223089828a01611a14565b935050608087013567ffffffffffffffff811115612251576122506118e4565b5b61225d89828a01611a34565b92509250509295509295509295565b7f4e487b71000000000000000000000000000000000000000000000000000000005f52603260045260245ffd5b5f5ffd5b5f5ffd5b5f5ffd5b5f823560016060038336030381126122c0576122bf612299565b5b80830191505092915050565b5f5f833560016020038436030381126122e8576122e7612299565b5b80840192508235915067ffffffffffffffff82111561230a5761230961229d565b5b602083019250600182023603831315612326576123256122a1565b5b509250929050565b5f81519050919050565b5f82825260208201905092915050565b5f6123528261232e565b61235c8185612338565b935061236c818560208601611f34565b61237581611d3c565b840191505092915050565b5f6040820190506123935f830185611bf7565b81810360208301526123a58184612348565b90509392505050565b6123b781611cbf565b82525050565b5f6040820190506123d05f8301856123ae565b6123dd6020830184611bf7565b9392505050565b5f815190506123f2816119fe565b92915050565b5f6020828403121561240d5761240c6118e0565b5b5f61241a848285016123e4565b91505092915050565b5f819050919050565b5f67ffffffffffffffff82169050919050565b5f61245961245461244f84612423565b611f9a565b61242c565b9050919050565b6124698161243f565b82525050565b5f6020820190506124825f830184612460565b92915050565b5f819050919050565b5f77ffffffffffffffffffffffffffffffffffffffffffffffff82169050919050565b5f6124ce6124c96124c484612488565b611f9a565b612491565b9050919050565b6124de816124b4565b82525050565b5f6040820190506124f75f830185611ef2565b61250460208301846124d5565b9392505050565b7f6163636f756e743a206e6f742066726f6d20456e747279506f696e74000000005f82015250565b5f61253f601c83611f24565b915061254a8261250b565b602082019050919050565b5f6020820190508181035f83015261256c81612533565b9050919050565b5f81905092915050565b50565b5f61258b5f83612573565b91506125968261257d565b5f82019050919050565b5f6125aa82612580565b9150819050919050565b7f6163636f756e743a206e6f74204f776e6572206f7220456e747279506f696e745f82015250565b5f6125e8602083611f24565b91506125f3826125b4565b602082019050919050565b5f6020820190508181035f830152612615816125dc565b9050919050565b7f6f6e6c79206f776e6572000000000000000000000000000000000000000000005f82015250565b5f612650600a83611f24565b915061265b8261261c565b602082019050919050565b5f6020820190508181035f83015261267d81612644565b9050919050565b5f8151905061269281611b61565b92915050565b5f602082840312156126ad576126ac6118e0565b5b5f6126ba84828501612684565b91505092915050565b7f4e487b71000000000000000000000000000000000000000000000000000000005f52602160045260245ffd5b5f6126fa8261232e565b6127048185612573565b9350612714818560208601611f34565b80840191505092915050565b5f61272b82846126f0565b915081905092915050565b5f60ff82169050919050565b61274b81612736565b82525050565b5f6080820190506127645f830187611eca565b6127716020830186612742565b61277e6040830185611eca565b61278b6060830184611eca565b9594505050505056fea26469706673582212208d41282bd87051fcfc7d1293122c6d4a3d14c4746a89578edfbfe5066092e75d64736f6c63430008210033","linkReferences":{}},"methodIdentifiers":{"UPGRADE_INTERFACE_VERSION()":"ad3cb1cc","addDeposit()":"4a58db19","entryPoint()":"b0d691fe","execute(address,uint256,bytes)":"b61d27f6","executeBatch((address,uint256,bytes)[])":"34fcd5be","getDeposit()":"c399ec88","getNonce()":"d087d288","initialize(address)":"c4d66de8","onERC1155BatchReceived(address,address,uint256[],uint256[],bytes)":"bc197c81","onERC1155Received(address,address,uint256,uint256,bytes)":"f23a6e61","onERC721Received(address,address,uint256,bytes)":"150b7a02","owner()":"8da5cb5b","proxiableUUID()":"52d1902d","supportsInterface(bytes4)":"01ffc9a7","upgradeToAndCall(address,bytes)":"4f1ef286","validateUserOp((address,uint256,bytes,bytes,bytes32,uint256,bytes32,bytes,bytes),bytes32,uint256)":"19822f7c","withdrawDepositTo(address,uint256)":"4d44560d"},"id":51}