{"abi":[{"type":"function","name":"addStake","inputs":[{"name":"_unstakeDelaySec","type":"uint32","internalType":"uint32"}],"outputs":[],"stateMutability":"payable"},{"type":"function","name":"balanceOf","inputs":[{"name":"account","type":"address","internalType":"address"}],"outputs":[{"name":"","type":"uint256","internalType":"uint256"}],"stateMutability":"view"},{"type":"function","name":"depositTo","inputs":[{"name":"account","type":"address","internalType":"address"}],"outputs":[],"stateMutability":"payable"},{"type":"function","name":"supportsInterface","inputs":[{"name":"interfaceId","type":"bytes4","internalType":"bytes4"}],"outputs":[{"name":"","type":"bool","internalType":"bool"}],"stateMutability":"pure"},{"type":"function","name":"unlockStake","inputs":[],"outputs":[],"stateMutability":"nonpayable"},{"type":"function","name":"withdrawStake","inputs":[{"name":"withdrawAddress","type":"address","internalType":"address payable"}],"outputs":[],"stateMutability":"nonpayable"},{"type":"function","name":"withdrawTo","inputs":[{"name":"withdrawAddress","type":"address","internalType":"address payable"},{"name":"withdrawAmount","type":"uint256","internalType":"uint256"}],"outputs":[],"stateMutability":"nonpayable"}],"bytecode":{"object":"0x6080604052348015600e575f5ffd5b506104808061001c5f395ff3fe60806040526004361061006f575f3560e01c806370a082311161004d57806370a08231146100f3578063b760faf91461012f578063bb9fe6bf1461014b578063c23a5cea146101615761006f565b806301ffc9a7146100735780630396cb60146100af578063205c2878146100cb575b5f5ffd5b34801561007e575f5ffd5b5061009960048036038101906100949190610204565b610189565b6040516100a69190610249565b60405180910390f35b6100c960048036038101906100c4919061029b565b610193565b005b3480156100d6575f5ffd5b506100f160048036038101906100ec9190610353565b610196565b005b3480156100fe575f5ffd5b50610119600480360381019061011491906103cc565b61019a565b6040516101269190610406565b60405180910390f35b610149600480360381019061014491906103cc565b6101a3565b005b348015610156575f5ffd5b5061015f6101a6565b005b34801561016c575f5ffd5b506101876004803603810190610182919061041f565b6101a8565b005b5f60019050919050565b50565b5050565b5f5f9050919050565b50565b565b50565b5f5ffd5b5f7fffffffff0000000000000000000000000000000000000000000000000000000082169050919050565b6101e3816101af565b81146101ed575f5ffd5b50565b5f813590506101fe816101da565b92915050565b5f60208284031215610219576102186101ab565b5b5f610226848285016101f0565b91505092915050565b5f8115159050919050565b6102438161022f565b82525050565b5f60208201905061025c5f83018461023a565b92915050565b5f63ffffffff82169050919050565b61027a81610262565b8114610284575f5ffd5b50565b5f8135905061029581610271565b92915050565b5f602082840312156102b0576102af6101ab565b5b5f6102bd84828501610287565b91505092915050565b5f73ffffffffffffffffffffffffffffffffffffffff82169050919050565b5f6102ef826102c6565b9050919050565b6102ff816102e5565b8114610309575f5ffd5b50565b5f8135905061031a816102f6565b92915050565b5f819050919050565b61033281610320565b811461033c575f5ffd5b50565b5f8135905061034d81610329565b92915050565b5f5f60408385031215610369576103686101ab565b5b5f6103768582860161030c565b92505060206103878582860161033f565b9150509250929050565b5f61039b826102c6565b9050919050565b6103ab81610391565b81146103b5575f5ffd5b50565b5f813590506103c6816103a2565b92915050565b5f602082840312156103e1576103e06101ab565b5b5f6103ee848285016103b8565b91505092915050565b61040081610320565b82525050565b5f6020820190506104195f8301846103f7565b92915050565b5f60208284031215610434576104336101ab565b5b5f6104418482850161030c565b9150509291505056fea2646970667358221220e7aca6e3229a4f3825ee9b54ce6a41a47bd9ff2f472861e376afc0c5d7fc0f6b64736f6c63430008210033","linkReferences":{}},"methodIdentifiers":{"addStake(uint32)":"0396cb60","balanceOf(address)":"70a08231","depositTo(address)":"b760faf9","supportsInterface(bytes4)":"01ffc9a7","unlockStake()":"bb9fe6bf","withdrawStake(address)":"c23a5cea","withdrawTo(address,uint256)":"205c2878"},"id":93}