{"abi":[{"type":"constructor","inputs":[{"name":"name","type":"string","internalType":"string"},{"name":"symbol","type":"string","internalType":"string"},{"name":"_swapPool","type":"address","internalType":"address"}],"stateMutability":"nonpayable"},{"type":"function","name":"allowance","inputs":[{"name":"owner","type":"address","internalType":"address"},{"name":"spender","type":"address","internalType":"address"}],"outputs":[{"name":"","type":"uint256","internalType":"uint256"}],"stateMutability":"view"},{"type":"function","name":"approve","inputs":[{"name":"spender","type":"address","internalType":"address"},{"name":"value","type":"uint256","internalType":"uint256"}],"outputs":[{"name":"","type":"bool","internalType":"bool"}],"stateMutability":"nonpayable"},{"type":"function","name":"balanceOf","inputs":[{"name":"account","type":"address","internalType":"address"}],"outputs":[{"name":"","type":"uint256","internalType":"uint256"}],"stateMutability":"view"},{"type":"function","name":"burnFrom","inputs":[{"name":"account","type":"address","internalType":"address"},{"name":"amount","type":"uint256","internalType":"uint256"}],"outputs":[],"stateMutability":"nonpayable"},{"type":"function","name":"decimals","inputs":[],"outputs":[{"name":"","type":"uint8","internalType":"uint8"}],"stateMutability":"view"},{"type":"function","name":"mint","inputs":[{"name":"to","type":"address","internalType":"address"},{"name":"amount","type":"uint256","internalType":"uint256"}],"outputs":[],"stateMutability":"nonpayable"},{"type":"function","name":"minter","inputs":[],"outputs":[{"name":"","type":"address","internalType":"address"}],"stateMutability":"view"},{"type":"function","name":"name","inputs":[],"outputs":[{"name":"","type":"string","internalType":"string"}],"stateMutability":"view"},{"type":"function","name":"swapPool","inputs":[],"outputs":[{"name":"","type":"address","internalType":"address"}],"stateMutability":"view"},{"type":"function","name":"symbol","inputs":[],"outputs":[{"name":"","type":"string","internalType":"string"}],"stateMutability":"view"},{"type":"function","name":"totalSupply","inputs":[],"outputs":[{"name":"","type":"uint256","internalType":"uint256"}],"stateMutability":"view"},{"type":"function","name":"transfer","inputs":[{"name":"to","type":"address","internalType":"address"},{"name":"value","type":"uint256","internalType":"uint256"}],"outputs":[{"name":"","type":"bool","internalType":"bool"}],"stateMutability":"nonpayable"},{"type":"function","name":"transferFrom","inputs":[{"name":"from","type":"address","internalType":"address"},{"name":"to","type":"address","internalType":"address"},{"name":"value","type":"uint256","internalType":"uint256"}],"outputs":[{"name":"","type":"bool","internalType":"bool"}],"stateMutability":"nonpayable"},{"type":"event","name":"Approval","inputs":[{"name":"owner","type":"address","indexed":true,"internalType":"address"},{"name":"spender","type":"address","indexed":true,"internalType":"address"},{"name":"value","type":"uint256","indexed":false,"internalType":"uint256"}],"anonymous":false},{"type":"event","name":"Transfer","inputs":[{"name":"from","type":"address","indexed":true,"internalType":"address"},{"name":"to","type":"address","indexed":true,"internalType":"address"},{"name":"value","type":"uint256","indexed":false,"internalType":"uint256"}],"anonymous":false},{"type":"error","name":"ERC20InsufficientAllowance","inputs":[{"name":"spender","type":"address","internalType":"address"},{"name":"allowance","type":"uint256","internalType":"uint256"},{"name":"needed","type":"uint256","internalType":"uint256"}]},{"type":"error","name":"ERC20InsufficientBalance","inputs":[{"name":"sender","type":"address","internalType":"address"},{"name":"balance","type":"uint256","internalType":"uint256"},{"name":"needed","type":"uint256","internalType":"uint256"}]},{"type":"error","name":"ERC20InvalidApprover","inputs":[{"name":"approver","type":"address","internalType":"address"}]},{"type":"error","name":"ERC20InvalidReceiver","inputs":[{"name":"receiver","type":"address","internalType":"address"}]},{"type":"error","name":"ERC20InvalidSender","inputs":[{"name":"sender","type":"address","internalType":"address"}]},{"type":"error","name":"ERC20InvalidSpender","inputs":[{"name":"spender","type":"address","internalType":"address"}]}],"bytecode":{"object":"0x608060405234801561000f575f5ffd5b5060405161178538038061178583398181016040528101906100319190610284565b82828160039081610042919061052d565b508060049081610052919061052d565b5050503360055f6101000a81548173ffffffffffffffffffffffffffffffffffffffff021916908373ffffffffffffffffffffffffffffffffffffffff1602179055508060065f6101000a81548173ffffffffffffffffffffffffffffffffffffffff021916908373ffffffffffffffffffffffffffffffffffffffff1602179055505050506105fc565b5f604051905090565b5f5ffd5b5f5ffd5b5f5ffd5b5f5ffd5b5f601f19601f8301169050919050565b7f4e487b71000000000000000000000000000000000000000000000000000000005f52604160045260245ffd5b61013c826100f6565b810181811067ffffffffffffffff8211171561015b5761015a610106565b5b80604052505050565b5f61016d6100dd565b90506101798282610133565b919050565b5f67ffffffffffffffff82111561019857610197610106565b5b6101a1826100f6565b9050602081019050919050565b8281835e5f83830152505050565b5f6101ce6101c98461017e565b610164565b9050828152602081018484840111156101ea576101e96100f2565b5b6101f58482856101ae565b509392505050565b5f82601f830112610211576102106100ee565b5b81516102218482602086016101bc565b91505092915050565b5f73ffffffffffffffffffffffffffffffffffffffff82169050919050565b5f6102538261022a565b9050919050565b61026381610249565b811461026d575f5ffd5b50565b5f8151905061027e8161025a565b92915050565b5f5f5f6060848603121561029b5761029a6100e6565b5b5f84015167ffffffffffffffff8111156102b8576102b76100ea565b5b6102c4868287016101fd565b935050602084015167ffffffffffffffff8111156102e5576102e46100ea565b5b6102f1868287016101fd565b925050604061030286828701610270565b9150509250925092565b5f81519050919050565b7f4e487b71000000000000000000000000000000000000000000000000000000005f52602260045260245ffd5b5f600282049050600182168061035a57607f821691505b60208210810361036d5761036c610316565b5b50919050565b5f819050815f5260205f209050919050565b5f6020601f8301049050919050565b5f82821b905092915050565b5f600883026103cf7fffffffffffffffffffffffffffffffffffffffffffffffffffffffffffffffff82610394565b6103d98683610394565b95508019841693508086168417925050509392505050565b5f819050919050565b5f819050919050565b5f61041d610418610413846103f1565b6103fa565b6103f1565b9050919050565b5f819050919050565b61043683610403565b61044a61044282610424565b8484546103a0565b825550505050565b5f5f905090565b610461610452565b61046c81848461042d565b505050565b5f5b82811015610492576104875f828401610459565b600181019050610473565b505050565b601f8211156104e557828211156104e4576104b181610373565b6104ba83610385565b6104c385610385565b60208610156104d0575f90505b8083016104df82840382610471565b505050505b5b505050565b5f82821c905092915050565b5f6105055f19846008026104ea565b1980831691505092915050565b5f61051d83836104f6565b9150826002028217905092915050565b6105368261030c565b67ffffffffffffffff81111561054f5761054e610106565b5b6105598254610343565b610564828285610497565b5f60209050601f831160018114610595575f8415610583578287015190505b61058d8582610512565b8655506105f4565b601f1984166105a386610373565b5f5b828110156105ca578489015182556001820191506020850194506020810190506105a5565b868310156105e757848901516105e3601f8916826104f6565b8355505b6001600288020188555050505b505050505050565b61117c806106095f395ff3fe608060405234801561000f575f5ffd5b50600436106100cd575f3560e01c806340c10f191161008a57806395d89b411161006457806395d89b4114610211578063982697dd1461022f578063a9059cbb1461024d578063dd62ed3e1461027d576100cd565b806340c10f19146101a957806370a08231146101c557806379cc6790146101f5576100cd565b806306fdde03146100d157806307546172146100ef578063095ea7b31461010d57806318160ddd1461013d57806323b872dd1461015b578063313ce5671461018b575b5f5ffd5b6100d96102ad565b6040516100e69190610d8d565b60405180910390f35b6100f761033d565b6040516101049190610dec565b60405180910390f35b61012760048036038101906101229190610e66565b610362565b6040516101349190610ebe565b60405180910390f35b610145610384565b6040516101529190610ee6565b60405180910390f35b61017560048036038101906101709190610eff565b61038d565b6040516101829190610ebe565b60405180910390f35b6101936103bb565b6040516101a09190610f6a565b60405180910390f35b6101c360048036038101906101be9190610e66565b6103c3565b005b6101df60048036038101906101da9190610f83565b610460565b6040516101ec9190610ee6565b60405180910390f35b61020f600480360381019061020a9190610e66565b6104a5565b005b610219610542565b6040516102269190610d8d565b60405180910390f35b6102376105d2565b6040516102449190610dec565b60405180910390f35b61026760048036038101906102629190610e66565b6105f7565b6040516102749190610ebe565b60405180910390f35b61029760048036038101906102929190610fae565b610619565b6040516102a49190610ee6565b60405180910390f35b6060600380546102bc90611019565b80601f01602080910402602001604051908101604052809291908181526020018280546102e890611019565b80156103335780601f1061030a57610100808354040283529160200191610333565b820191905f5260205f20905b81548152906001019060200180831161031657829003601f168201915b5050505050905090565b60055f9054906101000a900473ffffffffffffffffffffffffffffffffffffffff1681565b5f5f61036c61069b565b90506103798185856106a2565b600191505092915050565b5f600254905090565b5f5f61039761069b565b90506103a48582856106b4565b6103af858585610747565b60019150509392505050565b5f6012905090565b60055f9054906101000a900473ffffffffffffffffffffffffffffffffffffffff1673ffffffffffffffffffffffffffffffffffffffff163373ffffffffffffffffffffffffffffffffffffffff1614610452576040517f08c379a000000000000000000000000000000000000000000000000000000000815260040161044990611093565b60405180910390fd5b61045c8282610837565b5050565b5f5f5f8373ffffffffffffffffffffffffffffffffffffffff1673ffffffffffffffffffffffffffffffffffffffff1681526020019081526020015f20549050919050565b60055f9054906101000a900473ffffffffffffffffffffffffffffffffffffffff1673ffffffffffffffffffffffffffffffffffffffff163373ffffffffffffffffffffffffffffffffffffffff1614610534576040517f08c379a000000000000000000000000000000000000000000000000000000000815260040161052b90611093565b60405180910390fd5b61053e82826108b6565b5050565b60606004805461055190611019565b80601f016020809104026020016040519081016040528092919081815260200182805461057d90611019565b80156105c85780601f1061059f576101008083540402835291602001916105c8565b820191905f5260205f20905b8154815290600101906020018083116105ab57829003601f168201915b5050505050905090565b60065f9054906101000a900473ffffffffffffffffffffffffffffffffffffffff1681565b5f5f61060161069b565b905061060e818585610747565b600191505092915050565b5f60015f8473ffffffffffffffffffffffffffffffffffffffff1673ffffffffffffffffffffffffffffffffffffffff1681526020019081526020015f205f8373ffffffffffffffffffffffffffffffffffffffff1673ffffffffffffffffffffffffffffffffffffffff1681526020019081526020015f2054905092915050565b5f33905090565b6106af8383836001610935565b505050565b5f6106bf8484610619565b90507fffffffffffffffffffffffffffffffffffffffffffffffffffffffffffffffff8110156107415781811015610732578281836040517ffb8f41b2000000000000000000000000000000000000000000000000000000008152600401610729939291906110b1565b60405180910390fd5b61074084848484035f610935565b5b50505050565b5f73ffffffffffffffffffffffffffffffffffffffff168373ffffffffffffffffffffffffffffffffffffffff16036107b7575f6040517f96c6fd1e0000000000000000000000000000000000000000000000000000000081526004016107ae9190610dec565b60405180910390fd5b5f73ffffffffffffffffffffffffffffffffffffffff168273ffffffffffffffffffffffffffffffffffffffff1603610827575f6040517fec442f0500000000000000000000000000000000000000000000000000000000815260040161081e9190610dec565b60405180910390fd5b610832838383610b04565b505050565b5f73ffffffffffffffffffffffffffffffffffffffff168273ffffffffffffffffffffffffffffffffffffffff16036108a7575f6040517fec442f0500000000000000000000000000000000000000000000000000000000815260040161089e9190610dec565b60405180910390fd5b6108b25f8383610b04565b5050565b5f73ffffffffffffffffffffffffffffffffffffffff168273ffffffffffffffffffffffffffffffffffffffff1603610926575f6040517f96c6fd1e00000000000000000000000000000000000000000000000000000000815260040161091d9190610dec565b60405180910390fd5b610931825f83610b04565b5050565b5f73ffffffffffffffffffffffffffffffffffffffff168473ffffffffffffffffffffffffffffffffffffffff16036109a5575f6040517fe602df0500000000000000000000000000000000000000000000000000000000815260040161099c9190610dec565b60405180910390fd5b5f73ffffffffffffffffffffffffffffffffffffffff168373ffffffffffffffffffffffffffffffffffffffff1603610a15575f6040517f94280d62000000000000000000000000000000000000000000000000000000008152600401610a0c9190610dec565b60405180910390fd5b8160015f8673ffffffffffffffffffffffffffffffffffffffff1673ffffffffffffffffffffffffffffffffffffffff1681526020019081526020015f205f8573ffffffffffffffffffffffffffffffffffffffff1673ffffffffffffffffffffffffffffffffffffffff1681526020019081526020015f20819055508015610afe578273ffffffffffffffffffffffffffffffffffffffff168473ffffffffffffffffffffffffffffffffffffffff167f8c5be1e5ebec7d5bd14f71427d1e84f3dd0314c0f7b2291e5b200ac8c7c3b92584604051610af59190610ee6565b60405180910390a35b50505050565b5f73ffffffffffffffffffffffffffffffffffffffff168373ffffffffffffffffffffffffffffffffffffffff1603610b54578060025f828254610b489190611113565b92505081905550610c22565b5f5f5f8573ffffffffffffffffffffffffffffffffffffffff1673ffffffffffffffffffffffffffffffffffffffff1681526020019081526020015f2054905081811015610bdd578381836040517fe450d38c000000000000000000000000000000000000000000000000000000008152600401610bd4939291906110b1565b60405180910390fd5b8181035f5f8673ffffffffffffffffffffffffffffffffffffffff1673ffffffffffffffffffffffffffffffffffffffff1681526020019081526020015f2081905550505b5f73ffffffffffffffffffffffffffffffffffffffff168273ffffffffffffffffffffffffffffffffffffffff1603610c69578060025f8282540392505081905550610cb3565b805f5f8473ffffffffffffffffffffffffffffffffffffffff1673ffffffffffffffffffffffffffffffffffffffff1681526020019081526020015f205f82825401925050819055505b8173ffffffffffffffffffffffffffffffffffffffff168373ffffffffffffffffffffffffffffffffffffffff167fddf252ad1be2c89b69c2b068fc378daa952ba7f163c4a11628f55a4df523b3ef83604051610d109190610ee6565b60405180910390a3505050565b5f81519050919050565b5f82825260208201905092915050565b8281835e5f83830152505050565b5f601f19601f8301169050919050565b5f610d5f82610d1d565b610d698185610d27565b9350610d79818560208601610d37565b610d8281610d45565b840191505092915050565b5f6020820190508181035f830152610da58184610d55565b905092915050565b5f73ffffffffffffffffffffffffffffffffffffffff82169050919050565b5f610dd682610dad565b9050919050565b610de681610dcc565b82525050565b5f602082019050610dff5f830184610ddd565b92915050565b5f5ffd5b610e1281610dcc565b8114610e1c575f5ffd5b50565b5f81359050610e2d81610e09565b92915050565b5f819050919050565b610e4581610e33565b8114610e4f575f5ffd5b50565b5f81359050610e6081610e3c565b92915050565b5f5f60408385031215610e7c57610e7b610e05565b5b5f610e8985828601610e1f565b9250506020610e9a85828601610e52565b9150509250929050565b5f8115159050919050565b610eb881610ea4565b82525050565b5f602082019050610ed15f830184610eaf565b92915050565b610ee081610e33565b82525050565b5f602082019050610ef95f830184610ed7565b92915050565b5f5f5f60608486031215610f1657610f15610e05565b5b5f610f2386828701610e1f565b9350506020610f3486828701610e1f565b9250506040610f4586828701610e52565b9150509250925092565b5f60ff82169050919050565b610f6481610f4f565b82525050565b5f602082019050610f7d5f830184610f5b565b92915050565b5f60208284031215610f9857610f97610e05565b5b5f610fa584828501610e1f565b91505092915050565b5f5f60408385031215610fc457610fc3610e05565b5b5f610fd185828601610e1f565b9250506020610fe285828601610e1f565b9150509250929050565b7f4e487b71000000000000000000000000000000000000000000000000000000005f52602260045260245ffd5b5f600282049050600182168061103057607f821691505b60208210810361104357611042610fec565b5b50919050565b7f4c50546f6b656e3a206e6f74206d696e746572000000000000000000000000005f82015250565b5f61107d601383610d27565b915061108882611049565b602082019050919050565b5f6020820190508181035f8301526110aa81611071565b9050919050565b5f6060820190506110c45f830186610ddd565b6110d16020830185610ed7565b6110de6040830184610ed7565b949350505050565b7f4e487b71000000000000000000000000000000000000000000000000000000005f52601160045260245ffd5b5f61111d82610e33565b915061112883610e33565b92508282019050808211156111405761113f6110e6565b5b9291505056fea264697066735822122066835d022dbecad2a9f95a36080517cb8a47243cae434a6dbb993619ba07837d64736f6c63430008210033","linkReferences":{}},"methodIdentifiers":{"allowance(address,address)":"dd62ed3e","approve(address,uint256)":"095ea7b3","balanceOf(address)":"70a08231","burnFrom(address,uint256)":"79cc6790","decimals()":"313ce567","mint(address,uint256)":"40c10f19","minter()":"07546172","name()":"06fdde03","swapPool()":"982697dd","symbol()":"95d89b41","totalSupply()":"18160ddd","transfer(address,uint256)":"a9059cbb","transferFrom(address,address,uint256)":"23b872dd"},"id":89}