{"abi":[{"type":"constructor","inputs":[{"name":"_coins","type":"address[4]","internalType":"address[4]"},{"name":"_lpTokenName","type":"string","internalType":"string"},{"name":"_lpTokenSymbol","type":"string","internalType":"string"},{"name":"_A","type":"uint256","internalType":"uint256"},{"name":"_fee","type":"uint256","internalType":"uint256"}],"stateMutability":"nonpayable"},{"type":"function","name":"A","inputs":[],"outputs":[{"name":"","type":"uint256","internalType":"uint256"}],"stateMutability":"view"},{"type":"function","name":"ADMIN_FEE","inputs":[],"outputs":[{"name":"","type":"uint256","internalType":"uint256"}],"stateMutability":"view"},{"type":"function","name":"A_PRECISION","inputs":[],"outputs":[{"name":"","type":"uint256","internalType":"uint256"}],"stateMutability":"view"},{"type":"function","name":"MAX_FEE","inputs":[],"outputs":[{"name":"","type":"uint256","internalType":"uint256"}],"stateMutability":"view"},{"type":"function","name":"N_COINS","inputs":[],"outputs":[{"name":"","type":"uint256","internalType":"uint256"}],"stateMutability":"view"},{"type":"function","name":"PRECISION","inputs":[],"outputs":[{"name":"","type":"uint256","internalType":"uint256"}],"stateMutability":"view"},{"type":"function","name":"addLiquidity","inputs":[{"name":"amounts","type":"uint256[4]","internalType":"uint256[4]"},{"name":"minMintAmount","type":"uint256","internalType":"uint256"}],"outputs":[{"name":"","type":"uint256","internalType":"uint256"}],"stateMutability":"nonpayable"},{"type":"function","name":"adminFee","inputs":[],"outputs":[{"name":"","type":"uint256","internalType":"uint256"}],"stateMutability":"view"},{"type":"function","name":"balances","inputs":[{"name":"","type":"uint256","internalType":"uint256"}],"outputs":[{"name":"","type":"uint256","internalType":"uint256"}],"stateMutability":"view"},{"type":"function","name":"calcTokenAmount","inputs":[{"name":"amounts","type":"uint256[4]","internalType":"uint256[4]"},{"name":"deposit","type":"bool","internalType":"bool"}],"outputs":[{"name":"","type":"uint256","internalType":"uint256"}],"stateMutability":"view"},{"type":"function","name":"coins","inputs":[{"name":"","type":"uint256","internalType":"uint256"}],"outputs":[{"name":"","type":"address","internalType":"address"}],"stateMutability":"view"},{"type":"function","name":"depositTimestamp","inputs":[{"name":"","type":"address","internalType":"address"}],"outputs":[{"name":"","type":"uint256","internalType":"uint256"}],"stateMutability":"view"},{"type":"function","name":"exchange","inputs":[{"name":"i","type":"uint256","internalType":"uint256"},{"name":"j","type":"uint256","internalType":"uint256"},{"name":"dx","type":"uint256","internalType":"uint256"},{"name":"minDy","type":"uint256","internalType":"uint256"}],"outputs":[{"name":"","type":"uint256","internalType":"uint256"}],"stateMutability":"nonpayable"},{"type":"function","name":"fee","inputs":[],"outputs":[{"name":"","type":"uint256","internalType":"uint256"}],"stateMutability":"view"},{"type":"function","name":"getBalances","inputs":[],"outputs":[{"name":"","type":"uint256[4]","internalType":"uint256[4]"}],"stateMutability":"view"},{"type":"function","name":"getVirtualPrice","inputs":[],"outputs":[{"name":"","type":"uint256","internalType":"uint256"}],"stateMutability":"view"},{"type":"function","name":"get_dy","inputs":[{"name":"i","type":"uint256","internalType":"uint256"},{"name":"j","type":"uint256","internalType":"uint256"},{"name":"dx","type":"uint256","internalType":"uint256"}],"outputs":[{"name":"","type":"uint256","internalType":"uint256"}],"stateMutability":"view"},{"type":"function","name":"isPaused","inputs":[],"outputs":[{"name":"","type":"bool","internalType":"bool"}],"stateMutability":"view"},{"type":"function","name":"lpToken","inputs":[],"outputs":[{"name":"","type":"address","internalType":"contract ILPToken"}],"stateMutability":"view"},{"type":"function","name":"lpTokenName","inputs":[],"outputs":[{"name":"","type":"string","internalType":"string"}],"stateMutability":"view"},{"type":"function","name":"lpTokenSymbol","inputs":[],"outputs":[{"name":"","type":"string","internalType":"string"}],"stateMutability":"view"},{"type":"function","name":"owner","inputs":[],"outputs":[{"name":"","type":"address","internalType":"address"}],"stateMutability":"view"},{"type":"function","name":"pause","inputs":[],"outputs":[],"stateMutability":"nonpayable"},{"type":"function","name":"rampA","inputs":[{"name":"futureA","type":"uint256","internalType":"uint256"},{"name":"futureTime","type":"uint256","internalType":"uint256"}],"outputs":[],"stateMutability":"nonpayable"},{"type":"function","name":"rateMultipliers","inputs":[{"name":"","type":"uint256","internalType":"uint256"}],"outputs":[{"name":"","type":"uint256","internalType":"uint256"}],"stateMutability":"view"},{"type":"function","name":"rates","inputs":[{"name":"","type":"uint256","internalType":"uint256"}],"outputs":[{"name":"","type":"uint256","internalType":"uint256"}],"stateMutability":"view"},{"type":"function","name":"removeLiquidity","inputs":[{"name":"amount","type":"uint256","internalType":"uint256"},{"name":"minAmounts","type":"uint256[4]","internalType":"uint256[4]"}],"outputs":[{"name":"","type":"uint256[4]","internalType":"uint256[4]"}],"stateMutability":"nonpayable"},{"type":"function","name":"removeLiquidityOneToken","inputs":[{"name":"amount","type":"uint256","internalType":"uint256"},{"name":"i","type":"uint256","internalType":"uint256"},{"name":"minAmount","type":"uint256","internalType":"uint256"}],"outputs":[{"name":"","type":"uint256","internalType":"uint256"}],"stateMutability":"nonpayable"},{"type":"function","name":"renounceOwnership","inputs":[],"outputs":[],"stateMutability":"nonpayable"},{"type":"function","name":"setAdminFee","inputs":[{"name":"newAdminFee","type":"uint256","internalType":"uint256"}],"outputs":[],"stateMutability":"nonpayable"},{"type":"function","name":"setFee","inputs":[{"name":"newFee","type":"uint256","internalType":"uint256"}],"outputs":[],"stateMutability":"nonpayable"},{"type":"function","name":"setRateMultiplier","inputs":[{"name":"i","type":"uint256","internalType":"uint256"},{"name":"multiplier","type":"uint256","internalType":"uint256"}],"outputs":[],"stateMutability":"nonpayable"},{"type":"function","name":"stopRampA","inputs":[],"outputs":[],"stateMutability":"nonpayable"},{"type":"function","name":"totalSupply","inputs":[],"outputs":[{"name":"","type":"uint256","internalType":"uint256"}],"stateMutability":"view"},{"type":"function","name":"transferOwnership","inputs":[{"name":"newOwner","type":"address","internalType":"address"}],"outputs":[],"stateMutability":"nonpayable"},{"type":"function","name":"unpause","inputs":[],"outputs":[],"stateMutability":"nonpayable"},{"type":"event","name":"AddLiquidity","inputs":[{"name":"provider","type":"address","indexed":true,"internalType":"address"},{"name":"tokenAmounts","type":"uint256[4]","indexed":false,"internalType":"uint256[4]"},{"name":"liquidity","type":"uint256","indexed":false,"internalType":"uint256"}],"anonymous":false},{"type":"event","name":"AdminFeeUpdated","inputs":[{"name":"newAdminFee","type":"uint256","indexed":false,"internalType":"uint256"}],"anonymous":false},{"type":"event","name":"FeeUpdated","inputs":[{"name":"newFee","type":"uint256","indexed":false,"internalType":"uint256"}],"anonymous":false},{"type":"event","name":"OwnershipTransferred","inputs":[{"name":"previousOwner","type":"address","indexed":true,"internalType":"address"},{"name":"newOwner","type":"address","indexed":true,"internalType":"address"}],"anonymous":false},{"type":"event","name":"RampA","inputs":[{"name":"oldA","type":"uint256","indexed":false,"internalType":"uint256"},{"name":"newA","type":"uint256","indexed":false,"internalType":"uint256"},{"name":"initialTime","type":"uint256","indexed":false,"internalType":"uint256"},{"name":"futureTime","type":"uint256","indexed":false,"internalType":"uint256"}],"anonymous":false},{"type":"event","name":"RemoveLiquidity","inputs":[{"name":"provider","type":"address","indexed":true,"internalType":"address"},{"name":"tokenAmounts","type":"uint256[4]","indexed":false,"internalType":"uint256[4]"},{"name":"liquidity","type":"uint256","indexed":false,"internalType":"uint256"}],"anonymous":false},{"type":"event","name":"RemoveLiquidityOne","inputs":[{"name":"provider","type":"address","indexed":true,"internalType":"address"},{"name":"tokenAmount","type":"uint256","indexed":false,"internalType":"uint256"},{"name":"coinAmount","type":"uint256","indexed":false,"internalType":"uint256"}],"anonymous":false},{"type":"event","name":"StopRampA","inputs":[{"name":"currentA","type":"uint256","indexed":false,"internalType":"uint256"}],"anonymous":false},{"type":"event","name":"TokenExchange","inputs":[{"name":"buyer","type":"address","indexed":true,"internalType":"address"},{"name":"soldId","type":"uint256","indexed":false,"internalType":"uint256"},{"name":"tokensSold","type":"uint256","indexed":false,"internalType":"uint256"},{"name":"boughtId","type":"uint256","indexed":false,"internalType":"uint256"},{"name":"tokensBought","type":"uint256","indexed":false,"internalType":"uint256"}],"anonymous":false},{"type":"error","name":"OwnableInvalidOwner","inputs":[{"name":"owner","type":"address","internalType":"address"}]},{"type":"error","name":"OwnableUnauthorizedAccount","inputs":[{"name":"account","type":"address","internalType":"address"}]},{"type":"error","name":"SafeERC20FailedOperation","inputs":[{"name":"token","type":"address","internalType":"address"}]}],"bytecode":{"object":"0x60806040525f5f60146101000a81548160ff021916908315150217905550348015610028575f5ffd5b50604051615f2c380380615f2c833981810160405281019061004a9190610668565b335f73ffffffffffffffffffffffffffffffffffffffff168173ffffffffffffffffffffffffffffffffffffffff16036100bb575f6040517f1e4fbdf70000000000000000000000000000000000000000000000000000000081526004016100b29190610727565b60405180910390fd5b6100ca8161030e60201b60201c565b505f73ffffffffffffffffffffffffffffffffffffffff16855f600481106100f5576100f4610740565b5b602002015173ffffffffffffffffffffffffffffffffffffffff1603610150576040517f08c379a0000000000000000000000000000000000000000000000000000000008152600401610147906107c7565b60405180910390fd5b5f821180156101615750620f424082105b6101a0576040517f08c379a00000000000000000000000000000000000000000000000000000000081526004016101979061082f565b60405180910390fd5b6402540be40081106101e7576040517f08c379a00000000000000000000000000000000000000000000000000000000081526004016101de90610897565b60405180910390fd5b84600190816101f69190610a81565b5083600690816102069190610c3d565b5082600790816102169190610c3d565b508160088190555080600981905550633b9aca00600a819055505f5f90505b600481101561028f57670de0b6b3a76400006013826004811061025b5761025a610740565b5b0181905550670de0b6b3a7640000600f826004811061027d5761027c610740565b5b01819055508080600101915050610235565b5083833060405161029f906103cf565b6102ab93929190610d44565b604051809103905ff0801580156102c4573d5f5f3e3d5ffd5b5060055f6101000a81548173ffffffffffffffffffffffffffffffffffffffff021916908373ffffffffffffffffffffffffffffffffffffffff1602179055505050505050610d87565b5f5f5f9054906101000a900473ffffffffffffffffffffffffffffffffffffffff169050815f5f6101000a81548173ffffffffffffffffffffffffffffffffffffffff021916908373ffffffffffffffffffffffffffffffffffffffff1602179055508173ffffffffffffffffffffffffffffffffffffffff168173ffffffffffffffffffffffffffffffffffffffff167f8be0079c531659141344cd1fd0a4f28419497f9722a3daafe3b4186f6b6457e060405160405180910390a35050565b611785806147a783390190565b5f604051905090565b5f5ffd5b5f5ffd5b5f5ffd5b5f601f19601f8301169050919050565b7f4e487b71000000000000000000000000000000000000000000000000000000005f52604160045260245ffd5b610437826103f1565b810181811067ffffffffffffffff8211171561045657610455610401565b5b80604052505050565b5f6104686103dc565b9050610474828261042e565b919050565b5f67ffffffffffffffff82111561049357610492610401565b5b602082029050919050565b5f5ffd5b5f73ffffffffffffffffffffffffffffffffffffffff82169050919050565b5f6104cb826104a2565b9050919050565b6104db816104c1565b81146104e5575f5ffd5b50565b5f815190506104f6816104d2565b92915050565b5f61050e61050984610479565b61045f565b905080602084028301858111156105285761052761049e565b5b835b81811015610551578061053d88826104e8565b84526020840193505060208101905061052a565b5050509392505050565b5f82601f83011261056f5761056e6103ed565b5b600461057c8482856104fc565b91505092915050565b5f5ffd5b5f67ffffffffffffffff8211156105a3576105a2610401565b5b6105ac826103f1565b9050602081019050919050565b8281835e5f83830152505050565b5f6105d96105d484610589565b61045f565b9050828152602081018484840111156105f5576105f4610585565b5b6106008482856105b9565b509392505050565b5f82601f83011261061c5761061b6103ed565b5b815161062c8482602086016105c7565b91505092915050565b5f819050919050565b61064781610635565b8114610651575f5ffd5b50565b5f815190506106628161063e565b92915050565b5f5f5f5f5f6101008688031215610682576106816103e5565b5b5f61068f8882890161055b565b955050608086015167ffffffffffffffff8111156106b0576106af6103e9565b5b6106bc88828901610608565b94505060a086015167ffffffffffffffff8111156106dd576106dc6103e9565b5b6106e988828901610608565b93505060c06106fa88828901610654565b92505060e061070b88828901610654565b9150509295509295909350565b610721816104c1565b82525050565b5f60208201905061073a5f830184610718565b92915050565b7f4e487b71000000000000000000000000000000000000000000000000000000005f52603260045260245ffd5b5f82825260208201905092915050565b7f537461626c6553776170414d4d3a20696e76616c696420636f696e20300000005f82015250565b5f6107b1601d8361076d565b91506107bc8261077d565b602082019050919050565b5f6020820190508181035f8301526107de816107a5565b9050919050565b7f537461626c6553776170414d4d3a20696e76616c6964204100000000000000005f82015250565b5f61081960188361076d565b9150610824826107e5565b602082019050919050565b5f6020820190508181035f8301526108468161080d565b9050919050565b7f537461626c6553776170414d4d3a2066656520746f6f206869676800000000005f82015250565b5f610881601b8361076d565b915061088c8261084d565b602082019050919050565b5f6020820190508181035f8301526108ae81610875565b9050919050565b5f60049050919050565b5f8190506001806001038301049050919050565b5f819050919050565b5f82821b905092915050565b5f600883026109177fffffffffffffffffffffffffffffffffffffffffffffffffffffffffffffffff826108dc565b61092186836108dc565b95508019841693508086168417925050509392505050565b5f819050919050565b5f61095c61095761095284610635565b610939565b610635565b9050919050565b5f819050919050565b61097583610942565b61098961098182610963565b8484546108e8565b825550505050565b5f5f905090565b6109a0610991565b6109ab81848461096c565b505050565b5f5b828110156109d1576109c65f828401610998565b6001810190506109b2565b505050565b5f82821c905092915050565b81831015610a19576109f3826108bf565b6109fc846108bf565b610a05836108d3565b818101610a14838503826109b0565b505050505b505050565b68010000000000000000821115610a3857610a37610401565b5b610a41816108b5565b610a4c8382846109e2565b505050565b5f60049050919050565b5f610a6682516104c1565b80915050919050565b5f819050919050565b5f819050919050565b610a8a82610a51565b67ffffffffffffffff811115610aa357610aa2610401565b5b610aad8183610a1e565b610ab683610a6f565b610abf836108d3565b600183045f5b81811015610afc575f610ad785610a5b565b610ae081610a78565b8092506020870196505050808285015550600181019050610ac5565b50505050505050565b5f81519050919050565b7f4e487b71000000000000000000000000000000000000000000000000000000005f52602260045260245ffd5b5f6002820490506001821680610b5357607f821691505b602082108103610b6657610b65610b0f565b5b50919050565b5f819050815f5260205f209050919050565b5f6020601f8301049050919050565b5f5b82811015610bae57610ba35f828401610998565b600181019050610b8f565b505050565b601f821115610c015782821115610c0057610bcd81610b6c565b610bd683610b7e565b610bdf85610b7e565b6020861015610bec575f90505b808301610bfb82840382610b8d565b505050505b5b505050565b5f610c155f19846008026109d6565b1980831691505092915050565b5f610c2d8383610c06565b9150826002028217905092915050565b610c4682610b05565b67ffffffffffffffff811115610c5f57610c5e610401565b5b610c698254610b3c565b610c74828285610bb3565b5f60209050601f831160018114610ca5575f8415610c93578287015190505b610c9d8582610c22565b865550610d04565b601f198416610cb386610b6c565b5f5b82811015610cda57848901518255600182019150602085019450602081019050610cb5565b86831015610cf75784890151610cf3601f891682610c06565b8355505b6001600288020188555050505b505050505050565b5f610d1682610b05565b610d20818561076d565b9350610d308185602086016105b9565b610d39816103f1565b840191505092915050565b5f6060820190508181035f830152610d5c8186610d0c565b90508181036020830152610d708185610d0c565b9050610d7f6040830184610718565b949350505050565b613a1380610d945f395ff3fe608060405234801561000f575f5ffd5b5060043610610219575f3560e01c80638beb60b611610123578063c6610657116100ab578063ddca3f431161007a578063ddca3f431461061b578063e25aa5fa14610639578063f2fde38b14610657578063f446c1d014610673578063fdbaaa9f1461069157610219565b8063c66106571461056d578063d011f9181461059d578063d6c094b3146105bb578063dd418ae2146105eb57610219565b8063aaf5eb68116100f2578063aaf5eb68146104ed578063b187bd261461050b578063b8b1afd514610529578063bc063e1a14610545578063c4db7fa01461056357610219565b80638beb60b6146104775780638da5cb5b1461049357806394fb58d4146104b1578063a0be06f9146104cf57610219565b80634903b0d1116101a65780635fcbd285116101755780635fcbd285146103f957806369fe0e2d146104175780637066b5b214610433578063715018a6146104635780638456cb591461046d57610219565b80634903b0d11461034d578063556d6e9f1461037d578063593d132c146103ad5780635b41b908146103c957610219565b806329357750116101ed57806329357750146102a757806336448e81146102c55780633f4ba83a146102f55780634469ed14146102ff57806346b00d041461031d57610219565b8062113e081461021d5780630793a68f1461023b57806318160ddd1461025957806327b25fa914610277575b5f5ffd5b6102256106c1565b6040516102329190612a25565b60405180910390f35b61024361070c565b6040516102509190612aae565b60405180910390f35b610261610798565b60405161026e9190612add565b60405180910390f35b610291600480360381019061028c9190612b49565b61079e565b60405161029e9190612a25565b60405180910390f35b6102af610b67565b6040516102bc9190612add565b60405180910390f35b6102df60048036038101906102da9190612bbc565b610b6c565b6040516102ec9190612add565b60405180910390f35b6102fd610d94565b005b610307610db7565b6040516103149190612add565b60405180910390f35b61033760048036038101906103329190612c54565b610dbf565b6040516103449190612add565b60405180910390f35b61036760048036038101906103629190612c7f565b610dd4565b6040516103749190612add565b60405180910390f35b61039760048036038101906103929190612caa565b610ded565b6040516103a49190612add565b60405180910390f35b6103c760048036038101906103c29190612cfa565b610e5a565b005b6103e360048036038101906103de9190612d38565b610fea565b6040516103f09190612add565b60405180910390f35b6104016112f2565b60405161040e9190612df7565b60405180910390f35b610431600480360381019061042c9190612c7f565b611317565b005b61044d60048036038101906104489190612caa565b6113a7565b60405161045a9190612add565b60405180910390f35b61046b611634565b005b610475611647565b005b610491600480360381019061048c9190612c7f565b61166b565b005b61049b6116fc565b6040516104a89190612e1f565b60405180910390f35b6104b9611723565b6040516104c69190612aae565b60405180910390f35b6104d76117af565b6040516104e49190612add565b60405180910390f35b6104f56117b5565b6040516105029190612add565b60405180910390f35b6105136117c1565b6040516105209190612e47565b60405180910390f35b610543600480360381019061053e9190612cfa565b6117d3565b005b61054d61183c565b60405161055a9190612add565b60405180910390f35b61056b611845565b005b61058760048036038101906105829190612c7f565b611891565b6040516105949190612e1f565b60405180910390f35b6105a56118c5565b6040516105b29190612add565b60405180910390f35b6105d560048036038101906105d09190612c7f565b6118ca565b6040516105e29190612add565b60405180910390f35b61060560048036038101906106009190612c7f565b6118e3565b6040516106129190612add565b60405180910390f35b6106236118fc565b6040516106309190612add565b60405180910390f35b610641611902565b60405161064e9190612add565b60405180910390f35b610671600480360381019061066c9190612c54565b6119b2565b005b61067b611a36565b6040516106889190612add565b60405180910390f35b6106ab60048036038101906106a69190612e60565b611a3c565b6040516106b89190612add565b60405180910390f35b6106c9612955565b600b600480602002604051908101604052809291908260048015610702576020028201915b8154815260200190600101908083116106ee575b5050505050905090565b6007805461071990612ecb565b80601f016020809104026020016040519081016040528092919081815260200182805461074590612ecb565b80156107905780601f1061076757610100808354040283529160200191610790565b820191905f5260205f20905b81548152906001019060200180831161077357829003601f168201915b505050505081565b60175481565b6107a6612955565b5f83116107e8576040517f08c379a00000000000000000000000000000000000000000000000000000000081526004016107df90612f6b565b60405180910390fd5b60055f9054906101000a900473ffffffffffffffffffffffffffffffffffffffff1673ffffffffffffffffffffffffffffffffffffffff166370a08231336040518263ffffffff1660e01b81526004016108429190612e1f565b602060405180830381865afa15801561085d573d5f5f3e3d5ffd5b505050506040513d601f19601f820116820180604052508101906108819190612f9d565b8311156108c3576040517f08c379a00000000000000000000000000000000000000000000000000000000081526004016108ba90613038565b60405180910390fd5b6108cb612955565b5f60175490505f5f90505b6004811015610a62575f600b82600481106108f4576108f3613056565b5b0154905082878261090591906130b0565b61090f919061311e565b84836004811061092257610921613056565b5b60200201818152505085826004811061093e5761093d613056565b5b602002013584836004811061095657610955613056565b5b6020020151101561099c576040517f08c379a0000000000000000000000000000000000000000000000000000000008152600401610993906131be565b60405180910390fd5b8382600481106109af576109ae613056565b5b6020020151600b83600481106109c8576109c7613056565b5b015f8282546109d791906131dc565b92505081905550610a54338584600481106109f5576109f4613056565b5b602002015160018560048110610a0e57610a0d613056565b5b015f9054906101000a900473ffffffffffffffffffffffffffffffffffffffff1673ffffffffffffffffffffffffffffffffffffffff16611fb89092919063ffffffff16565b5080806001019150506108d6565b5060055f9054906101000a900473ffffffffffffffffffffffffffffffffffffffff1673ffffffffffffffffffffffffffffffffffffffff166379cc679033876040518363ffffffff1660e01b8152600401610abf92919061320f565b5f604051808303815f87803b158015610ad6575f5ffd5b505af1158015610ae8573d5f5f3e3d5ffd5b505050508460175f828254610afd91906131dc565b92505081905550610b0c612037565b3373ffffffffffffffffffffffffffffffffffffffff167f8cc1b2597088f4548c1adb9ea1ed0eaaa26f43b9738dfd001e02c7e366573a3f8387604051610b54929190613236565b60405180910390a2819250505092915050565b600481565b5f610b75612955565b5f5f90505b6004811015610bc257600f8160048110610b9757610b96613056565b5b0154828260048110610bac57610bab613056565b5b6020020181815250508080600101915050610b7a565b505f5f90505f6017541115610be857610be5610bdd83612084565b600854612120565b90505b5f600b600480602002604051908101604052809291908260048015610c22576020028201915b815481526020019060010190808311610c0e575b505050505090505f5f90505b6004811015610d30575f6017541115610c955785610c4c575f610c65565b868160048110610c5f57610c5e613056565b5b60200201355b828260048110610c7857610c77613056565b5b60200201818151610c89919061325d565b91508181525050610d23565b5f878260048110610ca957610ca8613056565b5b602002013511610cee576040517f08c379a0000000000000000000000000000000000000000000000000000000008152600401610ce590613300565b60405180910390fd5b868160048110610d0157610d00613056565b5b6020020135828260048110610d1957610d18613056565b5b6020020181815250505b8080600101915050610c2e565b505f610d47610d3f83866122eb565b600854612120565b90505f60175403610d5e5780945050505050610d8e565b5f8382610d6b91906131dc565b90508381601754610d7c91906130b0565b610d86919061311e565b955050505050505b92915050565b610d9c61238a565b5f5f60146101000a81548160ff021916908315150217905550565b633b9aca0081565b6018602052805f5260405f205f915090505481565b600b8160048110610de3575f80fd5b015f915090505481565b5f610df6612955565b5f5f90505b6004811015610e4357600f8160048110610e1857610e17613056565b5b0154828260048110610e2d57610e2c613056565b5b6020020181815250508080600101915050610dfb565b50610e5085858584612411565b9150509392505050565b610e6261238a565b6201518081610e7191906131dc565b421015610eb3576040517f08c379a0000000000000000000000000000000000000000000000000000000008152600401610eaa90613368565b60405180910390fd5b5f82118015610ec45750620f424082105b610f03576040517f08c379a0000000000000000000000000000000000000000000000000000000008152600401610efa906133d0565b60405180910390fd5b5f60085490505f429050808311610f4f576040517f08c379a0000000000000000000000000000000000000000000000000000000008152600401610f469061345e565b60405180910390fd5b620d2f0081610f5e919061325d565b831115610fa0576040517f08c379a0000000000000000000000000000000000000000000000000000000008152600401610f97906134c6565b60405180910390fd5b836008819055507fa2b71ec6df949300b59aab36b55e189697b750119dd349fcfa8c0f779e83c25482858386604051610fdc94939291906134e4565b60405180910390a150505050565b5f5f60149054906101000a900460ff161561103a576040517f08c379a000000000000000000000000000000000000000000000000000000000815260040161103190613571565b60405180910390fd5b83850361107c576040517f08c379a0000000000000000000000000000000000000000000000000000000008152600401611073906135d9565b60405180910390fd5b60048510801561108c5750600484105b6110cb576040517f08c379a00000000000000000000000000000000000000000000000000000000081526004016110c290613667565b60405180910390fd5b6110d3612955565b5f5f90505b600481101561112057600f81600481106110f5576110f4613056565b5b015482826004811061110a57611109613056565b5b60200201818152505080806001019150506110d8565b505f61112e87878785612411565b905083811015611173576040517f08c379a000000000000000000000000000000000000000000000000000000000815260040161116a906136cf565b60405180910390fd5b6111d433308760018b6004811061118d5761118c613056565b5b015f9054906101000a900473ffffffffffffffffffffffffffffffffffffffff1673ffffffffffffffffffffffffffffffffffffffff1661251f909392919063ffffffff16565b6112333382600189600481106111ed576111ec613056565b5b015f9054906101000a900473ffffffffffffffffffffffffffffffffffffffff1673ffffffffffffffffffffffffffffffffffffffff16611fb89092919063ffffffff16565b84600b886004811061124857611247613056565b5b015f828254611257919061325d565b9250508190555080600b876004811061127357611272613056565b5b015f82825461128291906131dc565b92505081905550611291612037565b3373ffffffffffffffffffffffffffffffffffffffff167fb2e76ae99761dc136e598d4a629bb347eccb9532a5f8bbd72e18467c3c34cc98888789856040516112dd94939291906134e4565b60405180910390a28092505050949350505050565b60055f9054906101000a900473ffffffffffffffffffffffffffffffffffffffff1681565b61131f61238a565b6402540be4008110611366576040517f08c379a000000000000000000000000000000000000000000000000000000000815260040161135d90613737565b60405180910390fd5b806009819055507f8c4d35e54a3f2ef1134138fd8ea3daee6a3c89e10d2665996babdf70261e2c768160405161139c9190612add565b60405180910390a150565b5f5f84116113ea576040517f08c379a00000000000000000000000000000000000000000000000000000000081526004016113e190612f6b565b60405180910390fd5b6004831061142d576040517f08c379a000000000000000000000000000000000000000000000000000000000815260040161142490613667565b60405180910390fd5b5f60175490505f8186600b876004811061144a57611449613056565b5b015461145691906130b0565b611460919061311e565b9050838110156114a5576040517f08c379a000000000000000000000000000000000000000000000000000000000815260040161149c9061379f565b60405180910390fd5b80600b86600481106114ba576114b9613056565b5b015f8282546114c991906131dc565b9250508190555060055f9054906101000a900473ffffffffffffffffffffffffffffffffffffffff1673ffffffffffffffffffffffffffffffffffffffff166379cc679033886040518363ffffffff1660e01b815260040161152c92919061320f565b5f604051808303815f87803b158015611543575f5ffd5b505af1158015611555573d5f5f3e3d5ffd5b505050508560175f82825461156a91906131dc565b925050819055506115d033826001886004811061158a57611589613056565b5b015f9054906101000a900473ffffffffffffffffffffffffffffffffffffffff1673ffffffffffffffffffffffffffffffffffffffff16611fb89092919063ffffffff16565b6115d8612037565b3373ffffffffffffffffffffffffffffffffffffffff167f9e96dd3b997a2a257eec4df9bb6eaf626e206df5f543bd963682d143300be31087836040516116209291906137bd565b60405180910390a280925050509392505050565b61163c61238a565b6116455f6125a1565b565b61164f61238a565b60015f60146101000a81548160ff021916908315150217905550565b61167361238a565b6402540be4008111156116bb576040517f08c379a00000000000000000000000000000000000000000000000000000000081526004016116b290613854565b60405180910390fd5b80600a819055507f36a705a6c19db3ef2d8bf55ca55188c8499831bdf4fb8cd76fc1cf98b740bd27816040516116f19190612add565b60405180910390a150565b5f5f5f9054906101000a900473ffffffffffffffffffffffffffffffffffffffff16905090565b6006805461173090612ecb565b80601f016020809104026020016040519081016040528092919081815260200182805461175c90612ecb565b80156117a75780601f1061177e576101008083540402835291602001916117a7565b820191905f5260205f20905b81548152906001019060200180831161178a57829003601f168201915b505050505081565b600a5481565b670de0b6b3a764000081565b5f60149054906101000a900460ff1681565b6117db61238a565b6004821061181e576040517f08c379a000000000000000000000000000000000000000000000000000000000815260040161181590613667565b60405180910390fd5b806013836004811061183357611832613056565b5b01819055505050565b6402540be40081565b61184d61238a565b6008546008819055507f47e255b743bee2d976038336d6b7152f598bfb5a85fc267d04f2a79ab0eac2f26008546040516118879190612add565b60405180910390a1565b600181600481106118a0575f80fd5b015f915054906101000a900473ffffffffffffffffffffffffffffffffffffffff1681565b606481565b601381600481106118d9575f80fd5b015f915090505481565b600f81600481106118f2575f80fd5b015f915090505481565b60095481565b5f5f6017540361191c57670de0b6b3a764000090506119af565b611924612955565b5f5f90505b600481101561197157600f816004811061194657611945613056565b5b015482826004811061195b5761195a613056565b5b6020020181815250508080600101915050611929565b505f61198761197f83612084565b600854612120565b9050601754670de0b6b3a7640000826119a091906130b0565b6119aa919061311e565b925050505b90565b6119ba61238a565b5f73ffffffffffffffffffffffffffffffffffffffff168173ffffffffffffffffffffffffffffffffffffffff1603611a2a575f6040517f1e4fbdf7000000000000000000000000000000000000000000000000000000008152600401611a219190612e1f565b60405180910390fd5b611a33816125a1565b50565b60085481565b5f5f60149054906101000a900460ff1615611a8c576040517f08c379a0000000000000000000000000000000000000000000000000000000008152600401611a8390613571565b60405180910390fd5b611a94612955565b5f5f9050611aa0612955565b5f5f90505b6004811015611aed57600f8160048110611ac257611ac1613056565b5b0154828260048110611ad757611ad6613056565b5b6020020181815250508080600101915050611aa5565b505f5f90505f6017541115611b1357611b10611b0883612084565b600854612120565b90505b5f600b600480602002604051908101604052809291908260048015611b4d576020028201915b815481526020019060010190808311611b39575b505050505090505f5f90505b6004811015611cdf575f6017541115611c35575f898260048110611b8057611b7f613056565b5b60200201351115611c30575f6402540be4006009548b8460048110611ba857611ba7613056565b5b6020020135611bb791906130b0565b611bc1919061311e565b905080878360048110611bd757611bd6613056565b5b602002018181525050808a8360048110611bf457611bf3613056565b5b6020020135611c0391906131dc565b838360048110611c1657611c15613056565b5b60200201818151611c27919061325d565b91508181525050505b611cd2565b5f898260048110611c4957611c48613056565b5b602002013511611c8e576040517f08c379a0000000000000000000000000000000000000000000000000000000008152600401611c8590613300565b60405180910390fd5b888160048110611ca157611ca0613056565b5b6020020135828260048110611cb957611cb8613056565b5b60200201818151611cca919061325d565b915081815250505b8080600101915050611b59565b505f611cf6611cee83866122eb565b600854612120565b9050828111611d3a576040517f08c379a0000000000000000000000000000000000000000000000000000000008152600401611d31906138bc565b60405180910390fd5b5f60175403611d4b57809450611d77565b5f8382611d5891906131dc565b90508381601754611d6991906130b0565b611d73919061311e565b9550505b87851015611dba576040517f08c379a0000000000000000000000000000000000000000000000000000000008152600401611db19061394a565b60405180910390fd5b5f5f90505b6004811015611eaf575f8a8260048110611ddc57611ddb613056565b5b60200201351115611ea257611e5f33308c8460048110611dff57611dfe613056565b5b602002013560018560048110611e1857611e17613056565b5b015f9054906101000a900473ffffffffffffffffffffffffffffffffffffffff1673ffffffffffffffffffffffffffffffffffffffff1661251f909392919063ffffffff16565b898160048110611e7257611e71613056565b5b6020020135600b8260048110611e8b57611e8a613056565b5b015f828254611e9a919061325d565b925050819055505b8080600101915050611dbf565b5060055f9054906101000a900473ffffffffffffffffffffffffffffffffffffffff1673ffffffffffffffffffffffffffffffffffffffff166340c10f1933876040518363ffffffff1660e01b8152600401611f0c92919061320f565b5f604051808303815f87803b158015611f23575f5ffd5b505af1158015611f35573d5f5f3e3d5ffd5b505050508460175f828254611f4a919061325d565b92505081905550611f59612037565b3373ffffffffffffffffffffffffffffffffffffffff167fd40739b3f540f1a35fc49c8b4f260e551c733e27c756e610667c754b17761f5c8a87604051611fa1929190613981565b60405180910390a284965050505050505092915050565b612032838473ffffffffffffffffffffffffffffffffffffffff1663a9059cbb8585604051602401611feb92919061320f565b604051602081830303815290604052915060e01b6020820180517bffffffffffffffffffffffffffffffffffffffffffffffffffffffff8381831617835250505050612662565b505050565b5f5f90505b6004811015612081576013816004811061205957612058613056565b5b0154600f826004811061206f5761206e613056565b5b0181905550808060010191505061203c565b50565b61208c612955565b612094612955565b5f5f90505b600481101561211657670de0b6b3a7640000600b82600481106120bf576120be613056565b5b01548583600481106120d4576120d3613056565b5b60200201516120e391906130b0565b6120ed919061311e565b828260048110612100576120ff613056565b5b6020020181815250508080600101915050612099565b5080915050919050565b5f5f5f90505f5f90505b60048110156121655784816004811061214657612145613056565b5b602002015182612156919061325d565b9150808060010191505061212a565b505f8103612176575f9150506122e5565b5f8190505f5f90505f5f90505b60ff8110156122dd575f8390505f5f90505b60048110156121f357600160048a83600481106121b5576121b4613056565b5b60200201516121c491906130b0565b6121ce919061325d565b85836121da91906130b0565b6121e4919061311e565b91508080600101915050612195565b508392508060046001600461220891906131dc565b836064898c61221791906130b0565b612221919061311e565b61222b91906131dc565b61223591906130b0565b61223f919061311e565b612249919061325d565b8460048361225791906130b0565b6064888b61226591906130b0565b61226f919061311e565b612279919061325d565b61228391906130b0565b61228d919061311e565b9350828411156122b557600183856122a591906131dc565b116122b057506122dd565b6122cf565b600184846122c391906131dc565b116122ce57506122dd565b5b508080600101915050612183565b508193505050505b92915050565b6122f3612955565b6122fb612955565b5f5f90505b600481101561237f57670de0b6b3a764000085826004811061232557612324613056565b5b602002015185836004811061233d5761233c613056565b5b602002015161234c91906130b0565b612356919061311e565b82826004811061236957612368613056565b5b6020020181815250508080600101915050612300565b508091505092915050565b6123926126fd565b73ffffffffffffffffffffffffffffffffffffffff166123b06116fc565b73ffffffffffffffffffffffffffffffffffffffff161461240f576123d36126fd565b6040517f118cdaa70000000000000000000000000000000000000000000000000000000081526004016124069190612e1f565b60405180910390fd5b565b5f5f61241c83612084565b90505f670de0b6b3a764000084886004811061243b5761243a613056565b5b60200201518661244b91906130b0565b612455919061311e565b82886004811061246857612467613056565b5b6020020151612477919061325d565b90505f61248688888486612704565b90505f85886004811061249c5761249b613056565b5b6020020151670de0b6b3a764000083868b600481106124be576124bd613056565b5b60200201516124cd91906131dc565b6124d791906130b0565b6124e1919061311e565b90505f6402540be400600954836124f891906130b0565b612502919061311e565b9050808261251091906131dc565b95505050505050949350505050565b61259b848573ffffffffffffffffffffffffffffffffffffffff166323b872dd868686604051602401612554939291906139a8565b604051602081830303815290604052915060e01b6020820180517bffffffffffffffffffffffffffffffffffffffffffffffffffffffff8381831617835250505050612662565b50505050565b5f5f5f9054906101000a900473ffffffffffffffffffffffffffffffffffffffff169050815f5f6101000a81548173ffffffffffffffffffffffffffffffffffffffff021916908373ffffffffffffffffffffffffffffffffffffffff1602179055508173ffffffffffffffffffffffffffffffffffffffff168173ffffffffffffffffffffffffffffffffffffffff167f8be0079c531659141344cd1fd0a4f28419497f9722a3daafe3b4186f6b6457e060405160405180910390a35050565b5f5f60205f8451602086015f885af180612681576040513d5f823e3d81fd5b3d92505f519150505f821461269a5760018114156126b5565b5f8473ffffffffffffffffffffffffffffffffffffffff163b145b156126f757836040517f5274afe70000000000000000000000000000000000000000000000000000000081526004016126ee9190612e1f565b60405180910390fd5b50505050565b5f33905090565b5f5f61271283600854612120565b90505f5f90505f5f90505f5f90505b60048110156128375788810361278b5785816004811061274457612743613056565b5b602002015183612754919061325d565b92508686826004811061276a57612769613056565b5b602002015161277991906130b0565b82612784919061325d565b915061282a565b878114612803578581600481106127a5576127a4613056565b5b6020020151836127b5919061325d565b92508581600481106127ca576127c9613056565b5b60200201518682600481106127e2576127e1613056565b5b60200201516127f191906130b0565b826127fc919061325d565b9150612829565b85816004811061281657612815613056565b5b602002015183612826919061325d565b92505b5b8080600101915050612721565b505f82600461284691906130b0565b848561285291906130b0565b61285c919061311e565b90505f60048561286c919061311e565b60085460648761287c91906130b0565b612886919061311e565b89612891919061325d565b61289b91906131dc565b90505f5f90505f8690505f5f90505b60ff811015612942578192506004886128c3919061311e565b60085460648a6128d391906130b0565b6128dd919061311e565b85876128e9919061311e565b6128f3919061325d565b6128fd919061311e565b915082821115612920576001838361291591906131dc565b111561294257612935565b6001828461292e91906131dc565b1115612942575b80806001019150506128aa565b5080975050505050505050949350505050565b6040518060800160405280600490602082028036833780820191505090505090565b5f60049050919050565b5f81905092915050565b5f819050919050565b5f819050919050565b6129a681612994565b82525050565b5f6129b7838361299d565b60208301905092915050565b5f602082019050919050565b6129d881612977565b6129e28184612981565b92506129ed8261298b565b805f5b83811015612a1d578151612a0487826129ac565b9650612a0f836129c3565b9250506001810190506129f0565b505050505050565b5f608082019050612a385f8301846129cf565b92915050565b5f81519050919050565b5f82825260208201905092915050565b8281835e5f83830152505050565b5f601f19601f8301169050919050565b5f612a8082612a3e565b612a8a8185612a48565b9350612a9a818560208601612a58565b612aa381612a66565b840191505092915050565b5f6020820190508181035f830152612ac68184612a76565b905092915050565b612ad781612994565b82525050565b5f602082019050612af05f830184612ace565b92915050565b5f5ffd5b612b0381612994565b8114612b0d575f5ffd5b50565b5f81359050612b1e81612afa565b92915050565b5f5ffd5b5f81905082602060040282011115612b4357612b42612b24565b5b92915050565b5f5f60a08385031215612b5f57612b5e612af6565b5b5f612b6c85828601612b10565b9250506020612b7d85828601612b28565b9150509250929050565b5f8115159050919050565b612b9b81612b87565b8114612ba5575f5ffd5b50565b5f81359050612bb681612b92565b92915050565b5f5f60a08385031215612bd257612bd1612af6565b5b5f612bdf85828601612b28565b9250506080612bf085828601612ba8565b9150509250929050565b5f73ffffffffffffffffffffffffffffffffffffffff82169050919050565b5f612c2382612bfa565b9050919050565b612c3381612c19565b8114612c3d575f5ffd5b50565b5f81359050612c4e81612c2a565b92915050565b5f60208284031215612c6957612c68612af6565b5b5f612c7684828501612c40565b91505092915050565b5f60208284031215612c9457612c93612af6565b5b5f612ca184828501612b10565b91505092915050565b5f5f5f60608486031215612cc157612cc0612af6565b5b5f612cce86828701612b10565b9350506020612cdf86828701612b10565b9250506040612cf086828701612b10565b9150509250925092565b5f5f60408385031215612d1057612d0f612af6565b5b5f612d1d85828601612b10565b9250506020612d2e85828601612b10565b9150509250929050565b5f5f5f5f60808587031215612d5057612d4f612af6565b5b5f612d5d87828801612b10565b9450506020612d6e87828801612b10565b9350506040612d7f87828801612b10565b9250506060612d9087828801612b10565b91505092959194509250565b5f819050919050565b5f612dbf612dba612db584612bfa565b612d9c565b612bfa565b9050919050565b5f612dd082612da5565b9050919050565b5f612de182612dc6565b9050919050565b612df181612dd7565b82525050565b5f602082019050612e0a5f830184612de8565b92915050565b612e1981612c19565b82525050565b5f602082019050612e325f830184612e10565b92915050565b612e4181612b87565b82525050565b5f602082019050612e5a5f830184612e38565b92915050565b5f5f60a08385031215612e7657612e75612af6565b5b5f612e8385828601612b28565b9250506080612e9485828601612b10565b9150509250929050565b7f4e487b71000000000000000000000000000000000000000000000000000000005f52602260045260245ffd5b5f6002820490506001821680612ee257607f821691505b602082108103612ef557612ef4612e9e565b5b50919050565b7f537461626c6553776170414d4d3a20616d6f756e74206d757374206265203e205f8201527f3000000000000000000000000000000000000000000000000000000000000000602082015250565b5f612f55602183612a48565b9150612f6082612efb565b604082019050919050565b5f6020820190508181035f830152612f8281612f49565b9050919050565b5f81519050612f9781612afa565b92915050565b5f60208284031215612fb257612fb1612af6565b5b5f612fbf84828501612f89565b91505092915050565b7f537461626c6553776170414d4d3a20696e73756666696369656e742062616c615f8201527f6e63650000000000000000000000000000000000000000000000000000000000602082015250565b5f613022602383612a48565b915061302d82612fc8565b604082019050919050565b5f6020820190508181035f83015261304f81613016565b9050919050565b7f4e487b71000000000000000000000000000000000000000000000000000000005f52603260045260245ffd5b7f4e487b71000000000000000000000000000000000000000000000000000000005f52601160045260245ffd5b5f6130ba82612994565b91506130c583612994565b92508282026130d381612994565b915082820484148315176130ea576130e9613083565b5b5092915050565b7f4e487b71000000000000000000000000000000000000000000000000000000005f52601260045260245ffd5b5f61312882612994565b915061313383612994565b925082613143576131426130f1565b5b828204905092915050565b7f537461626c6553776170414d4d3a20616d6f756e74203c206d696e416d6f756e5f8201527f7400000000000000000000000000000000000000000000000000000000000000602082015250565b5f6131a8602183612a48565b91506131b38261314e565b604082019050919050565b5f6020820190508181035f8301526131d58161319c565b9050919050565b5f6131e682612994565b91506131f183612994565b925082820390508181111561320957613208613083565b5b92915050565b5f6040820190506132225f830185612e10565b61322f6020830184612ace565b9392505050565b5f60a0820190506132495f8301856129cf565b6132566080830184612ace565b9392505050565b5f61326782612994565b915061327283612994565b925082820190508082111561328a57613289613083565b5b92915050565b7f537461626c6553776170414d4d3a20696e697469616c206465706f736974206d5f8201527f757374206265203e203000000000000000000000000000000000000000000000602082015250565b5f6132ea602a83612a48565b91506132f582613290565b604082019050919050565b5f6020820190508181035f830152613317816132de565b9050919050565b7f537461626c6553776170414d4d3a20696e73756666696369656e742074696d655f82015250565b5f613352602083612a48565b915061335d8261331e565b602082019050919050565b5f6020820190508181035f83015261337f81613346565b9050919050565b7f537461626c6553776170414d4d3a20696e76616c6964206675747572654100005f82015250565b5f6133ba601e83612a48565b91506133c582613386565b602082019050919050565b5f6020820190508181035f8301526133e7816133ae565b9050919050565b7f537461626c6553776170414d4d3a2066757475726554696d65206d75737420625f8201527f6520696e20667574757265000000000000000000000000000000000000000000602082015250565b5f613448602b83612a48565b9150613453826133ee565b604082019050919050565b5f6020820190508181035f8301526134758161343c565b9050919050565b7f537461626c6553776170414d4d3a206d61782072616d702074696d65000000005f82015250565b5f6134b0601c83612a48565b91506134bb8261347c565b602082019050919050565b5f6020820190508181035f8301526134dd816134a4565b9050919050565b5f6080820190506134f75f830187612ace565b6135046020830186612ace565b6135116040830185612ace565b61351e6060830184612ace565b95945050505050565b7f537461626c6553776170414d4d3a2070617573656400000000000000000000005f82015250565b5f61355b601583612a48565b915061356682613527565b602082019050919050565b5f6020820190508181035f8301526135888161354f565b9050919050565b7f537461626c6553776170414d4d3a2073616d6520636f696e00000000000000005f82015250565b5f6135c3601883612a48565b91506135ce8261358f565b602082019050919050565b5f6020820190508181035f8301526135f0816135b7565b9050919050565b7f537461626c6553776170414d4d3a20696e76616c696420636f696e20696e64655f8201527f7800000000000000000000000000000000000000000000000000000000000000602082015250565b5f613651602183612a48565b915061365c826135f7565b604082019050919050565b5f6020820190508181035f83015261367e81613645565b9050919050565b7f537461626c6553776170414d4d3a206479203c206d696e4479000000000000005f82015250565b5f6136b9601983612a48565b91506136c482613685565b602082019050919050565b5f6020820190508181035f8301526136e6816136ad565b9050919050565b7f537461626c6553776170414d4d3a2066656520746f6f206869676800000000005f82015250565b5f613721601b83612a48565b915061372c826136ed565b602082019050919050565b5f6020820190508181035f83015261374e81613715565b9050919050565b7f537461626c6553776170414d4d3a206479203c206d696e416d6f756e740000005f82015250565b5f613789601d83612a48565b915061379482613755565b602082019050919050565b5f6020820190508181035f8301526137b68161377d565b9050919050565b5f6040820190506137d05f830185612ace565b6137dd6020830184612ace565b9392505050565b7f537461626c6553776170414d4d3a2061646d696e2066656520746f6f206869675f8201527f6800000000000000000000000000000000000000000000000000000000000000602082015250565b5f61383e602183612a48565b9150613849826137e4565b604082019050919050565b5f6020820190508181035f83015261386b81613832565b9050919050565b7f537461626c6553776170414d4d3a204431203c3d2044300000000000000000005f82015250565b5f6138a6601783612a48565b91506138b182613872565b602082019050919050565b5f6020820190508181035f8301526138d38161389a565b9050919050565b7f537461626c6553776170414d4d3a206d696e74416d6f756e74203c206d696e4d5f8201527f696e74416d6f756e740000000000000000000000000000000000000000000000602082015250565b5f613934602983612a48565b915061393f826138da565b604082019050919050565b5f6020820190508181035f83015261396181613928565b9050919050565b82818337505050565b61397d60808383613968565b5050565b5f60a0820190506139945f830185613971565b6139a16080830184612ace565b9392505050565b5f6060820190506139bb5f830186612e10565b6139c86020830185612e10565b6139d56040830184612ace565b94935050505056fea26469706673582212205590d8edfb6057f5a8bf7aa7ee9d0354523115b188f41be7831ed673e33aa99764736f6c63430008210033608060405234801561000f575f5ffd5b5060405161178538038061178583398181016040528101906100319190610284565b82828160039081610042919061052d565b508060049081610052919061052d565b5050503360055f6101000a81548173ffffffffffffffffffffffffffffffffffffffff021916908373ffffffffffffffffffffffffffffffffffffffff1602179055508060065f6101000a81548173ffffffffffffffffffffffffffffffffffffffff021916908373ffffffffffffffffffffffffffffffffffffffff1602179055505050506105fc565b5f604051905090565b5f5ffd5b5f5ffd5b5f5ffd5b5f5ffd5b5f601f19601f8301169050919050565b7f4e487b71000000000000000000000000000000000000000000000000000000005f52604160045260245ffd5b61013c826100f6565b810181811067ffffffffffffffff8211171561015b5761015a610106565b5b80604052505050565b5f61016d6100dd565b90506101798282610133565b919050565b5f67ffffffffffffffff82111561019857610197610106565b5b6101a1826100f6565b9050602081019050919050565b8281835e5f83830152505050565b5f6101ce6101c98461017e565b610164565b9050828152602081018484840111156101ea576101e96100f2565b5b6101f58482856101ae565b509392505050565b5f82601f830112610211576102106100ee565b5b81516102218482602086016101bc565b91505092915050565b5f73ffffffffffffffffffffffffffffffffffffffff82169050919050565b5f6102538261022a565b9050919050565b61026381610249565b811461026d575f5ffd5b50565b5f8151905061027e8161025a565b92915050565b5f5f5f6060848603121561029b5761029a6100e6565b5b5f84015167ffffffffffffffff8111156102b8576102b76100ea565b5b6102c4868287016101fd565b935050602084015167ffffffffffffffff8111156102e5576102e46100ea565b5b6102f1868287016101fd565b925050604061030286828701610270565b9150509250925092565b5f81519050919050565b7f4e487b71000000000000000000000000000000000000000000000000000000005f52602260045260245ffd5b5f600282049050600182168061035a57607f821691505b60208210810361036d5761036c610316565b5b50919050565b5f819050815f5260205f209050919050565b5f6020601f8301049050919050565b5f82821b905092915050565b5f600883026103cf7fffffffffffffffffffffffffffffffffffffffffffffffffffffffffffffffff82610394565b6103d98683610394565b95508019841693508086168417925050509392505050565b5f819050919050565b5f819050919050565b5f61041d610418610413846103f1565b6103fa565b6103f1565b9050919050565b5f819050919050565b61043683610403565b61044a61044282610424565b8484546103a0565b825550505050565b5f5f905090565b610461610452565b61046c81848461042d565b505050565b5f5b82811015610492576104875f828401610459565b600181019050610473565b505050565b601f8211156104e557828211156104e4576104b181610373565b6104ba83610385565b6104c385610385565b60208610156104d0575f90505b8083016104df82840382610471565b505050505b5b505050565b5f82821c905092915050565b5f6105055f19846008026104ea565b1980831691505092915050565b5f61051d83836104f6565b9150826002028217905092915050565b6105368261030c565b67ffffffffffffffff81111561054f5761054e610106565b5b6105598254610343565b610564828285610497565b5f60209050601f831160018114610595575f8415610583578287015190505b61058d8582610512565b8655506105f4565b601f1984166105a386610373565b5f5b828110156105ca578489015182556001820191506020850194506020810190506105a5565b868310156105e757848901516105e3601f8916826104f6565b8355505b6001600288020188555050505b505050505050565b61117c806106095f395ff3fe608060405234801561000f575f5ffd5b50600436106100cd575f3560e01c806340c10f191161008a57806395d89b411161006457806395d89b4114610211578063982697dd1461022f578063a9059cbb1461024d578063dd62ed3e1461027d576100cd565b806340c10f19146101a957806370a08231146101c557806379cc6790146101f5576100cd565b806306fdde03146100d157806307546172146100ef578063095ea7b31461010d57806318160ddd1461013d57806323b872dd1461015b578063313ce5671461018b575b5f5ffd5b6100d96102ad565b6040516100e69190610d8d565b60405180910390f35b6100f761033d565b6040516101049190610dec565b60405180910390f35b61012760048036038101906101229190610e66565b610362565b6040516101349190610ebe565b60405180910390f35b610145610384565b6040516101529190610ee6565b60405180910390f35b61017560048036038101906101709190610eff565b61038d565b6040516101829190610ebe565b60405180910390f35b6101936103bb565b6040516101a09190610f6a565b60405180910390f35b6101c360048036038101906101be9190610e66565b6103c3565b005b6101df60048036038101906101da9190610f83565b610460565b6040516101ec9190610ee6565b60405180910390f35b61020f600480360381019061020a9190610e66565b6104a5565b005b610219610542565b6040516102269190610d8d565b60405180910390f35b6102376105d2565b6040516102449190610dec565b60405180910390f35b61026760048036038101906102629190610e66565b6105f7565b6040516102749190610ebe565b60405180910390f35b61029760048036038101906102929190610fae565b610619565b6040516102a49190610ee6565b60405180910390f35b6060600380546102bc90611019565b80601f01602080910402602001604051908101604052809291908181526020018280546102e890611019565b80156103335780601f1061030a57610100808354040283529160200191610333565b820191905f5260205f20905b81548152906001019060200180831161031657829003601f168201915b5050505050905090565b60055f9054906101000a900473ffffffffffffffffffffffffffffffffffffffff1681565b5f5f61036c61069b565b90506103798185856106a2565b600191505092915050565b5f600254905090565b5f5f61039761069b565b90506103a48582856106b4565b6103af858585610747565b60019150509392505050565b5f6012905090565b60055f9054906101000a900473ffffffffffffffffffffffffffffffffffffffff1673ffffffffffffffffffffffffffffffffffffffff163373ffffffffffffffffffffffffffffffffffffffff1614610452576040517f08c379a000000000000000000000000000000000000000000000000000000000815260040161044990611093565b60405180910390fd5b61045c8282610837565b5050565b5f5f5f8373ffffffffffffffffffffffffffffffffffffffff1673ffffffffffffffffffffffffffffffffffffffff1681526020019081526020015f20549050919050565b60055f9054906101000a900473ffffffffffffffffffffffffffffffffffffffff1673ffffffffffffffffffffffffffffffffffffffff163373ffffffffffffffffffffffffffffffffffffffff1614610534576040517f08c379a000000000000000000000000000000000000000000000000000000000815260040161052b90611093565b60405180910390fd5b61053e82826108b6565b5050565b60606004805461055190611019565b80601f016020809104026020016040519081016040528092919081815260200182805461057d90611019565b80156105c85780601f1061059f576101008083540402835291602001916105c8565b820191905f5260205f20905b8154815290600101906020018083116105ab57829003601f168201915b5050505050905090565b60065f9054906101000a900473ffffffffffffffffffffffffffffffffffffffff1681565b5f5f61060161069b565b905061060e818585610747565b600191505092915050565b5f60015f8473ffffffffffffffffffffffffffffffffffffffff1673ffffffffffffffffffffffffffffffffffffffff1681526020019081526020015f205f8373ffffffffffffffffffffffffffffffffffffffff1673ffffffffffffffffffffffffffffffffffffffff1681526020019081526020015f2054905092915050565b5f33905090565b6106af8383836001610935565b505050565b5f6106bf8484610619565b90507fffffffffffffffffffffffffffffffffffffffffffffffffffffffffffffffff8110156107415781811015610732578281836040517ffb8f41b2000000000000000000000000000000000000000000000000000000008152600401610729939291906110b1565b60405180910390fd5b61074084848484035f610935565b5b50505050565b5f73ffffffffffffffffffffffffffffffffffffffff168373ffffffffffffffffffffffffffffffffffffffff16036107b7575f6040517f96c6fd1e0000000000000000000000000000000000000000000000000000000081526004016107ae9190610dec565b60405180910390fd5b5f73ffffffffffffffffffffffffffffffffffffffff168273ffffffffffffffffffffffffffffffffffffffff1603610827575f6040517fec442f0500000000000000000000000000000000000000000000000000000000815260040161081e9190610dec565b60405180910390fd5b610832838383610b04565b505050565b5f73ffffffffffffffffffffffffffffffffffffffff168273ffffffffffffffffffffffffffffffffffffffff16036108a7575f6040517fec442f0500000000000000000000000000000000000000000000000000000000815260040161089e9190610dec565b60405180910390fd5b6108b25f8383610b04565b5050565b5f73ffffffffffffffffffffffffffffffffffffffff168273ffffffffffffffffffffffffffffffffffffffff1603610926575f6040517f96c6fd1e00000000000000000000000000000000000000000000000000000000815260040161091d9190610dec565b60405180910390fd5b610931825f83610b04565b5050565b5f73ffffffffffffffffffffffffffffffffffffffff168473ffffffffffffffffffffffffffffffffffffffff16036109a5575f6040517fe602df0500000000000000000000000000000000000000000000000000000000815260040161099c9190610dec565b60405180910390fd5b5f73ffffffffffffffffffffffffffffffffffffffff168373ffffffffffffffffffffffffffffffffffffffff1603610a15575f6040517f94280d62000000000000000000000000000000000000000000000000000000008152600401610a0c9190610dec565b60405180910390fd5b8160015f8673ffffffffffffffffffffffffffffffffffffffff1673ffffffffffffffffffffffffffffffffffffffff1681526020019081526020015f205f8573ffffffffffffffffffffffffffffffffffffffff1673ffffffffffffffffffffffffffffffffffffffff1681526020019081526020015f20819055508015610afe578273ffffffffffffffffffffffffffffffffffffffff168473ffffffffffffffffffffffffffffffffffffffff167f8c5be1e5ebec7d5bd14f71427d1e84f3dd0314c0f7b2291e5b200ac8c7c3b92584604051610af59190610ee6565b60405180910390a35b50505050565b5f73ffffffffffffffffffffffffffffffffffffffff168373ffffffffffffffffffffffffffffffffffffffff1603610b54578060025f828254610b489190611113565b92505081905550610c22565b5f5f5f8573ffffffffffffffffffffffffffffffffffffffff1673ffffffffffffffffffffffffffffffffffffffff1681526020019081526020015f2054905081811015610bdd578381836040517fe450d38c000000000000000000000000000000000000000000000000000000008152600401610bd4939291906110b1565b60405180910390fd5b8181035f5f8673ffffffffffffffffffffffffffffffffffffffff1673ffffffffffffffffffffffffffffffffffffffff1681526020019081526020015f2081905550505b5f73ffffffffffffffffffffffffffffffffffffffff168273ffffffffffffffffffffffffffffffffffffffff1603610c69578060025f8282540392505081905550610cb3565b805f5f8473ffffffffffffffffffffffffffffffffffffffff1673ffffffffffffffffffffffffffffffffffffffff1681526020019081526020015f205f82825401925050819055505b8173ffffffffffffffffffffffffffffffffffffffff168373ffffffffffffffffffffffffffffffffffffffff167fddf252ad1be2c89b69c2b068fc378daa952ba7f163c4a11628f55a4df523b3ef83604051610d109190610ee6565b60405180910390a3505050565b5f81519050919050565b5f82825260208201905092915050565b8281835e5f83830152505050565b5f601f19601f8301169050919050565b5f610d5f82610d1d565b610d698185610d27565b9350610d79818560208601610d37565b610d8281610d45565b840191505092915050565b5f6020820190508181035f830152610da58184610d55565b905092915050565b5f73ffffffffffffffffffffffffffffffffffffffff82169050919050565b5f610dd682610dad565b9050919050565b610de681610dcc565b82525050565b5f602082019050610dff5f830184610ddd565b92915050565b5f5ffd5b610e1281610dcc565b8114610e1c575f5ffd5b50565b5f81359050610e2d81610e09565b92915050565b5f819050919050565b610e4581610e33565b8114610e4f575f5ffd5b50565b5f81359050610e6081610e3c565b92915050565b5f5f60408385031215610e7c57610e7b610e05565b5b5f610e8985828601610e1f565b9250506020610e9a85828601610e52565b9150509250929050565b5f8115159050919050565b610eb881610ea4565b82525050565b5f602082019050610ed15f830184610eaf565b92915050565b610ee081610e33565b82525050565b5f602082019050610ef95f830184610ed7565b92915050565b5f5f5f60608486031215610f1657610f15610e05565b5b5f610f2386828701610e1f565b9350506020610f3486828701610e1f565b9250506040610f4586828701610e52565b9150509250925092565b5f60ff82169050919050565b610f6481610f4f565b82525050565b5f602082019050610f7d5f830184610f5b565b92915050565b5f60208284031215610f9857610f97610e05565b5b5f610fa584828501610e1f565b91505092915050565b5f5f60408385031215610fc457610fc3610e05565b5b5f610fd185828601610e1f565b9250506020610fe285828601610e1f565b9150509250929050565b7f4e487b71000000000000000000000000000000000000000000000000000000005f52602260045260245ffd5b5f600282049050600182168061103057607f821691505b60208210810361104357611042610fec565b5b50919050565b7f4c50546f6b656e3a206e6f74206d696e746572000000000000000000000000005f82015250565b5f61107d601383610d27565b915061108882611049565b602082019050919050565b5f6020820190508181035f8301526110aa81611071565b9050919050565b5f6060820190506110c45f830186610ddd565b6110d16020830185610ed7565b6110de6040830184610ed7565b949350505050565b7f4e487b71000000000000000000000000000000000000000000000000000000005f52601160045260245ffd5b5f61111d82610e33565b915061112883610e33565b92508282019050808211156111405761113f6110e6565b5b9291505056fea264697066735822122066835d022dbecad2a9f95a36080517cb8a47243cae434a6dbb993619ba07837d64736f6c63430008210033","linkReferences":{}},"methodIdentifiers":{"A()":"f446c1d0","ADMIN_FEE()":"4469ed14","A_PRECISION()":"d011f918","MAX_FEE()":"bc063e1a","N_COINS()":"29357750","PRECISION()":"aaf5eb68","addLiquidity(uint256[4],uint256)":"fdbaaa9f","adminFee()":"a0be06f9","balances(uint256)":"4903b0d1","calcTokenAmount(uint256[4],bool)":"36448e81","coins(uint256)":"c6610657","depositTimestamp(address)":"46b00d04","exchange(uint256,uint256,uint256,uint256)":"5b41b908","fee()":"ddca3f43","getBalances()":"00113e08","getVirtualPrice()":"e25aa5fa","get_dy(uint256,uint256,uint256)":"556d6e9f","isPaused()":"b187bd26","lpToken()":"5fcbd285","lpTokenName()":"94fb58d4","lpTokenSymbol()":"0793a68f","owner()":"8da5cb5b","pause()":"8456cb59","rampA(uint256,uint256)":"593d132c","rateMultipliers(uint256)":"d6c094b3","rates(uint256)":"dd418ae2","removeLiquidity(uint256,uint256[4])":"27b25fa9","removeLiquidityOneToken(uint256,uint256,uint256)":"7066b5b2","renounceOwnership()":"715018a6","setAdminFee(uint256)":"8beb60b6","setFee(uint256)":"69fe0e2d","setRateMultiplier(uint256,uint256)":"b8b1afd5","stopRampA()":"c4db7fa0","totalSupply()":"18160ddd","transferOwnership(address)":"f2fde38b","unpause()":"3f4ba83a"},"id":89}