{"abi":[{"type":"constructor","inputs":[{"name":"_gelatoResolver","type":"address","internalType":"address"},{"name":"_feeCollector","type":"address","internalType":"address"},{"name":"_protocolFeeBps","type":"uint256","internalType":"uint256"}],"stateMutability":"nonpayable"},{"type":"function","name":"cancelTask","inputs":[{"name":"_taskId","type":"bytes32","internalType":"bytes32"}],"outputs":[],"stateMutability":"nonpayable"},{"type":"function","name":"checker","inputs":[{"name":"_taskId","type":"bytes32","internalType":"bytes32"}],"outputs":[{"name":"canExec","type":"bool","internalType":"bool"},{"name":"execPayload","type":"bytes","internalType":"bytes"}],"stateMutability":"view"},{"type":"function","name":"createTask","inputs":[{"name":"_taskId","type":"bytes32","internalType":"bytes32"},{"name":"_target","type":"address","internalType":"address"},{"name":"_inputToken","type":"address","internalType":"address"},{"name":"_outputToken","type":"address","internalType":"address"},{"name":"_recipient","type":"address","internalType":"address"},{"name":"_amount","type":"uint256","internalType":"uint256"},{"name":"_maxFee","type":"uint256","internalType":"uint256"},{"name":"_startTime","type":"uint256","internalType":"uint256"},{"name":"_endTime","type":"uint256","internalType":"uint256"}],"outputs":[{"name":"","type":"bytes32","internalType":"bytes32"}],"stateMutability":"nonpayable"},{"type":"function","name":"executeTask","inputs":[{"name":"_taskId","type":"bytes32","internalType":"bytes32"},{"name":"_executor","type":"address","internalType":"address"},{"name":"_fee","type":"uint256","internalType":"uint256"}],"outputs":[{"name":"","type":"bool","internalType":"bool"}],"stateMutability":"nonpayable"},{"type":"function","name":"feeCollector","inputs":[],"outputs":[{"name":"","type":"address","internalType":"address"}],"stateMutability":"view"},{"type":"function","name":"gelatoResolver","inputs":[],"outputs":[{"name":"","type":"address","internalType":"address"}],"stateMutability":"view"},{"type":"function","name":"getTaskConfig","inputs":[{"name":"_taskId","type":"bytes32","internalType":"bytes32"}],"outputs":[{"name":"creator","type":"address","internalType":"address"},{"name":"target","type":"address","internalType":"address"},{"name":"inputToken","type":"address","internalType":"address"},{"name":"outputToken","type":"address","internalType":"address"},{"name":"recipient","type":"address","internalType":"address"},{"name":"amount","type":"uint256","internalType":"uint256"},{"name":"maxFee","type":"uint256","internalType":"uint256"},{"name":"startTime","type":"uint256","internalType":"uint256"},{"name":"endTime","type":"uint256","internalType":"uint256"},{"name":"isActive","type":"bool","internalType":"bool"}],"stateMutability":"view"},{"type":"function","name":"getUserTaskCount","inputs":[{"name":"_user","type":"address","internalType":"address"}],"outputs":[{"name":"","type":"uint256","internalType":"uint256"}],"stateMutability":"view"},{"type":"function","name":"getUserTasks","inputs":[{"name":"_user","type":"address","internalType":"address"}],"outputs":[{"name":"","type":"bytes32[]","internalType":"bytes32[]"}],"stateMutability":"view"},{"type":"function","name":"owner","inputs":[],"outputs":[{"name":"","type":"address","internalType":"address"}],"stateMutability":"view"},{"type":"function","name":"protocolFeeBps","inputs":[],"outputs":[{"name":"","type":"uint256","internalType":"uint256"}],"stateMutability":"view"},{"type":"function","name":"renounceOwnership","inputs":[],"outputs":[],"stateMutability":"nonpayable"},{"type":"function","name":"rescueTokens","inputs":[{"name":"_token","type":"address","internalType":"address"},{"name":"_to","type":"address","internalType":"address"},{"name":"_amount","type":"uint256","internalType":"uint256"}],"outputs":[],"stateMutability":"nonpayable"},{"type":"function","name":"setFeeCollector","inputs":[{"name":"_feeCollector","type":"address","internalType":"address"}],"outputs":[],"stateMutability":"nonpayable"},{"type":"function","name":"setGelatoResolver","inputs":[{"name":"_resolver","type":"address","internalType":"address"}],"outputs":[],"stateMutability":"nonpayable"},{"type":"function","name":"setProtocolFee","inputs":[{"name":"_feeBps","type":"uint256","internalType":"uint256"}],"outputs":[],"stateMutability":"nonpayable"},{"type":"function","name":"taskConfigs","inputs":[{"name":"","type":"bytes32","internalType":"bytes32"}],"outputs":[{"name":"creator","type":"address","internalType":"address"},{"name":"target","type":"address","internalType":"address"},{"name":"inputToken","type":"address","internalType":"address"},{"name":"outputToken","type":"address","internalType":"address"},{"name":"recipient","type":"address","internalType":"address"},{"name":"amount","type":"uint256","internalType":"uint256"},{"name":"maxFee","type":"uint256","internalType":"uint256"},{"name":"startTime","type":"uint256","internalType":"uint256"},{"name":"endTime","type":"uint256","internalType":"uint256"},{"name":"isActive","type":"bool","internalType":"bool"},{"name":"taskId","type":"bytes32","internalType":"bytes32"}],"stateMutability":"view"},{"type":"function","name":"taskExists","inputs":[{"name":"","type":"bytes32","internalType":"bytes32"}],"outputs":[{"name":"","type":"bool","internalType":"bool"}],"stateMutability":"view"},{"type":"function","name":"transferOwnership","inputs":[{"name":"newOwner","type":"address","internalType":"address"}],"outputs":[],"stateMutability":"nonpayable"},{"type":"function","name":"userTasks","inputs":[{"name":"","type":"address","internalType":"address"},{"name":"","type":"uint256","internalType":"uint256"}],"outputs":[{"name":"","type":"bytes32","internalType":"bytes32"}],"stateMutability":"view"},{"type":"event","name":"FeeCollectorUpdated","inputs":[{"name":"newFeeCollector","type":"address","indexed":true,"internalType":"address"}],"anonymous":false},{"type":"event","name":"FeeUpdated","inputs":[{"name":"newFeeBps","type":"uint256","indexed":false,"internalType":"uint256"}],"anonymous":false},{"type":"event","name":"GelatoResolverUpdated","inputs":[{"name":"newResolver","type":"address","indexed":true,"internalType":"address"}],"anonymous":false},{"type":"event","name":"OwnershipTransferred","inputs":[{"name":"previousOwner","type":"address","indexed":true,"internalType":"address"},{"name":"newOwner","type":"address","indexed":true,"internalType":"address"}],"anonymous":false},{"type":"event","name":"TaskCancelled","inputs":[{"name":"taskId","type":"bytes32","indexed":true,"internalType":"bytes32"}],"anonymous":false},{"type":"event","name":"TaskCreated","inputs":[{"name":"taskId","type":"bytes32","indexed":true,"internalType":"bytes32"},{"name":"creator","type":"address","indexed":true,"internalType":"address"},{"name":"target","type":"address","indexed":false,"internalType":"address"},{"name":"inputToken","type":"address","indexed":false,"internalType":"address"},{"name":"outputToken","type":"address","indexed":false,"internalType":"address"},{"name":"amount","type":"uint256","indexed":false,"internalType":"uint256"}],"anonymous":false},{"type":"event","name":"TaskExecuted","inputs":[{"name":"taskId","type":"bytes32","indexed":true,"internalType":"bytes32"},{"name":"executor","type":"address","indexed":true,"internalType":"address"},{"name":"feePaid","type":"uint256","indexed":false,"internalType":"uint256"}],"anonymous":false},{"type":"error","name":"OwnableInvalidOwner","inputs":[{"name":"owner","type":"address","internalType":"address"}]},{"type":"error","name":"OwnableUnauthorizedAccount","inputs":[{"name":"account","type":"address","internalType":"address"}]},{"type":"error","name":"ReentrancyGuardReentrantCall","inputs":[]},{"type":"error","name":"SafeERC20FailedOperation","inputs":[{"name":"token","type":"address","internalType":"address"}]}],"bytecode":{"object":"0x608060405234801561000f575f5ffd5b5060405161337438038061337483398181016040528101906100319190610376565b335f73ffffffffffffffffffffffffffffffffffffffff168173ffffffffffffffffffffffffffffffffffffffff16036100a2575f6040517f1e4fbdf700000000000000000000000000000000000000000000000000000000815260040161009991906103d5565b60405180910390fd5b6100b18161022460201b60201c565b50600180819055505f73ffffffffffffffffffffffffffffffffffffffff168373ffffffffffffffffffffffffffffffffffffffff1603610127576040517f08c379a000000000000000000000000000000000000000000000000000000000815260040161011e9061046e565b60405180910390fd5b5f73ffffffffffffffffffffffffffffffffffffffff168273ffffffffffffffffffffffffffffffffffffffff1603610195576040517f08c379a000000000000000000000000000000000000000000000000000000000815260040161018c906104fc565b60405180910390fd5b8260025f6101000a81548173ffffffffffffffffffffffffffffffffffffffff021916908373ffffffffffffffffffffffffffffffffffffffff1602179055508160065f6101000a81548173ffffffffffffffffffffffffffffffffffffffff021916908373ffffffffffffffffffffffffffffffffffffffff1602179055508060078190555050505061051a565b5f5f5f9054906101000a900473ffffffffffffffffffffffffffffffffffffffff169050815f5f6101000a81548173ffffffffffffffffffffffffffffffffffffffff021916908373ffffffffffffffffffffffffffffffffffffffff1602179055508173ffffffffffffffffffffffffffffffffffffffff168173ffffffffffffffffffffffffffffffffffffffff167f8be0079c531659141344cd1fd0a4f28419497f9722a3daafe3b4186f6b6457e060405160405180910390a35050565b5f5ffd5b5f73ffffffffffffffffffffffffffffffffffffffff82169050919050565b5f610312826102e9565b9050919050565b61032281610308565b811461032c575f5ffd5b50565b5f8151905061033d81610319565b92915050565b5f819050919050565b61035581610343565b811461035f575f5ffd5b50565b5f815190506103708161034c565b92915050565b5f5f5f6060848603121561038d5761038c6102e5565b5b5f61039a8682870161032f565b93505060206103ab8682870161032f565b92505060406103bc86828701610362565b9150509250925092565b6103cf81610308565b82525050565b5f6020820190506103e85f8301846103c6565b92915050565b5f82825260208201905092915050565b7f47656c61746f52656c617948656c7065723a20696e76616c6964207265736f6c5f8201527f7665720000000000000000000000000000000000000000000000000000000000602082015250565b5f6104586023836103ee565b9150610463826103fe565b604082019050919050565b5f6020820190508181035f8301526104858161044c565b9050919050565b7f47656c61746f52656c617948656c7065723a20696e76616c69642066656520635f8201527f6f6c6c6563746f72000000000000000000000000000000000000000000000000602082015250565b5f6104e66028836103ee565b91506104f18261048c565b604082019050919050565b5f6020820190508181035f830152610513816104da565b9050919050565b612e4d806105275f395ff3fe608060405234801561000f575f5ffd5b506004361061012a575f3560e01c80639abc2f2d116100ab578063c415b95c1161006f578063c415b95c1461037a578063cea9d26f14610398578063ee8ca3b5146103b4578063f2fde38b146103d0578063f85496b7146103ec5761012a565b80639abc2f2d1461028b578063a42dce80146102c5578063a70c6c90146102e1578063b7bf356a1461031a578063b98770ec1461034a5761012a565b806366873a55116100f257806366873a55146101e7578063715018a614610217578063787dce3d146102215780638da5cb5b1461023d57806395d576601461025b5761012a565b80631591b7271461012e5780631bfab9171461014c57806335659fb8146101685780633f555c72146101865780635ad1fd82146101b7575b5f5ffd5b61013661041c565b6040516101439190611f1d565b60405180910390f35b61016660048036038101906101619190611f64565b610441565b005b61017061053d565b60405161017d9190611fa7565b60405180910390f35b6101a0600480360381019061019b9190611ff3565b610543565b6040516101ae9291906120a8565b60405180910390f35b6101d160048036038101906101cc9190612100565b6107f3565b6040516101de91906121d3565b60405180910390f35b61020160048036038101906101fc91906121ec565b610cad565b60405161020e91906121d3565b60405180910390f35b61021f610cd8565b005b61023b6004803603810190610236919061222a565b610ceb565b005b610245610d79565b6040516102529190611f1d565b60405180910390f35b61027560048036038101906102709190611f64565b610da0565b604051610282919061230c565b60405180910390f35b6102a560048036038101906102a09190611ff3565b610e33565b6040516102bc9b9a9998979695949392919061232c565b60405180910390f35b6102df60048036038101906102da9190611f64565b610f30565b005b6102fb60048036038101906102f69190611ff3565b61102c565b6040516103119a999897969594939291906123d5565b60405180910390f35b610334600480360381019061032f9190611ff3565b611144565b604051610341919061246f565b60405180910390f35b610364600480360381019061035f9190612488565b611161565b604051610371919061246f565b60405180910390f35b6103826116ce565b60405161038f9190611f1d565b60405180910390f35b6103b260048036038101906103ad91906124d8565b6116f3565b005b6103ce60048036038101906103c99190611ff3565b611799565b005b6103ea60048036038101906103e59190611f64565b611971565b005b61040660048036038101906104019190611f64565b6119f5565b6040516104139190611fa7565b60405180910390f35b60025f9054906101000a900473ffffffffffffffffffffffffffffffffffffffff1681565b610449611a3e565b5f73ffffffffffffffffffffffffffffffffffffffff168173ffffffffffffffffffffffffffffffffffffffff16036104b7576040517f08c379a00000000000000000000000000000000000000000000000000000000081526004016104ae906125a8565b60405180910390fd5b8060025f6101000a81548173ffffffffffffffffffffffffffffffffffffffff021916908373ffffffffffffffffffffffffffffffffffffffff1602179055508073ffffffffffffffffffffffffffffffffffffffff167fdab673eba4becb71800cd69080f7fd22a2312532a67a3e8c33c2831468cd3e2360405160405180910390a250565b60075481565b5f60605f60045f8581526020019081526020015f209050806009015f9054906101000a900460ff166105b0575f6040518060400160405280600f81526020017f5461736b206e6f7420616374697665000000000000000000000000000000000081525092509250506107ee565b80600701544210156105fd575f6040518060400160405280601081526020017f5461736b206e6f7420737461727465640000000000000000000000000000000081525092509250506107ee565b806008015442111561064a575f6040518060400160405280600a81526020017f5461736b20656e6465640000000000000000000000000000000000000000000081525092509250506107ee565b5f816002015f9054906101000a900473ffffffffffffffffffffffffffffffffffffffff1673ffffffffffffffffffffffffffffffffffffffff166370a08231835f015f9054906101000a900473ffffffffffffffffffffffffffffffffffffffff166040518263ffffffff1660e01b81526004016106c99190611f1d565b602060405180830381865afa1580156106e4573d5f5f3e3d5ffd5b505050506040513d601f19601f8201168201806040525081019061070891906125da565b90508160060154826005015461071e9190612632565b811015610767575f6040518060400160405280601481526020017f496e73756666696369656e742062616c616e63650000000000000000000000008152509350935050506107ee565b6001935063b98770ec60e01b8532846006015460405160240161078c93929190612665565b604051602081830303815290604052907bffffffffffffffffffffffffffffffffffffffffffffffffffffffff19166020820180517bffffffffffffffffffffffffffffffffffffffffffffffffffffffff8381831617835250505050925050505b915091565b5f6107fc611ac5565b60035f8b81526020019081526020015f205f9054906101000a900460ff161561085a576040517f08c379a0000000000000000000000000000000000000000000000000000000008152600401610851906126e4565b60405180910390fd5b5f73ffffffffffffffffffffffffffffffffffffffff168973ffffffffffffffffffffffffffffffffffffffff16036108c8576040517f08c379a00000000000000000000000000000000000000000000000000000000081526004016108bf90612772565b60405180910390fd5b82821161090a576040517f08c379a000000000000000000000000000000000000000000000000000000000815260040161090190612800565b60405180910390fd5b61093530868a73ffffffffffffffffffffffffffffffffffffffff16611b0b9092919063ffffffff16565b6040518061016001604052803373ffffffffffffffffffffffffffffffffffffffff1681526020018a73ffffffffffffffffffffffffffffffffffffffff1681526020018973ffffffffffffffffffffffffffffffffffffffff1681526020018873ffffffffffffffffffffffffffffffffffffffff1681526020018773ffffffffffffffffffffffffffffffffffffffff1681526020018681526020018581526020018481526020018381526020016001151581526020018b81525060045f8c81526020019081526020015f205f820151815f015f6101000a81548173ffffffffffffffffffffffffffffffffffffffff021916908373ffffffffffffffffffffffffffffffffffffffff1602179055506020820151816001015f6101000a81548173ffffffffffffffffffffffffffffffffffffffff021916908373ffffffffffffffffffffffffffffffffffffffff1602179055506040820151816002015f6101000a81548173ffffffffffffffffffffffffffffffffffffffff021916908373ffffffffffffffffffffffffffffffffffffffff1602179055506060820151816003015f6101000a81548173ffffffffffffffffffffffffffffffffffffffff021916908373ffffffffffffffffffffffffffffffffffffffff1602179055506080820151816004015f6101000a81548173ffffffffffffffffffffffffffffffffffffffff021916908373ffffffffffffffffffffffffffffffffffffffff16021790555060a0820151816005015560c0820151816006015560e082015181600701556101008201518160080155610120820151816009015f6101000a81548160ff02191690831515021790555061014082015181600a0155905050600160035f8c81526020019081526020015f205f6101000a81548160ff02191690831515021790555060055f3373ffffffffffffffffffffffffffffffffffffffff1673ffffffffffffffffffffffffffffffffffffffff1681526020019081526020015f208a908060018154018082558091505060019003905f5260205f20015f90919091909150553373ffffffffffffffffffffffffffffffffffffffff168a7fde83a77b0577ffa67f28bd1a8e9a5b3ec4d82a782930d5c00f48915eaaf2d8aa8b8b8b8a604051610c8d949392919061281e565b60405180910390a3899050610ca0611c18565b9998505050505050505050565b6005602052815f5260405f208181548110610cc6575f80fd5b905f5260205f20015f91509150505481565b610ce0611a3e565b610ce95f611c21565b565b610cf3611a3e565b6103e8811115610d38576040517f08c379a0000000000000000000000000000000000000000000000000000000008152600401610d2f906128ab565b60405180910390fd5b806007819055507f8c4d35e54a3f2ef1134138fd8ea3daee6a3c89e10d2665996babdf70261e2c7681604051610d6e9190611fa7565b60405180910390a150565b5f5f5f9054906101000a900473ffffffffffffffffffffffffffffffffffffffff16905090565b606060055f8373ffffffffffffffffffffffffffffffffffffffff1673ffffffffffffffffffffffffffffffffffffffff1681526020019081526020015f20805480602002602001604051908101604052809291908181526020018280548015610e2757602002820191905f5260205f20905b815481526020019060010190808311610e13575b50505050509050919050565b6004602052805f5260405f205f91509050805f015f9054906101000a900473ffffffffffffffffffffffffffffffffffffffff1690806001015f9054906101000a900473ffffffffffffffffffffffffffffffffffffffff1690806002015f9054906101000a900473ffffffffffffffffffffffffffffffffffffffff1690806003015f9054906101000a900473ffffffffffffffffffffffffffffffffffffffff1690806004015f9054906101000a900473ffffffffffffffffffffffffffffffffffffffff1690806005015490806006015490806007015490806008015490806009015f9054906101000a900460ff169080600a015490508b565b610f38611a3e565b5f73ffffffffffffffffffffffffffffffffffffffff168173ffffffffffffffffffffffffffffffffffffffff1603610fa6576040517f08c379a0000000000000000000000000000000000000000000000000000000008152600401610f9d90612939565b60405180910390fd5b8060065f6101000a81548173ffffffffffffffffffffffffffffffffffffffff021916908373ffffffffffffffffffffffffffffffffffffffff1602179055508073ffffffffffffffffffffffffffffffffffffffff167fe5693914d19c789bdee50a362998c0bc8d035a835f9871da5d51152f0582c34f60405160405180910390a250565b5f5f5f5f5f5f5f5f5f5f5f60045f8d81526020019081526020015f209050805f015f9054906101000a900473ffffffffffffffffffffffffffffffffffffffff16816001015f9054906101000a900473ffffffffffffffffffffffffffffffffffffffff16826002015f9054906101000a900473ffffffffffffffffffffffffffffffffffffffff16836003015f9054906101000a900473ffffffffffffffffffffffffffffffffffffffff16846004015f9054906101000a900473ffffffffffffffffffffffffffffffffffffffff168560050154866006015487600701548860080154896009015f9054906101000a900460ff169a509a509a509a509a509a509a509a509a509a50509193959799509193959799565b6003602052805f5260405f205f915054906101000a900460ff1681565b5f61116a611ac5565b60025f9054906101000a900473ffffffffffffffffffffffffffffffffffffffff1673ffffffffffffffffffffffffffffffffffffffff163373ffffffffffffffffffffffffffffffffffffffff16146111f9576040517f08c379a00000000000000000000000000000000000000000000000000000000081526004016111f0906129a1565b60405180910390fd5b5f60045f8681526020019081526020015f209050806009015f9054906101000a900460ff1661125d576040517f08c379a000000000000000000000000000000000000000000000000000000000815260040161125490612a09565b60405180910390fd5b80600701544210156112a4576040517f08c379a000000000000000000000000000000000000000000000000000000000815260040161129b90612a71565b60405180910390fd5b80600801544211156112eb576040517f08c379a00000000000000000000000000000000000000000000000000000000081526004016112e290612ad9565b60405180910390fd5b8060060154831115611332576040517f08c379a0000000000000000000000000000000000000000000000000000000008152600401611329906128ab565b60405180910390fd5b6113a8815f015f9054906101000a900473ffffffffffffffffffffffffffffffffffffffff16308360050154846002015f9054906101000a900473ffffffffffffffffffffffffffffffffffffffff1673ffffffffffffffffffffffffffffffffffffffff16611ce2909392919063ffffffff16565b5f816001015f9054906101000a900473ffffffffffffffffffffffffffffffffffffffff1673ffffffffffffffffffffffffffffffffffffffff1686836002015f9054906101000a900473ffffffffffffffffffffffffffffffffffffffff16846003015f9054906101000a900473ffffffffffffffffffffffffffffffffffffffff16856004015f9054906101000a900473ffffffffffffffffffffffffffffffffffffffff168660050154604051602401611469959493929190612af7565b6040516020818303038152906040527fd0790528000000000000000000000000000000000000000000000000000000007bffffffffffffffffffffffffffffffffffffffffffffffffffffffff19166020820180517bffffffffffffffffffffffffffffffffffffffffffffffffffffffff83818316178352505050506040516114f39190612b82565b5f604051808303815f865af19150503d805f811461152c576040519150601f19603f3d011682016040523d82523d5f602084013e611531565b606091505b505090505f84111561166b576115af825f015f9054906101000a900473ffffffffffffffffffffffffffffffffffffffff168686856002015f9054906101000a900473ffffffffffffffffffffffffffffffffffffffff1673ffffffffffffffffffffffffffffffffffffffff16611ce2909392919063ffffffff16565b5f612710600754866115c19190612b98565b6115cb9190612c06565b90505f81111561166957611668835f015f9054906101000a900473ffffffffffffffffffffffffffffffffffffffff1660065f9054906101000a900473ffffffffffffffffffffffffffffffffffffffff1683866002015f9054906101000a900473ffffffffffffffffffffffffffffffffffffffff1673ffffffffffffffffffffffffffffffffffffffff16611ce2909392919063ffffffff16565b5b505b8473ffffffffffffffffffffffffffffffffffffffff16867fc6e865a80f63f46d776a78c9d7b662617eacb2d1d525b7211fe5cc17078de015866040516116b29190611fa7565b60405180910390a380925050506116c7611c18565b9392505050565b60065f9054906101000a900473ffffffffffffffffffffffffffffffffffffffff1681565b6116fb611a3e565b5f73ffffffffffffffffffffffffffffffffffffffff168273ffffffffffffffffffffffffffffffffffffffff1603611769576040517f08c379a000000000000000000000000000000000000000000000000000000000815260040161176090612ca6565b60405180910390fd5b61179482828573ffffffffffffffffffffffffffffffffffffffff16611d649092919063ffffffff16565b505050565b5f60045f8381526020019081526020015f2090503373ffffffffffffffffffffffffffffffffffffffff16815f015f9054906101000a900473ffffffffffffffffffffffffffffffffffffffff1673ffffffffffffffffffffffffffffffffffffffff16148061183b575061180c610d79565b73ffffffffffffffffffffffffffffffffffffffff163373ffffffffffffffffffffffffffffffffffffffff16145b61187a576040517f08c379a000000000000000000000000000000000000000000000000000000000815260040161187190612d34565b60405180910390fd5b806009015f9054906101000a900460ff166118ca576040517f08c379a00000000000000000000000000000000000000000000000000000000081526004016118c190612a09565b60405180910390fd5b5f816009015f6101000a81548160ff0219169083151502179055505f816005015411156119405761193f305f836002015f9054906101000a900473ffffffffffffffffffffffffffffffffffffffff1673ffffffffffffffffffffffffffffffffffffffff16611b0b9092919063ffffffff16565b5b817fe1e1d79b8f28d3379fc32f617eaf54dd6bd4071074c77e91134770e04a81d62660405160405180910390a25050565b611979611a3e565b5f73ffffffffffffffffffffffffffffffffffffffff168173ffffffffffffffffffffffffffffffffffffffff16036119e9575f6040517f1e4fbdf70000000000000000000000000000000000000000000000000000000081526004016119e09190611f1d565b60405180910390fd5b6119f281611c21565b50565b5f60055f8373ffffffffffffffffffffffffffffffffffffffff1673ffffffffffffffffffffffffffffffffffffffff1681526020019081526020015f20805490509050919050565b611a46611de3565b73ffffffffffffffffffffffffffffffffffffffff16611a64610d79565b73ffffffffffffffffffffffffffffffffffffffff1614611ac357611a87611de3565b6040517f118cdaa7000000000000000000000000000000000000000000000000000000008152600401611aba9190611f1d565b60405180910390fd5b565b600260015403611b01576040517f3ee5aeb500000000000000000000000000000000000000000000000000000000815260040160405180910390fd5b6002600181905550565b5f8373ffffffffffffffffffffffffffffffffffffffff1663095ea7b38484604051602401611b3b929190612d52565b604051602081830303815290604052915060e01b6020820180517bffffffffffffffffffffffffffffffffffffffffffffffffffffffff83818316178352505050509050611b898482611dea565b611c1257611c07848573ffffffffffffffffffffffffffffffffffffffff1663095ea7b3865f604051602401611bc0929190612dbb565b604051602081830303815290604052915060e01b6020820180517bffffffffffffffffffffffffffffffffffffffffffffffffffffffff8381831617835250505050611e43565b611c118482611e43565b5b50505050565b60018081905550565b5f5f5f9054906101000a900473ffffffffffffffffffffffffffffffffffffffff169050815f5f6101000a81548173ffffffffffffffffffffffffffffffffffffffff021916908373ffffffffffffffffffffffffffffffffffffffff1602179055508173ffffffffffffffffffffffffffffffffffffffff168173ffffffffffffffffffffffffffffffffffffffff167f8be0079c531659141344cd1fd0a4f28419497f9722a3daafe3b4186f6b6457e060405160405180910390a35050565b611d5e848573ffffffffffffffffffffffffffffffffffffffff166323b872dd868686604051602401611d1793929190612de2565b604051602081830303815290604052915060e01b6020820180517bffffffffffffffffffffffffffffffffffffffffffffffffffffffff8381831617835250505050611e43565b50505050565b611dde838473ffffffffffffffffffffffffffffffffffffffff1663a9059cbb8585604051602401611d97929190612d52565b604051602081830303815290604052915060e01b6020820180517bffffffffffffffffffffffffffffffffffffffffffffffffffffffff8381831617835250505050611e43565b505050565b5f33905090565b5f5f5f5f60205f8651602088015f8a5af192503d91505f519050828015611e3857505f8214611e1c5760018114611e37565b5f8673ffffffffffffffffffffffffffffffffffffffff163b115b5b935050505092915050565b5f5f60205f8451602086015f885af180611e62576040513d5f823e3d81fd5b3d92505f519150505f8214611e7b576001811415611e96565b5f8473ffffffffffffffffffffffffffffffffffffffff163b145b15611ed857836040517f5274afe7000000000000000000000000000000000000000000000000000000008152600401611ecf9190611f1d565b60405180910390fd5b50505050565b5f73ffffffffffffffffffffffffffffffffffffffff82169050919050565b5f611f0782611ede565b9050919050565b611f1781611efd565b82525050565b5f602082019050611f305f830184611f0e565b92915050565b5f5ffd5b611f4381611efd565b8114611f4d575f5ffd5b50565b5f81359050611f5e81611f3a565b92915050565b5f60208284031215611f7957611f78611f36565b5b5f611f8684828501611f50565b91505092915050565b5f819050919050565b611fa181611f8f565b82525050565b5f602082019050611fba5f830184611f98565b92915050565b5f819050919050565b611fd281611fc0565b8114611fdc575f5ffd5b50565b5f81359050611fed81611fc9565b92915050565b5f6020828403121561200857612007611f36565b5b5f61201584828501611fdf565b91505092915050565b5f8115159050919050565b6120328161201e565b82525050565b5f81519050919050565b5f82825260208201905092915050565b8281835e5f83830152505050565b5f601f19601f8301169050919050565b5f61207a82612038565b6120848185612042565b9350612094818560208601612052565b61209d81612060565b840191505092915050565b5f6040820190506120bb5f830185612029565b81810360208301526120cd8184612070565b90509392505050565b6120df81611f8f565b81146120e9575f5ffd5b50565b5f813590506120fa816120d6565b92915050565b5f5f5f5f5f5f5f5f5f6101208a8c03121561211e5761211d611f36565b5b5f61212b8c828d01611fdf565b995050602061213c8c828d01611f50565b985050604061214d8c828d01611f50565b975050606061215e8c828d01611f50565b965050608061216f8c828d01611f50565b95505060a06121808c828d016120ec565b94505060c06121918c828d016120ec565b93505060e06121a28c828d016120ec565b9250506101006121b48c828d016120ec565b9150509295985092959850929598565b6121cd81611fc0565b82525050565b5f6020820190506121e65f8301846121c4565b92915050565b5f5f6040838503121561220257612201611f36565b5b5f61220f85828601611f50565b9250506020612220858286016120ec565b9150509250929050565b5f6020828403121561223f5761223e611f36565b5b5f61224c848285016120ec565b91505092915050565b5f81519050919050565b5f82825260208201905092915050565b5f819050602082019050919050565b61228781611fc0565b82525050565b5f612298838361227e565b60208301905092915050565b5f602082019050919050565b5f6122ba82612255565b6122c4818561225f565b93506122cf8361226f565b805f5b838110156122ff5781516122e6888261228d565b97506122f1836122a4565b9250506001810190506122d2565b5085935050505092915050565b5f6020820190508181035f83015261232481846122b0565b905092915050565b5f610160820190506123405f83018e611f0e565b61234d602083018d611f0e565b61235a604083018c611f0e565b612367606083018b611f0e565b612374608083018a611f0e565b61238160a0830189611f98565b61238e60c0830188611f98565b61239b60e0830187611f98565b6123a9610100830186611f98565b6123b7610120830185612029565b6123c56101408301846121c4565b9c9b505050505050505050505050565b5f610140820190506123e95f83018d611f0e565b6123f6602083018c611f0e565b612403604083018b611f0e565b612410606083018a611f0e565b61241d6080830189611f0e565b61242a60a0830188611f98565b61243760c0830187611f98565b61244460e0830186611f98565b612452610100830185611f98565b612460610120830184612029565b9b9a5050505050505050505050565b5f6020820190506124825f830184612029565b92915050565b5f5f5f6060848603121561249f5761249e611f36565b5b5f6124ac86828701611fdf565b93505060206124bd86828701611f50565b92505060406124ce868287016120ec565b9150509250925092565b5f5f5f606084860312156124ef576124ee611f36565b5b5f6124fc86828701611f50565b935050602061250d86828701611f50565b925050604061251e868287016120ec565b9150509250925092565b5f82825260208201905092915050565b7f47656c61746f52656c617948656c7065723a20696e76616c6964207265736f6c5f8201527f7665720000000000000000000000000000000000000000000000000000000000602082015250565b5f612592602383612528565b915061259d82612538565b604082019050919050565b5f6020820190508181035f8301526125bf81612586565b9050919050565b5f815190506125d4816120d6565b92915050565b5f602082840312156125ef576125ee611f36565b5b5f6125fc848285016125c6565b91505092915050565b7f4e487b71000000000000000000000000000000000000000000000000000000005f52601160045260245ffd5b5f61263c82611f8f565b915061264783611f8f565b925082820190508082111561265f5761265e612605565b5b92915050565b5f6060820190506126785f8301866121c4565b6126856020830185611f0e565b6126926040830184611f98565b949350505050565b7f47656c61746f52656c617948656c7065723a207461736b2065786973747300005f82015250565b5f6126ce601e83612528565b91506126d98261269a565b602082019050919050565b5f6020820190508181035f8301526126fb816126c2565b9050919050565b7f47656c61746f52656c617948656c7065723a20696e76616c69642074617267655f8201527f7400000000000000000000000000000000000000000000000000000000000000602082015250565b5f61275c602183612528565b915061276782612702565b604082019050919050565b5f6020820190508181035f83015261278981612750565b9050919050565b7f47656c61746f52656c617948656c7065723a20696e76616c69642074696d65205f8201527f72616e6765000000000000000000000000000000000000000000000000000000602082015250565b5f6127ea602583612528565b91506127f582612790565b604082019050919050565b5f6020820190508181035f830152612817816127de565b9050919050565b5f6080820190506128315f830187611f0e565b61283e6020830186611f0e565b61284b6040830185611f0e565b6128586060830184611f98565b95945050505050565b7f47656c61746f52656c617948656c7065723a2066656520746f6f2068696768005f82015250565b5f612895601f83612528565b91506128a082612861565b602082019050919050565b5f6020820190508181035f8301526128c281612889565b9050919050565b7f47656c61746f52656c617948656c7065723a20696e76616c69642066656520635f8201527f6f6c6c6563746f72000000000000000000000000000000000000000000000000602082015250565b5f612923602883612528565b915061292e826128c9565b604082019050919050565b5f6020820190508181035f83015261295081612917565b9050919050565b7f47656c61746f52656c617948656c7065723a206e6f742067656c61746f0000005f82015250565b5f61298b601d83612528565b915061299682612957565b602082019050919050565b5f6020820190508181035f8301526129b88161297f565b9050919050565b7f47656c61746f52656c617948656c7065723a206e6f74206163746976650000005f82015250565b5f6129f3601d83612528565b91506129fe826129bf565b602082019050919050565b5f6020820190508181035f830152612a20816129e7565b9050919050565b7f47656c61746f52656c617948656c7065723a206e6f74207374617274656400005f82015250565b5f612a5b601e83612528565b9150612a6682612a27565b602082019050919050565b5f6020820190508181035f830152612a8881612a4f565b9050919050565b7f47656c61746f52656c617948656c7065723a20656e64656400000000000000005f82015250565b5f612ac3601883612528565b9150612ace82612a8f565b602082019050919050565b5f6020820190508181035f830152612af081612ab7565b9050919050565b5f60a082019050612b0a5f8301886121c4565b612b176020830187611f0e565b612b246040830186611f0e565b612b316060830185611f0e565b612b3e6080830184611f98565b9695505050505050565b5f81905092915050565b5f612b5c82612038565b612b668185612b48565b9350612b76818560208601612052565b80840191505092915050565b5f612b8d8284612b52565b915081905092915050565b5f612ba282611f8f565b9150612bad83611f8f565b9250828202612bbb81611f8f565b91508282048414831517612bd257612bd1612605565b5b5092915050565b7f4e487b71000000000000000000000000000000000000000000000000000000005f52601260045260245ffd5b5f612c1082611f8f565b9150612c1b83611f8f565b925082612c2b57612c2a612bd9565b5b828204905092915050565b7f47656c61746f52656c617948656c7065723a20696e76616c69642072656369705f8201527f69656e7400000000000000000000000000000000000000000000000000000000602082015250565b5f612c90602483612528565b9150612c9b82612c36565b604082019050919050565b5f6020820190508181035f830152612cbd81612c84565b9050919050565b7f47656c61746f52656c617948656c7065723a206e6f7420617574686f72697a655f8201527f6400000000000000000000000000000000000000000000000000000000000000602082015250565b5f612d1e602183612528565b9150612d2982612cc4565b604082019050919050565b5f6020820190508181035f830152612d4b81612d12565b9050919050565b5f604082019050612d655f830185611f0e565b612d726020830184611f98565b9392505050565b5f819050919050565b5f819050919050565b5f612da5612da0612d9b84612d79565b612d82565b611f8f565b9050919050565b612db581612d8b565b82525050565b5f604082019050612dce5f830185611f0e565b612ddb6020830184612dac565b9392505050565b5f606082019050612df55f830186611f0e565b612e026020830185611f0e565b612e0f6040830184611f98565b94935050505056fea2646970667358221220ccf9a0addbcff6205a91fa85aed2a482304af269509736f92305439b0a0dc0df64736f6c63430008210033","linkReferences":{}},"methodIdentifiers":{"cancelTask(bytes32)":"ee8ca3b5","checker(bytes32)":"3f555c72","createTask(bytes32,address,address,address,address,uint256,uint256,uint256,uint256)":"5ad1fd82","executeTask(bytes32,address,uint256)":"b98770ec","feeCollector()":"c415b95c","gelatoResolver()":"1591b727","getTaskConfig(bytes32)":"a70c6c90","getUserTaskCount(address)":"f85496b7","getUserTasks(address)":"95d57660","owner()":"8da5cb5b","protocolFeeBps()":"35659fb8","renounceOwnership()":"715018a6","rescueTokens(address,address,uint256)":"cea9d26f","setFeeCollector(address)":"a42dce80","setGelatoResolver(address)":"1bfab917","setProtocolFee(uint256)":"787dce3d","taskConfigs(bytes32)":"9abc2f2d","taskExists(bytes32)":"b7bf356a","transferOwnership(address)":"f2fde38b","userTasks(address,uint256)":"66873a55"},"id":87}