{"abi":[{"type":"constructor","inputs":[{"name":"_feeCollector","type":"address","internalType":"address"},{"name":"_protocolFeeBps","type":"uint256","internalType":"uint256"}],"stateMutability":"nonpayable"},{"type":"function","name":"MAX_FEE_BPS","inputs":[],"outputs":[{"name":"","type":"uint256","internalType":"uint256"}],"stateMutability":"view"},{"type":"function","name":"MIN_PAYMENT_AMOUNT","inputs":[],"outputs":[{"name":"","type":"uint256","internalType":"uint256"}],"stateMutability":"view"},{"type":"function","name":"acceptedTokenList","inputs":[{"name":"","type":"uint256","internalType":"uint256"}],"outputs":[{"name":"","type":"address","internalType":"address"}],"stateMutability":"view"},{"type":"function","name":"acceptedTokens","inputs":[{"name":"","type":"address","internalType":"address"}],"outputs":[{"name":"","type":"bool","internalType":"bool"}],"stateMutability":"view"},{"type":"function","name":"addToken","inputs":[{"name":"_token","type":"address","internalType":"address"}],"outputs":[],"stateMutability":"nonpayable"},{"type":"function","name":"batchPaymentIds","inputs":[{"name":"","type":"bytes32","internalType":"bytes32"},{"name":"","type":"uint256","internalType":"uint256"}],"outputs":[{"name":"","type":"bytes32","internalType":"bytes32"}],"stateMutability":"view"},{"type":"function","name":"batchPayments","inputs":[{"name":"","type":"bytes32","internalType":"bytes32"}],"outputs":[{"name":"batchId","type":"bytes32","internalType":"bytes32"},{"name":"merchantId","type":"bytes32","internalType":"bytes32"},{"name":"token","type":"address","internalType":"address"},{"name":"totalAmount","type":"uint256","internalType":"uint256"},{"name":"numPayments","type":"uint256","internalType":"uint256"},{"name":"completedPayments","type":"uint256","internalType":"uint256"},{"name":"status","type":"uint8","internalType":"enum PaymentProcessor.PaymentStatus"},{"name":"createdAt","type":"uint256","internalType":"uint256"}],"stateMutability":"view"},{"type":"function","name":"cancelSubscription","inputs":[{"name":"_subscriptionId","type":"bytes32","internalType":"bytes32"}],"outputs":[],"stateMutability":"nonpayable"},{"type":"function","name":"completeBatchPayment","inputs":[{"name":"_batchId","type":"bytes32","internalType":"bytes32"}],"outputs":[],"stateMutability":"nonpayable"},{"type":"function","name":"completePayment","inputs":[{"name":"_paymentId","type":"bytes32","internalType":"bytes32"}],"outputs":[],"stateMutability":"nonpayable"},{"type":"function","name":"createBatchPayment","inputs":[{"name":"_batchId","type":"bytes32","internalType":"bytes32"},{"name":"_merchantId","type":"bytes32","internalType":"bytes32"},{"name":"_token","type":"address","internalType":"address"},{"name":"_totalAmount","type":"uint256","internalType":"uint256"},{"name":"_numPayments","type":"uint256","internalType":"uint256"}],"outputs":[{"name":"","type":"bytes32","internalType":"bytes32"}],"stateMutability":"nonpayable"},{"type":"function","name":"createPayment","inputs":[{"name":"_paymentId","type":"bytes32","internalType":"bytes32"},{"name":"_merchantId","type":"bytes32","internalType":"bytes32"},{"name":"_payer","type":"address","internalType":"address"},{"name":"_token","type":"address","internalType":"address"},{"name":"_amount","type":"uint256","internalType":"uint256"},{"name":"_metadata","type":"string","internalType":"string"}],"outputs":[{"name":"feeAmount","type":"uint256","internalType":"uint256"},{"name":"netAmount","type":"uint256","internalType":"uint256"}],"stateMutability":"nonpayable"},{"type":"function","name":"createSubscription","inputs":[{"name":"_subscriptionId","type":"bytes32","internalType":"bytes32"},{"name":"_merchantId","type":"bytes32","internalType":"bytes32"},{"name":"_subscriber","type":"address","internalType":"address"},{"name":"_token","type":"address","internalType":"address"},{"name":"_amount","type":"uint256","internalType":"uint256"},{"name":"_interval","type":"uint256","internalType":"uint256"}],"outputs":[{"name":"paymentId","type":"bytes32","internalType":"bytes32"}],"stateMutability":"nonpayable"},{"type":"function","name":"disputePayment","inputs":[{"name":"_paymentId","type":"bytes32","internalType":"bytes32"}],"outputs":[],"stateMutability":"nonpayable"},{"type":"function","name":"failPayment","inputs":[{"name":"_paymentId","type":"bytes32","internalType":"bytes32"},{"name":"_reason","type":"string","internalType":"string"}],"outputs":[],"stateMutability":"nonpayable"},{"type":"function","name":"feeCollector","inputs":[],"outputs":[{"name":"","type":"address","internalType":"address"}],"stateMutability":"view"},{"type":"function","name":"getAcceptedTokens","inputs":[],"outputs":[{"name":"","type":"address[]","internalType":"address[]"}],"stateMutability":"view"},{"type":"function","name":"getMerchantBatchPayments","inputs":[{"name":"_merchantId","type":"bytes32","internalType":"bytes32"}],"outputs":[{"name":"","type":"bytes32[]","internalType":"bytes32[]"}],"stateMutability":"view"},{"type":"function","name":"getMerchantConfig","inputs":[{"name":"_merchantId","type":"bytes32","internalType":"bytes32"}],"outputs":[{"name":"merchant","type":"address","internalType":"address"},{"name":"settlementToken","type":"address","internalType":"address"},{"name":"feeBps","type":"uint256","internalType":"uint256"},{"name":"isActive","type":"bool","internalType":"bool"},{"name":"webhookUrl","type":"string","internalType":"string"}],"stateMutability":"view"},{"type":"function","name":"getPayment","inputs":[{"name":"_paymentId","type":"bytes32","internalType":"bytes32"}],"outputs":[{"name":"paymentId","type":"bytes32","internalType":"bytes32"},{"name":"merchantId","type":"bytes32","internalType":"bytes32"},{"name":"payer","type":"address","internalType":"address"},{"name":"token","type":"address","internalType":"address"},{"name":"amount","type":"uint256","internalType":"uint256"},{"name":"feeAmount","type":"uint256","internalType":"uint256"},{"name":"netAmount","type":"uint256","internalType":"uint256"},{"name":"status","type":"uint8","internalType":"enum PaymentProcessor.PaymentStatus"},{"name":"createdAt","type":"uint256","internalType":"uint256"},{"name":"completedAt","type":"uint256","internalType":"uint256"},{"name":"metadata","type":"string","internalType":"string"}],"stateMutability":"view"},{"type":"function","name":"getSubscriberSubscriptions","inputs":[{"name":"_subscriber","type":"address","internalType":"address"}],"outputs":[{"name":"","type":"bytes32[]","internalType":"bytes32[]"}],"stateMutability":"view"},{"type":"function","name":"isPaused","inputs":[],"outputs":[{"name":"","type":"bool","internalType":"bool"}],"stateMutability":"view"},{"type":"function","name":"merchantConfigs","inputs":[{"name":"","type":"bytes32","internalType":"bytes32"}],"outputs":[{"name":"merchant","type":"address","internalType":"address"},{"name":"settlementToken","type":"address","internalType":"address"},{"name":"feeBps","type":"uint256","internalType":"uint256"},{"name":"isActive","type":"bool","internalType":"bool"},{"name":"webhookUrl","type":"string","internalType":"string"}],"stateMutability":"view"},{"type":"function","name":"merchantIds","inputs":[{"name":"","type":"address","internalType":"address"},{"name":"","type":"uint256","internalType":"uint256"}],"outputs":[{"name":"","type":"bytes32","internalType":"bytes32"}],"stateMutability":"view"},{"type":"function","name":"owner","inputs":[],"outputs":[{"name":"","type":"address","internalType":"address"}],"stateMutability":"view"},{"type":"function","name":"pause","inputs":[],"outputs":[],"stateMutability":"nonpayable"},{"type":"function","name":"paymentIds","inputs":[{"name":"","type":"uint256","internalType":"uint256"}],"outputs":[{"name":"","type":"bytes32","internalType":"bytes32"}],"stateMutability":"view"},{"type":"function","name":"payments","inputs":[{"name":"","type":"bytes32","internalType":"bytes32"}],"outputs":[{"name":"paymentId","type":"bytes32","internalType":"bytes32"},{"name":"merchantId","type":"bytes32","internalType":"bytes32"},{"name":"payer","type":"address","internalType":"address"},{"name":"token","type":"address","internalType":"address"},{"name":"amount","type":"uint256","internalType":"uint256"},{"name":"feeAmount","type":"uint256","internalType":"uint256"},{"name":"netAmount","type":"uint256","internalType":"uint256"},{"name":"status","type":"uint8","internalType":"enum PaymentProcessor.PaymentStatus"},{"name":"createdAt","type":"uint256","internalType":"uint256"},{"name":"completedAt","type":"uint256","internalType":"uint256"},{"name":"metadata","type":"string","internalType":"string"}],"stateMutability":"view"},{"type":"function","name":"processSubscriptionPayment","inputs":[{"name":"_subscriptionId","type":"bytes32","internalType":"bytes32"}],"outputs":[{"name":"paymentId","type":"bytes32","internalType":"bytes32"}],"stateMutability":"nonpayable"},{"type":"function","name":"protocolFeeBps","inputs":[],"outputs":[{"name":"","type":"uint256","internalType":"uint256"}],"stateMutability":"view"},{"type":"function","name":"refundPayment","inputs":[{"name":"_paymentId","type":"bytes32","internalType":"bytes32"}],"outputs":[],"stateMutability":"nonpayable"},{"type":"function","name":"registerMerchant","inputs":[{"name":"_merchantId","type":"bytes32","internalType":"bytes32"},{"name":"_settlementToken","type":"address","internalType":"address"},{"name":"_feeBps","type":"uint256","internalType":"uint256"}],"outputs":[],"stateMutability":"nonpayable"},{"type":"function","name":"removeToken","inputs":[{"name":"_token","type":"address","internalType":"address"}],"outputs":[],"stateMutability":"nonpayable"},{"type":"function","name":"renounceOwnership","inputs":[],"outputs":[],"stateMutability":"nonpayable"},{"type":"function","name":"resolveDispute","inputs":[{"name":"_paymentId","type":"bytes32","internalType":"bytes32"},{"name":"_refundIssued","type":"bool","internalType":"bool"}],"outputs":[],"stateMutability":"nonpayable"},{"type":"function","name":"setFeeCollector","inputs":[{"name":"_feeCollector","type":"address","internalType":"address"}],"outputs":[],"stateMutability":"nonpayable"},{"type":"function","name":"setMerchantWebhook","inputs":[{"name":"_merchantId","type":"bytes32","internalType":"bytes32"},{"name":"_webhookUrl","type":"string","internalType":"string"}],"outputs":[],"stateMutability":"nonpayable"},{"type":"function","name":"setProtocolFee","inputs":[{"name":"_feeBps","type":"uint256","internalType":"uint256"}],"outputs":[],"stateMutability":"nonpayable"},{"type":"function","name":"subscriberSubscriptions","inputs":[{"name":"","type":"address","internalType":"address"},{"name":"","type":"uint256","internalType":"uint256"}],"outputs":[{"name":"","type":"bytes32","internalType":"bytes32"}],"stateMutability":"view"},{"type":"function","name":"subscriptionIds","inputs":[{"name":"","type":"uint256","internalType":"uint256"}],"outputs":[{"name":"","type":"bytes32","internalType":"bytes32"}],"stateMutability":"view"},{"type":"function","name":"subscriptions","inputs":[{"name":"","type":"bytes32","internalType":"bytes32"}],"outputs":[{"name":"subscriptionId","type":"bytes32","internalType":"bytes32"},{"name":"merchantId","type":"bytes32","internalType":"bytes32"},{"name":"subscriber","type":"address","internalType":"address"},{"name":"token","type":"address","internalType":"address"},{"name":"amount","type":"uint256","internalType":"uint256"},{"name":"interval","type":"uint256","internalType":"uint256"},{"name":"nextPaymentTime","type":"uint256","internalType":"uint256"},{"name":"createdAt","type":"uint256","internalType":"uint256"},{"name":"isActive","type":"bool","internalType":"bool"}],"stateMutability":"view"},{"type":"function","name":"transferOwnership","inputs":[{"name":"newOwner","type":"address","internalType":"address"}],"outputs":[],"stateMutability":"nonpayable"},{"type":"function","name":"unpause","inputs":[],"outputs":[],"stateMutability":"nonpayable"},{"type":"function","name":"updateMerchant","inputs":[{"name":"_merchantId","type":"bytes32","internalType":"bytes32"},{"name":"_settlementToken","type":"address","internalType":"address"},{"name":"_feeBps","type":"uint256","internalType":"uint256"},{"name":"_isActive","type":"bool","internalType":"bool"}],"outputs":[],"stateMutability":"nonpayable"},{"type":"event","name":"BatchPaymentCompleted","inputs":[{"name":"batchId","type":"bytes32","indexed":true,"internalType":"bytes32"}],"anonymous":false},{"type":"event","name":"BatchPaymentCreated","inputs":[{"name":"batchId","type":"bytes32","indexed":true,"internalType":"bytes32"},{"name":"merchantId","type":"bytes32","indexed":true,"internalType":"bytes32"},{"name":"numPayments","type":"uint256","indexed":false,"internalType":"uint256"},{"name":"totalAmount","type":"uint256","indexed":false,"internalType":"uint256"}],"anonymous":false},{"type":"event","name":"BatchPaymentFailed","inputs":[{"name":"batchId","type":"bytes32","indexed":true,"internalType":"bytes32"},{"name":"failedIndex","type":"uint256","indexed":false,"internalType":"uint256"}],"anonymous":false},{"type":"event","name":"FeeCollectorUpdated","inputs":[{"name":"newFeeCollector","type":"address","indexed":true,"internalType":"address"}],"anonymous":false},{"type":"event","name":"MerchantRegistered","inputs":[{"name":"merchantId","type":"bytes32","indexed":true,"internalType":"bytes32"},{"name":"merchant","type":"address","indexed":true,"internalType":"address"},{"name":"settlementToken","type":"address","indexed":false,"internalType":"address"},{"name":"feeBps","type":"uint256","indexed":false,"internalType":"uint256"}],"anonymous":false},{"type":"event","name":"MerchantUpdated","inputs":[{"name":"merchantId","type":"bytes32","indexed":true,"internalType":"bytes32"},{"name":"settlementToken","type":"address","indexed":false,"internalType":"address"},{"name":"feeBps","type":"uint256","indexed":false,"internalType":"uint256"},{"name":"isActive","type":"bool","indexed":false,"internalType":"bool"}],"anonymous":false},{"type":"event","name":"MerchantWebhookSet","inputs":[{"name":"merchantId","type":"bytes32","indexed":true,"internalType":"bytes32"},{"name":"webhookUrl","type":"string","indexed":false,"internalType":"string"}],"anonymous":false},{"type":"event","name":"OwnershipTransferred","inputs":[{"name":"previousOwner","type":"address","indexed":true,"internalType":"address"},{"name":"newOwner","type":"address","indexed":true,"internalType":"address"}],"anonymous":false},{"type":"event","name":"PaymentCompleted","inputs":[{"name":"paymentId","type":"bytes32","indexed":true,"internalType":"bytes32"},{"name":"feeAmount","type":"uint256","indexed":false,"internalType":"uint256"},{"name":"netAmount","type":"uint256","indexed":false,"internalType":"uint256"}],"anonymous":false},{"type":"event","name":"PaymentCreated","inputs":[{"name":"paymentId","type":"bytes32","indexed":true,"internalType":"bytes32"},{"name":"merchantId","type":"bytes32","indexed":true,"internalType":"bytes32"},{"name":"payer","type":"address","indexed":true,"internalType":"address"},{"name":"token","type":"address","indexed":false,"internalType":"address"},{"name":"amount","type":"uint256","indexed":false,"internalType":"uint256"}],"anonymous":false},{"type":"event","name":"PaymentDisputed","inputs":[{"name":"paymentId","type":"bytes32","indexed":true,"internalType":"bytes32"},{"name":"disputedBy","type":"address","indexed":false,"internalType":"address"}],"anonymous":false},{"type":"event","name":"PaymentFailed","inputs":[{"name":"paymentId","type":"bytes32","indexed":true,"internalType":"bytes32"},{"name":"reason","type":"string","indexed":false,"internalType":"string"}],"anonymous":false},{"type":"event","name":"PaymentRefunded","inputs":[{"name":"paymentId","type":"bytes32","indexed":true,"internalType":"bytes32"},{"name":"amount","type":"uint256","indexed":false,"internalType":"uint256"}],"anonymous":false},{"type":"event","name":"PaymentResolved","inputs":[{"name":"paymentId","type":"bytes32","indexed":true,"internalType":"bytes32"},{"name":"refundIssued","type":"bool","indexed":false,"internalType":"bool"}],"anonymous":false},{"type":"event","name":"ProtocolFeeUpdated","inputs":[{"name":"newFeeBps","type":"uint256","indexed":false,"internalType":"uint256"}],"anonymous":false},{"type":"event","name":"SubscriptionCancelled","inputs":[{"name":"subscriptionId","type":"bytes32","indexed":true,"internalType":"bytes32"}],"anonymous":false},{"type":"event","name":"SubscriptionCreated","inputs":[{"name":"subscriptionId","type":"bytes32","indexed":true,"internalType":"bytes32"},{"name":"merchantId","type":"bytes32","indexed":true,"internalType":"bytes32"},{"name":"subscriber","type":"address","indexed":true,"internalType":"address"},{"name":"amount","type":"uint256","indexed":false,"internalType":"uint256"},{"name":"interval","type":"uint256","indexed":false,"internalType":"uint256"}],"anonymous":false},{"type":"event","name":"SubscriptionPayment","inputs":[{"name":"subscriptionId","type":"bytes32","indexed":true,"internalType":"bytes32"},{"name":"paymentId","type":"bytes32","indexed":true,"internalType":"bytes32"},{"name":"amount","type":"uint256","indexed":false,"internalType":"uint256"}],"anonymous":false},{"type":"event","name":"TokenAdded","inputs":[{"name":"token","type":"address","indexed":true,"internalType":"address"}],"anonymous":false},{"type":"event","name":"TokenRemoved","inputs":[{"name":"token","type":"address","indexed":true,"internalType":"address"}],"anonymous":false},{"type":"error","name":"OwnableInvalidOwner","inputs":[{"name":"owner","type":"address","internalType":"address"}]},{"type":"error","name":"OwnableUnauthorizedAccount","inputs":[{"name":"account","type":"address","internalType":"address"}]},{"type":"error","name":"SafeERC20FailedOperation","inputs":[{"name":"token","type":"address","internalType":"address"}]}],"bytecode":{"object":"0x60806040525f5f60146101000a81548160ff021916908315150217905550348015610028575f5ffd5b50604051616d71380380616d71833981810160405281019061004a919061031e565b335f73ffffffffffffffffffffffffffffffffffffffff168173ffffffffffffffffffffffffffffffffffffffff16036100bb575f6040517f1e4fbdf70000000000000000000000000000000000000000000000000000000081526004016100b2919061036b565b60405180910390fd5b6100ca816101cc60201b60201c565b505f73ffffffffffffffffffffffffffffffffffffffff168273ffffffffffffffffffffffffffffffffffffffff1603610139576040517f08c379a000000000000000000000000000000000000000000000000000000000815260040161013090610404565b60405180910390fd5b6103e881111561017e576040517f08c379a00000000000000000000000000000000000000000000000000000000081526004016101759061046c565b60405180910390fd5b81600a5f6101000a81548173ffffffffffffffffffffffffffffffffffffffff021916908373ffffffffffffffffffffffffffffffffffffffff16021790555080600b81905550505061048a565b5f5f5f9054906101000a900473ffffffffffffffffffffffffffffffffffffffff169050815f5f6101000a81548173ffffffffffffffffffffffffffffffffffffffff021916908373ffffffffffffffffffffffffffffffffffffffff1602179055508173ffffffffffffffffffffffffffffffffffffffff168173ffffffffffffffffffffffffffffffffffffffff167f8be0079c531659141344cd1fd0a4f28419497f9722a3daafe3b4186f6b6457e060405160405180910390a35050565b5f5ffd5b5f73ffffffffffffffffffffffffffffffffffffffff82169050919050565b5f6102ba82610291565b9050919050565b6102ca816102b0565b81146102d4575f5ffd5b50565b5f815190506102e5816102c1565b92915050565b5f819050919050565b6102fd816102eb565b8114610307575f5ffd5b50565b5f81519050610318816102f4565b92915050565b5f5f604083850312156103345761033361028d565b5b5f610341858286016102d7565b92505060206103528582860161030a565b9150509250929050565b610365816102b0565b82525050565b5f60208201905061037e5f83018461035c565b92915050565b5f82825260208201905092915050565b7f5061796d656e7450726f636573736f723a20696e76616c69642066656520636f5f8201527f6c6c6563746f7200000000000000000000000000000000000000000000000000602082015250565b5f6103ee602783610384565b91506103f982610394565b604082019050919050565b5f6020820190508181035f83015261041b816103e2565b9050919050565b7f5061796d656e7450726f636573736f723a2066656520746f6f206869676800005f82015250565b5f610456601e83610384565b915061046182610422565b602082019050919050565b5f6020820190508181035f8301526104838161044a565b9050919050565b6168da806104975f395ff3fe608060405234801561000f575f5ffd5b5060043610610271575f3560e01c8063787dce3d1161014f578063c31bb1e5116100c1578063d55be8c611610085578063d55be8c6146107d4578063d6544c69146107f2578063db2ddf4314610823578063de8f8b3f14610853578063e66eefc81461086f578063f2fde38b146108a957610271565b8063c31bb1e514610732578063c415b95c14610762578063ced5fae814610780578063d21f1ffc1461079c578063d48bfca7146107b857610271565b806394259c6c1161011357806394259c6c146106405780639ba6737c146106785780639c4dd6a2146106a8578063a19b8583146106c4578063a42dce80146106f8578063b187bd261461071457610271565b8063787dce3d1461059c57806382dc4a05146105b85780638456cb59146105e85780638cafc358146105f25780638da5cb5b1461062257610271565b806335659fb8116101e857806347ca8a8b116101ac57806347ca8a8b146104eb5780635fa7b58414610507578063619ab9a71461052357806361c1bae71461053f578063715018a61461055b57806377a3f4a11461056557610271565b806335659fb81461045b5780633f4ba83a1461047957806343a0e3e6146104835780634501c46e1461049f578063473970d9146104cf57610271565b80630bd0638b1161023a5780630bd0638b1461035f57806312d912421461038f5780631f922e5f146103bf57806324432c52146103dd5780632f7570061461040d578063338e88a81461042b57610271565b8062b84b7114610275578063033b3cdf146102a95780630716326d146102c557806308832246146102ff5780630aae47fb1461032f575b5f5ffd5b61028f600480360381019061028a919061492a565b6108c5565b6040516102a0959493929190614a36565b60405180910390f35b6102c360048036038101906102be9190614aef565b6109de565b005b6102df60048036038101906102da919061492a565b610ae3565b6040516102f69b9a99989796959493929190614bce565b60405180910390f35b61031960048036038101906103149190614cd2565b610c09565b6040516103269190614d49565b60405180910390f35b61034960048036038101906103449190614d62565b610f63565b6040516103569190614d8d565b60405180910390f35b61037960048036038101906103749190614da6565b610f9e565b6040516103869190614d49565b60405180910390f35b6103a960048036038101906103a4919061492a565b610fc9565b6040516103b69190614d49565b60405180910390f35b6103c761168a565b6040516103d49190614de4565b60405180910390f35b6103f760048036038101906103f29190614da6565b61168f565b6040516104049190614d49565b60405180910390f35b6104156116ba565b6040516104229190614eb4565b60405180910390f35b6104456004803603810190610440919061492a565b611745565b6040516104529190614f8b565b60405180910390f35b6104636117ac565b6040516104709190614de4565b60405180910390f35b6104816117b2565b005b61049d60048036038101906104989190614fd5565b6117d5565b005b6104b960048036038101906104b49190615013565b6119b5565b6040516104c69190614d49565b60405180910390f35b6104e960048036038101906104e4919061509c565b611f48565b005b6105056004803603810190610500919061492a565b6121c4565b005b610521600480360381019061051c9190615100565b6125dc565b005b61053d60048036038101906105389190614aef565b612707565b005b6105596004803603810190610554919061492a565b612931565b005b610563612aeb565b005b61057f600480360381019061057a919061492a565b612afe565b60405161059398979695949392919061512b565b60405180910390f35b6105b660048036038101906105b19190614d62565b612b6d565b005b6105d260048036038101906105cd9190615100565b612bfb565b6040516105df91906151a7565b60405180910390f35b6105f0612c18565b005b61060c60048036038101906106079190614d62565b612c3c565b6040516106199190614d49565b60405180910390f35b61062a612c5c565b6040516106379190614d8d565b60405180910390f35b61065a6004803603810190610655919061492a565b612c83565b60405161066f999897969594939291906151c0565b60405180910390f35b610692600480360381019061068d9190614d62565b612d17565b60405161069f9190614d49565b60405180910390f35b6106c260048036038101906106bd919061492a565b612d37565b005b6106de60048036038101906106d9919061492a565b612f4c565b6040516106ef959493929190614a36565b60405180910390f35b610712600480360381019061070d9190615100565b61304e565b005b61071c61314a565b60405161072991906151a7565b60405180910390f35b61074c60048036038101906107479190615100565b61315c565b6040516107599190614f8b565b60405180910390f35b61076a6131ef565b6040516107779190614d8d565b60405180910390f35b61079a6004803603810190610795919061524b565b613214565b005b6107b660048036038101906107b1919061492a565b6135f2565b005b6107d260048036038101906107cd9190615100565b61381d565b005b6107dc613a18565b6040516107e99190614de4565b60405180910390f35b61080c6004803603810190610807919061529b565b613a1e565b60405161081a929190615345565b60405180910390f35b61083d6004803603810190610838919061536c565b61401c565b60405161084a9190614d49565b60405180910390f35b61086d6004803603810190610868919061492a565b614047565b005b6108896004803603810190610884919061492a565b614431565b6040516108a09b9a99989796959493929190614bce565b60405180910390f35b6108c360048036038101906108be9190615100565b614580565b005b5f5f5f5f60605f60015f8881526020019081526020015f209050805f015f9054906101000a900473ffffffffffffffffffffffffffffffffffffffff16816001015f9054906101000a900473ffffffffffffffffffffffffffffffffffffffff168260020154836003015f9054906101000a900460ff168460040180805461094c906153d7565b80601f0160208091040260200160405190810160405280929190818152602001828054610978906153d7565b80156109c35780601f1061099a576101008083540402835291602001916109c3565b820191905f5260205f20905b8154815290600101906020018083116109a657829003601f168201915b50505050509050955095509550955095505091939590929450565b823373ffffffffffffffffffffffffffffffffffffffff1660015f8381526020019081526020015f205f015f9054906101000a900473ffffffffffffffffffffffffffffffffffffffff1673ffffffffffffffffffffffffffffffffffffffff1614610a7f576040517f08c379a0000000000000000000000000000000000000000000000000000000008152600401610a7690615451565b60405180910390fd5b828260015f8781526020019081526020015f206004019182610aa2929190615657565b50837f4aadc890f2fab66a25df9ae0be43c034f1f0904e68b373c3acd1cc30a869c8b88484604051610ad592919061575e565b60405180910390a250505050565b6003602052805f5260405f205f91509050805f015490806001015490806002015f9054906101000a900473ffffffffffffffffffffffffffffffffffffffff1690806003015f9054906101000a900473ffffffffffffffffffffffffffffffffffffffff1690806004015490806005015490806006015490806007015f9054906101000a900460ff169080600801549080600901549080600a018054610b88906153d7565b80601f0160208091040260200160405190810160405280929190818152602001828054610bb4906153d7565b8015610bff5780601f10610bd657610100808354040283529160200191610bff565b820191905f5260205f20905b815481529060010190602001808311610be257829003601f168201915b505050505090508b565b5f843373ffffffffffffffffffffffffffffffffffffffff1660015f8381526020019081526020015f205f015f9054906101000a900473ffffffffffffffffffffffffffffffffffffffff1673ffffffffffffffffffffffffffffffffffffffff1614610cab576040517f08c379a0000000000000000000000000000000000000000000000000000000008152600401610ca290615451565b60405180910390fd5b5f60149054906101000a900460ff1615610cfa576040517f08c379a0000000000000000000000000000000000000000000000000000000008152600401610cf1906157ca565b60405180910390fd5b5f5f1b8703610d3e576040517f08c379a0000000000000000000000000000000000000000000000000000000008152600401610d3590615858565b60405180910390fd5b5f60085f8981526020019081526020015f206007015414610d94576040517f08c379a0000000000000000000000000000000000000000000000000000000008152600401610d8b906158c0565b60405180910390fd5b6040518061010001604052808881526020018781526020018673ffffffffffffffffffffffffffffffffffffffff1681526020018581526020018481526020015f81526020015f6004811115610ded57610dec614b5b565b5b81526020014281525060085f8981526020019081526020015f205f820151815f0155602082015181600101556040820151816002015f6101000a81548173ffffffffffffffffffffffffffffffffffffffff021916908373ffffffffffffffffffffffffffffffffffffffff160217905550606082015181600301556080820151816004015560a0820151816005015560c0820151816006015f6101000a81548160ff02191690836004811115610ea757610ea6614b5b565b5b021790555060e0820151816007015590505060095f8781526020019081526020015f2087908060018154018082558091505060019003905f5260205f20015f9091909190915055610f1b3330868873ffffffffffffffffffffffffffffffffffffffff16614604909392919063ffffffff16565b85877f688bc52c3c624668dee615828c503851d91c911a1b045f75320ad1a6702159768587604051610f4e929190615345565b60405180910390a38691505095945050505050565b600d8181548110610f72575f80fd5b905f5260205f20015f915054906101000a900473ffffffffffffffffffffffffffffffffffffffff1681565b6007602052815f5260405f208181548110610fb7575f80fd5b905f5260205f20015f91509150505481565b5f5f60149054906101000a900460ff1615611019576040517f08c379a0000000000000000000000000000000000000000000000000000000008152600401611010906157ca565b60405180910390fd5b5f60055f8481526020019081526020015f2090505f73ffffffffffffffffffffffffffffffffffffffff16816002015f9054906101000a900473ffffffffffffffffffffffffffffffffffffffff1673ffffffffffffffffffffffffffffffffffffffff16036110be576040517f08c379a00000000000000000000000000000000000000000000000000000000081526004016110b59061594e565b60405180910390fd5b806008015f9054906101000a900460ff1661110e576040517f08c379a0000000000000000000000000000000000000000000000000000000008152600401611105906159dc565b60405180910390fd5b8060060154421015611155576040517f08c379a000000000000000000000000000000000000000000000000000000000815260040161114c90615a44565b60405180910390fd5b82816006015460405160200161116c929190615aa2565b6040516020818303038152906040528051906020012091505f60015f836001015481526020019081526020015f2090505f612710826002015484600401546111b49190615afa565b6111be9190615b68565b90505f612710600b5485600401546111d69190615afa565b6111e09190615b68565b90505f81836111ef9190615b98565b90505f8186600401546112029190615bcb565b905060405180610160016040528088815260200187600101548152602001876002015f9054906101000a900473ffffffffffffffffffffffffffffffffffffffff1673ffffffffffffffffffffffffffffffffffffffff168152602001876003015f9054906101000a900473ffffffffffffffffffffffffffffffffffffffff1673ffffffffffffffffffffffffffffffffffffffff168152602001876004015481526020018381526020018281526020015f60048111156112c7576112c6614b5b565b5b81526020014281526020015f815260200160405180602001604052805f81525081525060035f8981526020019081526020015f205f820151815f0155602082015181600101556040820151816002015f6101000a81548173ffffffffffffffffffffffffffffffffffffffff021916908373ffffffffffffffffffffffffffffffffffffffff1602179055506060820151816003015f6101000a81548173ffffffffffffffffffffffffffffffffffffffff021916908373ffffffffffffffffffffffffffffffffffffffff1602179055506080820151816004015560a0820151816005015560c0820151816006015560e0820151816007015f6101000a81548160ff021916908360048111156113e1576113e0614b5b565b5b02179055506101008201518160080155610120820151816009015561014082015181600a0190816114129190615bfe565b50905050600487908060018154018082558091505060019003905f5260205f20015f90919091909150556114b3866002015f9054906101000a900473ffffffffffffffffffffffffffffffffffffffff16308860040154896003015f9054906101000a900473ffffffffffffffffffffffffffffffffffffffff1673ffffffffffffffffffffffffffffffffffffffff16614604909392919063ffffffff16565b611523855f015f9054906101000a900473ffffffffffffffffffffffffffffffffffffffff1682886003015f9054906101000a900473ffffffffffffffffffffffffffffffffffffffff1673ffffffffffffffffffffffffffffffffffffffff166146869092919063ffffffff16565b5f82111561159b5761159a600a5f9054906101000a900473ffffffffffffffffffffffffffffffffffffffff1683886003015f9054906101000a900473ffffffffffffffffffffffffffffffffffffffff1673ffffffffffffffffffffffffffffffffffffffff166146869092919063ffffffff16565b5b600160035f8981526020019081526020015f206007015f6101000a81548160ff021916908360048111156115d2576115d1614b5b565b5b02179055504260035f8981526020019081526020015f20600901819055508560050154426116009190615b98565b866006018190555086887f1c8559db603b8e2355c6b53baa38feddff4bbfcb8ba9192f5e40115b0f241ea6886004015460405161163d9190614de4565b60405180910390a3867f119474a11df7813f0f44509e61f90cc42ba5a570659097dd38afe1119b60b4448383604051611677929190615345565b60405180910390a2505050505050919050565b600181565b6002602052815f5260405f2081815481106116a8575f80fd5b905f5260205f20015f91509150505481565b6060600d80548060200260200160405190810160405280929190818152602001828054801561173b57602002820191905f5260205f20905b815f9054906101000a900473ffffffffffffffffffffffffffffffffffffffff1673ffffffffffffffffffffffffffffffffffffffff16815260200190600101908083116116f2575b5050505050905090565b606060095f8381526020019081526020015f208054806020026020016040519081016040528092919081815260200182805480156117a057602002820191905f5260205f20905b81548152602001906001019080831161178c575b50505050509050919050565b600b5481565b6117ba614705565b5f5f60146101000a81548160ff021916908315150217905550565b6117dd614705565b5f60035f8481526020019081526020015f20905060048081111561180457611803614b5b565b5b816007015f9054906101000a900460ff16600481111561182757611826614b5b565b5b14611867576040517f08c379a000000000000000000000000000000000000000000000000000000000815260040161185e90615d17565b60405180910390fd5b811561194b5761191a60015f836001015481526020019081526020015f205f015f9054906101000a900473ffffffffffffffffffffffffffffffffffffffff16826002015f9054906101000a900473ffffffffffffffffffffffffffffffffffffffff168360040154846003015f9054906101000a900473ffffffffffffffffffffffffffffffffffffffff1673ffffffffffffffffffffffffffffffffffffffff16614604909392919063ffffffff16565b6003816007015f6101000a81548160ff0219169083600481111561194157611940614b5b565b5b0217905550611978565b6001816007015f6101000a81548160ff0219169083600481111561197257611971614b5b565b5b02179055505b827f645224003ef59a6d41519b4237a09e81b10b4284d9bb1db2d95086a0f9762317836040516119a891906151a7565b60405180910390a2505050565b5f5f60149054906101000a900460ff1615611a05576040517f08c379a00000000000000000000000000000000000000000000000000000000081526004016119fc906157ca565b60405180910390fd5b5f5f1b8703611a49576040517f08c379a0000000000000000000000000000000000000000000000000000000008152600401611a4090615da5565b60405180910390fd5b5f73ffffffffffffffffffffffffffffffffffffffff1660055f8981526020019081526020015f206002015f9054906101000a900473ffffffffffffffffffffffffffffffffffffffff1673ffffffffffffffffffffffffffffffffffffffff1614611aea576040517f08c379a0000000000000000000000000000000000000000000000000000000008152600401611ae190615e33565b60405180910390fd5b5f60015f8881526020019081526020015f2090505f73ffffffffffffffffffffffffffffffffffffffff16815f015f9054906101000a900473ffffffffffffffffffffffffffffffffffffffff1673ffffffffffffffffffffffffffffffffffffffff1603611b8e576040517f08c379a0000000000000000000000000000000000000000000000000000000008152600401611b8590615ec1565b60405180910390fd5b806003015f9054906101000a900460ff16611bde576040517f08c379a0000000000000000000000000000000000000000000000000000000008152600401611bd590615f4f565b60405180910390fd5b600c5f8673ffffffffffffffffffffffffffffffffffffffff1673ffffffffffffffffffffffffffffffffffffffff1681526020019081526020015f205f9054906101000a900460ff16611c67576040517f08c379a0000000000000000000000000000000000000000000000000000000008152600401611c5e90615fdd565b60405180910390fd5b6001841015611cab576040517f08c379a0000000000000000000000000000000000000000000000000000000008152600401611ca290616045565b60405180910390fd5b5f8311611ced576040517f08c379a0000000000000000000000000000000000000000000000000000000008152600401611ce4906160d3565b60405180910390fd5b6040518061012001604052808981526020018881526020018773ffffffffffffffffffffffffffffffffffffffff1681526020018673ffffffffffffffffffffffffffffffffffffffff1681526020018581526020018481526020018442611d559190615b98565b81526020014281526020016001151581525060055f8a81526020019081526020015f205f820151815f0155602082015181600101556040820151816002015f6101000a81548173ffffffffffffffffffffffffffffffffffffffff021916908373ffffffffffffffffffffffffffffffffffffffff1602179055506060820151816003015f6101000a81548173ffffffffffffffffffffffffffffffffffffffff021916908373ffffffffffffffffffffffffffffffffffffffff1602179055506080820151816004015560a0820151816005015560c0820151816006015560e08201518160070155610100820151816008015f6101000a81548160ff021916908315150217905550905050600688908060018154018082558091505060019003905f5260205f20015f909190919091505560075f8773ffffffffffffffffffffffffffffffffffffffff1673ffffffffffffffffffffffffffffffffffffffff1681526020019081526020015f2088908060018154018082558091505060019003905f5260205f20015f90919091909150558573ffffffffffffffffffffffffffffffffffffffff1687897f6e1d7ff30c7810aa460a5f938b4a2ec6a3bbed0528565b4917f36aeec5952c0d8787604051611f32929190615345565b60405180910390a4879150509695505050505050565b833373ffffffffffffffffffffffffffffffffffffffff1660015f8381526020019081526020015f205f015f9054906101000a900473ffffffffffffffffffffffffffffffffffffffff1673ffffffffffffffffffffffffffffffffffffffff1614611fe9576040517f08c379a0000000000000000000000000000000000000000000000000000000008152600401611fe090615451565b60405180910390fd5b5f60149054906101000a900460ff1615612038576040517f08c379a000000000000000000000000000000000000000000000000000000000815260040161202f906157ca565b60405180910390fd5b5f73ffffffffffffffffffffffffffffffffffffffff168473ffffffffffffffffffffffffffffffffffffffff16036120a6576040517f08c379a000000000000000000000000000000000000000000000000000000000815260040161209d9061613b565b60405180910390fd5b6103e88311156120eb576040517f08c379a00000000000000000000000000000000000000000000000000000000081526004016120e2906161a3565b60405180910390fd5b8360015f8781526020019081526020015f206001015f6101000a81548173ffffffffffffffffffffffffffffffffffffffff021916908373ffffffffffffffffffffffffffffffffffffffff1602179055508260015f8781526020019081526020015f20600201819055508160015f8781526020019081526020015f206003015f6101000a81548160ff021916908315150217905550847fc0cba5ecdeba0a694b3825f4d00e997e4520130b4335373c83d3b434c2ff8be98585856040516121b5939291906161c1565b60405180910390a25050505050565b5f60149054906101000a900460ff1615612213576040517f08c379a000000000000000000000000000000000000000000000000000000000815260040161220a906157ca565b60405180910390fd5b5f60035f8381526020019081526020015f2090505f73ffffffffffffffffffffffffffffffffffffffff16816002015f9054906101000a900473ffffffffffffffffffffffffffffffffffffffff1673ffffffffffffffffffffffffffffffffffffffff16036122b8576040517f08c379a00000000000000000000000000000000000000000000000000000000081526004016122af90616266565b60405180910390fd5b5f60048111156122cb576122ca614b5b565b5b816007015f9054906101000a900460ff1660048111156122ee576122ed614b5b565b5b1461232e576040517f08c379a0000000000000000000000000000000000000000000000000000000008152600401612325906162ce565b60405180910390fd5b5f60015f836001015481526020019081526020015f209050816002015f9054906101000a900473ffffffffffffffffffffffffffffffffffffffff1673ffffffffffffffffffffffffffffffffffffffff163373ffffffffffffffffffffffffffffffffffffffff1614806123f05750805f015f9054906101000a900473ffffffffffffffffffffffffffffffffffffffff1673ffffffffffffffffffffffffffffffffffffffff163373ffffffffffffffffffffffffffffffffffffffff16145b8061242d57506123fe612c5c565b73ffffffffffffffffffffffffffffffffffffffff163373ffffffffffffffffffffffffffffffffffffffff16145b61246c576040517f08c379a000000000000000000000000000000000000000000000000000000000815260040161246390616336565b60405180910390fd5b6124e0815f015f9054906101000a900473ffffffffffffffffffffffffffffffffffffffff168360060154846003015f9054906101000a900473ffffffffffffffffffffffffffffffffffffffff1673ffffffffffffffffffffffffffffffffffffffff166146869092919063ffffffff16565b5f826005015411156125605761255f600a5f9054906101000a900473ffffffffffffffffffffffffffffffffffffffff168360050154846003015f9054906101000a900473ffffffffffffffffffffffffffffffffffffffff1673ffffffffffffffffffffffffffffffffffffffff166146869092919063ffffffff16565b5b6001826007015f6101000a81548160ff0219169083600481111561258757612586614b5b565b5b0217905550428260090181905550827f119474a11df7813f0f44509e61f90cc42ba5a570659097dd38afe1119b60b444836005015484600601546040516125cf929190615345565b60405180910390a2505050565b6125e4614705565b600c5f8273ffffffffffffffffffffffffffffffffffffffff1673ffffffffffffffffffffffffffffffffffffffff1681526020019081526020015f205f9054906101000a900460ff1661266d576040517f08c379a000000000000000000000000000000000000000000000000000000000815260040161266490615fdd565b60405180910390fd5b5f600c5f8373ffffffffffffffffffffffffffffffffffffffff1673ffffffffffffffffffffffffffffffffffffffff1681526020019081526020015f205f6101000a81548160ff0219169083151502179055508073ffffffffffffffffffffffffffffffffffffffff167f4c910b69fe65a61f7531b9c5042b2329ca7179c77290aa7e2eb3afa3c8511fd360405160405180910390a250565b60035f8481526020019081526020015f20600101543373ffffffffffffffffffffffffffffffffffffffff1660015f8381526020019081526020015f205f015f9054906101000a900473ffffffffffffffffffffffffffffffffffffffff1673ffffffffffffffffffffffffffffffffffffffff16146127bc576040517f08c379a00000000000000000000000000000000000000000000000000000000081526004016127b390615451565b60405180910390fd5b5f60035f8681526020019081526020015f2090505f60048111156127e3576127e2614b5b565b5b816007015f9054906101000a900460ff16600481111561280657612805614b5b565b5b14612846576040517f08c379a000000000000000000000000000000000000000000000000000000000815260040161283d906162ce565b60405180910390fd5b6002816007015f6101000a81548160ff0219169083600481111561286d5761286c614b5b565b5b02179055504281600901819055506128f0816002015f9054906101000a900473ffffffffffffffffffffffffffffffffffffffff168260040154836003015f9054906101000a900473ffffffffffffffffffffffffffffffffffffffff1673ffffffffffffffffffffffffffffffffffffffff166146869092919063ffffffff16565b847fa5dbb3c1a0284032c9304b92018a5ffa68ae5977aceb1728bd12082986e014b9858560405161292292919061575e565b60405180910390a25050505050565b5f60085f8381526020019081526020015f2090505f81600701541161298b576040517f08c379a0000000000000000000000000000000000000000000000000000000008152600401612982906163c4565b60405180910390fd5b5f600481111561299e5761299d614b5b565b5b816006015f9054906101000a900460ff1660048111156129c1576129c0614b5b565b5b14612a01576040517f08c379a00000000000000000000000000000000000000000000000000000000081526004016129f8906162ce565b60405180910390fd5b5f60015f836001015481526020019081526020015f209050612a8d815f015f9054906101000a900473ffffffffffffffffffffffffffffffffffffffff168360030154846002015f9054906101000a900473ffffffffffffffffffffffffffffffffffffffff1673ffffffffffffffffffffffffffffffffffffffff166146869092919063ffffffff16565b6001826006015f6101000a81548160ff02191690836004811115612ab457612ab3614b5b565b5b0217905550827f70501c206a2b851efbf9210dcd30f1c89324deebce6a278c57f0cf3c2f4b1fe860405160405180910390a2505050565b612af3614705565b612afc5f61478c565b565b6008602052805f5260405f205f91509050805f015490806001015490806002015f9054906101000a900473ffffffffffffffffffffffffffffffffffffffff1690806003015490806004015490806005015490806006015f9054906101000a900460ff16908060070154905088565b612b75614705565b6103e8811115612bba576040517f08c379a0000000000000000000000000000000000000000000000000000000008152600401612bb1906161a3565b60405180910390fd5b80600b819055507fd10d75876659a287a59a6ccfa2e3fff42f84d94b542837acd30bc184d562de4081604051612bf09190614de4565b60405180910390a150565b600c602052805f5260405f205f915054906101000a900460ff1681565b612c20614705565b60015f60146101000a81548160ff021916908315150217905550565b60068181548110612c4b575f80fd5b905f5260205f20015f915090505481565b5f5f5f9054906101000a900473ffffffffffffffffffffffffffffffffffffffff16905090565b6005602052805f5260405f205f91509050805f015490806001015490806002015f9054906101000a900473ffffffffffffffffffffffffffffffffffffffff1690806003015f9054906101000a900473ffffffffffffffffffffffffffffffffffffffff1690806004015490806005015490806006015490806007015490806008015f9054906101000a900460ff16905089565b60048181548110612d26575f80fd5b905f5260205f20015f915090505481565b5f60035f8381526020019081526020015f2090505f73ffffffffffffffffffffffffffffffffffffffff16816002015f9054906101000a900473ffffffffffffffffffffffffffffffffffffffff1673ffffffffffffffffffffffffffffffffffffffff1603612ddc576040517f08c379a0000000000000000000000000000000000000000000000000000000008152600401612dd390616266565b60405180910390fd5b60016004811115612df057612def614b5b565b5b816007015f9054906101000a900460ff166004811115612e1357612e12614b5b565b5b14612e53576040517f08c379a0000000000000000000000000000000000000000000000000000000008152600401612e4a9061642c565b60405180910390fd5b806002015f9054906101000a900473ffffffffffffffffffffffffffffffffffffffff1673ffffffffffffffffffffffffffffffffffffffff163373ffffffffffffffffffffffffffffffffffffffff1614612ee4576040517f08c379a0000000000000000000000000000000000000000000000000000000008152600401612edb90616494565b60405180910390fd5b6004816007015f6101000a81548160ff02191690836004811115612f0b57612f0a614b5b565b5b0217905550817fe9c93bf68a3bf1de9ce6f0a4f79a73188cc2139c1a15723ae8740cd848ff79c333604051612f409190614d8d565b60405180910390a25050565b6001602052805f5260405f205f91509050805f015f9054906101000a900473ffffffffffffffffffffffffffffffffffffffff1690806001015f9054906101000a900473ffffffffffffffffffffffffffffffffffffffff1690806002015490806003015f9054906101000a900460ff1690806004018054612fcd906153d7565b80601f0160208091040260200160405190810160405280929190818152602001828054612ff9906153d7565b80156130445780601f1061301b57610100808354040283529160200191613044565b820191905f5260205f20905b81548152906001019060200180831161302757829003601f168201915b5050505050905085565b613056614705565b5f73ffffffffffffffffffffffffffffffffffffffff168173ffffffffffffffffffffffffffffffffffffffff16036130c4576040517f08c379a00000000000000000000000000000000000000000000000000000000081526004016130bb90616522565b60405180910390fd5b80600a5f6101000a81548173ffffffffffffffffffffffffffffffffffffffff021916908373ffffffffffffffffffffffffffffffffffffffff1602179055508073ffffffffffffffffffffffffffffffffffffffff167fe5693914d19c789bdee50a362998c0bc8d035a835f9871da5d51152f0582c34f60405160405180910390a250565b5f60149054906101000a900460ff1681565b606060075f8373ffffffffffffffffffffffffffffffffffffffff1673ffffffffffffffffffffffffffffffffffffffff1681526020019081526020015f208054806020026020016040519081016040528092919081815260200182805480156131e357602002820191905f5260205f20905b8154815260200190600101908083116131cf575b50505050509050919050565b600a5f9054906101000a900473ffffffffffffffffffffffffffffffffffffffff1681565b5f60149054906101000a900460ff1615613263576040517f08c379a000000000000000000000000000000000000000000000000000000000815260040161325a906157ca565b60405180910390fd5b5f5f1b83036132a7576040517f08c379a000000000000000000000000000000000000000000000000000000000815260040161329e906165b0565b60405180910390fd5b5f73ffffffffffffffffffffffffffffffffffffffff1660015f8581526020019081526020015f205f015f9054906101000a900473ffffffffffffffffffffffffffffffffffffffff1673ffffffffffffffffffffffffffffffffffffffff1614613347576040517f08c379a000000000000000000000000000000000000000000000000000000000815260040161333e9061663e565b60405180910390fd5b5f73ffffffffffffffffffffffffffffffffffffffff168273ffffffffffffffffffffffffffffffffffffffff16036133b5576040517f08c379a00000000000000000000000000000000000000000000000000000000081526004016133ac9061613b565b60405180910390fd5b6103e88111156133fa576040517f08c379a00000000000000000000000000000000000000000000000000000000081526004016133f1906161a3565b60405180910390fd5b6040518060a001604052803373ffffffffffffffffffffffffffffffffffffffff1681526020018373ffffffffffffffffffffffffffffffffffffffff16815260200182815260200160011515815260200160405180602001604052805f81525081525060015f8581526020019081526020015f205f820151815f015f6101000a81548173ffffffffffffffffffffffffffffffffffffffff021916908373ffffffffffffffffffffffffffffffffffffffff1602179055506020820151816001015f6101000a81548173ffffffffffffffffffffffffffffffffffffffff021916908373ffffffffffffffffffffffffffffffffffffffff160217905550604082015181600201556060820151816003015f6101000a81548160ff02191690831515021790555060808201518160040190816135379190615bfe565b5090505060025f3373ffffffffffffffffffffffffffffffffffffffff1673ffffffffffffffffffffffffffffffffffffffff1681526020019081526020015f2083908060018154018082558091505060019003905f5260205f20015f90919091909150553373ffffffffffffffffffffffffffffffffffffffff16837f0823c39a908625e62f27d48c384662b83f5f4c0c0950199abd11256e833289d584846040516135e592919061665c565b60405180910390a3505050565b5f60055f8381526020019081526020015f2090505f73ffffffffffffffffffffffffffffffffffffffff16816002015f9054906101000a900473ffffffffffffffffffffffffffffffffffffffff1673ffffffffffffffffffffffffffffffffffffffff1603613697576040517f08c379a000000000000000000000000000000000000000000000000000000000815260040161368e9061594e565b60405180910390fd5b806002015f9054906101000a900473ffffffffffffffffffffffffffffffffffffffff1673ffffffffffffffffffffffffffffffffffffffff163373ffffffffffffffffffffffffffffffffffffffff161480613755575060015f826001015481526020019081526020015f205f015f9054906101000a900473ffffffffffffffffffffffffffffffffffffffff1673ffffffffffffffffffffffffffffffffffffffff163373ffffffffffffffffffffffffffffffffffffffff16145b806137925750613763612c5c565b73ffffffffffffffffffffffffffffffffffffffff163373ffffffffffffffffffffffffffffffffffffffff16145b6137d1576040517f08c379a00000000000000000000000000000000000000000000000000000000081526004016137c890616336565b60405180910390fd5b5f816008015f6101000a81548160ff021916908315150217905550817fcef6ecfd66d42c68c27def452dfeb1195cab6999685acd9ae7c30b11b51c587a60405160405180910390a25050565b613825614705565b5f73ffffffffffffffffffffffffffffffffffffffff168173ffffffffffffffffffffffffffffffffffffffff1603613893576040517f08c379a000000000000000000000000000000000000000000000000000000000815260040161388a9061613b565b60405180910390fd5b600c5f8273ffffffffffffffffffffffffffffffffffffffff1673ffffffffffffffffffffffffffffffffffffffff1681526020019081526020015f205f9054906101000a900460ff161561391d576040517f08c379a0000000000000000000000000000000000000000000000000000000008152600401613914906166f3565b60405180910390fd5b6001600c5f8373ffffffffffffffffffffffffffffffffffffffff1673ffffffffffffffffffffffffffffffffffffffff1681526020019081526020015f205f6101000a81548160ff021916908315150217905550600d81908060018154018082558091505060019003905f5260205f20015f9091909190916101000a81548173ffffffffffffffffffffffffffffffffffffffff021916908373ffffffffffffffffffffffffffffffffffffffff1602179055508073ffffffffffffffffffffffffffffffffffffffff167f784c8f4dbf0ffedd6e72c76501c545a70f8b203b30a26ce542bf92ba87c248a460405160405180910390a250565b6103e881565b5f5f5f60149054906101000a900460ff1615613a6f576040517f08c379a0000000000000000000000000000000000000000000000000000000008152600401613a66906157ca565b60405180910390fd5b5f5f1b8903613ab3576040517f08c379a0000000000000000000000000000000000000000000000000000000008152600401613aaa90616781565b60405180910390fd5b5f73ffffffffffffffffffffffffffffffffffffffff1660035f8b81526020019081526020015f206002015f9054906101000a900473ffffffffffffffffffffffffffffffffffffffff1673ffffffffffffffffffffffffffffffffffffffff1614613b54576040517f08c379a0000000000000000000000000000000000000000000000000000000008152600401613b4b906167e9565b60405180910390fd5b5f60015f8a81526020019081526020015f2090505f73ffffffffffffffffffffffffffffffffffffffff16815f015f9054906101000a900473ffffffffffffffffffffffffffffffffffffffff1673ffffffffffffffffffffffffffffffffffffffff1603613bf8576040517f08c379a0000000000000000000000000000000000000000000000000000000008152600401613bef90615ec1565b60405180910390fd5b806003015f9054906101000a900460ff16613c48576040517f08c379a0000000000000000000000000000000000000000000000000000000008152600401613c3f90615f4f565b60405180910390fd5b600c5f8873ffffffffffffffffffffffffffffffffffffffff1673ffffffffffffffffffffffffffffffffffffffff1681526020019081526020015f205f9054906101000a900460ff16613cd1576040517f08c379a0000000000000000000000000000000000000000000000000000000008152600401613cc890615fdd565b60405180910390fd5b6001861015613d15576040517f08c379a0000000000000000000000000000000000000000000000000000000008152600401613d0c90616045565b60405180910390fd5b5f612710826002015488613d299190615afa565b613d339190615b68565b90505f612710600b5489613d479190615afa565b613d519190615b68565b90508082613d5f9190615b98565b94508488613d6d9190615bcb565b93506040518061016001604052808d81526020018c81526020018b73ffffffffffffffffffffffffffffffffffffffff1681526020018a73ffffffffffffffffffffffffffffffffffffffff1681526020018981526020018681526020018581526020015f6004811115613de457613de3614b5b565b5b81526020014281526020015f815260200188888080601f0160208091040260200160405190810160405280939291908181526020018383808284375f81840152601f19601f8201169050808301925050505050505081525060035f8e81526020019081526020015f205f820151815f0155602082015181600101556040820151816002015f6101000a81548173ffffffffffffffffffffffffffffffffffffffff021916908373ffffffffffffffffffffffffffffffffffffffff1602179055506060820151816003015f6101000a81548173ffffffffffffffffffffffffffffffffffffffff021916908373ffffffffffffffffffffffffffffffffffffffff1602179055506080820151816004015560a0820151816005015560c0820151816006015560e0820151816007015f6101000a81548160ff02191690836004811115613f3357613f32614b5b565b5b02179055506101008201518160080155610120820151816009015561014082015181600a019081613f649190615bfe565b5090505060048c908060018154018082558091505060019003905f5260205f20015f9091909190915055613fbb8a308a8c73ffffffffffffffffffffffffffffffffffffffff16614604909392919063ffffffff16565b8973ffffffffffffffffffffffffffffffffffffffff168b8d7f47967f3a66316d6a6f756f3355b97775d271b39584bffa8036707828aa02252c8c8c60405161400592919061665c565b60405180910390a450505097509795505050505050565b6009602052815f5260405f208181548110614035575f80fd5b905f5260205f20015f91509150505481565b5f60035f8381526020019081526020015f2090505f73ffffffffffffffffffffffffffffffffffffffff16816002015f9054906101000a900473ffffffffffffffffffffffffffffffffffffffff1673ffffffffffffffffffffffffffffffffffffffff16036140ec576040517f08c379a00000000000000000000000000000000000000000000000000000000081526004016140e390616266565b60405180910390fd5b806002015f9054906101000a900473ffffffffffffffffffffffffffffffffffffffff1673ffffffffffffffffffffffffffffffffffffffff163373ffffffffffffffffffffffffffffffffffffffff1614806141aa575060015f826001015481526020019081526020015f205f015f9054906101000a900473ffffffffffffffffffffffffffffffffffffffff1673ffffffffffffffffffffffffffffffffffffffff163373ffffffffffffffffffffffffffffffffffffffff16145b806141e757506141b8612c5c565b73ffffffffffffffffffffffffffffffffffffffff163373ffffffffffffffffffffffffffffffffffffffff16145b614226576040517f08c379a000000000000000000000000000000000000000000000000000000000815260040161421d90616336565b60405180910390fd5b6001600481111561423a57614239614b5b565b5b816007015f9054906101000a900460ff16600481111561425d5761425c614b5b565b5b148061429c575060048081111561427757614276614b5b565b5b816007015f9054906101000a900460ff16600481111561429a57614299614b5b565b5b145b6142db576040517f08c379a00000000000000000000000000000000000000000000000000000000081526004016142d290616851565b60405180910390fd5b600160048111156142ef576142ee614b5b565b5b816007015f9054906101000a900460ff16600481111561431257614311614b5b565b5b036143c5576143c460015f836001015481526020019081526020015f205f015f9054906101000a900473ffffffffffffffffffffffffffffffffffffffff16826002015f9054906101000a900473ffffffffffffffffffffffffffffffffffffffff168360040154846003015f9054906101000a900473ffffffffffffffffffffffffffffffffffffffff1673ffffffffffffffffffffffffffffffffffffffff16614604909392919063ffffffff16565b5b6003816007015f6101000a81548160ff021916908360048111156143ec576143eb614b5b565b5b0217905550817f7a1dd09597e0454bccf83a57e47d6ce29d4f89f3dd01f54d4bcf1768b172865482600401546040516144259190614de4565b60405180910390a25050565b5f5f5f5f5f5f5f5f5f5f60605f60035f8e81526020019081526020015f209050805f01548160010154826002015f9054906101000a900473ffffffffffffffffffffffffffffffffffffffff16836003015f9054906101000a900473ffffffffffffffffffffffffffffffffffffffff16846004015485600501548660060154876007015f9054906101000a900460ff16886008015489600901548a600a018080546144dc906153d7565b80601f0160208091040260200160405190810160405280929190818152602001828054614508906153d7565b80156145535780601f1061452a57610100808354040283529160200191614553565b820191905f5260205f20905b81548152906001019060200180831161453657829003601f168201915b505050505090509b509b509b509b509b509b509b509b509b509b509b505091939597999b90929496989a50565b614588614705565b5f73ffffffffffffffffffffffffffffffffffffffff168173ffffffffffffffffffffffffffffffffffffffff16036145f8575f6040517f1e4fbdf70000000000000000000000000000000000000000000000000000000081526004016145ef9190614d8d565b60405180910390fd5b6146018161478c565b50565b614680848573ffffffffffffffffffffffffffffffffffffffff166323b872dd8686866040516024016146399392919061686f565b604051602081830303815290604052915060e01b6020820180517bffffffffffffffffffffffffffffffffffffffffffffffffffffffff838183161783525050505061484d565b50505050565b614700838473ffffffffffffffffffffffffffffffffffffffff1663a9059cbb85856040516024016146b992919061665c565b604051602081830303815290604052915060e01b6020820180517bffffffffffffffffffffffffffffffffffffffffffffffffffffffff838183161783525050505061484d565b505050565b61470d6148e8565b73ffffffffffffffffffffffffffffffffffffffff1661472b612c5c565b73ffffffffffffffffffffffffffffffffffffffff161461478a5761474e6148e8565b6040517f118cdaa70000000000000000000000000000000000000000000000000000000081526004016147819190614d8d565b60405180910390fd5b565b5f5f5f9054906101000a900473ffffffffffffffffffffffffffffffffffffffff169050815f5f6101000a81548173ffffffffffffffffffffffffffffffffffffffff021916908373ffffffffffffffffffffffffffffffffffffffff1602179055508173ffffffffffffffffffffffffffffffffffffffff168173ffffffffffffffffffffffffffffffffffffffff167f8be0079c531659141344cd1fd0a4f28419497f9722a3daafe3b4186f6b6457e060405160405180910390a35050565b5f5f60205f8451602086015f885af18061486c576040513d5f823e3d81fd5b3d92505f519150505f82146148855760018114156148a0565b5f8473ffffffffffffffffffffffffffffffffffffffff163b145b156148e257836040517f5274afe70000000000000000000000000000000000000000000000000000000081526004016148d99190614d8d565b60405180910390fd5b50505050565b5f33905090565b5f5ffd5b5f5ffd5b5f819050919050565b614909816148f7565b8114614913575f5ffd5b50565b5f8135905061492481614900565b92915050565b5f6020828403121561493f5761493e6148ef565b5b5f61494c84828501614916565b91505092915050565b5f73ffffffffffffffffffffffffffffffffffffffff82169050919050565b5f61497e82614955565b9050919050565b61498e81614974565b82525050565b5f819050919050565b6149a681614994565b82525050565b5f8115159050919050565b6149c0816149ac565b82525050565b5f81519050919050565b5f82825260208201905092915050565b8281835e5f83830152505050565b5f601f19601f8301169050919050565b5f614a08826149c6565b614a1281856149d0565b9350614a228185602086016149e0565b614a2b816149ee565b840191505092915050565b5f60a082019050614a495f830188614985565b614a566020830187614985565b614a63604083018661499d565b614a7060608301856149b7565b8181036080830152614a8281846149fe565b90509695505050505050565b5f5ffd5b5f5ffd5b5f5ffd5b5f5f83601f840112614aaf57614aae614a8e565b5b8235905067ffffffffffffffff811115614acc57614acb614a92565b5b602083019150836001820283011115614ae857614ae7614a96565b5b9250929050565b5f5f5f60408486031215614b0657614b056148ef565b5b5f614b1386828701614916565b935050602084013567ffffffffffffffff811115614b3457614b336148f3565b5b614b4086828701614a9a565b92509250509250925092565b614b55816148f7565b82525050565b7f4e487b71000000000000000000000000000000000000000000000000000000005f52602160045260245ffd5b60058110614b9957614b98614b5b565b5b50565b5f819050614ba982614b88565b919050565b5f614bb882614b9c565b9050919050565b614bc881614bae565b82525050565b5f61016082019050614be25f83018e614b4c565b614bef602083018d614b4c565b614bfc604083018c614985565b614c09606083018b614985565b614c16608083018a61499d565b614c2360a083018961499d565b614c3060c083018861499d565b614c3d60e0830187614bbf565b614c4b61010083018661499d565b614c5961012083018561499d565b818103610140830152614c6c81846149fe565b90509c9b505050505050505050505050565b614c8781614974565b8114614c91575f5ffd5b50565b5f81359050614ca281614c7e565b92915050565b614cb181614994565b8114614cbb575f5ffd5b50565b5f81359050614ccc81614ca8565b92915050565b5f5f5f5f5f60a08688031215614ceb57614cea6148ef565b5b5f614cf888828901614916565b9550506020614d0988828901614916565b9450506040614d1a88828901614c94565b9350506060614d2b88828901614cbe565b9250506080614d3c88828901614cbe565b9150509295509295909350565b5f602082019050614d5c5f830184614b4c565b92915050565b5f60208284031215614d7757614d766148ef565b5b5f614d8484828501614cbe565b91505092915050565b5f602082019050614da05f830184614985565b92915050565b5f5f60408385031215614dbc57614dbb6148ef565b5b5f614dc985828601614c94565b9250506020614dda85828601614cbe565b9150509250929050565b5f602082019050614df75f83018461499d565b92915050565b5f81519050919050565b5f82825260208201905092915050565b5f819050602082019050919050565b614e2f81614974565b82525050565b5f614e408383614e26565b60208301905092915050565b5f602082019050919050565b5f614e6282614dfd565b614e6c8185614e07565b9350614e7783614e17565b805f5b83811015614ea7578151614e8e8882614e35565b9750614e9983614e4c565b925050600181019050614e7a565b5085935050505092915050565b5f6020820190508181035f830152614ecc8184614e58565b905092915050565b5f81519050919050565b5f82825260208201905092915050565b5f819050602082019050919050565b614f06816148f7565b82525050565b5f614f178383614efd565b60208301905092915050565b5f602082019050919050565b5f614f3982614ed4565b614f438185614ede565b9350614f4e83614eee565b805f5b83811015614f7e578151614f658882614f0c565b9750614f7083614f23565b925050600181019050614f51565b5085935050505092915050565b5f6020820190508181035f830152614fa38184614f2f565b905092915050565b614fb4816149ac565b8114614fbe575f5ffd5b50565b5f81359050614fcf81614fab565b92915050565b5f5f60408385031215614feb57614fea6148ef565b5b5f614ff885828601614916565b925050602061500985828601614fc1565b9150509250929050565b5f5f5f5f5f5f60c0878903121561502d5761502c6148ef565b5b5f61503a89828a01614916565b965050602061504b89828a01614916565b955050604061505c89828a01614c94565b945050606061506d89828a01614c94565b935050608061507e89828a01614cbe565b92505060a061508f89828a01614cbe565b9150509295509295509295565b5f5f5f5f608085870312156150b4576150b36148ef565b5b5f6150c187828801614916565b94505060206150d287828801614c94565b93505060406150e387828801614cbe565b92505060606150f487828801614fc1565b91505092959194509250565b5f60208284031215615115576151146148ef565b5b5f61512284828501614c94565b91505092915050565b5f6101008201905061513f5f83018b614b4c565b61514c602083018a614b4c565b6151596040830189614985565b615166606083018861499d565b615173608083018761499d565b61518060a083018661499d565b61518d60c0830185614bbf565b61519a60e083018461499d565b9998505050505050505050565b5f6020820190506151ba5f8301846149b7565b92915050565b5f610120820190506151d45f83018c614b4c565b6151e1602083018b614b4c565b6151ee604083018a614985565b6151fb6060830189614985565b615208608083018861499d565b61521560a083018761499d565b61522260c083018661499d565b61522f60e083018561499d565b61523d6101008301846149b7565b9a9950505050505050505050565b5f5f5f60608486031215615262576152616148ef565b5b5f61526f86828701614916565b935050602061528086828701614c94565b925050604061529186828701614cbe565b9150509250925092565b5f5f5f5f5f5f5f60c0888a0312156152b6576152b56148ef565b5b5f6152c38a828b01614916565b97505060206152d48a828b01614916565b96505060406152e58a828b01614c94565b95505060606152f68a828b01614c94565b94505060806153078a828b01614cbe565b93505060a088013567ffffffffffffffff811115615328576153276148f3565b5b6153348a828b01614a9a565b925092505092959891949750929550565b5f6040820190506153585f83018561499d565b615365602083018461499d565b9392505050565b5f5f60408385031215615382576153816148ef565b5b5f61538f85828601614916565b92505060206153a085828601614cbe565b9150509250929050565b7f4e487b71000000000000000000000000000000000000000000000000000000005f52602260045260245ffd5b5f60028204905060018216806153ee57607f821691505b602082108103615401576154006153aa565b5b50919050565b7f5061796d656e7450726f636573736f723a206e6f74206d65726368616e7400005f82015250565b5f61543b601e836149d0565b915061544682615407565b602082019050919050565b5f6020820190508181035f8301526154688161542f565b9050919050565b5f82905092915050565b7f4e487b71000000000000000000000000000000000000000000000000000000005f52604160045260245ffd5b5f819050815f5260205f209050919050565b5f6020601f8301049050919050565b5f82821b905092915050565b5f600883026155027fffffffffffffffffffffffffffffffffffffffffffffffffffffffffffffffff826154c7565b61550c86836154c7565b95508019841693508086168417925050509392505050565b5f819050919050565b5f61554761554261553d84614994565b615524565b614994565b9050919050565b5f819050919050565b6155608361552d565b61557461556c8261554e565b8484546154d3565b825550505050565b5f5f905090565b61558b61557c565b615596818484615557565b505050565b5f5b828110156155bc576155b15f828401615583565b60018101905061559d565b505050565b601f82111561560f578282111561560e576155db816154a6565b6155e4836154b8565b6155ed856154b8565b60208610156155fa575f90505b8083016156098284038261559b565b505050505b5b505050565b5f82821c905092915050565b5f61562f5f1984600802615614565b1980831691505092915050565b5f6156478383615620565b9150826002028217905092915050565b615661838361546f565b67ffffffffffffffff81111561567a57615679615479565b5b61568482546153d7565b61568f8282856155c1565b5f601f8311600181146156bc575f84156156aa578287013590505b6156b4858261563c565b86555061571b565b601f1984166156ca866154a6565b5f5b828110156156f1578489013582556001820191506020850194506020810190506156cc565b8683101561570e578489013561570a601f891682615620565b8355505b6001600288020188555050505b50505050505050565b828183375f83830152505050565b5f61573d83856149d0565b935061574a838584615724565b615753836149ee565b840190509392505050565b5f6020820190508181035f830152615777818486615732565b90509392505050565b7f5061796d656e7450726f636573736f723a2070617573656400000000000000005f82015250565b5f6157b46018836149d0565b91506157bf82615780565b602082019050919050565b5f6020820190508181035f8301526157e1816157a8565b9050919050565b7f5061796d656e7450726f636573736f723a20696e76616c6964206261746368205f8201527f4944000000000000000000000000000000000000000000000000000000000000602082015250565b5f6158426022836149d0565b915061584d826157e8565b604082019050919050565b5f6020820190508181035f83015261586f81615836565b9050919050565b7f5061796d656e7450726f636573736f723a2062617463682065786973747300005f82015250565b5f6158aa601e836149d0565b91506158b582615876565b602082019050919050565b5f6020820190508181035f8301526158d78161589e565b9050919050565b7f5061796d656e7450726f636573736f723a20737562736372697074696f6e206e5f8201527f6f7420666f756e64000000000000000000000000000000000000000000000000602082015250565b5f6159386028836149d0565b9150615943826158de565b604082019050919050565b5f6020820190508181035f8301526159658161592c565b9050919050565b7f5061796d656e7450726f636573736f723a20737562736372697074696f6e206e5f8201527f6f74206163746976650000000000000000000000000000000000000000000000602082015250565b5f6159c66029836149d0565b91506159d18261596c565b604082019050919050565b5f6020820190508181035f8301526159f3816159ba565b9050919050565b7f5061796d656e7450726f636573736f723a206e6f742074696d652079657400005f82015250565b5f615a2e601e836149d0565b9150615a39826159fa565b602082019050919050565b5f6020820190508181035f830152615a5b81615a22565b9050919050565b5f819050919050565b615a7c615a77826148f7565b615a62565b82525050565b5f819050919050565b615a9c615a9782614994565b615a82565b82525050565b5f615aad8285615a6b565b602082019150615abd8284615a8b565b6020820191508190509392505050565b7f4e487b71000000000000000000000000000000000000000000000000000000005f52601160045260245ffd5b5f615b0482614994565b9150615b0f83614994565b9250828202615b1d81614994565b91508282048414831517615b3457615b33615acd565b5b5092915050565b7f4e487b71000000000000000000000000000000000000000000000000000000005f52601260045260245ffd5b5f615b7282614994565b9150615b7d83614994565b925082615b8d57615b8c615b3b565b5b828204905092915050565b5f615ba282614994565b9150615bad83614994565b9250828201905080821115615bc557615bc4615acd565b5b92915050565b5f615bd582614994565b9150615be083614994565b9250828203905081811115615bf857615bf7615acd565b5b92915050565b615c07826149c6565b67ffffffffffffffff811115615c2057615c1f615479565b5b615c2a82546153d7565b615c358282856155c1565b5f60209050601f831160018114615c66575f8415615c54578287015190505b615c5e858261563c565b865550615cc5565b601f198416615c74866154a6565b5f5b82811015615c9b57848901518255600182019150602085019450602081019050615c76565b86831015615cb85784890151615cb4601f891682615620565b8355505b6001600288020188555050505b505050505050565b7f5061796d656e7450726f636573736f723a206e6f7420646973707574656400005f82015250565b5f615d01601e836149d0565b9150615d0c82615ccd565b602082019050919050565b5f6020820190508181035f830152615d2e81615cf5565b9050919050565b7f5061796d656e7450726f636573736f723a20696e76616c6964207375627363725f8201527f697074696f6e2049440000000000000000000000000000000000000000000000602082015250565b5f615d8f6029836149d0565b9150615d9a82615d35565b604082019050919050565b5f6020820190508181035f830152615dbc81615d83565b9050919050565b7f5061796d656e7450726f636573736f723a20737562736372697074696f6e20655f8201527f7869737473000000000000000000000000000000000000000000000000000000602082015250565b5f615e1d6025836149d0565b9150615e2882615dc3565b604082019050919050565b5f6020820190508181035f830152615e4a81615e11565b9050919050565b7f5061796d656e7450726f636573736f723a206d65726368616e74206e6f7420665f8201527f6f756e6400000000000000000000000000000000000000000000000000000000602082015250565b5f615eab6024836149d0565b9150615eb682615e51565b604082019050919050565b5f6020820190508181035f830152615ed881615e9f565b9050919050565b7f5061796d656e7450726f636573736f723a206d65726368616e74206e6f7420615f8201527f6374697665000000000000000000000000000000000000000000000000000000602082015250565b5f615f396025836149d0565b9150615f4482615edf565b604082019050919050565b5f6020820190508181035f830152615f6681615f2d565b9050919050565b7f5061796d656e7450726f636573736f723a20746f6b656e206e6f7420616363655f8201527f7074656400000000000000000000000000000000000000000000000000000000602082015250565b5f615fc76024836149d0565b9150615fd282615f6d565b604082019050919050565b5f6020820190508181035f830152615ff481615fbb565b9050919050565b7f5061796d656e7450726f636573736f723a20616d6f756e7420746f6f206c6f775f82015250565b5f61602f6020836149d0565b915061603a82615ffb565b602082019050919050565b5f6020820190508181035f83015261605c81616023565b9050919050565b7f5061796d656e7450726f636573736f723a20696e76616c696420696e746572765f8201527f616c000000000000000000000000000000000000000000000000000000000000602082015250565b5f6160bd6022836149d0565b91506160c882616063565b604082019050919050565b5f6020820190508181035f8301526160ea816160b1565b9050919050565b7f5061796d656e7450726f636573736f723a20696e76616c696420746f6b656e005f82015250565b5f616125601f836149d0565b9150616130826160f1565b602082019050919050565b5f6020820190508181035f83015261615281616119565b9050919050565b7f5061796d656e7450726f636573736f723a2066656520746f6f206869676800005f82015250565b5f61618d601e836149d0565b915061619882616159565b602082019050919050565b5f6020820190508181035f8301526161ba81616181565b9050919050565b5f6060820190506161d45f830186614985565b6161e1602083018561499d565b6161ee60408301846149b7565b949350505050565b7f5061796d656e7450726f636573736f723a207061796d656e74206e6f7420666f5f8201527f756e640000000000000000000000000000000000000000000000000000000000602082015250565b5f6162506023836149d0565b915061625b826161f6565b604082019050919050565b5f6020820190508181035f83015261627d81616244565b9050919050565b7f5061796d656e7450726f636573736f723a206e6f742070656e64696e670000005f82015250565b5f6162b8601d836149d0565b91506162c382616284565b602082019050919050565b5f6020820190508181035f8301526162e5816162ac565b9050919050565b7f5061796d656e7450726f636573736f723a206e6f7420617574686f72697a65645f82015250565b5f6163206020836149d0565b915061632b826162ec565b602082019050919050565b5f6020820190508181035f83015261634d81616314565b9050919050565b7f5061796d656e7450726f636573736f723a206261746368206e6f7420666f756e5f8201527f6400000000000000000000000000000000000000000000000000000000000000602082015250565b5f6163ae6021836149d0565b91506163b982616354565b604082019050919050565b5f6020820190508181035f8301526163db816163a2565b9050919050565b7f5061796d656e7450726f636573736f723a206e6f7420636f6d706c65746564005f82015250565b5f616416601f836149d0565b9150616421826163e2565b602082019050919050565b5f6020820190508181035f8301526164438161640a565b9050919050565b7f5061796d656e7450726f636573736f723a206e6f7420706179657200000000005f82015250565b5f61647e601b836149d0565b91506164898261644a565b602082019050919050565b5f6020820190508181035f8301526164ab81616472565b9050919050565b7f5061796d656e7450726f636573736f723a20696e76616c69642066656520636f5f8201527f6c6c6563746f7200000000000000000000000000000000000000000000000000602082015250565b5f61650c6027836149d0565b9150616517826164b2565b604082019050919050565b5f6020820190508181035f83015261653981616500565b9050919050565b7f5061796d656e7450726f636573736f723a20696e76616c6964206d65726368615f8201527f6e74204944000000000000000000000000000000000000000000000000000000602082015250565b5f61659a6025836149d0565b91506165a582616540565b604082019050919050565b5f6020820190508181035f8301526165c78161658e565b9050919050565b7f5061796d656e7450726f636573736f723a206d65726368616e742065786973745f8201527f7300000000000000000000000000000000000000000000000000000000000000602082015250565b5f6166286021836149d0565b9150616633826165ce565b604082019050919050565b5f6020820190508181035f8301526166558161661c565b9050919050565b5f60408201905061666f5f830185614985565b61667c602083018461499d565b9392505050565b7f5061796d656e7450726f636573736f723a20746f6b656e20616c7265616479205f8201527f6163636570746564000000000000000000000000000000000000000000000000602082015250565b5f6166dd6028836149d0565b91506166e882616683565b604082019050919050565b5f6020820190508181035f83015261670a816166d1565b9050919050565b7f5061796d656e7450726f636573736f723a20696e76616c6964207061796d656e5f8201527f7420494400000000000000000000000000000000000000000000000000000000602082015250565b5f61676b6024836149d0565b915061677682616711565b604082019050919050565b5f6020820190508181035f8301526167988161675f565b9050919050565b7f5061796d656e7450726f636573736f723a207061796d656e74206578697374735f82015250565b5f6167d36020836149d0565b91506167de8261679f565b602082019050919050565b5f6020820190508181035f830152616800816167c7565b9050919050565b7f5061796d656e7450726f636573736f723a2063616e6e6f7420726566756e64005f82015250565b5f61683b601f836149d0565b915061684682616807565b602082019050919050565b5f6020820190508181035f8301526168688161682f565b9050919050565b5f6060820190506168825f830186614985565b61688f6020830185614985565b61689c604083018461499d565b94935050505056fea2646970667358221220873e6c5af97c8cc0a344ceacf0d3d5a3a0708cbdaab0dca55fc38571ae0913a964736f6c63430008210033","linkReferences":{}},"methodIdentifiers":{"MAX_FEE_BPS()":"d55be8c6","MIN_PAYMENT_AMOUNT()":"1f922e5f","acceptedTokenList(uint256)":"0aae47fb","acceptedTokens(address)":"82dc4a05","addToken(address)":"d48bfca7","batchPaymentIds(bytes32,uint256)":"db2ddf43","batchPayments(bytes32)":"77a3f4a1","cancelSubscription(bytes32)":"d21f1ffc","completeBatchPayment(bytes32)":"61c1bae7","completePayment(bytes32)":"47ca8a8b","createBatchPayment(bytes32,bytes32,address,uint256,uint256)":"08832246","createPayment(bytes32,bytes32,address,address,uint256,string)":"d6544c69","createSubscription(bytes32,bytes32,address,address,uint256,uint256)":"4501c46e","disputePayment(bytes32)":"9c4dd6a2","failPayment(bytes32,string)":"619ab9a7","feeCollector()":"c415b95c","getAcceptedTokens()":"2f757006","getMerchantBatchPayments(bytes32)":"338e88a8","getMerchantConfig(bytes32)":"00b84b71","getPayment(bytes32)":"e66eefc8","getSubscriberSubscriptions(address)":"c31bb1e5","isPaused()":"b187bd26","merchantConfigs(bytes32)":"a19b8583","merchantIds(address,uint256)":"24432c52","owner()":"8da5cb5b","pause()":"8456cb59","paymentIds(uint256)":"9ba6737c","payments(bytes32)":"0716326d","processSubscriptionPayment(bytes32)":"12d91242","protocolFeeBps()":"35659fb8","refundPayment(bytes32)":"de8f8b3f","registerMerchant(bytes32,address,uint256)":"ced5fae8","removeToken(address)":"5fa7b584","renounceOwnership()":"715018a6","resolveDispute(bytes32,bool)":"43a0e3e6","setFeeCollector(address)":"a42dce80","setMerchantWebhook(bytes32,string)":"033b3cdf","setProtocolFee(uint256)":"787dce3d","subscriberSubscriptions(address,uint256)":"0bd0638b","subscriptionIds(uint256)":"8cafc358","subscriptions(bytes32)":"94259c6c","transferOwnership(address)":"f2fde38b","unpause()":"3f4ba83a","updateMerchant(bytes32,address,uint256,bool)":"473970d9"},"id":88}