{"abi":[{"type":"constructor","inputs":[{"name":"_feeCollector","type":"address","internalType":"address"},{"name":"_protocolFeeBps","type":"uint256","internalType":"uint256"}],"stateMutability":"nonpayable"},{"type":"function","name":"MAX_FEE_BPS","inputs":[],"outputs":[{"name":"","type":"uint256","internalType":"uint256"}],"stateMutability":"view"},{"type":"function","name":"MIN_PAYMENT_AMOUNT","inputs":[],"outputs":[{"name":"","type":"uint256","internalType":"uint256"}],"stateMutability":"view"},{"type":"function","name":"acceptedTokenList","inputs":[{"name":"","type":"uint256","internalType":"uint256"}],"outputs":[{"name":"","type":"address","internalType":"address"}],"stateMutability":"view"},{"type":"function","name":"acceptedTokens","inputs":[{"name":"","type":"address","internalType":"address"}],"outputs":[{"name":"","type":"bool","internalType":"bool"}],"stateMutability":"view"},{"type":"function","name":"addToken","inputs":[{"name":"_token","type":"address","internalType":"address"}],"outputs":[],"stateMutability":"nonpayable"},{"type":"function","name":"batchPaymentIds","inputs":[{"name":"","type":"bytes32","internalType":"bytes32"},{"name":"","type":"uint256","internalType":"uint256"}],"outputs":[{"name":"","type":"bytes32","internalType":"bytes32"}],"stateMutability":"view"},{"type":"function","name":"batchPayments","inputs":[{"name":"","type":"bytes32","internalType":"bytes32"}],"outputs":[{"name":"batchId","type":"bytes32","internalType":"bytes32"},{"name":"merchantId","type":"bytes32","internalType":"bytes32"},{"name":"token","type":"address","internalType":"address"},{"name":"totalAmount","type":"uint256","internalType":"uint256"},{"name":"numPayments","type":"uint256","internalType":"uint256"},{"name":"completedPayments","type":"uint256","internalType":"uint256"},{"name":"status","type":"uint8","internalType":"enum PaymentProcessor.PaymentStatus"},{"name":"createdAt","type":"uint256","internalType":"uint256"}],"stateMutability":"view"},{"type":"function","name":"cancelSubscription","inputs":[{"name":"_subscriptionId","type":"bytes32","internalType":"bytes32"}],"outputs":[],"stateMutability":"nonpayable"},{"type":"function","name":"completeBatchPayment","inputs":[{"name":"_batchId","type":"bytes32","internalType":"bytes32"}],"outputs":[],"stateMutability":"nonpayable"},{"type":"function","name":"completePayment","inputs":[{"name":"_paymentId","type":"bytes32","internalType":"bytes32"}],"outputs":[],"stateMutability":"nonpayable"},{"type":"function","name":"createBatchPayment","inputs":[{"name":"_batchId","type":"bytes32","internalType":"bytes32"},{"name":"_merchantId","type":"bytes32","internalType":"bytes32"},{"name":"_token","type":"address","internalType":"address"},{"name":"_totalAmount","type":"uint256","internalType":"uint256"},{"name":"_numPayments","type":"uint256","internalType":"uint256"}],"outputs":[{"name":"","type":"bytes32","internalType":"bytes32"}],"stateMutability":"nonpayable"},{"type":"function","name":"createPayment","inputs":[{"name":"_paymentId","type":"bytes32","internalType":"bytes32"},{"name":"_merchantId","type":"bytes32","internalType":"bytes32"},{"name":"_payer","type":"address","internalType":"address"},{"name":"_token","type":"address","internalType":"address"},{"name":"_amount","type":"uint256","internalType":"uint256"},{"name":"_metadata","type":"string","internalType":"string"}],"outputs":[{"name":"feeAmount","type":"uint256","internalType":"uint256"},{"name":"netAmount","type":"uint256","internalType":"uint256"}],"stateMutability":"nonpayable"},{"type":"function","name":"createSubscription","inputs":[{"name":"_subscriptionId","type":"bytes32","internalType":"bytes32"},{"name":"_merchantId","type":"bytes32","internalType":"bytes32"},{"name":"_subscriber","type":"address","internalType":"address"},{"name":"_token","type":"address","internalType":"address"},{"name":"_amount","type":"uint256","internalType":"uint256"},{"name":"_interval","type":"uint256","internalType":"uint256"}],"outputs":[{"name":"paymentId","type":"bytes32","internalType":"bytes32"}],"stateMutability":"nonpayable"},{"type":"function","name":"disputePayment","inputs":[{"name":"_paymentId","type":"bytes32","internalType":"bytes32"}],"outputs":[],"stateMutability":"nonpayable"},{"type":"function","name":"failPayment","inputs":[{"name":"_paymentId","type":"bytes32","internalType":"bytes32"},{"name":"_reason","type":"string","internalType":"string"}],"outputs":[],"stateMutability":"nonpayable"},{"type":"function","name":"feeCollector","inputs":[],"outputs":[{"name":"","type":"address","internalType":"address"}],"stateMutability":"view"},{"type":"function","name":"getAcceptedTokens","inputs":[],"outputs":[{"name":"","type":"address[]","internalType":"address[]"}],"stateMutability":"view"},{"type":"function","name":"getMerchantBatchPayments","inputs":[{"name":"_merchantId","type":"bytes32","internalType":"bytes32"}],"outputs":[{"name":"","type":"bytes32[]","internalType":"bytes32[]"}],"stateMutability":"view"},{"type":"function","name":"getMerchantConfig","inputs":[{"name":"_merchantId","type":"bytes32","internalType":"bytes32"}],"outputs":[{"name":"merchant","type":"address","internalType":"address"},{"name":"settlementToken","type":"address","internalType":"address"},{"name":"feeBps","type":"uint256","internalType":"uint256"},{"name":"isActive","type":"bool","internalType":"bool"},{"name":"webhookUrl","type":"string","internalType":"string"}],"stateMutability":"view"},{"type":"function","name":"getPayment","inputs":[{"name":"_paymentId","type":"bytes32","internalType":"bytes32"}],"outputs":[{"name":"paymentId","type":"bytes32","internalType":"bytes32"},{"name":"merchantId","type":"bytes32","internalType":"bytes32"},{"name":"payer","type":"address","internalType":"address"},{"name":"token","type":"address","internalType":"address"},{"name":"amount","type":"uint256","internalType":"uint256"},{"name":"feeAmount","type":"uint256","internalType":"uint256"},{"name":"netAmount","type":"uint256","internalType":"uint256"},{"name":"status","type":"uint8","internalType":"enum PaymentProcessor.PaymentStatus"},{"name":"createdAt","type":"uint256","internalType":"uint256"},{"name":"completedAt","type":"uint256","internalType":"uint256"},{"name":"metadata","type":"string","internalType":"string"}],"stateMutability":"view"},{"type":"function","name":"getSubscriberSubscriptions","inputs":[{"name":"_subscriber","type":"address","internalType":"address"}],"outputs":[{"name":"","type":"bytes32[]","internalType":"bytes32[]"}],"stateMutability":"view"},{"type":"function","name":"isPaused","inputs":[],"outputs":[{"name":"","type":"bool","internalType":"bool"}],"stateMutability":"view"},{"type":"function","name":"merchantConfigs","inputs":[{"name":"","type":"bytes32","internalType":"bytes32"}],"outputs":[{"name":"merchant","type":"address","internalType":"address"},{"name":"settlementToken","type":"address","internalType":"address"},{"name":"feeBps","type":"uint256","internalType":"uint256"},{"name":"isActive","type":"bool","internalType":"bool"},{"name":"webhookUrl","type":"string","internalType":"string"}],"stateMutability":"view"},{"type":"function","name":"merchantIds","inputs":[{"name":"","type":"address","internalType":"address"},{"name":"","type":"uint256","internalType":"uint256"}],"outputs":[{"name":"","type":"bytes32","internalType":"bytes32"}],"stateMutability":"view"},{"type":"function","name":"owner","inputs":[],"outputs":[{"name":"","type":"address","internalType":"address"}],"stateMutability":"view"},{"type":"function","name":"pause","inputs":[],"outputs":[],"stateMutability":"nonpayable"},{"type":"function","name":"paymentIds","inputs":[{"name":"","type":"uint256","internalType":"uint256"}],"outputs":[{"name":"","type":"bytes32","internalType":"bytes32"}],"stateMutability":"view"},{"type":"function","name":"payments","inputs":[{"name":"","type":"bytes32","internalType":"bytes32"}],"outputs":[{"name":"paymentId","type":"bytes32","internalType":"bytes32"},{"name":"merchantId","type":"bytes32","internalType":"bytes32"},{"name":"payer","type":"address","internalType":"address"},{"name":"token","type":"address","internalType":"address"},{"name":"amount","type":"uint256","internalType":"uint256"},{"name":"feeAmount","type":"uint256","internalType":"uint256"},{"name":"netAmount","type":"uint256","internalType":"uint256"},{"name":"status","type":"uint8","internalType":"enum PaymentProcessor.PaymentStatus"},{"name":"createdAt","type":"uint256","internalType":"uint256"},{"name":"completedAt","type":"uint256","internalType":"uint256"},{"name":"metadata","type":"string","internalType":"string"}],"stateMutability":"view"},{"type":"function","name":"processSubscriptionPayment","inputs":[{"name":"_subscriptionId","type":"bytes32","internalType":"bytes32"}],"outputs":[{"name":"paymentId","type":"bytes32","internalType":"bytes32"}],"stateMutability":"nonpayable"},{"type":"function","name":"protocolFeeBps","inputs":[],"outputs":[{"name":"","type":"uint256","internalType":"uint256"}],"stateMutability":"view"},{"type":"function","name":"refundPayment","inputs":[{"name":"_paymentId","type":"bytes32","internalType":"bytes32"}],"outputs":[],"stateMutability":"nonpayable"},{"type":"function","name":"registerMerchant","inputs":[{"name":"_merchantId","type":"bytes32","internalType":"bytes32"},{"name":"_settlementToken","type":"address","internalType":"address"},{"name":"_feeBps","type":"uint256","internalType":"uint256"}],"outputs":[],"stateMutability":"nonpayable"},{"type":"function","name":"removeToken","inputs":[{"name":"_token","type":"address","internalType":"address"}],"outputs":[],"stateMutability":"nonpayable"},{"type":"function","name":"renounceOwnership","inputs":[],"outputs":[],"stateMutability":"nonpayable"},{"type":"function","name":"resolveDispute","inputs":[{"name":"_paymentId","type":"bytes32","internalType":"bytes32"},{"name":"_refundIssued","type":"bool","internalType":"bool"}],"outputs":[],"stateMutability":"nonpayable"},{"type":"function","name":"setFeeCollector","inputs":[{"name":"_feeCollector","type":"address","internalType":"address"}],"outputs":[],"stateMutability":"nonpayable"},{"type":"function","name":"setMerchantWebhook","inputs":[{"name":"_merchantId","type":"bytes32","internalType":"bytes32"},{"name":"_webhookUrl","type":"string","internalType":"string"}],"outputs":[],"stateMutability":"nonpayable"},{"type":"function","name":"setProtocolFee","inputs":[{"name":"_feeBps","type":"uint256","internalType":"uint256"}],"outputs":[],"stateMutability":"nonpayable"},{"type":"function","name":"subscriberSubscriptions","inputs":[{"name":"","type":"address","internalType":"address"},{"name":"","type":"uint256","internalType":"uint256"}],"outputs":[{"name":"","type":"bytes32","internalType":"bytes32"}],"stateMutability":"view"},{"type":"function","name":"subscriptionIds","inputs":[{"name":"","type":"uint256","internalType":"uint256"}],"outputs":[{"name":"","type":"bytes32","internalType":"bytes32"}],"stateMutability":"view"},{"type":"function","name":"subscriptions","inputs":[{"name":"","type":"bytes32","internalType":"bytes32"}],"outputs":[{"name":"subscriptionId","type":"bytes32","internalType":"bytes32"},{"name":"merchantId","type":"bytes32","internalType":"bytes32"},{"name":"subscriber","type":"address","internalType":"address"},{"name":"token","type":"address","internalType":"address"},{"name":"amount","type":"uint256","internalType":"uint256"},{"name":"interval","type":"uint256","internalType":"uint256"},{"name":"nextPaymentTime","type":"uint256","internalType":"uint256"},{"name":"createdAt","type":"uint256","internalType":"uint256"},{"name":"isActive","type":"bool","internalType":"bool"}],"stateMutability":"view"},{"type":"function","name":"transferOwnership","inputs":[{"name":"newOwner","type":"address","internalType":"address"}],"outputs":[],"stateMutability":"nonpayable"},{"type":"function","name":"unpause","inputs":[],"outputs":[],"stateMutability":"nonpayable"},{"type":"function","name":"updateMerchant","inputs":[{"name":"_merchantId","type":"bytes32","internalType":"bytes32"},{"name":"_settlementToken","type":"address","internalType":"address"},{"name":"_feeBps","type":"uint256","internalType":"uint256"},{"name":"_isActive","type":"bool","internalType":"bool"}],"outputs":[],"stateMutability":"nonpayable"},{"type":"event","name":"BatchPaymentCompleted","inputs":[{"name":"batchId","type":"bytes32","indexed":true,"internalType":"bytes32"}],"anonymous":false},{"type":"event","name":"BatchPaymentCreated","inputs":[{"name":"batchId","type":"bytes32","indexed":true,"internalType":"bytes32"},{"name":"merchantId","type":"bytes32","indexed":true,"internalType":"bytes32"},{"name":"numPayments","type":"uint256","indexed":false,"internalType":"uint256"},{"name":"totalAmount","type":"uint256","indexed":false,"internalType":"uint256"}],"anonymous":false},{"type":"event","name":"BatchPaymentFailed","inputs":[{"name":"batchId","type":"bytes32","indexed":true,"internalType":"bytes32"},{"name":"failedIndex","type":"uint256","indexed":false,"internalType":"uint256"}],"anonymous":false},{"type":"event","name":"FeeCollectorUpdated","inputs":[{"name":"newFeeCollector","type":"address","indexed":true,"internalType":"address"}],"anonymous":false},{"type":"event","name":"MerchantRegistered","inputs":[{"name":"merchantId","type":"bytes32","indexed":true,"internalType":"bytes32"},{"name":"merchant","type":"address","indexed":true,"internalType":"address"},{"name":"settlementToken","type":"address","indexed":false,"internalType":"address"},{"name":"feeBps","type":"uint256","indexed":false,"internalType":"uint256"}],"anonymous":false},{"type":"event","name":"MerchantUpdated","inputs":[{"name":"merchantId","type":"bytes32","indexed":true,"internalType":"bytes32"},{"name":"settlementToken","type":"address","indexed":false,"internalType":"address"},{"name":"feeBps","type":"uint256","indexed":false,"internalType":"uint256"},{"name":"isActive","type":"bool","indexed":false,"internalType":"bool"}],"anonymous":false},{"type":"event","name":"MerchantWebhookSet","inputs":[{"name":"merchantId","type":"bytes32","indexed":true,"internalType":"bytes32"},{"name":"webhookUrl","type":"string","indexed":false,"internalType":"string"}],"anonymous":false},{"type":"event","name":"OwnershipTransferred","inputs":[{"name":"previousOwner","type":"address","indexed":true,"internalType":"address"},{"name":"newOwner","type":"address","indexed":true,"internalType":"address"}],"anonymous":false},{"type":"event","name":"PaymentCompleted","inputs":[{"name":"paymentId","type":"bytes32","indexed":true,"internalType":"bytes32"},{"name":"feeAmount","type":"uint256","indexed":false,"internalType":"uint256"},{"name":"netAmount","type":"uint256","indexed":false,"internalType":"uint256"}],"anonymous":false},{"type":"event","name":"PaymentCreated","inputs":[{"name":"paymentId","type":"bytes32","indexed":true,"internalType":"bytes32"},{"name":"merchantId","type":"bytes32","indexed":true,"internalType":"bytes32"},{"name":"payer","type":"address","indexed":true,"internalType":"address"},{"name":"token","type":"address","indexed":false,"internalType":"address"},{"name":"amount","type":"uint256","indexed":false,"internalType":"uint256"}],"anonymous":false},{"type":"event","name":"PaymentDisputed","inputs":[{"name":"paymentId","type":"bytes32","indexed":true,"internalType":"bytes32"},{"name":"disputedBy","type":"address","indexed":false,"internalType":"address"}],"anonymous":false},{"type":"event","name":"PaymentFailed","inputs":[{"name":"paymentId","type":"bytes32","indexed":true,"internalType":"bytes32"},{"name":"reason","type":"string","indexed":false,"internalType":"string"}],"anonymous":false},{"type":"event","name":"PaymentRefunded","inputs":[{"name":"paymentId","type":"bytes32","indexed":true,"internalType":"bytes32"},{"name":"amount","type":"uint256","indexed":false,"internalType":"uint256"}],"anonymous":false},{"type":"event","name":"PaymentResolved","inputs":[{"name":"paymentId","type":"bytes32","indexed":true,"internalType":"bytes32"},{"name":"refundIssued","type":"bool","indexed":false,"internalType":"bool"}],"anonymous":false},{"type":"event","name":"ProtocolFeeUpdated","inputs":[{"name":"newFeeBps","type":"uint256","indexed":false,"internalType":"uint256"}],"anonymous":false},{"type":"event","name":"SubscriptionCancelled","inputs":[{"name":"subscriptionId","type":"bytes32","indexed":true,"internalType":"bytes32"}],"anonymous":false},{"type":"event","name":"SubscriptionCreated","inputs":[{"name":"subscriptionId","type":"bytes32","indexed":true,"internalType":"bytes32"},{"name":"merchantId","type":"bytes32","indexed":true,"internalType":"bytes32"},{"name":"subscriber","type":"address","indexed":true,"internalType":"address"},{"name":"amount","type":"uint256","indexed":false,"internalType":"uint256"},{"name":"interval","type":"uint256","indexed":false,"internalType":"uint256"}],"anonymous":false},{"type":"event","name":"SubscriptionPayment","inputs":[{"name":"subscriptionId","type":"bytes32","indexed":true,"internalType":"bytes32"},{"name":"paymentId","type":"bytes32","indexed":true,"internalType":"bytes32"},{"name":"amount","type":"uint256","indexed":false,"internalType":"uint256"}],"anonymous":false},{"type":"event","name":"TokenAdded","inputs":[{"name":"token","type":"address","indexed":true,"internalType":"address"}],"anonymous":false},{"type":"event","name":"TokenRemoved","inputs":[{"name":"token","type":"address","indexed":true,"internalType":"address"}],"anonymous":false},{"type":"error","name":"OwnableInvalidOwner","inputs":[{"name":"owner","type":"address","internalType":"address"}]},{"type":"error","name":"OwnableUnauthorizedAccount","inputs":[{"name":"account","type":"address","internalType":"address"}]},{"type":"error","name":"ReentrancyGuardReentrantCall","inputs":[]},{"type":"error","name":"SafeERC20FailedOperation","inputs":[{"name":"token","type":"address","internalType":"address"}]}],"bytecode":{"object":"0x60806040525f60025f6101000a81548160ff021916908315150217905550348015610028575f5ffd5b50604051616df7380380616df7833981810160405281019061004a9190610325565b335f73ffffffffffffffffffffffffffffffffffffffff168173ffffffffffffffffffffffffffffffffffffffff16036100bb575f6040517f1e4fbdf70000000000000000000000000000000000000000000000000000000081526004016100b29190610372565b60405180910390fd5b6100ca816101d360201b60201c565b50600180819055505f73ffffffffffffffffffffffffffffffffffffffff168273ffffffffffffffffffffffffffffffffffffffff1603610140576040517f08c379a00000000000000000000000000000000000000000000000000000000081526004016101379061040b565b60405180910390fd5b6103e8811115610185576040517f08c379a000000000000000000000000000000000000000000000000000000000815260040161017c90610473565b60405180910390fd5b81600c5f6101000a81548173ffffffffffffffffffffffffffffffffffffffff021916908373ffffffffffffffffffffffffffffffffffffffff16021790555080600d819055505050610491565b5f5f5f9054906101000a900473ffffffffffffffffffffffffffffffffffffffff169050815f5f6101000a81548173ffffffffffffffffffffffffffffffffffffffff021916908373ffffffffffffffffffffffffffffffffffffffff1602179055508173ffffffffffffffffffffffffffffffffffffffff168173ffffffffffffffffffffffffffffffffffffffff167f8be0079c531659141344cd1fd0a4f28419497f9722a3daafe3b4186f6b6457e060405160405180910390a35050565b5f5ffd5b5f73ffffffffffffffffffffffffffffffffffffffff82169050919050565b5f6102c182610298565b9050919050565b6102d1816102b7565b81146102db575f5ffd5b50565b5f815190506102ec816102c8565b92915050565b5f819050919050565b610304816102f2565b811461030e575f5ffd5b50565b5f8151905061031f816102fb565b92915050565b5f5f6040838503121561033b5761033a610294565b5b5f610348858286016102de565b925050602061035985828601610311565b9150509250929050565b61036c816102b7565b82525050565b5f6020820190506103855f830184610363565b92915050565b5f82825260208201905092915050565b7f5061796d656e7450726f636573736f723a20696e76616c69642066656520636f5f8201527f6c6c6563746f7200000000000000000000000000000000000000000000000000602082015250565b5f6103f560278361038b565b91506104008261039b565b604082019050919050565b5f6020820190508181035f830152610422816103e9565b9050919050565b7f5061796d656e7450726f636573736f723a2066656520746f6f206869676800005f82015250565b5f61045d601e8361038b565b915061046882610429565b602082019050919050565b5f6020820190508181035f83015261048a81610451565b9050919050565b6169598061049e5f395ff3fe608060405234801561000f575f5ffd5b5060043610610271575f3560e01c8063787dce3d1161014f578063c31bb1e5116100c1578063d55be8c611610085578063d55be8c6146107d4578063d6544c69146107f2578063db2ddf4314610823578063de8f8b3f14610853578063e66eefc81461086f578063f2fde38b146108a957610271565b8063c31bb1e514610732578063c415b95c14610762578063ced5fae814610780578063d21f1ffc1461079c578063d48bfca7146107b857610271565b806394259c6c1161011357806394259c6c146106405780639ba6737c146106785780639c4dd6a2146106a8578063a19b8583146106c4578063a42dce80146106f8578063b187bd261461071457610271565b8063787dce3d1461059c57806382dc4a05146105b85780638456cb59146105e85780638cafc358146105f25780638da5cb5b1461062257610271565b806335659fb8116101e857806347ca8a8b116101ac57806347ca8a8b146104eb5780635fa7b58414610507578063619ab9a71461052357806361c1bae71461053f578063715018a61461055b57806377a3f4a11461056557610271565b806335659fb81461045b5780633f4ba83a1461047957806343a0e3e6146104835780634501c46e1461049f578063473970d9146104cf57610271565b80630bd0638b1161023a5780630bd0638b1461035f57806312d912421461038f5780631f922e5f146103bf57806324432c52146103dd5780632f7570061461040d578063338e88a81461042b57610271565b8062b84b7114610275578063033b3cdf146102a95780630716326d146102c557806308832246146102ff5780630aae47fb1461032f575b5f5ffd5b61028f600480360381019061028a91906149a9565b6108c5565b6040516102a0959493929190614ab5565b60405180910390f35b6102c360048036038101906102be9190614b6e565b6109de565b005b6102df60048036038101906102da91906149a9565b610ae3565b6040516102f69b9a99989796959493929190614c4d565b60405180910390f35b61031960048036038101906103149190614d51565b610c09565b6040516103269190614dc8565b60405180910390f35b61034960048036038101906103449190614de1565b610f63565b6040516103569190614e0c565b60405180910390f35b61037960048036038101906103749190614e25565b610f9e565b6040516103869190614dc8565b60405180910390f35b6103a960048036038101906103a491906149a9565b610fc9565b6040516103b69190614dc8565b60405180910390f35b6103c761169a565b6040516103d49190614e63565b60405180910390f35b6103f760048036038101906103f29190614e25565b61169f565b6040516104049190614dc8565b60405180910390f35b6104156116ca565b6040516104229190614f33565b60405180910390f35b610445600480360381019061044091906149a9565b611755565b604051610452919061500a565b60405180910390f35b6104636117bc565b6040516104709190614e63565b60405180910390f35b6104816117c2565b005b61049d60048036038101906104989190615054565b6117e5565b005b6104b960048036038101906104b49190615092565b6119c5565b6040516104c69190614dc8565b60405180910390f35b6104e960048036038101906104e4919061511b565b611f58565b005b610505600480360381019061050091906149a9565b6121d4565b005b610521600480360381019061051c919061517f565b6125fc565b005b61053d60048036038101906105389190614b6e565b612727565b005b610559600480360381019061055491906149a9565b612951565b005b610563612b1b565b005b61057f600480360381019061057a91906149a9565b612b2e565b6040516105939897969594939291906151aa565b60405180910390f35b6105b660048036038101906105b19190614de1565b612b9d565b005b6105d260048036038101906105cd919061517f565b612c2b565b6040516105df9190615226565b60405180910390f35b6105f0612c48565b005b61060c60048036038101906106079190614de1565b612c6c565b6040516106199190614dc8565b60405180910390f35b61062a612c8c565b6040516106379190614e0c565b60405180910390f35b61065a600480360381019061065591906149a9565b612cb3565b60405161066f9998979695949392919061523f565b60405180910390f35b610692600480360381019061068d9190614de1565b612d47565b60405161069f9190614dc8565b60405180910390f35b6106c260048036038101906106bd91906149a9565b612d67565b005b6106de60048036038101906106d991906149a9565b612f7c565b6040516106ef959493929190614ab5565b60405180910390f35b610712600480360381019061070d919061517f565b61307e565b005b61071c61317a565b6040516107299190615226565b60405180910390f35b61074c6004803603810190610747919061517f565b61318c565b604051610759919061500a565b60405180910390f35b61076a61321f565b6040516107779190614e0c565b60405180910390f35b61079a600480360381019061079591906152ca565b613244565b005b6107b660048036038101906107b191906149a9565b613622565b005b6107d260048036038101906107cd919061517f565b61384d565b005b6107dc613a48565b6040516107e99190614e63565b60405180910390f35b61080c6004803603810190610807919061531a565b613a4e565b60405161081a9291906153c4565b60405180910390f35b61083d600480360381019061083891906153eb565b61404c565b60405161084a9190614dc8565b60405180910390f35b61086d600480360381019061086891906149a9565b614077565b005b610889600480360381019061088491906149a9565b614461565b6040516108a09b9a99989796959493929190614c4d565b60405180910390f35b6108c360048036038101906108be919061517f565b6145b0565b005b5f5f5f5f60605f60035f8881526020019081526020015f209050805f015f9054906101000a900473ffffffffffffffffffffffffffffffffffffffff16816001015f9054906101000a900473ffffffffffffffffffffffffffffffffffffffff168260020154836003015f9054906101000a900460ff168460040180805461094c90615456565b80601f016020809104026020016040519081016040528092919081815260200182805461097890615456565b80156109c35780601f1061099a576101008083540402835291602001916109c3565b820191905f5260205f20905b8154815290600101906020018083116109a657829003601f168201915b50505050509050955095509550955095505091939590929450565b823373ffffffffffffffffffffffffffffffffffffffff1660035f8381526020019081526020015f205f015f9054906101000a900473ffffffffffffffffffffffffffffffffffffffff1673ffffffffffffffffffffffffffffffffffffffff1614610a7f576040517f08c379a0000000000000000000000000000000000000000000000000000000008152600401610a76906154d0565b60405180910390fd5b828260035f8781526020019081526020015f206004019182610aa29291906156d6565b50837f4aadc890f2fab66a25df9ae0be43c034f1f0904e68b373c3acd1cc30a869c8b88484604051610ad59291906157dd565b60405180910390a250505050565b6005602052805f5260405f205f91509050805f015490806001015490806002015f9054906101000a900473ffffffffffffffffffffffffffffffffffffffff1690806003015f9054906101000a900473ffffffffffffffffffffffffffffffffffffffff1690806004015490806005015490806006015490806007015f9054906101000a900460ff169080600801549080600901549080600a018054610b8890615456565b80601f0160208091040260200160405190810160405280929190818152602001828054610bb490615456565b8015610bff5780601f10610bd657610100808354040283529160200191610bff565b820191905f5260205f20905b815481529060010190602001808311610be257829003601f168201915b505050505090508b565b5f843373ffffffffffffffffffffffffffffffffffffffff1660035f8381526020019081526020015f205f015f9054906101000a900473ffffffffffffffffffffffffffffffffffffffff1673ffffffffffffffffffffffffffffffffffffffff1614610cab576040517f08c379a0000000000000000000000000000000000000000000000000000000008152600401610ca2906154d0565b60405180910390fd5b60025f9054906101000a900460ff1615610cfa576040517f08c379a0000000000000000000000000000000000000000000000000000000008152600401610cf190615849565b60405180910390fd5b5f5f1b8703610d3e576040517f08c379a0000000000000000000000000000000000000000000000000000000008152600401610d35906158d7565b60405180910390fd5b5f600a5f8981526020019081526020015f206007015414610d94576040517f08c379a0000000000000000000000000000000000000000000000000000000008152600401610d8b9061593f565b60405180910390fd5b6040518061010001604052808881526020018781526020018673ffffffffffffffffffffffffffffffffffffffff1681526020018581526020018481526020015f81526020015f6004811115610ded57610dec614bda565b5b815260200142815250600a5f8981526020019081526020015f205f820151815f0155602082015181600101556040820151816002015f6101000a81548173ffffffffffffffffffffffffffffffffffffffff021916908373ffffffffffffffffffffffffffffffffffffffff160217905550606082015181600301556080820151816004015560a0820151816005015560c0820151816006015f6101000a81548160ff02191690836004811115610ea757610ea6614bda565b5b021790555060e08201518160070155905050600b5f8781526020019081526020015f2087908060018154018082558091505060019003905f5260205f20015f9091909190915055610f1b3330868873ffffffffffffffffffffffffffffffffffffffff16614634909392919063ffffffff16565b85877f688bc52c3c624668dee615828c503851d91c911a1b045f75320ad1a6702159768587604051610f4e9291906153c4565b60405180910390a38691505095945050505050565b600f8181548110610f72575f80fd5b905f5260205f20015f915054906101000a900473ffffffffffffffffffffffffffffffffffffffff1681565b6009602052815f5260405f208181548110610fb7575f80fd5b905f5260205f20015f91509150505481565b5f60025f9054906101000a900460ff1615611019576040517f08c379a000000000000000000000000000000000000000000000000000000000815260040161101090615849565b60405180910390fd5b6110216146b6565b5f60075f8481526020019081526020015f2090505f73ffffffffffffffffffffffffffffffffffffffff16816002015f9054906101000a900473ffffffffffffffffffffffffffffffffffffffff1673ffffffffffffffffffffffffffffffffffffffff16036110c6576040517f08c379a00000000000000000000000000000000000000000000000000000000081526004016110bd906159cd565b60405180910390fd5b806008015f9054906101000a900460ff16611116576040517f08c379a000000000000000000000000000000000000000000000000000000000815260040161110d90615a5b565b60405180910390fd5b806006015442101561115d576040517f08c379a000000000000000000000000000000000000000000000000000000000815260040161115490615ac3565b60405180910390fd5b828160060154604051602001611174929190615b21565b6040516020818303038152906040528051906020012091505f60035f836001015481526020019081526020015f2090505f612710826002015484600401546111bc9190615b79565b6111c69190615be7565b90505f612710600d5485600401546111de9190615b79565b6111e89190615be7565b90505f81836111f79190615c17565b90505f81866004015461120a9190615c4a565b905060405180610160016040528088815260200187600101548152602001876002015f9054906101000a900473ffffffffffffffffffffffffffffffffffffffff1673ffffffffffffffffffffffffffffffffffffffff168152602001876003015f9054906101000a900473ffffffffffffffffffffffffffffffffffffffff1673ffffffffffffffffffffffffffffffffffffffff168152602001876004015481526020018381526020018281526020015f60048111156112cf576112ce614bda565b5b81526020014281526020015f815260200160405180602001604052805f81525081525060055f8981526020019081526020015f205f820151815f0155602082015181600101556040820151816002015f6101000a81548173ffffffffffffffffffffffffffffffffffffffff021916908373ffffffffffffffffffffffffffffffffffffffff1602179055506060820151816003015f6101000a81548173ffffffffffffffffffffffffffffffffffffffff021916908373ffffffffffffffffffffffffffffffffffffffff1602179055506080820151816004015560a0820151816005015560c0820151816006015560e0820151816007015f6101000a81548160ff021916908360048111156113e9576113e8614bda565b5b02179055506101008201518160080155610120820151816009015561014082015181600a01908161141a9190615c7d565b50905050600687908060018154018082558091505060019003905f5260205f20015f90919091909150556114bb866002015f9054906101000a900473ffffffffffffffffffffffffffffffffffffffff16308860040154896003015f9054906101000a900473ffffffffffffffffffffffffffffffffffffffff1673ffffffffffffffffffffffffffffffffffffffff16614634909392919063ffffffff16565b61152b855f015f9054906101000a900473ffffffffffffffffffffffffffffffffffffffff1682886003015f9054906101000a900473ffffffffffffffffffffffffffffffffffffffff1673ffffffffffffffffffffffffffffffffffffffff166146fc9092919063ffffffff16565b5f8211156115a3576115a2600c5f9054906101000a900473ffffffffffffffffffffffffffffffffffffffff1683886003015f9054906101000a900473ffffffffffffffffffffffffffffffffffffffff1673ffffffffffffffffffffffffffffffffffffffff166146fc9092919063ffffffff16565b5b600160055f8981526020019081526020015f206007015f6101000a81548160ff021916908360048111156115da576115d9614bda565b5b02179055504260055f8981526020019081526020015f20600901819055508560050154426116089190615c17565b866006018190555086887f1c8559db603b8e2355c6b53baa38feddff4bbfcb8ba9192f5e40115b0f241ea688600401546040516116459190614e63565b60405180910390a3867f119474a11df7813f0f44509e61f90cc42ba5a570659097dd38afe1119b60b444838360405161167f9291906153c4565b60405180910390a250505050505061169561477b565b919050565b600181565b6004602052815f5260405f2081815481106116b8575f80fd5b905f5260205f20015f91509150505481565b6060600f80548060200260200160405190810160405280929190818152602001828054801561174b57602002820191905f5260205f20905b815f9054906101000a900473ffffffffffffffffffffffffffffffffffffffff1673ffffffffffffffffffffffffffffffffffffffff1681526020019060010190808311611702575b5050505050905090565b6060600b5f8381526020019081526020015f208054806020026020016040519081016040528092919081815260200182805480156117b057602002820191905f5260205f20905b81548152602001906001019080831161179c575b50505050509050919050565b600d5481565b6117ca614784565b5f60025f6101000a81548160ff021916908315150217905550565b6117ed614784565b5f60055f8481526020019081526020015f20905060048081111561181457611813614bda565b5b816007015f9054906101000a900460ff16600481111561183757611836614bda565b5b14611877576040517f08c379a000000000000000000000000000000000000000000000000000000000815260040161186e90615d96565b60405180910390fd5b811561195b5761192a60035f836001015481526020019081526020015f205f015f9054906101000a900473ffffffffffffffffffffffffffffffffffffffff16826002015f9054906101000a900473ffffffffffffffffffffffffffffffffffffffff168360040154846003015f9054906101000a900473ffffffffffffffffffffffffffffffffffffffff1673ffffffffffffffffffffffffffffffffffffffff16614634909392919063ffffffff16565b6003816007015f6101000a81548160ff0219169083600481111561195157611950614bda565b5b0217905550611988565b6001816007015f6101000a81548160ff0219169083600481111561198257611981614bda565b5b02179055505b827f645224003ef59a6d41519b4237a09e81b10b4284d9bb1db2d95086a0f9762317836040516119b89190615226565b60405180910390a2505050565b5f60025f9054906101000a900460ff1615611a15576040517f08c379a0000000000000000000000000000000000000000000000000000000008152600401611a0c90615849565b60405180910390fd5b5f5f1b8703611a59576040517f08c379a0000000000000000000000000000000000000000000000000000000008152600401611a5090615e24565b60405180910390fd5b5f73ffffffffffffffffffffffffffffffffffffffff1660075f8981526020019081526020015f206002015f9054906101000a900473ffffffffffffffffffffffffffffffffffffffff1673ffffffffffffffffffffffffffffffffffffffff1614611afa576040517f08c379a0000000000000000000000000000000000000000000000000000000008152600401611af190615eb2565b60405180910390fd5b5f60035f8881526020019081526020015f2090505f73ffffffffffffffffffffffffffffffffffffffff16815f015f9054906101000a900473ffffffffffffffffffffffffffffffffffffffff1673ffffffffffffffffffffffffffffffffffffffff1603611b9e576040517f08c379a0000000000000000000000000000000000000000000000000000000008152600401611b9590615f40565b60405180910390fd5b806003015f9054906101000a900460ff16611bee576040517f08c379a0000000000000000000000000000000000000000000000000000000008152600401611be590615fce565b60405180910390fd5b600e5f8673ffffffffffffffffffffffffffffffffffffffff1673ffffffffffffffffffffffffffffffffffffffff1681526020019081526020015f205f9054906101000a900460ff16611c77576040517f08c379a0000000000000000000000000000000000000000000000000000000008152600401611c6e9061605c565b60405180910390fd5b6001841015611cbb576040517f08c379a0000000000000000000000000000000000000000000000000000000008152600401611cb2906160c4565b60405180910390fd5b5f8311611cfd576040517f08c379a0000000000000000000000000000000000000000000000000000000008152600401611cf490616152565b60405180910390fd5b6040518061012001604052808981526020018881526020018773ffffffffffffffffffffffffffffffffffffffff1681526020018673ffffffffffffffffffffffffffffffffffffffff1681526020018581526020018481526020018442611d659190615c17565b81526020014281526020016001151581525060075f8a81526020019081526020015f205f820151815f0155602082015181600101556040820151816002015f6101000a81548173ffffffffffffffffffffffffffffffffffffffff021916908373ffffffffffffffffffffffffffffffffffffffff1602179055506060820151816003015f6101000a81548173ffffffffffffffffffffffffffffffffffffffff021916908373ffffffffffffffffffffffffffffffffffffffff1602179055506080820151816004015560a0820151816005015560c0820151816006015560e08201518160070155610100820151816008015f6101000a81548160ff021916908315150217905550905050600888908060018154018082558091505060019003905f5260205f20015f909190919091505560095f8773ffffffffffffffffffffffffffffffffffffffff1673ffffffffffffffffffffffffffffffffffffffff1681526020019081526020015f2088908060018154018082558091505060019003905f5260205f20015f90919091909150558573ffffffffffffffffffffffffffffffffffffffff1687897f6e1d7ff30c7810aa460a5f938b4a2ec6a3bbed0528565b4917f36aeec5952c0d8787604051611f429291906153c4565b60405180910390a4879150509695505050505050565b833373ffffffffffffffffffffffffffffffffffffffff1660035f8381526020019081526020015f205f015f9054906101000a900473ffffffffffffffffffffffffffffffffffffffff1673ffffffffffffffffffffffffffffffffffffffff1614611ff9576040517f08c379a0000000000000000000000000000000000000000000000000000000008152600401611ff0906154d0565b60405180910390fd5b60025f9054906101000a900460ff1615612048576040517f08c379a000000000000000000000000000000000000000000000000000000000815260040161203f90615849565b60405180910390fd5b5f73ffffffffffffffffffffffffffffffffffffffff168473ffffffffffffffffffffffffffffffffffffffff16036120b6576040517f08c379a00000000000000000000000000000000000000000000000000000000081526004016120ad906161ba565b60405180910390fd5b6103e88311156120fb576040517f08c379a00000000000000000000000000000000000000000000000000000000081526004016120f290616222565b60405180910390fd5b8360035f8781526020019081526020015f206001015f6101000a81548173ffffffffffffffffffffffffffffffffffffffff021916908373ffffffffffffffffffffffffffffffffffffffff1602179055508260035f8781526020019081526020015f20600201819055508160035f8781526020019081526020015f206003015f6101000a81548160ff021916908315150217905550847fc0cba5ecdeba0a694b3825f4d00e997e4520130b4335373c83d3b434c2ff8be98585856040516121c593929190616240565b60405180910390a25050505050565b60025f9054906101000a900460ff1615612223576040517f08c379a000000000000000000000000000000000000000000000000000000000815260040161221a90615849565b60405180910390fd5b61222b6146b6565b5f60055f8381526020019081526020015f2090505f73ffffffffffffffffffffffffffffffffffffffff16816002015f9054906101000a900473ffffffffffffffffffffffffffffffffffffffff1673ffffffffffffffffffffffffffffffffffffffff16036122d0576040517f08c379a00000000000000000000000000000000000000000000000000000000081526004016122c7906162e5565b60405180910390fd5b5f60048111156122e3576122e2614bda565b5b816007015f9054906101000a900460ff16600481111561230657612305614bda565b5b14612346576040517f08c379a000000000000000000000000000000000000000000000000000000000815260040161233d9061634d565b60405180910390fd5b5f60035f836001015481526020019081526020015f209050816002015f9054906101000a900473ffffffffffffffffffffffffffffffffffffffff1673ffffffffffffffffffffffffffffffffffffffff163373ffffffffffffffffffffffffffffffffffffffff1614806124085750805f015f9054906101000a900473ffffffffffffffffffffffffffffffffffffffff1673ffffffffffffffffffffffffffffffffffffffff163373ffffffffffffffffffffffffffffffffffffffff16145b806124455750612416612c8c565b73ffffffffffffffffffffffffffffffffffffffff163373ffffffffffffffffffffffffffffffffffffffff16145b612484576040517f08c379a000000000000000000000000000000000000000000000000000000000815260040161247b906163b5565b60405180910390fd5b6124f8815f015f9054906101000a900473ffffffffffffffffffffffffffffffffffffffff168360060154846003015f9054906101000a900473ffffffffffffffffffffffffffffffffffffffff1673ffffffffffffffffffffffffffffffffffffffff166146fc9092919063ffffffff16565b5f8260050154111561257857612577600c5f9054906101000a900473ffffffffffffffffffffffffffffffffffffffff168360050154846003015f9054906101000a900473ffffffffffffffffffffffffffffffffffffffff1673ffffffffffffffffffffffffffffffffffffffff166146fc9092919063ffffffff16565b5b6001826007015f6101000a81548160ff0219169083600481111561259f5761259e614bda565b5b0217905550428260090181905550827f119474a11df7813f0f44509e61f90cc42ba5a570659097dd38afe1119b60b444836005015484600601546040516125e79291906153c4565b60405180910390a250506125f961477b565b50565b612604614784565b600e5f8273ffffffffffffffffffffffffffffffffffffffff1673ffffffffffffffffffffffffffffffffffffffff1681526020019081526020015f205f9054906101000a900460ff1661268d576040517f08c379a00000000000000000000000000000000000000000000000000000000081526004016126849061605c565b60405180910390fd5b5f600e5f8373ffffffffffffffffffffffffffffffffffffffff1673ffffffffffffffffffffffffffffffffffffffff1681526020019081526020015f205f6101000a81548160ff0219169083151502179055508073ffffffffffffffffffffffffffffffffffffffff167f4c910b69fe65a61f7531b9c5042b2329ca7179c77290aa7e2eb3afa3c8511fd360405160405180910390a250565b60055f8481526020019081526020015f20600101543373ffffffffffffffffffffffffffffffffffffffff1660035f8381526020019081526020015f205f015f9054906101000a900473ffffffffffffffffffffffffffffffffffffffff1673ffffffffffffffffffffffffffffffffffffffff16146127dc576040517f08c379a00000000000000000000000000000000000000000000000000000000081526004016127d3906154d0565b60405180910390fd5b5f60055f8681526020019081526020015f2090505f600481111561280357612802614bda565b5b816007015f9054906101000a900460ff16600481111561282657612825614bda565b5b14612866576040517f08c379a000000000000000000000000000000000000000000000000000000000815260040161285d9061634d565b60405180910390fd5b6002816007015f6101000a81548160ff0219169083600481111561288d5761288c614bda565b5b0217905550428160090181905550612910816002015f9054906101000a900473ffffffffffffffffffffffffffffffffffffffff168260040154836003015f9054906101000a900473ffffffffffffffffffffffffffffffffffffffff1673ffffffffffffffffffffffffffffffffffffffff166146fc9092919063ffffffff16565b847fa5dbb3c1a0284032c9304b92018a5ffa68ae5977aceb1728bd12082986e014b985856040516129429291906157dd565b60405180910390a25050505050565b6129596146b6565b5f600a5f8381526020019081526020015f2090505f8160070154116129b3576040517f08c379a00000000000000000000000000000000000000000000000000000000081526004016129aa90616443565b60405180910390fd5b5f60048111156129c6576129c5614bda565b5b816006015f9054906101000a900460ff1660048111156129e9576129e8614bda565b5b14612a29576040517f08c379a0000000000000000000000000000000000000000000000000000000008152600401612a209061634d565b60405180910390fd5b5f60035f836001015481526020019081526020015f209050612ab5815f015f9054906101000a900473ffffffffffffffffffffffffffffffffffffffff168360030154846002015f9054906101000a900473ffffffffffffffffffffffffffffffffffffffff1673ffffffffffffffffffffffffffffffffffffffff166146fc9092919063ffffffff16565b6001826006015f6101000a81548160ff02191690836004811115612adc57612adb614bda565b5b0217905550827f70501c206a2b851efbf9210dcd30f1c89324deebce6a278c57f0cf3c2f4b1fe860405160405180910390a25050612b1861477b565b50565b612b23614784565b612b2c5f61480b565b565b600a602052805f5260405f205f91509050805f015490806001015490806002015f9054906101000a900473ffffffffffffffffffffffffffffffffffffffff1690806003015490806004015490806005015490806006015f9054906101000a900460ff16908060070154905088565b612ba5614784565b6103e8811115612bea576040517f08c379a0000000000000000000000000000000000000000000000000000000008152600401612be190616222565b60405180910390fd5b80600d819055507fd10d75876659a287a59a6ccfa2e3fff42f84d94b542837acd30bc184d562de4081604051612c209190614e63565b60405180910390a150565b600e602052805f5260405f205f915054906101000a900460ff1681565b612c50614784565b600160025f6101000a81548160ff021916908315150217905550565b60088181548110612c7b575f80fd5b905f5260205f20015f915090505481565b5f5f5f9054906101000a900473ffffffffffffffffffffffffffffffffffffffff16905090565b6007602052805f5260405f205f91509050805f015490806001015490806002015f9054906101000a900473ffffffffffffffffffffffffffffffffffffffff1690806003015f9054906101000a900473ffffffffffffffffffffffffffffffffffffffff1690806004015490806005015490806006015490806007015490806008015f9054906101000a900460ff16905089565b60068181548110612d56575f80fd5b905f5260205f20015f915090505481565b5f60055f8381526020019081526020015f2090505f73ffffffffffffffffffffffffffffffffffffffff16816002015f9054906101000a900473ffffffffffffffffffffffffffffffffffffffff1673ffffffffffffffffffffffffffffffffffffffff1603612e0c576040517f08c379a0000000000000000000000000000000000000000000000000000000008152600401612e03906162e5565b60405180910390fd5b60016004811115612e2057612e1f614bda565b5b816007015f9054906101000a900460ff166004811115612e4357612e42614bda565b5b14612e83576040517f08c379a0000000000000000000000000000000000000000000000000000000008152600401612e7a906164ab565b60405180910390fd5b806002015f9054906101000a900473ffffffffffffffffffffffffffffffffffffffff1673ffffffffffffffffffffffffffffffffffffffff163373ffffffffffffffffffffffffffffffffffffffff1614612f14576040517f08c379a0000000000000000000000000000000000000000000000000000000008152600401612f0b90616513565b60405180910390fd5b6004816007015f6101000a81548160ff02191690836004811115612f3b57612f3a614bda565b5b0217905550817fe9c93bf68a3bf1de9ce6f0a4f79a73188cc2139c1a15723ae8740cd848ff79c333604051612f709190614e0c565b60405180910390a25050565b6003602052805f5260405f205f91509050805f015f9054906101000a900473ffffffffffffffffffffffffffffffffffffffff1690806001015f9054906101000a900473ffffffffffffffffffffffffffffffffffffffff1690806002015490806003015f9054906101000a900460ff1690806004018054612ffd90615456565b80601f016020809104026020016040519081016040528092919081815260200182805461302990615456565b80156130745780601f1061304b57610100808354040283529160200191613074565b820191905f5260205f20905b81548152906001019060200180831161305757829003601f168201915b5050505050905085565b613086614784565b5f73ffffffffffffffffffffffffffffffffffffffff168173ffffffffffffffffffffffffffffffffffffffff16036130f4576040517f08c379a00000000000000000000000000000000000000000000000000000000081526004016130eb906165a1565b60405180910390fd5b80600c5f6101000a81548173ffffffffffffffffffffffffffffffffffffffff021916908373ffffffffffffffffffffffffffffffffffffffff1602179055508073ffffffffffffffffffffffffffffffffffffffff167fe5693914d19c789bdee50a362998c0bc8d035a835f9871da5d51152f0582c34f60405160405180910390a250565b60025f9054906101000a900460ff1681565b606060095f8373ffffffffffffffffffffffffffffffffffffffff1673ffffffffffffffffffffffffffffffffffffffff1681526020019081526020015f2080548060200260200160405190810160405280929190818152602001828054801561321357602002820191905f5260205f20905b8154815260200190600101908083116131ff575b50505050509050919050565b600c5f9054906101000a900473ffffffffffffffffffffffffffffffffffffffff1681565b60025f9054906101000a900460ff1615613293576040517f08c379a000000000000000000000000000000000000000000000000000000000815260040161328a90615849565b60405180910390fd5b5f5f1b83036132d7576040517f08c379a00000000000000000000000000000000000000000000000000000000081526004016132ce9061662f565b60405180910390fd5b5f73ffffffffffffffffffffffffffffffffffffffff1660035f8581526020019081526020015f205f015f9054906101000a900473ffffffffffffffffffffffffffffffffffffffff1673ffffffffffffffffffffffffffffffffffffffff1614613377576040517f08c379a000000000000000000000000000000000000000000000000000000000815260040161336e906166bd565b60405180910390fd5b5f73ffffffffffffffffffffffffffffffffffffffff168273ffffffffffffffffffffffffffffffffffffffff16036133e5576040517f08c379a00000000000000000000000000000000000000000000000000000000081526004016133dc906161ba565b60405180910390fd5b6103e881111561342a576040517f08c379a000000000000000000000000000000000000000000000000000000000815260040161342190616222565b60405180910390fd5b6040518060a001604052803373ffffffffffffffffffffffffffffffffffffffff1681526020018373ffffffffffffffffffffffffffffffffffffffff16815260200182815260200160011515815260200160405180602001604052805f81525081525060035f8581526020019081526020015f205f820151815f015f6101000a81548173ffffffffffffffffffffffffffffffffffffffff021916908373ffffffffffffffffffffffffffffffffffffffff1602179055506020820151816001015f6101000a81548173ffffffffffffffffffffffffffffffffffffffff021916908373ffffffffffffffffffffffffffffffffffffffff160217905550604082015181600201556060820151816003015f6101000a81548160ff02191690831515021790555060808201518160040190816135679190615c7d565b5090505060045f3373ffffffffffffffffffffffffffffffffffffffff1673ffffffffffffffffffffffffffffffffffffffff1681526020019081526020015f2083908060018154018082558091505060019003905f5260205f20015f90919091909150553373ffffffffffffffffffffffffffffffffffffffff16837f0823c39a908625e62f27d48c384662b83f5f4c0c0950199abd11256e833289d584846040516136159291906166db565b60405180910390a3505050565b5f60075f8381526020019081526020015f2090505f73ffffffffffffffffffffffffffffffffffffffff16816002015f9054906101000a900473ffffffffffffffffffffffffffffffffffffffff1673ffffffffffffffffffffffffffffffffffffffff16036136c7576040517f08c379a00000000000000000000000000000000000000000000000000000000081526004016136be906159cd565b60405180910390fd5b806002015f9054906101000a900473ffffffffffffffffffffffffffffffffffffffff1673ffffffffffffffffffffffffffffffffffffffff163373ffffffffffffffffffffffffffffffffffffffff161480613785575060035f826001015481526020019081526020015f205f015f9054906101000a900473ffffffffffffffffffffffffffffffffffffffff1673ffffffffffffffffffffffffffffffffffffffff163373ffffffffffffffffffffffffffffffffffffffff16145b806137c25750613793612c8c565b73ffffffffffffffffffffffffffffffffffffffff163373ffffffffffffffffffffffffffffffffffffffff16145b613801576040517f08c379a00000000000000000000000000000000000000000000000000000000081526004016137f8906163b5565b60405180910390fd5b5f816008015f6101000a81548160ff021916908315150217905550817fcef6ecfd66d42c68c27def452dfeb1195cab6999685acd9ae7c30b11b51c587a60405160405180910390a25050565b613855614784565b5f73ffffffffffffffffffffffffffffffffffffffff168173ffffffffffffffffffffffffffffffffffffffff16036138c3576040517f08c379a00000000000000000000000000000000000000000000000000000000081526004016138ba906161ba565b60405180910390fd5b600e5f8273ffffffffffffffffffffffffffffffffffffffff1673ffffffffffffffffffffffffffffffffffffffff1681526020019081526020015f205f9054906101000a900460ff161561394d576040517f08c379a000000000000000000000000000000000000000000000000000000000815260040161394490616772565b60405180910390fd5b6001600e5f8373ffffffffffffffffffffffffffffffffffffffff1673ffffffffffffffffffffffffffffffffffffffff1681526020019081526020015f205f6101000a81548160ff021916908315150217905550600f81908060018154018082558091505060019003905f5260205f20015f9091909190916101000a81548173ffffffffffffffffffffffffffffffffffffffff021916908373ffffffffffffffffffffffffffffffffffffffff1602179055508073ffffffffffffffffffffffffffffffffffffffff167f784c8f4dbf0ffedd6e72c76501c545a70f8b203b30a26ce542bf92ba87c248a460405160405180910390a250565b6103e881565b5f5f60025f9054906101000a900460ff1615613a9f576040517f08c379a0000000000000000000000000000000000000000000000000000000008152600401613a9690615849565b60405180910390fd5b5f5f1b8903613ae3576040517f08c379a0000000000000000000000000000000000000000000000000000000008152600401613ada90616800565b60405180910390fd5b5f73ffffffffffffffffffffffffffffffffffffffff1660055f8b81526020019081526020015f206002015f9054906101000a900473ffffffffffffffffffffffffffffffffffffffff1673ffffffffffffffffffffffffffffffffffffffff1614613b84576040517f08c379a0000000000000000000000000000000000000000000000000000000008152600401613b7b90616868565b60405180910390fd5b5f60035f8a81526020019081526020015f2090505f73ffffffffffffffffffffffffffffffffffffffff16815f015f9054906101000a900473ffffffffffffffffffffffffffffffffffffffff1673ffffffffffffffffffffffffffffffffffffffff1603613c28576040517f08c379a0000000000000000000000000000000000000000000000000000000008152600401613c1f90615f40565b60405180910390fd5b806003015f9054906101000a900460ff16613c78576040517f08c379a0000000000000000000000000000000000000000000000000000000008152600401613c6f90615fce565b60405180910390fd5b600e5f8873ffffffffffffffffffffffffffffffffffffffff1673ffffffffffffffffffffffffffffffffffffffff1681526020019081526020015f205f9054906101000a900460ff16613d01576040517f08c379a0000000000000000000000000000000000000000000000000000000008152600401613cf89061605c565b60405180910390fd5b6001861015613d45576040517f08c379a0000000000000000000000000000000000000000000000000000000008152600401613d3c906160c4565b60405180910390fd5b5f612710826002015488613d599190615b79565b613d639190615be7565b90505f612710600d5489613d779190615b79565b613d819190615be7565b90508082613d8f9190615c17565b94508488613d9d9190615c4a565b93506040518061016001604052808d81526020018c81526020018b73ffffffffffffffffffffffffffffffffffffffff1681526020018a73ffffffffffffffffffffffffffffffffffffffff1681526020018981526020018681526020018581526020015f6004811115613e1457613e13614bda565b5b81526020014281526020015f815260200188888080601f0160208091040260200160405190810160405280939291908181526020018383808284375f81840152601f19601f8201169050808301925050505050505081525060055f8e81526020019081526020015f205f820151815f0155602082015181600101556040820151816002015f6101000a81548173ffffffffffffffffffffffffffffffffffffffff021916908373ffffffffffffffffffffffffffffffffffffffff1602179055506060820151816003015f6101000a81548173ffffffffffffffffffffffffffffffffffffffff021916908373ffffffffffffffffffffffffffffffffffffffff1602179055506080820151816004015560a0820151816005015560c0820151816006015560e0820151816007015f6101000a81548160ff02191690836004811115613f6357613f62614bda565b5b02179055506101008201518160080155610120820151816009015561014082015181600a019081613f949190615c7d565b5090505060068c908060018154018082558091505060019003905f5260205f20015f9091909190915055613feb8a308a8c73ffffffffffffffffffffffffffffffffffffffff16614634909392919063ffffffff16565b8973ffffffffffffffffffffffffffffffffffffffff168b8d7f47967f3a66316d6a6f756f3355b97775d271b39584bffa8036707828aa02252c8c8c6040516140359291906166db565b60405180910390a450505097509795505050505050565b600b602052815f5260405f208181548110614065575f80fd5b905f5260205f20015f91509150505481565b5f60055f8381526020019081526020015f2090505f73ffffffffffffffffffffffffffffffffffffffff16816002015f9054906101000a900473ffffffffffffffffffffffffffffffffffffffff1673ffffffffffffffffffffffffffffffffffffffff160361411c576040517f08c379a0000000000000000000000000000000000000000000000000000000008152600401614113906162e5565b60405180910390fd5b806002015f9054906101000a900473ffffffffffffffffffffffffffffffffffffffff1673ffffffffffffffffffffffffffffffffffffffff163373ffffffffffffffffffffffffffffffffffffffff1614806141da575060035f826001015481526020019081526020015f205f015f9054906101000a900473ffffffffffffffffffffffffffffffffffffffff1673ffffffffffffffffffffffffffffffffffffffff163373ffffffffffffffffffffffffffffffffffffffff16145b8061421757506141e8612c8c565b73ffffffffffffffffffffffffffffffffffffffff163373ffffffffffffffffffffffffffffffffffffffff16145b614256576040517f08c379a000000000000000000000000000000000000000000000000000000000815260040161424d906163b5565b60405180910390fd5b6001600481111561426a57614269614bda565b5b816007015f9054906101000a900460ff16600481111561428d5761428c614bda565b5b14806142cc57506004808111156142a7576142a6614bda565b5b816007015f9054906101000a900460ff1660048111156142ca576142c9614bda565b5b145b61430b576040517f08c379a0000000000000000000000000000000000000000000000000000000008152600401614302906168d0565b60405180910390fd5b6001600481111561431f5761431e614bda565b5b816007015f9054906101000a900460ff16600481111561434257614341614bda565b5b036143f5576143f460035f836001015481526020019081526020015f205f015f9054906101000a900473ffffffffffffffffffffffffffffffffffffffff16826002015f9054906101000a900473ffffffffffffffffffffffffffffffffffffffff168360040154846003015f9054906101000a900473ffffffffffffffffffffffffffffffffffffffff1673ffffffffffffffffffffffffffffffffffffffff16614634909392919063ffffffff16565b5b6003816007015f6101000a81548160ff0219169083600481111561441c5761441b614bda565b5b0217905550817f7a1dd09597e0454bccf83a57e47d6ce29d4f89f3dd01f54d4bcf1768b172865482600401546040516144559190614e63565b60405180910390a25050565b5f5f5f5f5f5f5f5f5f5f60605f60055f8e81526020019081526020015f209050805f01548160010154826002015f9054906101000a900473ffffffffffffffffffffffffffffffffffffffff16836003015f9054906101000a900473ffffffffffffffffffffffffffffffffffffffff16846004015485600501548660060154876007015f9054906101000a900460ff16886008015489600901548a600a0180805461450c90615456565b80601f016020809104026020016040519081016040528092919081815260200182805461453890615456565b80156145835780601f1061455a57610100808354040283529160200191614583565b820191905f5260205f20905b81548152906001019060200180831161456657829003601f168201915b505050505090509b509b509b509b509b509b509b509b509b509b509b505091939597999b90929496989a50565b6145b8614784565b5f73ffffffffffffffffffffffffffffffffffffffff168173ffffffffffffffffffffffffffffffffffffffff1603614628575f6040517f1e4fbdf700000000000000000000000000000000000000000000000000000000815260040161461f9190614e0c565b60405180910390fd5b6146318161480b565b50565b6146b0848573ffffffffffffffffffffffffffffffffffffffff166323b872dd868686604051602401614669939291906168ee565b604051602081830303815290604052915060e01b6020820180517bffffffffffffffffffffffffffffffffffffffffffffffffffffffff83818316178352505050506148cc565b50505050565b6002600154036146f2576040517f3ee5aeb500000000000000000000000000000000000000000000000000000000815260040160405180910390fd5b6002600181905550565b614776838473ffffffffffffffffffffffffffffffffffffffff1663a9059cbb858560405160240161472f9291906166db565b604051602081830303815290604052915060e01b6020820180517bffffffffffffffffffffffffffffffffffffffffffffffffffffffff83818316178352505050506148cc565b505050565b60018081905550565b61478c614967565b73ffffffffffffffffffffffffffffffffffffffff166147aa612c8c565b73ffffffffffffffffffffffffffffffffffffffff1614614809576147cd614967565b6040517f118cdaa70000000000000000000000000000000000000000000000000000000081526004016148009190614e0c565b60405180910390fd5b565b5f5f5f9054906101000a900473ffffffffffffffffffffffffffffffffffffffff169050815f5f6101000a81548173ffffffffffffffffffffffffffffffffffffffff021916908373ffffffffffffffffffffffffffffffffffffffff1602179055508173ffffffffffffffffffffffffffffffffffffffff168173ffffffffffffffffffffffffffffffffffffffff167f8be0079c531659141344cd1fd0a4f28419497f9722a3daafe3b4186f6b6457e060405160405180910390a35050565b5f5f60205f8451602086015f885af1806148eb576040513d5f823e3d81fd5b3d92505f519150505f821461490457600181141561491f565b5f8473ffffffffffffffffffffffffffffffffffffffff163b145b1561496157836040517f5274afe70000000000000000000000000000000000000000000000000000000081526004016149589190614e0c565b60405180910390fd5b50505050565b5f33905090565b5f5ffd5b5f5ffd5b5f819050919050565b61498881614976565b8114614992575f5ffd5b50565b5f813590506149a38161497f565b92915050565b5f602082840312156149be576149bd61496e565b5b5f6149cb84828501614995565b91505092915050565b5f73ffffffffffffffffffffffffffffffffffffffff82169050919050565b5f6149fd826149d4565b9050919050565b614a0d816149f3565b82525050565b5f819050919050565b614a2581614a13565b82525050565b5f8115159050919050565b614a3f81614a2b565b82525050565b5f81519050919050565b5f82825260208201905092915050565b8281835e5f83830152505050565b5f601f19601f8301169050919050565b5f614a8782614a45565b614a918185614a4f565b9350614aa1818560208601614a5f565b614aaa81614a6d565b840191505092915050565b5f60a082019050614ac85f830188614a04565b614ad56020830187614a04565b614ae26040830186614a1c565b614aef6060830185614a36565b8181036080830152614b018184614a7d565b90509695505050505050565b5f5ffd5b5f5ffd5b5f5ffd5b5f5f83601f840112614b2e57614b2d614b0d565b5b8235905067ffffffffffffffff811115614b4b57614b4a614b11565b5b602083019150836001820283011115614b6757614b66614b15565b5b9250929050565b5f5f5f60408486031215614b8557614b8461496e565b5b5f614b9286828701614995565b935050602084013567ffffffffffffffff811115614bb357614bb2614972565b5b614bbf86828701614b19565b92509250509250925092565b614bd481614976565b82525050565b7f4e487b71000000000000000000000000000000000000000000000000000000005f52602160045260245ffd5b60058110614c1857614c17614bda565b5b50565b5f819050614c2882614c07565b919050565b5f614c3782614c1b565b9050919050565b614c4781614c2d565b82525050565b5f61016082019050614c615f83018e614bcb565b614c6e602083018d614bcb565b614c7b604083018c614a04565b614c88606083018b614a04565b614c95608083018a614a1c565b614ca260a0830189614a1c565b614caf60c0830188614a1c565b614cbc60e0830187614c3e565b614cca610100830186614a1c565b614cd8610120830185614a1c565b818103610140830152614ceb8184614a7d565b90509c9b505050505050505050505050565b614d06816149f3565b8114614d10575f5ffd5b50565b5f81359050614d2181614cfd565b92915050565b614d3081614a13565b8114614d3a575f5ffd5b50565b5f81359050614d4b81614d27565b92915050565b5f5f5f5f5f60a08688031215614d6a57614d6961496e565b5b5f614d7788828901614995565b9550506020614d8888828901614995565b9450506040614d9988828901614d13565b9350506060614daa88828901614d3d565b9250506080614dbb88828901614d3d565b9150509295509295909350565b5f602082019050614ddb5f830184614bcb565b92915050565b5f60208284031215614df657614df561496e565b5b5f614e0384828501614d3d565b91505092915050565b5f602082019050614e1f5f830184614a04565b92915050565b5f5f60408385031215614e3b57614e3a61496e565b5b5f614e4885828601614d13565b9250506020614e5985828601614d3d565b9150509250929050565b5f602082019050614e765f830184614a1c565b92915050565b5f81519050919050565b5f82825260208201905092915050565b5f819050602082019050919050565b614eae816149f3565b82525050565b5f614ebf8383614ea5565b60208301905092915050565b5f602082019050919050565b5f614ee182614e7c565b614eeb8185614e86565b9350614ef683614e96565b805f5b83811015614f26578151614f0d8882614eb4565b9750614f1883614ecb565b925050600181019050614ef9565b5085935050505092915050565b5f6020820190508181035f830152614f4b8184614ed7565b905092915050565b5f81519050919050565b5f82825260208201905092915050565b5f819050602082019050919050565b614f8581614976565b82525050565b5f614f968383614f7c565b60208301905092915050565b5f602082019050919050565b5f614fb882614f53565b614fc28185614f5d565b9350614fcd83614f6d565b805f5b83811015614ffd578151614fe48882614f8b565b9750614fef83614fa2565b925050600181019050614fd0565b5085935050505092915050565b5f6020820190508181035f8301526150228184614fae565b905092915050565b61503381614a2b565b811461503d575f5ffd5b50565b5f8135905061504e8161502a565b92915050565b5f5f6040838503121561506a5761506961496e565b5b5f61507785828601614995565b925050602061508885828601615040565b9150509250929050565b5f5f5f5f5f5f60c087890312156150ac576150ab61496e565b5b5f6150b989828a01614995565b96505060206150ca89828a01614995565b95505060406150db89828a01614d13565b94505060606150ec89828a01614d13565b93505060806150fd89828a01614d3d565b92505060a061510e89828a01614d3d565b9150509295509295509295565b5f5f5f5f608085870312156151335761513261496e565b5b5f61514087828801614995565b945050602061515187828801614d13565b935050604061516287828801614d3d565b925050606061517387828801615040565b91505092959194509250565b5f602082840312156151945761519361496e565b5b5f6151a184828501614d13565b91505092915050565b5f610100820190506151be5f83018b614bcb565b6151cb602083018a614bcb565b6151d86040830189614a04565b6151e56060830188614a1c565b6151f26080830187614a1c565b6151ff60a0830186614a1c565b61520c60c0830185614c3e565b61521960e0830184614a1c565b9998505050505050505050565b5f6020820190506152395f830184614a36565b92915050565b5f610120820190506152535f83018c614bcb565b615260602083018b614bcb565b61526d604083018a614a04565b61527a6060830189614a04565b6152876080830188614a1c565b61529460a0830187614a1c565b6152a160c0830186614a1c565b6152ae60e0830185614a1c565b6152bc610100830184614a36565b9a9950505050505050505050565b5f5f5f606084860312156152e1576152e061496e565b5b5f6152ee86828701614995565b93505060206152ff86828701614d13565b925050604061531086828701614d3d565b9150509250925092565b5f5f5f5f5f5f5f60c0888a0312156153355761533461496e565b5b5f6153428a828b01614995565b97505060206153538a828b01614995565b96505060406153648a828b01614d13565b95505060606153758a828b01614d13565b94505060806153868a828b01614d3d565b93505060a088013567ffffffffffffffff8111156153a7576153a6614972565b5b6153b38a828b01614b19565b925092505092959891949750929550565b5f6040820190506153d75f830185614a1c565b6153e46020830184614a1c565b9392505050565b5f5f604083850312156154015761540061496e565b5b5f61540e85828601614995565b925050602061541f85828601614d3d565b9150509250929050565b7f4e487b71000000000000000000000000000000000000000000000000000000005f52602260045260245ffd5b5f600282049050600182168061546d57607f821691505b6020821081036154805761547f615429565b5b50919050565b7f5061796d656e7450726f636573736f723a206e6f74206d65726368616e7400005f82015250565b5f6154ba601e83614a4f565b91506154c582615486565b602082019050919050565b5f6020820190508181035f8301526154e7816154ae565b9050919050565b5f82905092915050565b7f4e487b71000000000000000000000000000000000000000000000000000000005f52604160045260245ffd5b5f819050815f5260205f209050919050565b5f6020601f8301049050919050565b5f82821b905092915050565b5f600883026155817fffffffffffffffffffffffffffffffffffffffffffffffffffffffffffffffff82615546565b61558b8683615546565b95508019841693508086168417925050509392505050565b5f819050919050565b5f6155c66155c16155bc84614a13565b6155a3565b614a13565b9050919050565b5f819050919050565b6155df836155ac565b6155f36155eb826155cd565b848454615552565b825550505050565b5f5f905090565b61560a6155fb565b6156158184846155d6565b505050565b5f5b8281101561563b576156305f828401615602565b60018101905061561c565b505050565b601f82111561568e578282111561568d5761565a81615525565b61566383615537565b61566c85615537565b6020861015615679575f90505b8083016156888284038261561a565b505050505b5b505050565b5f82821c905092915050565b5f6156ae5f1984600802615693565b1980831691505092915050565b5f6156c6838361569f565b9150826002028217905092915050565b6156e083836154ee565b67ffffffffffffffff8111156156f9576156f86154f8565b5b6157038254615456565b61570e828285615640565b5f601f83116001811461573b575f8415615729578287013590505b61573385826156bb565b86555061579a565b601f19841661574986615525565b5f5b828110156157705784890135825560018201915060208501945060208101905061574b565b8683101561578d5784890135615789601f89168261569f565b8355505b6001600288020188555050505b50505050505050565b828183375f83830152505050565b5f6157bc8385614a4f565b93506157c98385846157a3565b6157d283614a6d565b840190509392505050565b5f6020820190508181035f8301526157f68184866157b1565b90509392505050565b7f5061796d656e7450726f636573736f723a2070617573656400000000000000005f82015250565b5f615833601883614a4f565b915061583e826157ff565b602082019050919050565b5f6020820190508181035f83015261586081615827565b9050919050565b7f5061796d656e7450726f636573736f723a20696e76616c6964206261746368205f8201527f4944000000000000000000000000000000000000000000000000000000000000602082015250565b5f6158c1602283614a4f565b91506158cc82615867565b604082019050919050565b5f6020820190508181035f8301526158ee816158b5565b9050919050565b7f5061796d656e7450726f636573736f723a2062617463682065786973747300005f82015250565b5f615929601e83614a4f565b9150615934826158f5565b602082019050919050565b5f6020820190508181035f8301526159568161591d565b9050919050565b7f5061796d656e7450726f636573736f723a20737562736372697074696f6e206e5f8201527f6f7420666f756e64000000000000000000000000000000000000000000000000602082015250565b5f6159b7602883614a4f565b91506159c28261595d565b604082019050919050565b5f6020820190508181035f8301526159e4816159ab565b9050919050565b7f5061796d656e7450726f636573736f723a20737562736372697074696f6e206e5f8201527f6f74206163746976650000000000000000000000000000000000000000000000602082015250565b5f615a45602983614a4f565b9150615a50826159eb565b604082019050919050565b5f6020820190508181035f830152615a7281615a39565b9050919050565b7f5061796d656e7450726f636573736f723a206e6f742074696d652079657400005f82015250565b5f615aad601e83614a4f565b9150615ab882615a79565b602082019050919050565b5f6020820190508181035f830152615ada81615aa1565b9050919050565b5f819050919050565b615afb615af682614976565b615ae1565b82525050565b5f819050919050565b615b1b615b1682614a13565b615b01565b82525050565b5f615b2c8285615aea565b602082019150615b3c8284615b0a565b6020820191508190509392505050565b7f4e487b71000000000000000000000000000000000000000000000000000000005f52601160045260245ffd5b5f615b8382614a13565b9150615b8e83614a13565b9250828202615b9c81614a13565b91508282048414831517615bb357615bb2615b4c565b5b5092915050565b7f4e487b71000000000000000000000000000000000000000000000000000000005f52601260045260245ffd5b5f615bf182614a13565b9150615bfc83614a13565b925082615c0c57615c0b615bba565b5b828204905092915050565b5f615c2182614a13565b9150615c2c83614a13565b9250828201905080821115615c4457615c43615b4c565b5b92915050565b5f615c5482614a13565b9150615c5f83614a13565b9250828203905081811115615c7757615c76615b4c565b5b92915050565b615c8682614a45565b67ffffffffffffffff811115615c9f57615c9e6154f8565b5b615ca98254615456565b615cb4828285615640565b5f60209050601f831160018114615ce5575f8415615cd3578287015190505b615cdd85826156bb565b865550615d44565b601f198416615cf386615525565b5f5b82811015615d1a57848901518255600182019150602085019450602081019050615cf5565b86831015615d375784890151615d33601f89168261569f565b8355505b6001600288020188555050505b505050505050565b7f5061796d656e7450726f636573736f723a206e6f7420646973707574656400005f82015250565b5f615d80601e83614a4f565b9150615d8b82615d4c565b602082019050919050565b5f6020820190508181035f830152615dad81615d74565b9050919050565b7f5061796d656e7450726f636573736f723a20696e76616c6964207375627363725f8201527f697074696f6e2049440000000000000000000000000000000000000000000000602082015250565b5f615e0e602983614a4f565b9150615e1982615db4565b604082019050919050565b5f6020820190508181035f830152615e3b81615e02565b9050919050565b7f5061796d656e7450726f636573736f723a20737562736372697074696f6e20655f8201527f7869737473000000000000000000000000000000000000000000000000000000602082015250565b5f615e9c602583614a4f565b9150615ea782615e42565b604082019050919050565b5f6020820190508181035f830152615ec981615e90565b9050919050565b7f5061796d656e7450726f636573736f723a206d65726368616e74206e6f7420665f8201527f6f756e6400000000000000000000000000000000000000000000000000000000602082015250565b5f615f2a602483614a4f565b9150615f3582615ed0565b604082019050919050565b5f6020820190508181035f830152615f5781615f1e565b9050919050565b7f5061796d656e7450726f636573736f723a206d65726368616e74206e6f7420615f8201527f6374697665000000000000000000000000000000000000000000000000000000602082015250565b5f615fb8602583614a4f565b9150615fc382615f5e565b604082019050919050565b5f6020820190508181035f830152615fe581615fac565b9050919050565b7f5061796d656e7450726f636573736f723a20746f6b656e206e6f7420616363655f8201527f7074656400000000000000000000000000000000000000000000000000000000602082015250565b5f616046602483614a4f565b915061605182615fec565b604082019050919050565b5f6020820190508181035f8301526160738161603a565b9050919050565b7f5061796d656e7450726f636573736f723a20616d6f756e7420746f6f206c6f775f82015250565b5f6160ae602083614a4f565b91506160b98261607a565b602082019050919050565b5f6020820190508181035f8301526160db816160a2565b9050919050565b7f5061796d656e7450726f636573736f723a20696e76616c696420696e746572765f8201527f616c000000000000000000000000000000000000000000000000000000000000602082015250565b5f61613c602283614a4f565b9150616147826160e2565b604082019050919050565b5f6020820190508181035f83015261616981616130565b9050919050565b7f5061796d656e7450726f636573736f723a20696e76616c696420746f6b656e005f82015250565b5f6161a4601f83614a4f565b91506161af82616170565b602082019050919050565b5f6020820190508181035f8301526161d181616198565b9050919050565b7f5061796d656e7450726f636573736f723a2066656520746f6f206869676800005f82015250565b5f61620c601e83614a4f565b9150616217826161d8565b602082019050919050565b5f6020820190508181035f83015261623981616200565b9050919050565b5f6060820190506162535f830186614a04565b6162606020830185614a1c565b61626d6040830184614a36565b949350505050565b7f5061796d656e7450726f636573736f723a207061796d656e74206e6f7420666f5f8201527f756e640000000000000000000000000000000000000000000000000000000000602082015250565b5f6162cf602383614a4f565b91506162da82616275565b604082019050919050565b5f6020820190508181035f8301526162fc816162c3565b9050919050565b7f5061796d656e7450726f636573736f723a206e6f742070656e64696e670000005f82015250565b5f616337601d83614a4f565b915061634282616303565b602082019050919050565b5f6020820190508181035f8301526163648161632b565b9050919050565b7f5061796d656e7450726f636573736f723a206e6f7420617574686f72697a65645f82015250565b5f61639f602083614a4f565b91506163aa8261636b565b602082019050919050565b5f6020820190508181035f8301526163cc81616393565b9050919050565b7f5061796d656e7450726f636573736f723a206261746368206e6f7420666f756e5f8201527f6400000000000000000000000000000000000000000000000000000000000000602082015250565b5f61642d602183614a4f565b9150616438826163d3565b604082019050919050565b5f6020820190508181035f83015261645a81616421565b9050919050565b7f5061796d656e7450726f636573736f723a206e6f7420636f6d706c65746564005f82015250565b5f616495601f83614a4f565b91506164a082616461565b602082019050919050565b5f6020820190508181035f8301526164c281616489565b9050919050565b7f5061796d656e7450726f636573736f723a206e6f7420706179657200000000005f82015250565b5f6164fd601b83614a4f565b9150616508826164c9565b602082019050919050565b5f6020820190508181035f83015261652a816164f1565b9050919050565b7f5061796d656e7450726f636573736f723a20696e76616c69642066656520636f5f8201527f6c6c6563746f7200000000000000000000000000000000000000000000000000602082015250565b5f61658b602783614a4f565b915061659682616531565b604082019050919050565b5f6020820190508181035f8301526165b88161657f565b9050919050565b7f5061796d656e7450726f636573736f723a20696e76616c6964206d65726368615f8201527f6e74204944000000000000000000000000000000000000000000000000000000602082015250565b5f616619602583614a4f565b9150616624826165bf565b604082019050919050565b5f6020820190508181035f8301526166468161660d565b9050919050565b7f5061796d656e7450726f636573736f723a206d65726368616e742065786973745f8201527f7300000000000000000000000000000000000000000000000000000000000000602082015250565b5f6166a7602183614a4f565b91506166b28261664d565b604082019050919050565b5f6020820190508181035f8301526166d48161669b565b9050919050565b5f6040820190506166ee5f830185614a04565b6166fb6020830184614a1c565b9392505050565b7f5061796d656e7450726f636573736f723a20746f6b656e20616c7265616479205f8201527f6163636570746564000000000000000000000000000000000000000000000000602082015250565b5f61675c602883614a4f565b915061676782616702565b604082019050919050565b5f6020820190508181035f83015261678981616750565b9050919050565b7f5061796d656e7450726f636573736f723a20696e76616c6964207061796d656e5f8201527f7420494400000000000000000000000000000000000000000000000000000000602082015250565b5f6167ea602483614a4f565b91506167f582616790565b604082019050919050565b5f6020820190508181035f830152616817816167de565b9050919050565b7f5061796d656e7450726f636573736f723a207061796d656e74206578697374735f82015250565b5f616852602083614a4f565b915061685d8261681e565b602082019050919050565b5f6020820190508181035f83015261687f81616846565b9050919050565b7f5061796d656e7450726f636573736f723a2063616e6e6f7420726566756e64005f82015250565b5f6168ba601f83614a4f565b91506168c582616886565b602082019050919050565b5f6020820190508181035f8301526168e7816168ae565b9050919050565b5f6060820190506169015f830186614a04565b61690e6020830185614a04565b61691b6040830184614a1c565b94935050505056fea2646970667358221220cf6bfd303461467e59d740b823207050c3a21d1765f6968dfe4ae3b9c26889bc64736f6c63430008210033","linkReferences":{}},"methodIdentifiers":{"MAX_FEE_BPS()":"d55be8c6","MIN_PAYMENT_AMOUNT()":"1f922e5f","acceptedTokenList(uint256)":"0aae47fb","acceptedTokens(address)":"82dc4a05","addToken(address)":"d48bfca7","batchPaymentIds(bytes32,uint256)":"db2ddf43","batchPayments(bytes32)":"77a3f4a1","cancelSubscription(bytes32)":"d21f1ffc","completeBatchPayment(bytes32)":"61c1bae7","completePayment(bytes32)":"47ca8a8b","createBatchPayment(bytes32,bytes32,address,uint256,uint256)":"08832246","createPayment(bytes32,bytes32,address,address,uint256,string)":"d6544c69","createSubscription(bytes32,bytes32,address,address,uint256,uint256)":"4501c46e","disputePayment(bytes32)":"9c4dd6a2","failPayment(bytes32,string)":"619ab9a7","feeCollector()":"c415b95c","getAcceptedTokens()":"2f757006","getMerchantBatchPayments(bytes32)":"338e88a8","getMerchantConfig(bytes32)":"00b84b71","getPayment(bytes32)":"e66eefc8","getSubscriberSubscriptions(address)":"c31bb1e5","isPaused()":"b187bd26","merchantConfigs(bytes32)":"a19b8583","merchantIds(address,uint256)":"24432c52","owner()":"8da5cb5b","pause()":"8456cb59","paymentIds(uint256)":"9ba6737c","payments(bytes32)":"0716326d","processSubscriptionPayment(bytes32)":"12d91242","protocolFeeBps()":"35659fb8","refundPayment(bytes32)":"de8f8b3f","registerMerchant(bytes32,address,uint256)":"ced5fae8","removeToken(address)":"5fa7b584","renounceOwnership()":"715018a6","resolveDispute(bytes32,bool)":"43a0e3e6","setFeeCollector(address)":"a42dce80","setMerchantWebhook(bytes32,string)":"033b3cdf","setProtocolFee(uint256)":"787dce3d","subscriberSubscriptions(address,uint256)":"0bd0638b","subscriptionIds(uint256)":"8cafc358","subscriptions(bytes32)":"94259c6c","transferOwnership(address)":"f2fde38b","unpause()":"3f4ba83a","updateMerchant(bytes32,address,uint256,bool)":"473970d9"},"id":88}